{
  "contractName": "XBRChannel",
  "abi": [
    {
      "inputs": [
        {
          "internalType": "address",
          "name": "marketAdr",
          "type": "address"
        }
      ],
      "payable": false,
      "stateMutability": "nonpayable",
      "type": "constructor"
    },
    {
      "anonymous": false,
      "inputs": [
        {
          "indexed": true,
          "internalType": "bytes16",
          "name": "marketId",
          "type": "bytes16"
        },
        {
          "indexed": false,
          "internalType": "address",
          "name": "signer",
          "type": "address"
        },
        {
          "indexed": false,
          "internalType": "uint256",
          "name": "payout",
          "type": "uint256"
        },
        {
          "indexed": false,
          "internalType": "uint256",
          "name": "fee",
          "type": "uint256"
        },
        {
          "indexed": false,
          "internalType": "uint256",
          "name": "refund",
          "type": "uint256"
        },
        {
          "indexed": false,
          "internalType": "uint256",
          "name": "closedAt",
          "type": "uint256"
        }
      ],
      "name": "Closed",
      "type": "event"
    },
    {
      "anonymous": false,
      "inputs": [
        {
          "indexed": false,
          "internalType": "enum XBRTypes.ChannelType",
          "name": "ctype",
          "type": "uint8"
        },
        {
          "indexed": true,
          "internalType": "bytes16",
          "name": "marketId",
          "type": "bytes16"
        },
        {
          "indexed": false,
          "internalType": "address",
          "name": "signer",
          "type": "address"
        },
        {
          "indexed": false,
          "internalType": "uint256",
          "name": "payout",
          "type": "uint256"
        },
        {
          "indexed": false,
          "internalType": "uint256",
          "name": "fee",
          "type": "uint256"
        },
        {
          "indexed": false,
          "internalType": "uint256",
          "name": "refund",
          "type": "uint256"
        },
        {
          "indexed": false,
          "internalType": "uint256",
          "name": "timeoutAt",
          "type": "uint256"
        }
      ],
      "name": "Closing",
      "type": "event"
    },
    {
      "anonymous": false,
      "inputs": [
        {
          "indexed": true,
          "internalType": "address",
          "name": "account",
          "type": "address"
        }
      ],
      "name": "MaintainerAdded",
      "type": "event"
    },
    {
      "anonymous": false,
      "inputs": [
        {
          "indexed": true,
          "internalType": "address",
          "name": "account",
          "type": "address"
        }
      ],
      "name": "MaintainerRemoved",
      "type": "event"
    },
    {
      "anonymous": false,
      "inputs": [
        {
          "indexed": false,
          "internalType": "enum XBRTypes.ChannelType",
          "name": "ctype",
          "type": "uint8"
        },
        {
          "indexed": true,
          "internalType": "bytes16",
          "name": "marketId",
          "type": "bytes16"
        },
        {
          "indexed": true,
          "internalType": "bytes16",
          "name": "channelId",
          "type": "bytes16"
        },
        {
          "indexed": true,
          "internalType": "address",
          "name": "marketmaker",
          "type": "address"
        },
        {
          "indexed": false,
          "internalType": "address",
          "name": "actor",
          "type": "address"
        },
        {
          "indexed": false,
          "internalType": "address",
          "name": "delegate",
          "type": "address"
        },
        {
          "indexed": false,
          "internalType": "address",
          "name": "recepient",
          "type": "address"
        },
        {
          "indexed": false,
          "internalType": "uint256",
          "name": "amount",
          "type": "uint256"
        },
        {
          "indexed": false,
          "internalType": "uint32",
          "name": "timeout",
          "type": "uint32"
        }
      ],
      "name": "Opened",
      "type": "event"
    },
    {
      "constant": false,
      "inputs": [
        {
          "internalType": "address",
          "name": "account",
          "type": "address"
        }
      ],
      "name": "addMaintainer",
      "outputs": [],
      "payable": false,
      "stateMutability": "nonpayable",
      "type": "function"
    },
    {
      "constant": true,
      "inputs": [
        {
          "internalType": "bytes16",
          "name": "",
          "type": "bytes16"
        }
      ],
      "name": "channelClosingStates",
      "outputs": [
        {
          "internalType": "enum XBRTypes.ChannelState",
          "name": "state",
          "type": "uint8"
        },
        {
          "internalType": "uint256",
          "name": "closingAt",
          "type": "uint256"
        },
        {
          "internalType": "uint32",
          "name": "closingSeq",
          "type": "uint32"
        },
        {
          "internalType": "uint256",
          "name": "closingBalance",
          "type": "uint256"
        },
        {
          "internalType": "uint256",
          "name": "closedAt",
          "type": "uint256"
        },
        {
          "internalType": "uint32",
          "name": "closedSeq",
          "type": "uint32"
        },
        {
          "internalType": "uint256",
          "name": "closedBalance",
          "type": "uint256"
        },
        {
          "internalType": "bytes",
          "name": "delegateSignature",
          "type": "bytes"
        },
        {
          "internalType": "bytes",
          "name": "marketmakerSignature",
          "type": "bytes"
        }
      ],
      "payable": false,
      "stateMutability": "view",
      "type": "function"
    },
    {
      "constant": true,
      "inputs": [
        {
          "internalType": "bytes16",
          "name": "",
          "type": "bytes16"
        }
      ],
      "name": "channels",
      "outputs": [
        {
          "internalType": "uint256",
          "name": "created",
          "type": "uint256"
        },
        {
          "internalType": "uint32",
          "name": "seq",
          "type": "uint32"
        },
        {
          "internalType": "enum XBRTypes.ChannelType",
          "name": "ctype",
          "type": "uint8"
        },
        {
          "internalType": "bytes16",
          "name": "marketId",
          "type": "bytes16"
        },
        {
          "internalType": "address",
          "name": "marketmaker",
          "type": "address"
        },
        {
          "internalType": "address",
          "name": "actor",
          "type": "address"
        },
        {
          "internalType": "address",
          "name": "delegate",
          "type": "address"
        },
        {
          "internalType": "address",
          "name": "recipient",
          "type": "address"
        },
        {
          "internalType": "uint256",
          "name": "amount",
          "type": "uint256"
        },
        {
          "internalType": "uint32",
          "name": "timeout",
          "type": "uint32"
        },
        {
          "internalType": "bytes",
          "name": "signature",
          "type": "bytes"
        }
      ],
      "payable": false,
      "stateMutability": "view",
      "type": "function"
    },
    {
      "constant": true,
      "inputs": [
        {
          "internalType": "address",
          "name": "account",
          "type": "address"
        }
      ],
      "name": "isMaintainer",
      "outputs": [
        {
          "internalType": "bool",
          "name": "",
          "type": "bool"
        }
      ],
      "payable": false,
      "stateMutability": "view",
      "type": "function"
    },
    {
      "constant": true,
      "inputs": [],
      "name": "market",
      "outputs": [
        {
          "internalType": "contract XBRMarket",
          "name": "",
          "type": "address"
        }
      ],
      "payable": false,
      "stateMutability": "view",
      "type": "function"
    },
    {
      "constant": false,
      "inputs": [],
      "name": "renounceMaintainer",
      "outputs": [],
      "payable": false,
      "stateMutability": "nonpayable",
      "type": "function"
    },
    {
      "constant": false,
      "inputs": [
        {
          "internalType": "enum XBRTypes.ChannelType",
          "name": "ctype",
          "type": "uint8"
        },
        {
          "internalType": "uint256",
          "name": "openedAt",
          "type": "uint256"
        },
        {
          "internalType": "bytes16",
          "name": "marketId",
          "type": "bytes16"
        },
        {
          "internalType": "bytes16",
          "name": "channelId",
          "type": "bytes16"
        },
        {
          "internalType": "address",
          "name": "actor",
          "type": "address"
        },
        {
          "internalType": "address",
          "name": "delegate",
          "type": "address"
        },
        {
          "internalType": "address",
          "name": "recipient",
          "type": "address"
        },
        {
          "internalType": "uint256",
          "name": "amount",
          "type": "uint256"
        },
        {
          "internalType": "uint32",
          "name": "timeout",
          "type": "uint32"
        },
        {
          "internalType": "bytes",
          "name": "signature",
          "type": "bytes"
        }
      ],
      "name": "openChannel",
      "outputs": [],
      "payable": false,
      "stateMutability": "nonpayable",
      "type": "function"
    },
    {
      "constant": false,
      "inputs": [
        {
          "internalType": "bytes16",
          "name": "channelId",
          "type": "bytes16"
        },
        {
          "internalType": "uint32",
          "name": "closingChannelSeq",
          "type": "uint32"
        },
        {
          "internalType": "uint256",
          "name": "balance",
          "type": "uint256"
        },
        {
          "internalType": "bool",
          "name": "isFinal",
          "type": "bool"
        },
        {
          "internalType": "bytes",
          "name": "delegateSignature",
          "type": "bytes"
        },
        {
          "internalType": "bytes",
          "name": "marketmakerSignature",
          "type": "bytes"
        }
      ],
      "name": "closeChannel",
      "outputs": [],
      "payable": false,
      "stateMutability": "nonpayable",
      "type": "function"
    }
  ],
  "bytecode": "0x60806040526001805463ffffffff60a01b1916600160a01b1790553480156200002757600080fd5b5060405162003f2e38038062003f2e8339810160408190526200004a9162000195565b6200005e336001600160e01b036200008416565b600180546001600160a01b0319166001600160a01b039290921691909117905562000298565b6200009f816000620000d660201b6200282b1790919060201c565b6040516001600160a01b038216907f1390a149489c82e9e2e89927bdb17ad1ea3f0cc314fce06c96369721d3afb8f090600090a250565b620000eb82826001600160e01b036200013916565b15620001145760405162461bcd60e51b81526004016200010b906200023f565b60405180910390fd5b6001600160a01b0316600090815260209190915260409020805460ff19166001179055565b60006001600160a01b038216620001645760405162461bcd60e51b81526004016200010b9062000251565b506001600160a01b03811660009081526020839052604090205460ff165b92915050565b805162000182816200027e565b600060208284031215620001a857600080fd5b6000620001b6848462000188565b949350505050565b6000620001cd601f8362000263565b7f526f6c65733a206163636f756e7420616c72656164792068617320726f6c6500815260200192915050565b60006200020860228362000263565b7f526f6c65733a206163636f756e7420697320746865207a65726f206164647265815261737360f01b602082015260400192915050565b602080825281016200018281620001be565b602080825281016200018281620001f9565b90815260200190565b60006001600160a01b03821662000182565b62000289816200026c565b81146200029557600080fd5b50565b613c8680620002a86000396000f3fe608060405234801561001057600080fd5b50600436106100885760003560e01c806380f556051161005b57806380f556051461010557806387c729d91461011a578063932374991461012d578063dd57366a1461014057610088565b806323a658271461008d578063314db06b146100be5780635b10a199146100c85780636b453c1f146100f2575b600080fd5b6100a061009b366004612aeb565b610160565b6040516100b59998979695949392919061376d565b60405180910390f35b6100c66102cd565b005b6100db6100d6366004612aeb565b6102d8565b6040516100b59b9a99989796959493929190613a00565b6100c6610100366004612a89565b6103e0565b61010d6103fe565b6040516100b5919061375f565b6100c6610128366004612b09565b61040d565b6100c661013b366004612bde565b6114e7565b61015361014e366004612a89565b6126ed565b6040516100b5919061371b565b6003602081815260009283526040928390208054600180830154600280850154968501546004860154600587015460068801546007890180548d51601f6000199a831615610100029a909a01909116969096049788018b90048b0286018b01909c5286855260ff9097169a949963ffffffff908116999398929791169590949193928301828280156102335780601f1061020857610100808354040283529160200191610233565b820191906000526020600020905b81548152906001019060200180831161021657829003601f168201915b5050505060088301805460408051602060026001851615610100026000190190941693909304601f81018490048402820184019092528181529495949350908301828280156102c35780601f10610298576101008083540402835291602001916102c3565b820191906000526020600020905b8154815290600101906020018083116102a657829003601f168201915b5050505050905089565b6102d633612707565b565b6002602081815260009283526040928390208054600180830154838601546003850154600486015460058701546006880154600789015460088a0180548e516101009a8216159a909a0260001901169c909c04601f81018c90048c0289018c01909d528c8852979b63ffffffff8088169c640100000000890460ff169c600160281b90990460801b9b6001600160a01b039889169b9789169a96891699989095169793969190911694929091908301828280156103d65780601f106103ab576101008083540402835291602001916103d6565b820191906000526020600020905b8154815290600101906020018083116103b957829003601f168201915b505050505090508b565b6103e9336126ed565b6103f257600080fd5b6103fb8161274f565b50565b6001546001600160a01b031681565b6001600160801b031986166000908152600260205260409020600301546001600160a01b03166104585760405162461bcd60e51b815260040161044f90613990565b60405180910390fd5b6001600160801b0319861660009081526003602052604081205460ff16600481111561048057fe5b141561049e5760405162461bcd60e51b815260040161044f90613990565b60016001600160801b0319871660009081526003602052604090205460ff1660048111156104c857fe5b14806104fb575060026001600160801b0319871660009081526003602052604090205460ff1660048111156104f957fe5b145b6105175760405162461bcd60e51b815260040161044f90613820565b6001600160801b031986166000908152600260208181526040928390206004810154920154835160e0810180865260015463339cd7e560e11b90915294516001600160a01b03948516959285169473__XBRTypes______________________________9463989a750a94889493849390911691636739afca9160e4808601929190818703018186803b1580156105ac57600080fd5b505afa1580156105c0573d6000803e3d6000fd5b505050506040513d601f19601f820116820180604052506105e49190810190612bc0565b6001600160a01b03166359c8e6036040518163ffffffff1660e01b815260040160206040518083038186803b15801561061c57600080fd5b505afa158015610630573d6000803e3d6000fd5b505050506040513d601f19601f820116820180604052506106549190810190612ccf565b81526001546040805163339cd7e560e11b815290516020938401936001600160a01b0390931692636739afca9260048082019391829003018186803b15801561069c57600080fd5b505afa1580156106b0573d6000803e3d6000fd5b505050506040513d601f19601f820116820180604052506106d49190810190612bc0565b6001600160a01b031663a787d61b6040518163ffffffff1660e01b815260040160206040518083038186803b15801561070c57600080fd5b505afa158015610720573d6000803e3d6000fd5b505050506040513d601f19601f820116820180604052506107449190810190612aaf565b6001600160a01b031681526001600160801b0319808e1660008181526002602090815260409182902060010154600160281b9004608090811b909416908501528084019190915263ffffffff8e1660608401529082018c90528a151560a090920191909152516001600160e01b031960e085901b1681526107cb9291908990600401613692565b60206040518083038186803b1580156107e357600080fd5b505af41580156107f7573d6000803e3d6000fd5b505050506040513d601f19601f8201168201806040525061081b9190810190612acd565b6108375760405162461bcd60e51b815260040161044f906139c0565b73__XBRTypes______________________________63989a750a826040518060e00160405280600160009054906101000a90046001600160a01b03166001600160a01b0316636739afca6040518163ffffffff1660e01b815260040160206040518083038186803b1580156108ab57600080fd5b505afa1580156108bf573d6000803e3d6000fd5b505050506040513d601f19601f820116820180604052506108e39190810190612bc0565b6001600160a01b03166359c8e6036040518163ffffffff1660e01b815260040160206040518083038186803b15801561091b57600080fd5b505afa15801561092f573d6000803e3d6000fd5b505050506040513d601f19601f820116820180604052506109539190810190612ccf565b81526001546040805163339cd7e560e11b815290516020938401936001600160a01b0390931692636739afca9260048082019391829003018186803b15801561099b57600080fd5b505afa1580156109af573d6000803e3d6000fd5b505050506040513d601f19601f820116820180604052506109d39190810190612bc0565b6001600160a01b031663a787d61b6040518163ffffffff1660e01b815260040160206040518083038186803b158015610a0b57600080fd5b505afa158015610a1f573d6000803e3d6000fd5b505050506040513d601f19601f82011682018060405250610a439190810190612aaf565b6001600160a01b031681526001600160801b0319808e1660008181526002602090815260409182902060010154600160281b9004608090811b909416908501528084019190915263ffffffff8e1660608401529082018c90528a151560a090920191909152516001600160e01b031960e085901b168152610aca9291908890600401613692565b60206040518083038186803b158015610ae257600080fd5b505af4158015610af6573d6000803e3d6000fd5b505050506040513d601f19601f82011682018060405250610b1a9190810190612acd565b610b365760405162461bcd60e51b815260040161044f90613940565b6001600160801b03198816600090815260026020526040902060060154861115610b725760405162461bcd60e51b815260040161044f90613950565b60018763ffffffff161015610b995760405162461bcd60e51b815260040161044f90613860565b60026001600160801b0319891660009081526003602052604090205460ff166004811115610bc357fe5b1415610c82576001600160801b0319881660009081526003602052604090206004015415610c035760405162461bcd60e51b815260040161044f906138a0565b6001600160801b031988166000908152600360205260409020600101544210610c3e5760405162461bcd60e51b815260040161044f90613850565b6001600160801b0319881660009081526003602052604090206002015463ffffffff808916911610610c825760405162461bcd60e51b815260040161044f906138b0565b6001600160801b03198816600090815260026020818152604080842060060154600390925290922001549087900390879060648304908184039063ffffffff908116908c161115610e47576001600160801b03198c1660009081526003602052604090206002015463ffffffff1615610d32576001600160801b03198c16600090815260036020819052604090912001548a1115610d325760405162461bcd60e51b815260040161044f906139f0565b6001600160801b03198c16600090815260036020526040902080546002919060ff191660018302179055508a600360008e6001600160801b0319166001600160801b031916815260200190815260200160002060020160006101000a81548163ffffffff021916908363ffffffff16021790555089600360008e6001600160801b0319166001600160801b031916815260200190815260200160002060030181905550600260008d6001600160801b0319166001600160801b031916815260200190815260200160002060070160009054906101000a900463ffffffff1663ffffffff164201600360008e6001600160801b0319166001600160801b0319168152602001908152602001600020600101819055505b8880610e51575089155b80610eaa575060026001600160801b03198d1660009081526003602052604090205460ff166004811115610e8157fe5b148015610eaa57506001600160801b03198c166000908152600360205260409020600101544210155b156114d957801561106757600160009054906101000a90046001600160a01b03166001600160a01b0316636739afca6040518163ffffffff1660e01b815260040160206040518083038186803b158015610f0357600080fd5b505afa158015610f17573d6000803e3d6000fd5b505050506040513d601f19601f82011682018060405250610f3b9190810190612bc0565b6001600160a01b031663fc0c546a6040518163ffffffff1660e01b815260040160206040518083038186803b158015610f7357600080fd5b505afa158015610f87573d6000803e3d6000fd5b505050506040513d601f19601f82011682018060405250610fab9190810190612bc0565b6001600160801b03198d166000908152600260205260409081902060050154905163a9059cbb60e01b81526001600160a01b039283169263a9059cbb92610ff99291169085906004016136f9565b602060405180830381600087803b15801561101357600080fd5b505af1158015611027573d6000803e3d6000fd5b505050506040513d601f19601f8201168201806040525061104b9190810190612acd565b6110675760405162461bcd60e51b815260040161044f906139d0565b821561121f57600160009054906101000a90046001600160a01b03166001600160a01b0316636739afca6040518163ffffffff1660e01b815260040160206040518083038186803b1580156110bb57600080fd5b505afa1580156110cf573d6000803e3d6000fd5b505050506040513d601f19601f820116820180604052506110f39190810190612bc0565b6001600160a01b031663fc0c546a6040518163ffffffff1660e01b815260040160206040518083038186803b15801561112b57600080fd5b505afa15801561113f573d6000803e3d6000fd5b505050506040513d601f19601f820116820180604052506111639190810190612bc0565b6001600160801b03198d166000908152600260205260409081902060030154905163a9059cbb60e01b81526001600160a01b039283169263a9059cbb926111b19291169087906004016136f9565b602060405180830381600087803b1580156111cb57600080fd5b505af11580156111df573d6000803e3d6000fd5b505050506040513d601f19601f820116820180604052506112039190810190612acd565b61121f5760405162461bcd60e51b815260040161044f90613910565b81156114ab57600160009054906101000a90046001600160a01b03166001600160a01b0316636739afca6040518163ffffffff1660e01b815260040160206040518083038186803b15801561127357600080fd5b505afa158015611287573d6000803e3d6000fd5b505050506040513d601f19601f820116820180604052506112ab9190810190612bc0565b6001600160a01b031663fc0c546a6040518163ffffffff1660e01b815260040160206040518083038186803b1580156112e357600080fd5b505afa1580156112f7573d6000803e3d6000fd5b505050506040513d601f19601f8201168201806040525061131b9190810190612bc0565b6001600160a01b031663a9059cbb600160009054906101000a90046001600160a01b03166001600160a01b0316636739afca6040518163ffffffff1660e01b815260040160206040518083038186803b15801561137757600080fd5b505afa15801561138b573d6000803e3d6000fd5b505050506040513d601f19601f820116820180604052506113af9190810190612bc0565b6001600160a01b03166323bd4d7a6040518163ffffffff1660e01b815260040160206040518083038186803b1580156113e757600080fd5b505afa1580156113fb573d6000803e3d6000fd5b505050506040513d601f19601f8201168201806040525061141f9190810190612aaf565b846040518363ffffffff1660e01b815260040161143d9291906136f9565b602060405180830381600087803b15801561145757600080fd5b505af115801561146b573d6000803e3d6000fd5b505050506040513d601f19601f8201168201806040525061148f9190810190612acd565b6114ab5760405162461bcd60e51b815260040161044f90613830565b6001600160801b03198c166000908152600360208190526040909120426004820155805460ff191690911790555b505050505050505050505050565b600154604051630ab3a2e760e31b81526000916001600160a01b03169063559d173890611518908c90600401613729565b60206040518083038186803b15801561153057600080fd5b505afa158015611544573d6000803e3d6000fd5b505050506040513d601f19601f820116820180604052506115689190810190612aaf565b6001600160a01b0316141561158f5760405162461bcd60e51b815260040161044f90613920565b6001600160801b031987166000908152600260205260409020600301546001600160a01b0316156115d25760405162461bcd60e51b815260040161044f90613870565b6001546040805163339cd7e560e11b815290516000926001600160a01b031691636739afca916004808301926020929190829003018186803b15801561161757600080fd5b505afa15801561162b573d6000803e3d6000fd5b505050506040513d601f19601f8201168201806040525061164f9190810190612bc0565b6001600160a01b03166308ae4b0c886040518263ffffffff1660e01b815260040161167a9190613684565b60006040518083038186803b15801561169257600080fd5b505afa1580156116a6573d6000803e3d6000fd5b505050506040513d6000823e601f3d908101601f191682016040526116ce9190810190612ced565b509350600192506116dd915050565b8160058111156116e957fe5b1480611700575060028160058111156116fe57fe5b145b61171c5760405162461bcd60e51b815260040161044f90613970565b6001600160a01b0386166117425760405162461bcd60e51b815260040161044f90613840565b6001546040805163339cd7e560e11b815290516000926001600160a01b031691636739afca916004808301926020929190829003018186803b15801561178757600080fd5b505afa15801561179b573d6000803e3d6000fd5b505050506040513d601f19601f820116820180604052506117bf9190810190612bc0565b6001600160a01b03166308ae4b0c876040518263ffffffff1660e01b81526004016117ea9190613684565b60006040518083038186803b15801561180257600080fd5b505afa158015611816573d6000803e3d6000fd5b505050506040513d6000823e601f3d908101601f1916820160405261183e9190810190612ced565b5093506001925061184d915050565b81600581111561185957fe5b14806118705750600281600581111561186e57fe5b145b61188c5760405162461bcd60e51b815260040161044f906138f0565b60018c600281111561189a57fe5b1415611ab95760015460405163bc385fcd60e01b81526001600160a01b039091169063bc385fcd906118d0908d90600401613729565b60206040518083038186803b1580156118e857600080fd5b505afa1580156118fc573d6000803e3d6000fd5b505050506040513d601f19601f820116820180604052506119209190810190612aaf565b6001600160a01b0316336001600160a01b031614806119475750336001600160a01b038916145b6119635760405162461bcd60e51b815260040161044f906139b0565b600154604051633d1fbba160e01b81526001600160a01b0390911690633d1fbba190611998908d908c90600290600401613737565b60206040518083038186803b1580156119b057600080fd5b505afa1580156119c4573d6000803e3d6000fd5b505050506040513d601f19601f820116820180604052506119e89190810190612acd565b611a045760405162461bcd60e51b815260040161044f906138c0565b600154604051630ab3a2e760e31b81526001600160a01b039091169063559d173890611a34908d90600401613729565b60206040518083038186803b158015611a4c57600080fd5b505afa158015611a60573d6000803e3d6000fd5b505050506040513d601f19601f82011682018060405250611a849190810190612aaf565b6001600160a01b0316866001600160a01b031614611ab45760405162461bcd60e51b815260040161044f90613930565b611d80565b60028c6002811115611ac757fe5b1415611d685760015460405163bc385fcd60e01b81526001600160a01b039091169063bc385fcd90611afd908d90600401613729565b60206040518083038186803b158015611b1557600080fd5b505afa158015611b29573d6000803e3d6000fd5b505050506040513d601f19601f82011682018060405250611b4d9190810190612aaf565b6001600160a01b0316336001600160a01b03161480611bfc5750600154604051630ab3a2e760e31b81526001600160a01b039091169063559d173890611b97908d90600401613729565b60206040518083038186803b158015611baf57600080fd5b505afa158015611bc3573d6000803e3d6000fd5b505050506040513d601f19601f82011682018060405250611be79190810190612aaf565b6001600160a01b0316336001600160a01b0316145b611c185760405162461bcd60e51b815260040161044f90613960565b600154604051630ab3a2e760e31b81526001600160a01b039091169063559d173890611c48908d90600401613729565b60206040518083038186803b158015611c6057600080fd5b505afa158015611c74573d6000803e3d6000fd5b505050506040513d601f19601f82011682018060405250611c989190810190612aaf565b6001600160a01b0316886001600160a01b031614611cc85760405162461bcd60e51b815260040161044f90613880565b60018054604051633d1fbba160e01b81526001600160a01b0390911691633d1fbba191611cfc918e918b9190600401613737565b60206040518083038186803b158015611d1457600080fd5b505afa158015611d28573d6000803e3d6000fd5b505050506040513d601f19601f82011682018060405250611d4c9190810190612acd565b611ab45760405162461bcd60e51b815260040161044f906138e0565b60405162461bcd60e51b815260040161044f906139e0565b438b11158015611d935750600443038b10155b611daf5760405162461bcd60e51b815260040161044f90613890565b600085118015611f245750600160009054906101000a90046001600160a01b03166001600160a01b0316636739afca6040518163ffffffff1660e01b815260040160206040518083038186803b158015611e0857600080fd5b505afa158015611e1c573d6000803e3d6000fd5b505050506040513d601f19601f82011682018060405250611e409190810190612bc0565b6001600160a01b031663fc0c546a6040518163ffffffff1660e01b815260040160206040518083038186803b158015611e7857600080fd5b505afa158015611e8c573d6000803e3d6000fd5b505050506040513d601f19601f82011682018060405250611eb09190810190612bc0565b6001600160a01b03166318160ddd6040518163ffffffff1660e01b815260040160206040518083038186803b158015611ee857600080fd5b505afa158015611efc573d6000803e3d6000fd5b505050506040513d601f19601f82011682018060405250611f209190810190612ccf565b8511155b611f405760405162461bcd60e51b815260040161044f90613810565b620d2f008463ffffffff1610611f685760405162461bcd60e51b815260040161044f90613980565b611f70612877565b604051806101800160405280600160009054906101000a90046001600160a01b03166001600160a01b0316636739afca6040518163ffffffff1660e01b815260040160206040518083038186803b158015611fca57600080fd5b505afa158015611fde573d6000803e3d6000fd5b505050506040513d601f19601f820116820180604052506120029190810190612bc0565b6001600160a01b03166359c8e6036040518163ffffffff1660e01b815260040160206040518083038186803b15801561203a57600080fd5b505afa15801561204e573d6000803e3d6000fd5b505050506040513d601f19601f820116820180604052506120729190810190612ccf565b81526001546040805163339cd7e560e11b815290516020938401936001600160a01b0390931692636739afca9260048082019391829003018186803b1580156120ba57600080fd5b505afa1580156120ce573d6000803e3d6000fd5b505050506040513d601f19601f820116820180604052506120f29190810190612bc0565b6001600160a01b031663a787d61b6040518163ffffffff1660e01b815260040160206040518083038186803b15801561212a57600080fd5b505afa15801561213e573d6000803e3d6000fd5b505050506040513d601f19601f820116820180604052506121629190810190612aaf565b6001600160a01b031681526020018e600281111561217c57fe5b60ff1681526020018d81526020018c6001600160801b03191681526020018b6001600160801b0319168152602001600160009054906101000a90046001600160a01b03166001600160a01b031663bc385fcd8e6040518263ffffffff1660e01b81526004016121eb9190613729565b60206040518083038186803b15801561220357600080fd5b505afa158015612217573d6000803e3d6000fd5b505050506040513d601f19601f8201168201806040525061223b9190810190612aaf565b6001600160a01b031681526020018a6001600160a01b03168152602001896001600160a01b03168152602001886001600160a01b031681526020018781526020018663ffffffff16815250905073__XBRTypes______________________________6310e78f7d8a83876040518463ffffffff1660e01b81526004016122c3939291906136ca565b60206040518083038186803b1580156122db57600080fd5b505af41580156122ef573d6000803e3d6000fd5b505050506040513d601f19601f820116820180604052506123139190810190612acd565b61232f5760405162461bcd60e51b815260040161044f906139a0565b60408051610160810182528d8152600154600160a01b900463ffffffff1660208201529081018e600281111561236157fe5b81526020018c6001600160801b0319168152602001600160009054906101000a90046001600160a01b03166001600160a01b031663bc385fcd8e6040518263ffffffff1660e01b81526004016123b79190613729565b60206040518083038186803b1580156123cf57600080fd5b505afa1580156123e3573d6000803e3d6000fd5b505050506040513d601f19601f820116820180604052506124079190810190612aaf565b6001600160a01b0390811682528b81166020808401919091528b8216604080850191909152918b166060840152608083018a905263ffffffff89811660a085015260c09093018890526001600160801b03198e166000908152600280835290839020855181559185015160018301805463ffffffff19169190951617808555928501519193919264ff000000001916906401000000009084908111156124a957fe5b0217905550606082015160018201805474ffffffffffffffffffffffffffffffff00000000001916600160281b608093841c021790558201516002820180546001600160a01b03199081166001600160a01b039384161790915560a0840151600384018054831691841691909117905560c0840151600484018054831691841691909117905560e08401516005840180549092169216919091179055610100820151600682015561012082015160078201805463ffffffff191663ffffffff909216919091179055610140820151805161258d9160088401916020909101906128db565b505060408051610120810190915290508060018152600060208083018290526040808401839052606084018390526080840183905260a0840183905260c084018390528051808301825283815260e085015280518083018252838152610100909401939093526001600160801b03198e168252600390522081518154829060ff1916600183600481111561261d57fe5b02179055506020828101516001830155604083015160028301805463ffffffff92831663ffffffff1991821617909155606085015160038501556080850151600485015560a085015160058501805491909316911617905560c0830151600683015560e0830151805161269692600785019201906128db565b5061010082015180516126b39160088401916020909101906128db565b50506001805463ffffffff600160a01b808304821684019091160263ffffffff60a01b199091161790555050505050505050505050505050565b60006126ff818363ffffffff61279716565b90505b919050565b61271860008263ffffffff6127e316565b6040516001600160a01b038216907fa7b36d52bea726c3aa90d876d0e52a1089a347b3e3408a03f08eae32f96fdbb490600090a250565b61276060008263ffffffff61282b16565b6040516001600160a01b038216907f1390a149489c82e9e2e89927bdb17ad1ea3f0cc314fce06c96369721d3afb8f090600090a250565b60006001600160a01b0382166127bf5760405162461bcd60e51b815260040161044f90613900565b506001600160a01b03811660009081526020839052604090205460ff165b92915050565b6127ed8282612797565b6128095760405162461bcd60e51b815260040161044f906138d0565b6001600160a01b0316600090815260209190915260409020805460ff19169055565b6128358282612797565b156128525760405162461bcd60e51b815260040161044f90613800565b6001600160a01b0316600090815260209190915260409020805460ff19166001179055565b6040805161018081018252600080825260208201819052918101829052606081018290526080810182905260a0810182905260c0810182905260e0810182905261010081018290526101208101829052610140810182905261016081019190915290565b828054600181600116156101000203166002900490600052602060002090601f016020900481019282601f1061291c57805160ff1916838001178555612949565b82800160010185558215612949579182015b8281111561294957825182559160200191906001019061292e565b50612955929150612959565b5090565b61297391905b80821115612955576000815560010161295f565b90565b80356127dd81613be8565b80516127dd81613be8565b80356127dd81613bfc565b80516127dd81613bfc565b80356127dd81613c05565b600082601f8301126129be57600080fd5b81516129d16129cc82613ad1565b613aaa565b915080825260208301602083018583830111156129ed57600080fd5b6129f8838284613b94565b50505092915050565b600082601f830112612a1257600080fd5b8135612a206129cc82613ad1565b91508082526020830160208301858383011115612a3c57600080fd5b6129f8838284613b88565b80516127dd81613c0e565b80356127dd81613c17565b80516127dd81613c24565b80356127dd81613c31565b80516127dd81613c31565b80356127dd81613c3a565b600060208284031215612a9b57600080fd5b6000612aa78484612976565b949350505050565b600060208284031215612ac157600080fd5b6000612aa78484612981565b600060208284031215612adf57600080fd5b6000612aa78484612997565b600060208284031215612afd57600080fd5b6000612aa784846129a2565b60008060008060008060c08789031215612b2257600080fd5b6000612b2e89896129a2565b9650506020612b3f89828a01612a7e565b9550506040612b5089828a01612a68565b9450506060612b6189828a0161298c565b935050608087013567ffffffffffffffff811115612b7e57600080fd5b612b8a89828a01612a01565b92505060a087013567ffffffffffffffff811115612ba757600080fd5b612bb389828a01612a01565b9150509295509295509295565b600060208284031215612bd257600080fd5b6000612aa78484612a47565b6000806000806000806000806000806101408b8d031215612bfe57600080fd5b6000612c0a8d8d612a52565b9a50506020612c1b8d828e01612a68565b9950506040612c2c8d828e016129a2565b9850506060612c3d8d828e016129a2565b9750506080612c4e8d828e01612976565b96505060a0612c5f8d828e01612976565b95505060c0612c708d828e01612976565b94505060e0612c818d828e01612a68565b935050610100612c938d828e01612a7e565b9250506101208b013567ffffffffffffffff811115612cb157600080fd5b612cbd8d828e01612a01565b9150509295989b9194979a5092959850565b600060208284031215612ce157600080fd5b6000612aa78484612a73565b600080600080600060a08688031215612d0557600080fd5b6000612d118888612a73565b955050602086015167ffffffffffffffff811115612d2e57600080fd5b612d3a888289016129ad565b945050604086015167ffffffffffffffff811115612d5757600080fd5b612d63888289016129ad565b9350506060612d7488828901612a5d565b925050608086015167ffffffffffffffff811115612d9157600080fd5b612d9d888289016129ad565b9150509295509295909350565b612db381613b06565b82525050565b612db381613b11565b612db381613b16565b6000612dd682613af9565b612de08185613afd565b9350612df0818560208601613b94565b612df981613bc0565b9093019392505050565b612db381613b23565b612db381613b67565b612db381613b72565b612db381613b7d565b6000612e34601f83613afd565b7f526f6c65733a206163636f756e7420616c72656164792068617320726f6c6500815260200192915050565b6000612e6d601683613afd565b751253959053125117d0d2105393915317d05353d5539560521b815260200192915050565b6000612e9f601083613afd565b6f21a420a72722a62fa727aa2fa7a822a760811b815260200192915050565b6000612ecb602183613afd565b7f4348414e4e454c5f434c4f53455f4645455f5452414e534645525f4641494c458152601160fa1b602082015260400192915050565b6000612f0e601883613afd565b7f494e56414c49445f4348414e4e454c5f44454c45474154450000000000000000815260200192915050565b6000612f47600f83613afd565b6e10d2105393915317d512535153d555608a1b815260200192915050565b6000612f72601383613afd565b72494e56414c49445f434c4f53494e475f53455160681b815260200192915050565b6000612fa1601e83613afd565b7f494e56414c49445f4348414e4e454c5f414c52454144595f4558495354530000815260200192915050565b6000612fda601083613afd565b6f1050d513d497d393d517d3505492d15560821b815260200192915050565b6000613006601f83613afd565b7f494e56414c49445f524547495354455245445f424c4f434b5f4e554d42455200815260200192915050565b600061303f602083613afd565b7f494e5445524e414c5f4552524f525f434c4f5345445f41545f4e4f4e5a45524f815260200192915050565b6000613078601483613afd565b7327aaaa2220aa22a22faa2920a729a0a1aa24a7a760611b815260200192915050565b60006130a8601283613afd565b7120a1aa27a92fa727aa2fa1a7a729aaa6a2a960711b815260200192915050565b60006130d6602183613afd565b7f526f6c65733a206163636f756e7420646f6573206e6f74206861766520726f6c8152606560f81b602082015260400192915050565b6000613119601683613afd565b752922a1a4a824a2a72a2fa727aa2fa82927ab24a222a960511b815260200192915050565b600061314b601983613afd565b7f494e56414c49445f4348414e4e454c5f524543495049454e5400000000000000815260200192915050565b6000613184602283613afd565b7f526f6c65733a206163636f756e7420697320746865207a65726f206164647265815261737360f01b602082015260400192915050565b60006131c8602483613afd565b7f4348414e4e454c5f434c4f53455f524546554e445f5452414e534645525f46418152631253115160e21b602082015260400192915050565b600061320e600e83613afd565b6d1393d7d4d550d217d3505492d15560921b815260200192915050565b6000613238601483613afd565b73149150d2541251539517d393d517d3505492d15560621b815260200192915050565b6000613268601d83613afd565b7f494e56414c49445f4d41524b45544d414b45525f5349474e4154555245000000815260200192915050565b60006132a1601783613afd565b7f494e56414c49445f434c4f53494e475f42414c414e4345000000000000000000815260200192915050565b60006132da601f83613afd565b7f53454e4445525f4e4f545f4d41524b45544d414b45525f4f525f4f574e455200815260200192915050565b6000613313601583613afd565b7424a72b20a624a22fa1a420a72722a62fa0a1aa27a960591b815260200192915050565b6000613344601783613afd565b7f494e56414c49445f4348414e4e454c5f54494d454f5554000000000000000000815260200192915050565b600061337d600f83613afd565b6e1393d7d4d550d217d0d21053939153608a1b815260200192915050565b60006133a8601983613afd565b7f494e56414c49445f4348414e4e454c5f5349474e415455524500000000000000815260200192915050565b60006133e1601f83613afd565b7f53454e4445525f4e4f545f4d41524b45544d414b45525f4f525f425559455200815260200192915050565b600061341a601a83613afd565b7f494e56414c49445f44454c45474154455f5349474e4154555245000000000000815260200192915050565b6000613453602483613afd565b7f4348414e4e454c5f434c4f53455f5041594f55545f5452414e534645525f46418152631253115160e21b602082015260400192915050565b6000613499601483613afd565b73494e56414c49445f4348414e4e454c5f5459504560601b815260200192915050565b60006134c9601c83613afd565b7f5452414e53414354494f4e5f42414c414e43455f4f5554444154454400000000815260200192915050565b805160e08301906135068482613669565b5060208201516135196020850182612daa565b50604082015161352c6040850182612dc2565b50606082015161353f6060850182612dc2565b5060808201516135526080850182613672565b5060a082015161356560a0850182613669565b5060c082015161357860c0850182612db9565b50505050565b80516101808301906135908482613669565b5060208201516135a36020850182612daa565b5060408201516135b6604085018261367b565b5060608201516135c96060850182613669565b5060808201516135dc6080850182612dc2565b5060a08201516135ef60a0850182612dc2565b5060c082015161360260c0850182612daa565b5060e082015161361560e0850182612daa565b5061010082015161362a610100850182612daa565b5061012082015161363f610120850182612daa565b50610140820151613654610140850182613669565b50610160820151613578610160850182613672565b612db381612973565b612db381613b58565b612db381613b61565b602081016127dd8284612daa565b61012081016136a18286612daa565b6136ae60208301856134f5565b8181036101008301526136c18184612dcb565b95945050505050565b6101c081016136d98286612daa565b6136e6602083018561357e565b8181036101a08301526136c18184612dcb565b604081016137078285612daa565b6137146020830184613669565b9392505050565b602081016127dd8284612db9565b602081016127dd8284612dc2565b606081016137458286612dc2565b6137526020830185612daa565b612aa76040830184612e0c565b602081016127dd8284612e03565b610120810161377c828c612e15565b613789602083018b613669565b613796604083018a613672565b6137a36060830189613669565b6137b06080830188613669565b6137bd60a0830187613672565b6137ca60c0830186613669565b81810360e08301526137dc8185612dcb565b90508181036101008301526137f18184612dcb565b9b9a5050505050505050505050565b602080825281016126ff81612e27565b602080825281016126ff81612e60565b602080825281016126ff81612e92565b602080825281016126ff81612ebe565b602080825281016126ff81612f01565b602080825281016126ff81612f3a565b602080825281016126ff81612f65565b602080825281016126ff81612f94565b602080825281016126ff81612fcd565b602080825281016126ff81612ff9565b602080825281016126ff81613032565b602080825281016126ff8161306b565b602080825281016126ff8161309b565b602080825281016126ff816130c9565b602080825281016126ff8161310c565b602080825281016126ff8161313e565b602080825281016126ff81613177565b602080825281016126ff816131bb565b602080825281016126ff81613201565b602080825281016126ff8161322b565b602080825281016126ff8161325b565b602080825281016126ff81613294565b602080825281016126ff816132cd565b602080825281016126ff81613306565b602080825281016126ff81613337565b602080825281016126ff81613370565b602080825281016126ff8161339b565b602080825281016126ff816133d4565b602080825281016126ff8161340d565b602080825281016126ff81613446565b602080825281016126ff8161348c565b602080825281016126ff816134bc565b6101608101613a0f828e613669565b613a1c602083018d613672565b613a29604083018c612e1e565b613a36606083018b612dc2565b613a43608083018a612daa565b613a5060a0830189612daa565b613a5d60c0830188612daa565b613a6a60e0830187612daa565b613a78610100830186613669565b613a86610120830185613672565b818103610140830152613a998184612dcb565b9d9c50505050505050505050505050565b60405181810167ffffffffffffffff81118282101715613ac957600080fd5b604052919050565b600067ffffffffffffffff821115613ae857600080fd5b506020601f91909101601f19160190565b5190565b90815260200190565b60006126ff82613b4c565b151590565b6001600160801b03191690565b60006126ff82613b06565b8061270281613bca565b8061270281613bd4565b8061270281613bde565b6001600160a01b031690565b63ffffffff1690565b60ff1690565b60006126ff82613b2e565b60006126ff82613b38565b60006126ff82613b42565b82818337506000910152565b60005b83811015613baf578181015183820152602001613b97565b838111156135785750506000910152565b601f01601f191690565b600481106103fb57fe5b600581106103fb57fe5b600381106103fb57fe5b613bf181613b06565b81146103fb57600080fd5b613bf181613b11565b613bf181613b16565b613bf181613b23565b600381106103fb57600080fd5b600681106103fb57600080fd5b613bf181612973565b613bf181613b5856fea365627a7a723158201187074bc023b4ebc2a52621134fe6f1b33fbd7e7ca32560c1d4878e5f3cb9cb6c6578706572696d656e74616cf564736f6c63430005100040",
  "source": "///////////////////////////////////////////////////////////////////////////////\n//\n//  Copyright (C) 2018-2020 Crossbar.io Technologies GmbH and contributors.\n//\n//  Licensed under the Apache License, Version 2.0 (the \"License\");\n//  you may not use this file except in compliance with the License.\n//  You may obtain a copy of the License at\n//\n//      http://www.apache.org/licenses/LICENSE-2.0\n//\n//  Unless required by applicable law or agreed to in writing, software\n//  distributed under the License is distributed on an \"AS IS\" BASIS,\n//  WITHOUT WARRANTIES OR CONDITIONS OF ANY KIND, either express or implied.\n//  See the License for the specific language governing permissions and\n//  limitations under the License.\n//\n///////////////////////////////////////////////////////////////////////////////\n\npragma solidity ^0.5.12;\npragma experimental ABIEncoderV2;\n\n// https://openzeppelin.org/api/docs/math_SafeMath.html\nimport \"openzeppelin-solidity/contracts/math/SafeMath.sol\";\n\n// https://openzeppelin.org/api/docs/cryptography_ECDSA.html\nimport \"openzeppelin-solidity/contracts/cryptography/ECDSA.sol\";\n\nimport \"./XBRMaintained.sol\";\nimport \"./XBRTypes.sol\";\nimport \"./XBRToken.sol\";\nimport \"./XBRNetwork.sol\";\nimport \"./XBRMarket.sol\";\n\n\n/**\n * XBR Payment/Paying Channel between a XBR data consumer and the XBR market maker,\n * or the XBR Market Maker and a XBR data provider.\n */\ncontract XBRChannel is XBRMaintained {\n\n    // Add safe math functions to uint256 using SafeMath lib from OpenZeppelin\n    using SafeMath for uint256;\n\n    // Add recover method for bytes32 using ECDSA lib from OpenZeppelin\n    using ECDSA for bytes32;\n\n    /// Event emittedd when a new XBR data market has opened.\n    event Opened(XBRTypes.ChannelType ctype, bytes16 indexed marketId, bytes16 indexed channelId,\n        address indexed marketmaker, address actor, address delegate, address recepient,\n        uint256 amount, uint32 timeout);\n\n    /**\n     * Event emitted when payment channel is closing (that is, one of the two state channel\n     * participants has called \"close()\", initiating start of the channel timeout).\n     */\n    event Closing(XBRTypes.ChannelType ctype, bytes16 indexed marketId, address signer, uint256 payout, uint256 fee,\n        uint256 refund, uint256 timeoutAt);\n\n    /**\n     * Event emitted when payment channel has finally closed, which happens after both state\n     * channel participants have called close(), agreeing on last state, or after the timeout\n     * at latest - in case the second participant doesn't react within timeout)\n     */\n    event Closed(bytes16 indexed marketId, address signer, uint256 payout, uint256 fee,\n        uint256 refund, uint256 closedAt);\n\n    /// Instance of XBRMarket contract this contract is linked to.\n    XBRMarket public market;\n\n    /// Created channels are sequence numbered using this counter (to allow deterministic collision-free IDs for channels)\n    uint32 private channelSeq = 1;\n\n    /// Table of all XBR Channels.\n    mapping(bytes16 => XBRTypes.Channel) public channels;\n\n    /// Table of all XBR Channel closing states.\n    mapping(bytes16 => XBRTypes.ChannelClosingState) public channelClosingStates;\n\n    /// Constructor for this contract, only called once (when deploying the network).\n    ///\n    /// @param marketAdr The XBR markets contract this instance is associated with.\n    constructor (address marketAdr) public {\n        market = XBRMarket(marketAdr);\n    }\n\n    /// Open a new XBR payment/paying channel for processing off-chain micro-transactions.\n    ///\n    /// @param ctype Channel type: payment or paying channel.\n    /// @param openedAt Block number when the channel opening signature was created.\n    /// @param marketId The ID of the XBR market this channel is associated with.\n    /// @param channelId The ID of the new XBR channel (must be unique).\n    /// @param actor The actor (buyer/seller in the market) that opened this channel.\n    /// @param delegate The delegate (off-chain) allowed to spend/earn-on this channel (off-chain)\n    ///  in the name of the actor (buyer/seller in the market).\n    /// @param recipient The receiver (on-chain) of the channel payout.\n    /// @param amount The amount initially transfered to and held in the channel until closed.\n    /// @param timeout The channel timeout period that begins with the first call to `close()`\n    /// @param signature EIP712 signature, signed by the member.\n    function openChannel (XBRTypes.ChannelType ctype, uint256 openedAt, bytes16 marketId, bytes16 channelId,\n        address actor, address delegate, address recipient, uint256 amount,\n        uint32 timeout, bytes memory signature) public {\n\n        // market must exist\n        require(market.getMarketOwner(marketId) != address(0), \"NO_SUCH_MARKET\");\n\n        // channel must not yet exist\n        require(channels[channelId].actor == address(0), \"INVALID_CHANNEL_ALREADY_EXISTS\");\n\n        // the actor (buyer/seller in the market) must be a registered member\n        (, , , XBRTypes.MemberLevel actor_member_level, ) = market.network().members(actor);\n        require(actor_member_level == XBRTypes.MemberLevel.ACTIVE ||\n                actor_member_level == XBRTypes.MemberLevel.VERIFIED, \"INVALID_CHANNEL_ACTOR\");\n\n        // must provide a valid delegate address, but the delegate doesn't need to be member!\n        require(delegate != address(0), \"INVALID_CHANNEL_DELEGATE\");\n\n        // the recepient must be a registered member\n        (, , , XBRTypes.MemberLevel recipient_member_level, ) = market.network().members(recipient);\n        require(recipient_member_level == XBRTypes.MemberLevel.ACTIVE ||\n                recipient_member_level == XBRTypes.MemberLevel.VERIFIED, \"INVALID_CHANNEL_RECIPIENT\");\n\n        if (ctype == XBRTypes.ChannelType.PAYMENT) {\n            // transaction sender must be a market buyer-actor or the market-maker (the piece of running software for the market)\n            require(msg.sender == market.getMarketMaker(marketId) || msg.sender == actor, \"SENDER_NOT_MARKETMAKER_OR_BUYER\");\n\n            // actor must be consumer in the market\n            require(market.isActor(marketId, actor, XBRTypes.ActorType.CONSUMER), \"ACTOR_NOT_CONSUMER\");\n\n            // technical recipient of the unidirectional, half-legged channel must be the\n            // owner (operator) of the market\n            require(recipient == market.getMarketOwner(marketId), \"RECIPIENT_NOT_MARKET\");\n\n\n        } else if (ctype == XBRTypes.ChannelType.PAYING) {\n            // transaction sender must be the market-owner (aka market-ooperator) or the market-maker (the piece of running software for the market)\n            require(msg.sender == market.getMarketMaker(marketId) || msg.sender == market.getMarketOwner(marketId), \"SENDER_NOT_MARKETMAKER_OR_OWNER\");\n\n            // transaction sender must be the market-owner (aka market-ooperator) or the market-maker (the piece of running software for the market)\n            require(actor == market.getMarketOwner(marketId), \"ACTOR_NOT_MARKET\");\n\n            // recipient must be provider in the market\n            require(market.isActor(marketId, recipient, XBRTypes.ActorType.PROVIDER), \"RECIPIENT_NOT_PROVIDER\");\n\n        } else {\n            require(false, \"INVALID_CHANNEL_TYPE\");\n        }\n\n        // signature must have been created in a window of 5 blocks from the current one\n        require(openedAt <= block.number && openedAt >= (block.number - 4), \"INVALID_REGISTERED_BLOCK_NUMBER\");\n\n        // payment channel amount must be positive\n        require(amount > 0 && amount <= market.network().token().totalSupply(), \"INVALID_CHANNEL_AMOUNT\");\n\n        // payment channel timeout can be [0 seconds - 10 days[\n        require(timeout >= 0 && timeout < 864000, \"INVALID_CHANNEL_TIMEOUT\");\n\n        // the data used to open the new channel must have a valid signature, signed by the\n        // actor (buyer/seller in the market)\n        XBRTypes.EIP712ChannelOpen memory eip712_obj = XBRTypes.EIP712ChannelOpen(market.network().verifyingChain(),\n            market.network().verifyingContract(), uint8(ctype), openedAt, marketId, channelId,\n            market.getMarketMaker(marketId), actor, delegate, recipient, amount, timeout);\n        require(XBRTypes.verify(actor, eip712_obj, signature), \"INVALID_CHANNEL_SIGNATURE\");\n\n        // Everything is OK! Continue actually opening the channel ..\n\n        // track channel static information\n        channels[channelId] = XBRTypes.Channel(openedAt, channelSeq, ctype, marketId,\n            market.getMarketMaker(marketId), actor, delegate, recipient, amount, timeout, signature);\n\n        // track channel closing (== modifiable) information\n        channelClosingStates[channelId] = XBRTypes.ChannelClosingState(XBRTypes.ChannelState.OPEN,\n            0, 0, 0, 0, 0, 0, \"\", \"\");\n\n        // increment channel sequence for next channel\n        channelSeq = channelSeq + 1;\n\n        // notify observers (eg a dormant market maker waiting to be associated)\n        // emit Opened(ctype, marketId, channelId, marketmaker, actor, delegate, recipient, amount, timeout, signature);\n    }\n\n    /**\n     * Trigger closing this payment channel. When the first participant has called `close()`\n     * submitting its latest transaction/state, a timeout period begins during which the\n     * other party of the payment channel has to submit its latest transaction/state too.\n     * When both transaction have been submitted, and the submitted transactions/states agree,\n     * the channel immediately closes, and the consumed amount of token in the channel is\n     * transferred to the channel recipient, and the remaining amount of token is transferred\n     * back to the original sender.\n     */\n    function closeChannel (bytes16 channelId, uint32 closingChannelSeq, uint256 balance, bool isFinal,\n        bytes memory delegateSignature, bytes memory marketmakerSignature) public {\n\n        // channel must exist\n        require(channels[channelId].actor != address(0), \"NO_SUCH_CHANNEL\");\n\n        // this should not happen if above succeeds, but better be paranoid\n        require(channelClosingStates[channelId].state != XBRTypes.ChannelState.NULL, \"NO_SUCH_CHANNEL\");\n\n        // channel must be in correct state (OPEN or CLOSING)\n        require(channelClosingStates[channelId].state == XBRTypes.ChannelState.OPEN ||\n                channelClosingStates[channelId].state == XBRTypes.ChannelState.CLOSING, \"CHANNEL_NOT_OPEN\");\n\n        address delegate = channels[channelId].delegate;\n        address marketmaker = channels[channelId].marketmaker;\n\n        require(XBRTypes.verify(delegate, XBRTypes.EIP712ChannelClose(market.network().verifyingChain(),\n            market.network().verifyingContract(), channels[channelId].marketId, channelId, closingChannelSeq,\n            balance, isFinal), delegateSignature), \"INVALID_DELEGATE_SIGNATURE\");\n\n        require(XBRTypes.verify(marketmaker, XBRTypes.EIP712ChannelClose(market.network().verifyingChain(),\n            market.network().verifyingContract(), channels[channelId].marketId, channelId, closingChannelSeq,\n            balance, isFinal), marketmakerSignature), \"INVALID_MARKETMAKER_SIGNATURE\");\n\n        // closing (off-chain) balance must be valid\n        require(0 <= balance && balance <= channels[channelId].amount, \"INVALID_CLOSING_BALANCE\");\n\n        // closing (off-chain) sequence must be valid\n        require(closingChannelSeq >= 1, \"INVALID_CLOSING_SEQ\");\n\n        // if the channel is already closing ..\n        if (channelClosingStates[channelId].state == XBRTypes.ChannelState.CLOSING) {\n            // the channel must not yet be timed out\n            require(channelClosingStates[channelId].closedAt == 0, \"INTERNAL_ERROR_CLOSED_AT_NONZERO\");\n            require(block.timestamp < channelClosingStates[channelId].closingAt, \"CHANNEL_TIMEOUT\"); // solhint-disable-line\n\n            // the submitted transaction must be more recent\n            require(channelClosingStates[channelId].closingSeq < closingChannelSeq, \"OUTDATED_TRANSACTION\");\n        }\n\n        // the amount earned (by the recipient) is initial channel amount minus last off-chain balance\n        uint256 earned = (channels[channelId].amount - balance);\n\n        // the remaining amount (send back to the buyer) via the last off-chain balance\n        uint256 refund = balance;\n\n        // the fee to the xbr network is 1% of the earned amount\n        uint256 fee = earned / 100;\n\n        // the amount paid out to the recipient\n        uint256 payout = earned - fee;\n\n        // if we got a newer closing transaction, process it ..\n        if (closingChannelSeq > channelClosingStates[channelId].closingSeq) {\n\n            // the closing balance of a newer transaction must be not greater than anyone we already know\n            if (channelClosingStates[channelId].closingSeq > 0) {\n                require(balance <= channelClosingStates[channelId].closingBalance, \"TRANSACTION_BALANCE_OUTDATED\");\n            }\n\n            // note the closing transaction sequence number and closing off-chain balance\n            channelClosingStates[channelId].state = XBRTypes.ChannelState.CLOSING;\n            channelClosingStates[channelId].closingSeq = closingChannelSeq;\n            channelClosingStates[channelId].closingBalance = balance;\n\n            // note the new channel closing date\n            channelClosingStates[channelId].closingAt = block.timestamp + channels[channelId].timeout; // solhint-disable-line\n\n            // notify channel observers\n            //emit Closing(marketId, sender, payout, fee, refund, closingAt);\n        }\n\n        // finally close the channel ..\n        if (isFinal || balance == 0 ||\n            (channelClosingStates[channelId].state == XBRTypes.ChannelState.CLOSING && block.timestamp >= channelClosingStates[channelId].closingAt)) { // solhint-disable-line\n\n            // now send tokens locked in this channel (which escrows the tokens) to the recipient,\n            // the xbr network (for the network fee), and refund remaining tokens to the original sender\n            if (payout > 0) {\n                require(market.network().token().transfer(channels[channelId].recipient, payout), \"CHANNEL_CLOSE_PAYOUT_TRANSFER_FAILED\");\n            }\n\n            if (refund > 0) {\n                require(market.network().token().transfer(channels[channelId].actor, refund), \"CHANNEL_CLOSE_REFUND_TRANSFER_FAILED\");\n            }\n\n            if (fee > 0) {\n                require(market.network().token().transfer(market.network().organization(), fee), \"CHANNEL_CLOSE_FEE_TRANSFER_FAILED\");\n            }\n\n            // mark channel as closed (but do not selfdestruct)\n            channelClosingStates[channelId].closedAt = block.timestamp; // solhint-disable-line\n            channelClosingStates[channelId].state = XBRTypes.ChannelState.CLOSED;\n\n            // notify channel observers\n            // emit Closed(marketId, sender, payout, fee, refund, closedAt);\n        }\n    }\n}\n\n/*\nfunction openPaymentChannel (bytes16 marketId, address recipient, address delegate,\n    uint256 amount, uint32 timeout) public returns (address paymentChannel) {\n\n    // create new payment channel contract\n    XBRChannel channel = new XBRChannel(market.network().organization(), address(market.network().token()), address(this), marketId,\n        getMarket(marketId).maker, msg.sender, delegate, recipient, amount, timeout,\n        XBRChannel.ChannelType.PAYMENT);\n\n    // transfer tokens (initial balance) into payment channel contract\n    bool success = market.network().token().transferFrom(msg.sender, address(channel), amount);\n    require(success, \"OPEN_CHANNEL_TRANSFER_FROM_FAILED\");\n\n    // remember the new payment channel associated with the market\n    //getMarket(marketId).channels.push(address(channel));\n    getMarket(marketId).consumerActors[msg.sender].channels.push(address(channel));\n\n    // emit event ChannelCreated(bytes16 marketId, address sender, address delegate,\n    //      address recipient, address channel)\n    emit ChannelCreated(marketId, channel.sender(), channel.delegate(), channel.recipient(),\n        address(channel), XBRChannel.ChannelType.PAYMENT);\n\n    // return address of new channel contract\n    return address(channel);\n}\n\nfunction openPayingChannel (bytes16 marketId, address recipient, address delegate,\n    uint256 amount, uint32 timeout) public returns (address paymentChannel) {\n\n    // create new paying channel contract\n    XBRChannel channel = new XBRChannel(market.network().organization(), address(market.network().token), address(this),\n        marketId, getMarket(marketId).maker, msg.sender, delegate, recipient, amount, timeout,\n        XBRChannel.ChannelType.PAYING);\n\n    // transfer tokens (initial balance) into payment channel contract\n    bool success = market.network().token().transferFrom(msg.sender, address(channel), amount);\n    require(success, \"OPEN_CHANNEL_TRANSFER_FROM_FAILED\");\n\n    // remember the new payment channel associated with the market\n    //getMarket(marketId).channels.push(address(channel));\n    getMarket(marketId).providerActors[recipient].channels.push(address(channel));\n\n    // emit event ChannelCreated(bytes16 marketId, address sender, address delegate,\n    //  address recipient, address channel)\n    emit ChannelCreated(marketId, channel.sender(), channel.delegate(), channel.recipient(),\n        address(channel), XBRChannel.ChannelType.PAYING);\n\n    return address(channel);\n}\n*/",
  "sourcePath": "/home/oberstet/scm/crossbario/xbr-protocol/contracts/XBRChannel.sol",
  "compiler": {
    "name": "solc",
    "version": "0.5.16+commit.9c3226ce.Emscripten.clang"
  },
  "schemaVersion": "3.0.23",
  "updatedAt": "2020-03-20T13:13:14.294Z",
  "devdoc": {
    "methods": {
      "addMaintainer(address)": {
        "params": {
          "account": "The account to grant maintainer rights to."
        }
      },
      "constructor": {
        "params": {
          "marketAdr": "The XBR markets contract this instance is associated with."
        }
      },
      "isMaintainer(address)": {
        "params": {
          "account": "The account to check."
        },
        "return": "`true` if the account is maintainer, otherwise `false`."
      },
      "openChannel(uint8,uint256,bytes16,bytes16,address,address,address,uint256,uint32,bytes)": {
        "params": {
          "actor": "The actor (buyer/seller in the market) that opened this channel.",
          "amount": "The amount initially transfered to and held in the channel until closed.",
          "channelId": "The ID of the new XBR channel (must be unique).",
          "ctype": "Channel type: payment or paying channel.",
          "delegate": "The delegate (off-chain) allowed to spend/earn-on this channel (off-chain)  in the name of the actor (buyer/seller in the market).",
          "marketId": "The ID of the XBR market this channel is associated with.",
          "openedAt": "Block number when the channel opening signature was created.",
          "recipient": "The receiver (on-chain) of the channel payout.",
          "signature": "EIP712 signature, signed by the member.",
          "timeout": "The channel timeout period that begins with the first call to `close()`"
        }
      }
    }
  },
  "userdoc": {
    "methods": {
      "addMaintainer(address)": {
        "notice": "Add a new maintainer to the list of maintainers."
      },
      "closeChannel(bytes16,uint32,uint256,bool,bytes,bytes)": {
        "notice": "Trigger closing this payment channel. When the first participant has called `close()` submitting its latest transaction/state, a timeout period begins during which the other party of the payment channel has to submit its latest transaction/state too. When both transaction have been submitted, and the submitted transactions/states agree, the channel immediately closes, and the consumed amount of token in the channel is transferred to the channel recipient, and the remaining amount of token is transferred back to the original sender."
      },
      "constructor": "Constructor for this contract, only called once (when deploying the network). ",
      "isMaintainer(address)": {
        "notice": "Check if the given address is currently a maintainer."
      },
      "openChannel(uint8,uint256,bytes16,bytes16,address,address,address,uint256,uint32,bytes)": {
        "notice": "Open a new XBR payment/paying channel for processing off-chain micro-transactions. "
      },
      "renounceMaintainer()": {
        "notice": "Give away maintainer rights."
      }
    },
    "notice": "XBR Payment/Paying Channel between a XBR data consumer and the XBR market maker, or the XBR Market Maker and a XBR data provider."
  }
}