{
  "contractName": "XBRChannel",
  "abi": [
    {
      "constant": true,
      "inputs": [],
      "name": "ctype",
      "outputs": [
        {
          "name": "",
          "type": "uint8"
        }
      ],
      "payable": false,
      "stateMutability": "view",
      "type": "function"
    },
    {
      "constant": true,
      "inputs": [],
      "name": "organization",
      "outputs": [
        {
          "name": "",
          "type": "address"
        }
      ],
      "payable": false,
      "stateMutability": "view",
      "type": "function"
    },
    {
      "constant": true,
      "inputs": [],
      "name": "openedAt",
      "outputs": [
        {
          "name": "",
          "type": "uint256"
        }
      ],
      "payable": false,
      "stateMutability": "view",
      "type": "function"
    },
    {
      "constant": true,
      "inputs": [],
      "name": "recipient",
      "outputs": [
        {
          "name": "",
          "type": "address"
        }
      ],
      "payable": false,
      "stateMutability": "view",
      "type": "function"
    },
    {
      "constant": true,
      "inputs": [],
      "name": "sender",
      "outputs": [
        {
          "name": "",
          "type": "address"
        }
      ],
      "payable": false,
      "stateMutability": "view",
      "type": "function"
    },
    {
      "constant": true,
      "inputs": [],
      "name": "marketId",
      "outputs": [
        {
          "name": "",
          "type": "bytes16"
        }
      ],
      "payable": false,
      "stateMutability": "view",
      "type": "function"
    },
    {
      "constant": true,
      "inputs": [],
      "name": "timeout",
      "outputs": [
        {
          "name": "",
          "type": "uint32"
        }
      ],
      "payable": false,
      "stateMutability": "view",
      "type": "function"
    },
    {
      "constant": true,
      "inputs": [],
      "name": "closedAt",
      "outputs": [
        {
          "name": "",
          "type": "uint256"
        }
      ],
      "payable": false,
      "stateMutability": "view",
      "type": "function"
    },
    {
      "constant": true,
      "inputs": [],
      "name": "amount",
      "outputs": [
        {
          "name": "",
          "type": "uint256"
        }
      ],
      "payable": false,
      "stateMutability": "view",
      "type": "function"
    },
    {
      "constant": true,
      "inputs": [],
      "name": "closingAt",
      "outputs": [
        {
          "name": "",
          "type": "uint256"
        }
      ],
      "payable": false,
      "stateMutability": "view",
      "type": "function"
    },
    {
      "constant": true,
      "inputs": [],
      "name": "state",
      "outputs": [
        {
          "name": "",
          "type": "uint8"
        }
      ],
      "payable": false,
      "stateMutability": "view",
      "type": "function"
    },
    {
      "constant": true,
      "inputs": [],
      "name": "delegate",
      "outputs": [
        {
          "name": "",
          "type": "address"
        }
      ],
      "payable": false,
      "stateMutability": "view",
      "type": "function"
    },
    {
      "inputs": [
        {
          "name": "organization_",
          "type": "address"
        },
        {
          "name": "token_",
          "type": "address"
        },
        {
          "name": "marketId_",
          "type": "bytes16"
        },
        {
          "name": "sender_",
          "type": "address"
        },
        {
          "name": "delegate_",
          "type": "address"
        },
        {
          "name": "recipient_",
          "type": "address"
        },
        {
          "name": "amount_",
          "type": "uint256"
        },
        {
          "name": "timeout_",
          "type": "uint32"
        },
        {
          "name": "ctype_",
          "type": "uint8"
        }
      ],
      "payable": false,
      "stateMutability": "nonpayable",
      "type": "constructor"
    },
    {
      "anonymous": false,
      "inputs": [
        {
          "indexed": true,
          "name": "marketId",
          "type": "bytes16"
        },
        {
          "indexed": false,
          "name": "signer",
          "type": "address"
        },
        {
          "indexed": false,
          "name": "payout",
          "type": "uint256"
        },
        {
          "indexed": false,
          "name": "fee",
          "type": "uint256"
        },
        {
          "indexed": false,
          "name": "refund",
          "type": "uint256"
        },
        {
          "indexed": false,
          "name": "timeoutAt",
          "type": "uint256"
        }
      ],
      "name": "Closing",
      "type": "event"
    },
    {
      "anonymous": false,
      "inputs": [
        {
          "indexed": true,
          "name": "marketId",
          "type": "bytes16"
        },
        {
          "indexed": false,
          "name": "signer",
          "type": "address"
        },
        {
          "indexed": false,
          "name": "payout",
          "type": "uint256"
        },
        {
          "indexed": false,
          "name": "fee",
          "type": "uint256"
        },
        {
          "indexed": false,
          "name": "refund",
          "type": "uint256"
        },
        {
          "indexed": false,
          "name": "closedAt",
          "type": "uint256"
        }
      ],
      "name": "Closed",
      "type": "event"
    },
    {
      "constant": true,
      "inputs": [
        {
          "name": "tx_signer",
          "type": "address"
        },
        {
          "name": "channel_",
          "type": "address"
        },
        {
          "name": "channel_seq_",
          "type": "uint32"
        },
        {
          "name": "balance_",
          "type": "uint256"
        },
        {
          "name": "v",
          "type": "uint8"
        },
        {
          "name": "r",
          "type": "bytes32"
        },
        {
          "name": "s",
          "type": "bytes32"
        }
      ],
      "name": "verifyClose",
      "outputs": [
        {
          "name": "",
          "type": "bool"
        }
      ],
      "payable": false,
      "stateMutability": "pure",
      "type": "function"
    },
    {
      "constant": false,
      "inputs": [
        {
          "name": "channel_seq_",
          "type": "uint32"
        },
        {
          "name": "balance_",
          "type": "uint256"
        },
        {
          "name": "delegate_sig",
          "type": "bytes"
        },
        {
          "name": "marketmaker_sig",
          "type": "bytes"
        }
      ],
      "name": "close",
      "outputs": [],
      "payable": false,
      "stateMutability": "nonpayable",
      "type": "function"
    }
  ],
  "bytecode": "0x608060405234801561001057600080fd5b5060405161012080611280833981018060405261012081101561003257600080fd5b508051602082015160408301516060840151608085015160a086015160c087015160e08801516101009098015160008054600160a060020a03808b16600160a060020a03199283161790925560018054928a16929091169190911780825598999798969795969495939492939282919060a060020a60ff021916740100000000000000000000000000000000000000008360028111156100ce57fe5b021790555060018054819060a860020a60ff021916750100000000000000000000000000000000000000000082021790555050600280546001608060020a0319167001000000000000000000000000000000009097049690961790955560038054600160a060020a0319908116600160a060020a0396871617909155600480548216948616949094179093556005805490931691909316179055600655600a805463ffffffff191663ffffffff9092169190911790555050426007556110e7806101996000396000f3fe608060405234801561001057600080fd5b5060043610610107576000357c01000000000000000000000000000000000000000000000000000000009004806370dea79a116100a9578063b86c0e1f11610083578063b86c0e1f14610250578063c19d93fb14610258578063c89e436114610270578063cce893e51461027857610107565b806370dea79a1461021f5780639ef27b0014610240578063aa8c217c1461024857610107565b80633e135026116100e55780633e1350261461017657806366d003ac146101e157806367e404ce146101e95780636ed71ede146101f157610107565b806305a787501461010c57806323bd4d7a14610138578063389302031461015c575b600080fd5b6101146103b9565b6040518082600281111561012457fe5b60ff16815260200191505060405180910390f35b6101406103da565b60408051600160a060020a039092168252519081900360200190f35b6101646103e9565b60408051918252519081900360200190f35b6101cd600480360360e081101561018c57600080fd5b50600160a060020a03813581169160208101359091169063ffffffff6040820135169060608101359060ff6080820135169060a08101359060c001356103ef565b604080519115158252519081900360200190f35b6101406106e4565b6101406106f3565b6101f9610702565b604080516fffffffffffffffffffffffffffffffff199092168252519081900360200190f35b61022761071b565b6040805163ffffffff9092168252519081900360200190f35b610164610727565b61016461072d565b610164610733565b610260610739565b6040518082600381111561012457fe5b610140610749565b6103b76004803603608081101561028e57600080fd5b63ffffffff823516916020810135918101906060810160408201356401000000008111156102bb57600080fd5b8201836020820111156102cd57600080fd5b803590602001918460018302840111640100000000831117156102ef57600080fd5b91908080601f016020809104026020016040519081016040528093929190818152602001838380828437600092019190915250929594936020810193503591505064010000000081111561034257600080fd5b82018360208201111561035457600080fd5b8035906020019184600183028401116401000000008311171561037657600080fd5b91908080601f016020809104026020016040519081016040528093929190818152602001838380828437600092019190915250929550610758945050505050565b005b60015474010000000000000000000000000000000000000000900460ff1681565b600054600160a060020a031681565b60075481565b6000600160806040519081016040528060528152602001611022605291396040516020018082805190602001908083835b6020831061043f5780518252601f199092019160209182019101610420565b51815160001960209485036101000a0190811690199190911617905260408051601f19959093018381039590950183528481528251928201929092207f5842520000000000000000000000000000000000000000000000000000000000855282519485900360030185207f31000000000000000000000000000000000000000000000000000000000000008652835195869003600101862086840192909252858401526060850152611691608085015273254dffcd3277c0b1660f6d42efbb754edababc2b60a0808601919091528251808603909101815260c08501808452815191909201206101208501909252603f808252919550935091610fe3915060e001396040516020018082805190602001908083835b602083106105735780518252601f199092019160209182019101610554565b6001836020036101000a038019825116818451168082178552505050505050905001915050604051602081830303815290604052805190602001208989896040516020018085815260200184600160a060020a0316600160a060020a031681526020018363ffffffff1663ffffffff1681526020018281526020019450505050506040516020818303038152906040528051906020012060405160200180807f5c7831395c783031000000000000000000000000000000000000000000000000815250600801838152602001828152602001925050506040516020818303038152906040528051906020012085858560405160008152602001604052604051808581526020018460ff1660ff1681526020018381526020018281526020019450505050506020604051602081039080840390855afa1580156106b9573d6000803e3d6000fd5b50505060206040510351600160a060020a031688600160a060020a0316149050979650505050505050565b600554600160a060020a031681565b600354600160a060020a031681565b6002547001000000000000000000000000000000000281565b600a5463ffffffff1681565b60095481565b60065481565b60085481565b60015460a860020a900460ff1681565b600454600160a060020a031681565b600080600061076685610f45565b925092509250600080600061077a87610f45565b919450925090508860001115801561079457506006548911155b15156107ea576040805160e560020a62461bcd02815260206004820152601760248201527f494e56414c49445f434c4f53494e475f42414c414e4345000000000000000000604482015290519081900360640190fd5b600163ffffffff8b161015610849576040805160e560020a62461bcd02815260206004820152601360248201527f494e56414c49445f434c4f53494e475f53455100000000000000000000000000604482015290519081900360640190fd5b6001805460a860020a900460ff16600381111561086257fe5b14806108855750600260015460a860020a900460ff16600381111561088357fe5b145b15156108db576040805160e560020a62461bcd02815260206004820152601060248201527f4348414e4e454c5f4e4f545f4f50454e00000000000000000000000000000000604482015290519081900360640190fd5b600260015460a860020a900460ff1660038111156108f557fe5b1415610a175760095415610953576040805160e560020a62461bcd02815260206004820181905260248201527f494e5445524e414c5f4552524f525f434c4f5345445f41545f4e4f4e5a45524f604482015290519081900360640190fd5b60085442106109ac576040805160e560020a62461bcd02815260206004820152600f60248201527f4348414e4e454c5f54494d454f55540000000000000000000000000000000000604482015290519081900360640190fd5b600a5463ffffffff6401000000009091048116908b1610610a17576040805160e560020a62461bcd02815260206004820152601460248201527f4f555444415445445f5452414e53414354494f4e000000000000000000000000604482015290519081900360640190fd5b600654600a54908a9003908a90606483049081840390640100000000900463ffffffff908116908f161115610bb757600a54600064010000000090910463ffffffff161115610aba57600b548d1115610aba576040805160e560020a62461bcd02815260206004820152601c60248201527f5452414e53414354494f4e5f42414c414e43455f4f5554444154454400000000604482015290519081900360640190fd5b8d600a60046101000a81548163ffffffff021916908363ffffffff1602179055508c600b81905550600a60009054906101000a900463ffffffff1663ffffffff164201600881905550600260009054906101000a9004700100000000000000000000000000000000026fffffffffffffffffffffffffffffffff19167f923a6b018992e2b7b9726ce9ca5ad625bf9047554fe62452bb13c513382e599f600360009054906101000a9004600160a060020a03168385876008546040518086600160a060020a0316600160a060020a031681526020018581526020018481526020018381526020018281526020019550505050505060405180910390a25b6008544210610f35576000811115610ca757600154600554604080517fa9059cbb000000000000000000000000000000000000000000000000000000008152600160a060020a039283166004820152602481018590529051919092169163a9059cbb9160448083019260209291908290030181600087803b158015610c3b57600080fd5b505af1158015610c4f573d6000803e3d6000fd5b505050506040513d6020811015610c6557600080fd5b50511515610ca75760405160e560020a62461bcd0281526004018080602001828103825260248152602001806110986024913960400191505060405180910390fd5b6000821115610d925760015460008054604080517fa9059cbb000000000000000000000000000000000000000000000000000000008152600160a060020a039283166004820152602481018790529051919093169263a9059cbb9260448083019360209390929083900390910190829087803b158015610d2657600080fd5b505af1158015610d3a573d6000803e3d6000fd5b505050506040513d6020811015610d5057600080fd5b50511515610d925760405160e560020a62461bcd028152600401808060200182810382526021815260200180610fc26021913960400191505060405180910390fd5b6000831115610e7957600154600354604080517fa9059cbb000000000000000000000000000000000000000000000000000000008152600160a060020a039283166004820152602481018790529051919092169163a9059cbb9160448083019260209291908290030181600087803b158015610e0d57600080fd5b505af1158015610e21573d6000803e3d6000fd5b505050506040513d6020811015610e3757600080fd5b50511515610e795760405160e560020a62461bcd0281526004018080602001828103825260248152602001806110746024913960400191505060405180910390fd5b42600955600180546003919075ff000000000000000000000000000000000000000000191660a860020a83021790555060025460035460095460408051600160a060020a03909316835260208301859052828101869052606083018790526080830191909152517001000000000000000000000000000000009092026fffffffffffffffffffffffffffffffff1916917f800105c84e45907e1a349f0e6e5bfbd427efc3dc4de8974ea11f6fe6d3d9108b9160a0908290030190a25b5050505050505050505050505050565b600080600083516041141515610fa5576040805160e560020a62461bcd02815260206004820152601860248201527f494e56414c49445f5349474e41545552455f4c454e4754480000000000000000604482015290519081900360640190fd5b5050506020810151604082015160609092015160001a9290919056fe4348414e4e454c5f434c4f53455f4645455f5452414e534645525f4641494c45445472616e73616374696f6e2861646472657373206368616e6e656c2c75696e743332206368616e6e656c5f7365712c75696e743235362062616c616e636529454950373132446f6d61696e28737472696e67206e616d652c737472696e672076657273696f6e2c75696e7432353620636861696e49642c6164647265737320766572696679696e67436f6e7472616374294348414e4e454c5f434c4f53455f524546554e445f5452414e534645525f4641494c45444348414e4e454c5f434c4f53455f5041594f55545f5452414e534645525f4641494c4544a165627a7a723058205ab30e3bd92e9ee48ddd743e926b9ea5b05ce7297761b793c0f3f61350370a120029",
  "source": "///////////////////////////////////////////////////////////////////////////////\n//\n//  Copyright (C) 2018-2019 Crossbar.io Technologies GmbH and contributors.\n//\n//  Licensed under the Apache License, Version 2.0 (the \"License\");\n//  you may not use this file except in compliance with the License.\n//  You may obtain a copy of the License at\n//\n//      http://www.apache.org/licenses/LICENSE-2.0\n//\n//  Unless required by applicable law or agreed to in writing, software\n//  distributed under the License is distributed on an \"AS IS\" BASIS,\n//  WITHOUT WARRANTIES OR CONDITIONS OF ANY KIND, either express or implied.\n//  See the License for the specific language governing permissions and\n//  limitations under the License.\n//\n///////////////////////////////////////////////////////////////////////////////\n\npragma solidity ^0.5.2;\n\n// https://openzeppelin.org/api/docs/math_SafeMath.html\nimport \"openzeppelin-solidity/contracts/math/SafeMath.sol\";\n\n// https://openzeppelin.org/api/docs/cryptography_ECDSA.html\nimport \"openzeppelin-solidity/contracts/cryptography/ECDSA.sol\";\n\nimport \"./XBRToken.sol\";\n\n\n/**\n * XBR Payment/Paying Channel between a XBR data consumer and the XBR market maker,\n * or the XBR Market Maker and a XBR data provider.\n */\ncontract XBRChannel {\n\n    // Add safe math functions to uint256 using SafeMath lib from OpenZeppelin\n    using SafeMath for uint256;\n\n    // Add recover method for bytes32 using ECDSA lib from OpenZeppelin\n    using ECDSA for bytes32;\n\n    uint256 constant chainId = 5777;\n\n    address constant verifyingContract = 0x254dffcd3277C0b1660F6d42EFbB754edaBAbC2B;\n\n    string private constant EIP712_DOMAIN =\n        \"EIP712Domain(string name,string version,uint256 chainId,address verifyingContract)\";\n\n    bytes32 private constant EIP712_DOMAIN_TYPEHASH = keccak256(abi.encodePacked(EIP712_DOMAIN));\n\n    string private constant TRANSACTION_TYPE =\n        \"Transaction(address channel,uint32 channel_seq,uint256 balance)\";\n\n    bytes32 private constant TRANSACTION_DOMAIN_TYPEHASH = keccak256(abi.encodePacked(TRANSACTION_TYPE));\n\n    bytes32 private constant DOMAIN_SEPARATOR = keccak256(abi.encode(\n        EIP712_DOMAIN_TYPEHASH,\n        keccak256(\"XBR\"),\n        keccak256(\"1\"),\n        chainId,\n        verifyingContract\n    ));\n\n    /// Address of the `XBR Network Organization <https://xbr.network/>`_\n    address public organization;\n\n    /// XBR Network ERC20 token (XBR for the CrossbarFX technology stack)\n    XBRToken private _token;\n\n    /// Payment channel types.\n    enum ChannelType { NONE, PAYMENT, PAYING }\n\n    /// Payment channel states.\n    enum ChannelState { NONE, OPEN, CLOSING, CLOSED }\n\n    /// Current payment channel type (either payment or paying channel).\n    ChannelType public ctype;\n\n    /// Current payment channel state.\n    ChannelState public state;\n\n    /// The XBR Market ID this channel is operating payments (or payouts) for.\n    bytes16 public marketId;\n\n    /**\n     * The sender of the payments in this channel. Either a XBR Consumer (delegate) in case\n     * of a payment channel, or the XBR Market Maker (delegate) in case of a paying channel.\n     */\n    address public sender;\n\n    /**\n     * The other delegate of the channel, e.g. the XBR Market Maker in case of a payment channel,\n     * or a XBR Provider (delegate) in case of a paying channel.\n     */\n    address public delegate;\n\n    /**\n     * Recipient of the payments in this channel. Either the XBR Market Operator (payment\n     * channels) or a XBR Provider (paying channels).\n     */\n    address public recipient;\n\n    /// Amount of XBR held in the channel.\n    uint256 public amount;\n\n    /// Block timestamp when the channel was created.\n    uint256 public openedAt;\n\n    /// Block timestamp when the channel was closed (finally, after the timeout).\n    uint256 public closingAt;\n\n    /// Block timestamp when the channel was closed (finally, after the timeout).\n    uint256 public closedAt;\n\n    /**\n     * Timeout with which the channel will be closed (the grace period during which the\n     * channel will wait for participants to submit their last signed transaction).\n     */\n    uint32 public timeout;\n\n    /// When this channel is closing, the sequence number of the closing transaction.\n    uint32 private _closing_channel_seq;\n\n    /// When this channel is closing, the off-chain closing balance of the closing transaction.\n    uint256 private _closing_balance;\n\n    /**\n     * Event emitted when payment channel is closing (that is, one of the two state channel\n     * participants has called \"close()\", initiating start of the channel timeout).\n     */\n    event Closing(bytes16 indexed marketId, address signer, uint256 payout, uint256 fee,\n        uint256 refund, uint256 timeoutAt);\n\n    /**\n     * Event emitted when payment channel has finally closed, which happens after both state\n     * channel participants have called close(), agreeing on last state, or after the timeout\n     * at latest - in case the second participant doesn't react within timeout)\n     */\n    event Closed(bytes16 indexed marketId, address signer, uint256 payout, uint256 fee,\n        uint256 refund, uint256 closedAt);\n\n    /**\n     * Create a new XBR payment channel for handling microtransactions of XBR tokens.\n     *\n     * @param marketId_ The ID of the XBR market this payment channel is associated with.\n     * @param sender_ The sender (onchain) of the payments.\n     * @param delegate_ The offchain delegate allowed to spend XBR offchain, from the channel,\n     *     in the name of the original sender.\n     * @param recipient_ The receiver (onchain) of the payments.\n     * @param amount_ The amount of XBR held in the channel.\n     * @param timeout_ The payment channel timeout period that begins with the first call to `close()`\n     */\n    constructor (address organization_, address token_, bytes16 marketId_, address sender_, address delegate_,\n                address recipient_, uint256 amount_, uint32 timeout_, ChannelType ctype_) public {\n\n        organization = organization_;\n        _token = XBRToken(token_);\n        ctype = ctype_;\n        state = ChannelState.OPEN;\n        marketId = marketId_;\n        sender = sender_;\n        delegate = delegate_;\n        recipient = recipient_;\n        amount = amount_;\n        timeout = timeout_;\n        openedAt = block.timestamp; // solhint-disable-line\n    }\n\n    /**\n     * Split a signature given as a bytes string into components.\n     */\n    function splitSignature (bytes memory sig) internal pure returns (uint8 v, bytes32 r, bytes32 s)\n    {\n        require(sig.length == 65, \"INVALID_SIGNATURE_LENGTH\");\n\n        assembly {\n            // first 32 bytes, after the length prefix\n            r := mload(add(sig, 32))\n            // second 32 bytes\n            s := mload(add(sig, 64))\n            // final byte (first byte of the next 32 bytes)\n            v := byte(0, mload(add(sig, 96)))\n        }\n\n        return (v, r, s);\n    }\n\n    /**\n     * Verify close transaction typed data was signed by signer.\n     */\n    function verifyClose (address tx_signer, address channel_, uint32 channel_seq_, uint256 balance_,\n        uint8 v, bytes32 r, bytes32 s) public pure returns (bool) {\n\n        return tx_signer == ecrecover(keccak256(abi.encodePacked(\n            \"\\\\x19\\\\x01\",\n            DOMAIN_SEPARATOR,\n            keccak256(abi.encode(\n                TRANSACTION_DOMAIN_TYPEHASH,\n                channel_,\n                channel_seq_,\n                balance_\n            ))\n        )), v, r, s);\n    }\n\n    /**\n     * Trigger closing this payment channel. When the first participant has called `close()`\n     * submitting its latest transaction/state, a timeout period begins during which the\n     * other party of the payment channel has to submit its latest transaction/state too.\n     * When both transaction have been submitted, and the submitted transactions/states agree,\n     * the channel immediately closes, and the consumed amount of token in the channel is\n     * transferred to the channel recipient, and the remaining amount of token is transferred\n     * back to the original sender.\n     */\n    function close (uint32 channel_seq_, uint256 balance_,\n        bytes memory delegate_sig, bytes memory marketmaker_sig) public {\n\n        // split up 65 bytes signatures into components\n        (uint8 _delegate_sig_v, bytes32 _delegate_sig_r, bytes32 _delegate_sig_s) = splitSignature(delegate_sig);\n        (uint8 _maker_sig_v, bytes32 _maker_sig_r, bytes32 _maker_sig_s) = splitSignature(marketmaker_sig);\n\n        // FIXME: abpy and abjs agree on signature, but the following code does not (anymore, because\n        // it \"did already work\")\n        if (false) {\n            if (ctype == XBRChannel.ChannelType.PAYMENT) {\n                require(verifyClose(delegate, address(this), channel_seq_, balance_,\n                    _delegate_sig_v, _delegate_sig_r, _delegate_sig_s), \"INVALID_DELEGATE_SIGNATURE\");\n\n                require(verifyClose(sender, address(this), channel_seq_, balance_,\n                    _maker_sig_v, _maker_sig_r, _maker_sig_s), \"INVALID_MARKETMAKER_SIGNATURE\");\n            } else {\n                require(verifyClose(sender, address(this), channel_seq_, balance_,\n                    _delegate_sig_v, _delegate_sig_r, _delegate_sig_s), \"INVALID_DELEGATE_SIGNATURE\");\n\n                require(verifyClose(delegate, address(this), channel_seq_, balance_,\n                    _maker_sig_v, _maker_sig_r, _maker_sig_s), \"INVALID_MARKETMAKER_SIGNATURE\");\n            }\n        }\n\n        // closing (off-chain) balance must be valid\n        require(0 <= balance_ && balance_ <= amount, \"INVALID_CLOSING_BALANCE\");\n\n        // closing (off-chain) sequence must be valid\n        require(channel_seq_ >= 1, \"INVALID_CLOSING_SEQ\");\n\n        // channel must be in correct state (OPEN or CLOSING)\n        require(state == ChannelState.OPEN || state == ChannelState.CLOSING, \"CHANNEL_NOT_OPEN\");\n\n        // if the channel is already closing ..\n        if (state == ChannelState.CLOSING) {\n            // the channel must not yet be timed out\n            require(closedAt == 0, \"INTERNAL_ERROR_CLOSED_AT_NONZERO\");\n            require(block.timestamp < closingAt, \"CHANNEL_TIMEOUT\"); // solhint-disable-line\n\n            // the submitted transaction must be more recent\n            require(channel_seq_ < _closing_channel_seq, \"OUTDATED_TRANSACTION\");\n        }\n\n        // the amount earned (by the recipient) is initial channel amount minus last off-chain balance\n        uint256 earned = (amount - balance_);\n\n        // the remaining amount (send back to the buyer) ia the last off-chain balance\n        uint256 refund = balance_;\n\n        // the fee to the xbr network is 1% of the earned amount\n        uint256 fee = earned / 100;\n\n        // the amount paid out to the recipient\n        uint256 payout = earned - fee;\n\n        // if we got a newer closing transaction, process it ..\n        if (channel_seq_ > _closing_channel_seq) {\n\n            // the closing balance of a newer transaction must be not greater than anyone we already know\n            if (_closing_channel_seq > 0) {\n                require(balance_ <= _closing_balance, \"TRANSACTION_BALANCE_OUTDATED\");\n            }\n\n            // note the closing transaction sequence number and closing off-chain balance\n            _closing_channel_seq = channel_seq_;\n            _closing_balance = balance_;\n\n            // note the new channel closing date\n            closingAt = block.timestamp + timeout; // solhint-disable-line\n\n            // notify channel observers\n            emit Closing(marketId, sender, payout, fee, refund, closingAt);\n        }\n\n        // if we have reached channel closing time, finally close the channel ..\n        if (block.timestamp >= closingAt) { // solhint-disable-line\n\n            // now send tokens locked in this channel (which escrows the tokens) to the recipient,\n            // the xbr network (for the network fee), and refund remaining tokens to the original sender\n            if (payout > 0) {\n                require(_token.transfer(recipient, payout), \"CHANNEL_CLOSE_PAYOUT_TRANSFER_FAILED\");\n            }\n\n            if (fee > 0) {\n                require(_token.transfer(organization, fee), \"CHANNEL_CLOSE_FEE_TRANSFER_FAILED\");\n            }\n\n            if (refund > 0) {\n                require(_token.transfer(sender, refund), \"CHANNEL_CLOSE_REFUND_TRANSFER_FAILED\");\n            }\n\n            // mark channel as closed (but do not selfdestruct)\n            closedAt = block.timestamp; // solhint-disable-line\n            state = ChannelState.CLOSED;\n\n            // notify channel observers\n            emit Closed(marketId, sender, payout, fee, refund, closedAt);\n        }\n    }\n}\n",
  "sourcePath": "/home/oberstet/scm/crossbario/xbr-protocol/contracts/XBRChannel.sol",
  "compiler": {
    "name": "solc",
    "version": "0.5.2+commit.1df8f40c.Emscripten.clang"
  },
  "schemaVersion": "3.0.13",
  "updatedAt": "2019-08-29T15:24:56.914Z",
  "devdoc": {
    "methods": {
      "constructor": {
        "params": {
          "amount_": "The amount of XBR held in the channel.",
          "delegate_": "The offchain delegate allowed to spend XBR offchain, from the channel,    in the name of the original sender.",
          "marketId_": "The ID of the XBR market this payment channel is associated with.",
          "recipient_": "The receiver (onchain) of the payments.",
          "sender_": "The sender (onchain) of the payments.",
          "timeout_": "The payment channel timeout period that begins with the first call to `close()`"
        }
      }
    }
  },
  "userdoc": {
    "methods": {
      "close(uint32,uint256,bytes,bytes)": {
        "notice": "Trigger closing this payment channel. When the first participant has called `close()` submitting its latest transaction/state, a timeout period begins during which the other party of the payment channel has to submit its latest transaction/state too. When both transaction have been submitted, and the submitted transactions/states agree, the channel immediately closes, and the consumed amount of token in the channel is transferred to the channel recipient, and the remaining amount of token is transferred back to the original sender."
      },
      "constructor": "Create a new XBR payment channel for handling microtransactions of XBR tokens.",
      "verifyClose(address,address,uint32,uint256,uint8,bytes32,bytes32)": {
        "notice": "Verify close transaction typed data was signed by signer."
      }
    },
    "notice": "XBR Payment/Paying Channel between a XBR data consumer and the XBR market maker, or the XBR Market Maker and a XBR data provider."
  }
}