{
  "contractName": "XBRChannel",
  "abi": [
    {
      "constant": true,
      "inputs": [],
      "name": "ctype",
      "outputs": [
        {
          "name": "",
          "type": "uint8"
        }
      ],
      "payable": false,
      "stateMutability": "view",
      "type": "function"
    },
    {
      "constant": true,
      "inputs": [],
      "name": "organization",
      "outputs": [
        {
          "name": "",
          "type": "address"
        }
      ],
      "payable": false,
      "stateMutability": "view",
      "type": "function"
    },
    {
      "constant": true,
      "inputs": [],
      "name": "openedAt",
      "outputs": [
        {
          "name": "",
          "type": "uint256"
        }
      ],
      "payable": false,
      "stateMutability": "view",
      "type": "function"
    },
    {
      "constant": true,
      "inputs": [],
      "name": "recipient",
      "outputs": [
        {
          "name": "",
          "type": "address"
        }
      ],
      "payable": false,
      "stateMutability": "view",
      "type": "function"
    },
    {
      "constant": true,
      "inputs": [],
      "name": "network",
      "outputs": [
        {
          "name": "",
          "type": "address"
        }
      ],
      "payable": false,
      "stateMutability": "view",
      "type": "function"
    },
    {
      "constant": true,
      "inputs": [],
      "name": "sender",
      "outputs": [
        {
          "name": "",
          "type": "address"
        }
      ],
      "payable": false,
      "stateMutability": "view",
      "type": "function"
    },
    {
      "constant": true,
      "inputs": [],
      "name": "marketId",
      "outputs": [
        {
          "name": "",
          "type": "bytes16"
        }
      ],
      "payable": false,
      "stateMutability": "view",
      "type": "function"
    },
    {
      "constant": true,
      "inputs": [],
      "name": "timeout",
      "outputs": [
        {
          "name": "",
          "type": "uint32"
        }
      ],
      "payable": false,
      "stateMutability": "view",
      "type": "function"
    },
    {
      "constant": true,
      "inputs": [],
      "name": "marketmaker",
      "outputs": [
        {
          "name": "",
          "type": "address"
        }
      ],
      "payable": false,
      "stateMutability": "view",
      "type": "function"
    },
    {
      "constant": true,
      "inputs": [],
      "name": "closedAt",
      "outputs": [
        {
          "name": "",
          "type": "uint256"
        }
      ],
      "payable": false,
      "stateMutability": "view",
      "type": "function"
    },
    {
      "constant": true,
      "inputs": [],
      "name": "amount",
      "outputs": [
        {
          "name": "",
          "type": "uint256"
        }
      ],
      "payable": false,
      "stateMutability": "view",
      "type": "function"
    },
    {
      "constant": true,
      "inputs": [],
      "name": "closingAt",
      "outputs": [
        {
          "name": "",
          "type": "uint256"
        }
      ],
      "payable": false,
      "stateMutability": "view",
      "type": "function"
    },
    {
      "constant": true,
      "inputs": [],
      "name": "state",
      "outputs": [
        {
          "name": "",
          "type": "uint8"
        }
      ],
      "payable": false,
      "stateMutability": "view",
      "type": "function"
    },
    {
      "constant": true,
      "inputs": [],
      "name": "delegate",
      "outputs": [
        {
          "name": "",
          "type": "address"
        }
      ],
      "payable": false,
      "stateMutability": "view",
      "type": "function"
    },
    {
      "inputs": [
        {
          "name": "organization_",
          "type": "address"
        },
        {
          "name": "token_",
          "type": "address"
        },
        {
          "name": "network_",
          "type": "address"
        },
        {
          "name": "marketId_",
          "type": "bytes16"
        },
        {
          "name": "marketmaker_",
          "type": "address"
        },
        {
          "name": "sender_",
          "type": "address"
        },
        {
          "name": "delegate_",
          "type": "address"
        },
        {
          "name": "recipient_",
          "type": "address"
        },
        {
          "name": "amount_",
          "type": "uint256"
        },
        {
          "name": "timeout_",
          "type": "uint32"
        },
        {
          "name": "ctype_",
          "type": "uint8"
        }
      ],
      "payable": false,
      "stateMutability": "nonpayable",
      "type": "constructor"
    },
    {
      "anonymous": false,
      "inputs": [
        {
          "indexed": true,
          "name": "marketId",
          "type": "bytes16"
        },
        {
          "indexed": false,
          "name": "signer",
          "type": "address"
        },
        {
          "indexed": false,
          "name": "payout",
          "type": "uint256"
        },
        {
          "indexed": false,
          "name": "fee",
          "type": "uint256"
        },
        {
          "indexed": false,
          "name": "refund",
          "type": "uint256"
        },
        {
          "indexed": false,
          "name": "timeoutAt",
          "type": "uint256"
        }
      ],
      "name": "Closing",
      "type": "event"
    },
    {
      "anonymous": false,
      "inputs": [
        {
          "indexed": true,
          "name": "marketId",
          "type": "bytes16"
        },
        {
          "indexed": false,
          "name": "signer",
          "type": "address"
        },
        {
          "indexed": false,
          "name": "payout",
          "type": "uint256"
        },
        {
          "indexed": false,
          "name": "fee",
          "type": "uint256"
        },
        {
          "indexed": false,
          "name": "refund",
          "type": "uint256"
        },
        {
          "indexed": false,
          "name": "closedAt",
          "type": "uint256"
        }
      ],
      "name": "Closed",
      "type": "event"
    },
    {
      "constant": true,
      "inputs": [
        {
          "name": "signer",
          "type": "address"
        },
        {
          "name": "channel_adr_",
          "type": "address"
        },
        {
          "name": "channel_seq_",
          "type": "uint32"
        },
        {
          "name": "balance_",
          "type": "uint256"
        },
        {
          "name": "is_final_",
          "type": "bool"
        },
        {
          "name": "sig_rsv_",
          "type": "bytes"
        }
      ],
      "name": "verifyClose",
      "outputs": [
        {
          "name": "",
          "type": "bool"
        }
      ],
      "payable": false,
      "stateMutability": "view",
      "type": "function"
    },
    {
      "constant": false,
      "inputs": [
        {
          "name": "channel_seq_",
          "type": "uint32"
        },
        {
          "name": "balance_",
          "type": "uint256"
        },
        {
          "name": "is_final_",
          "type": "bool"
        },
        {
          "name": "delegate_sig",
          "type": "bytes"
        },
        {
          "name": "marketmaker_sig",
          "type": "bytes"
        }
      ],
      "name": "close",
      "outputs": [],
      "payable": false,
      "stateMutability": "nonpayable",
      "type": "function"
    }
  ],
  "bytecode": "0x608060405234801561001057600080fd5b506040516101608061149f833981018060405261016081101561003257600080fd5b508051602082015160408301516060840151608085015160a086015160c087015160e08801516101008901516101208a0151610140909a015160038054600160a060020a03808d16600160a060020a03199283161790925560048054928b1692909116919091178082559a9b999a98999798969795969495939492939282919060a060020a60ff021916740100000000000000000000000000000000000000008360028111156100de57fe5b0217905550600480546001919060a860020a60ff0219167501000000000000000000000000000000000000000000830217905550600580546001608060020a0319167001000000000000000000000000000000008a0417905560068054600160a060020a0319908116600160a060020a038a811691909117909255600780548216898416179055600880548216888416179055600980548216878416179055600a859055600e805463ffffffff191663ffffffff861617905542600b5560018054909116918c169190911781556040805160c0810182526003608082019081527f584252000000000000000000000000000000000000000000000000000000000060a08301528152815180830183528381527f31000000000000000000000000000000000000000000000000000000000000006020808301919091528201529081019190915273254dffcd3277c0b1660f6d42efbb754edababc2b606082015261025090640100000000610264810204565b600055506102e79950505050505050505050565b6000604051808061144d60529139604080519182900360520182208551805160209182012081880151805190830120888501516060808b01518589019690965287870193909352918601526080850152600160a060020a0390911660a0808501919091528251808503909101815260c09093019091528151910120915050919050565b611157806102f66000396000f3fe608060405234801561001057600080fd5b506004361061011d576000357c01000000000000000000000000000000000000000000000000000000009004806370dea79a116100b4578063aa8c217c11610083578063aa8c217c1461043b578063b86c0e1f14610443578063c19d93fb1461044b578063c89e4361146104635761011d565b806370dea79a146102c057806386a4fb02146102e15780638a9e51041461042b5780639ef27b00146104335761011d565b806366d003ac116100f057806366d003ac1461027a5780636739afca1461028257806367e404ce1461028a5780636ed71ede146102925761011d565b806305a787501461012257806323bd4d7a1461014e5780632b5bb52a146101725780633893020314610260575b600080fd5b61012a61046b565b6040518082600281111561013a57fe5b60ff16815260200191505060405180910390f35b61015661047b565b60408051600160a060020a039092168252519081900360200190f35b61024c600480360360c081101561018857600080fd5b600160a060020a03823581169260208101359091169163ffffffff6040830135169160608101359160808201351515919081019060c0810160a08201356401000000008111156101d757600080fd5b8201836020820111156101e957600080fd5b8035906020019184600183028401116401000000008311171561020b57600080fd5b91908080601f01602080910402602001604051908101604052809392919081815260200183838082843760009201919091525092955061048a945050505050565b604080519115158252519081900360200190f35b6102686105c8565b60408051918252519081900360200190f35b6101566105ce565b6101566105dd565b6101566105ec565b61029a6105fb565b604080516fffffffffffffffffffffffffffffffff199092168252519081900360200190f35b6102c8610614565b6040805163ffffffff9092168252519081900360200190f35b610429600480360360a08110156102f757600080fd5b63ffffffff8235169160208101359160408201351515919081019060808101606082013564010000000081111561032d57600080fd5b82018360208201111561033f57600080fd5b8035906020019184600183028401116401000000008311171561036157600080fd5b91908080601f01602080910402602001604051908101604052809392919081815260200183838082843760009201919091525092959493602081019350359150506401000000008111156103b457600080fd5b8201836020820111156103c657600080fd5b803590602001918460018302840111640100000000831117156103e857600080fd5b91908080601f016020809104026020016040519081016040528093929190818152602001838380828437600092019190915250929550610620945050505050565b005b610156610efc565b610268610f0b565b610268610f11565b610268610f17565b610453610f1d565b6040518082600381111561013a57fe5b610156610f2d565b60045460a060020a900460ff1681565b600354600160a060020a031681565b60008060008061049985610f3c565b9250925092506104a7611049565b5060408051608081018252600160a060020a038b16815263ffffffff8a1660208201529081018890528615156060820152600080546104e583610fca565b60405160200180807f1901000000000000000000000000000000000000000000000000000000000000815250600201838152602001828152602001925050506040516020818303038152906040528051906020012090508b600160a060020a031660018287878760405160008152602001604052604051808581526020018460ff1660ff1681526020018381526020018281526020019450505050506020604051602081039080840390855afa1580156105a3573d6000803e3d6000fd5b50505060206040510351600160a060020a031614955050505050509695505050505050565b600b5481565b600954600160a060020a031681565b600454600160a060020a031681565b600754600160a060020a031681565b6005547001000000000000000000000000000000000281565b600e5463ffffffff1681565b60085461063a90600160a060020a0316308787878761048a565b1515610690576040805160e560020a62461bcd02815260206004820152601a60248201527f494e56414c49445f44454c45474154455f5349474e4154555245000000000000604482015290519081900360640190fd5b6006546106aa90600160a060020a0316308787878661048a565b1515610700576040805160e560020a62461bcd02815260206004820152601d60248201527f494e56414c49445f4d41524b45544d414b45525f5349474e4154555245000000604482015290519081900360640190fd5b836000111580156107135750600a548411155b1515610769576040805160e560020a62461bcd02815260206004820152601760248201527f494e56414c49445f434c4f53494e475f42414c414e4345000000000000000000604482015290519081900360640190fd5b600163ffffffff861610156107c8576040805160e560020a62461bcd02815260206004820152601360248201527f494e56414c49445f434c4f53494e475f53455100000000000000000000000000604482015290519081900360640190fd5b600160045460a860020a900460ff1660038111156107e257fe5b14806108055750600260045460a860020a900460ff16600381111561080357fe5b145b151561085b576040805160e560020a62461bcd02815260206004820152601060248201527f4348414e4e454c5f4e4f545f4f50454e00000000000000000000000000000000604482015290519081900360640190fd5b600260045460a860020a900460ff16600381111561087557fe5b141561099657600d54156108d3576040805160e560020a62461bcd02815260206004820181905260248201527f494e5445524e414c5f4552524f525f434c4f5345445f41545f4e4f4e5a45524f604482015290519081900360640190fd5b600c54421061092c576040805160e560020a62461bcd02815260206004820152600f60248201527f4348414e4e454c5f54494d454f55540000000000000000000000000000000000604482015290519081900360640190fd5b60015463ffffffff60a060020a909104811690861610610996576040805160e560020a62461bcd02815260206004820152601460248201527f4f555444415445445f5452414e53414354494f4e000000000000000000000000604482015290519081900360640190fd5b600a546001549085900390859060648304908184039060a060020a900463ffffffff908116908a161115610b4257600154600060a060020a90910463ffffffff161115610a3757600254881115610a37576040805160e560020a62461bcd02815260206004820152601c60248201527f5452414e53414354494f4e5f42414c414e43455f4f5554444154454400000000604482015290519081900360640190fd5b6004805475ff000000000000000000000000000000000000000000191675020000000000000000000000000000000000000000001790556001805463ffffffff8b811660a060020a0277ffffffff000000000000000000000000000000000000000019909216919091179091556002899055600e5442911601600c81905560055460075460408051600160a060020a0390921682526020820185905281810186905260608201879052608082019390935291516fffffffffffffffffffffffffffffffff1970010000000000000000000000000000000090920291909116917f923a6b018992e2b7b9726ce9ca5ad625bf9047554fe62452bb13c513382e599f919081900360a00190a25b8680610b4c575087155b80610b7b5750600260045460a860020a900460ff166003811115610b6c57fe5b148015610b7b5750600c544210155b15610ef1576000811115610c6757600154600954604080517fa9059cbb000000000000000000000000000000000000000000000000000000008152600160a060020a039283166004820152602481018590529051919092169163a9059cbb9160448083019260209291908290030181600087803b158015610bfb57600080fd5b505af1158015610c0f573d6000803e3d6000fd5b505050506040513d6020811015610c2557600080fd5b50511515610c675760405160e560020a62461bcd0281526004018080602001828103825260248152602001806111086024913960400191505060405180910390fd5b6000821115610d4e57600154600354604080517fa9059cbb000000000000000000000000000000000000000000000000000000008152600160a060020a039283166004820152602481018690529051919092169163a9059cbb9160448083019260209291908290030181600087803b158015610ce257600080fd5b505af1158015610cf6573d6000803e3d6000fd5b505050506040513d6020811015610d0c57600080fd5b50511515610d4e5760405160e560020a62461bcd0281526004018080602001828103825260218152602001806110716021913960400191505060405180910390fd5b6000831115610e3557600154600754604080517fa9059cbb000000000000000000000000000000000000000000000000000000008152600160a060020a039283166004820152602481018790529051919092169163a9059cbb9160448083019260209291908290030181600087803b158015610dc957600080fd5b505af1158015610ddd573d6000803e3d6000fd5b505050506040513d6020811015610df357600080fd5b50511515610e355760405160e560020a62461bcd0281526004018080602001828103825260248152602001806110e46024913960400191505060405180910390fd5b42600d55600480546003919075ff000000000000000000000000000000000000000000191660a860020a830217905550600554600754600d5460408051600160a060020a03909316835260208301859052828101869052606083018790526080830191909152517001000000000000000000000000000000009092026fffffffffffffffffffffffffffffffff1916917f800105c84e45907e1a349f0e6e5bfbd427efc3dc4de8974ea11f6fe6d3d9108b9160a0908290030190a25b505050505050505050565b600654600160a060020a031681565b600d5481565b600a5481565b600c5481565b60045460a860020a900460ff1681565b600854600160a060020a031681565b600080600083516041141515610f9c576040805160e560020a62461bcd02815260206004820152601860248201527f494e56414c49445f5349474e41545552455f4c454e4754480000000000000000604482015290519081900360640190fd5b50505060208101516040820151604183015160ff169190601b831015610fc357601b830192505b9193909250565b6000604051808061109260529139604080519182900360520182208551602080880151888501516060998a015183880195909552600160a060020a039093168686015263ffffffff16978501979097526080840152151560a0808401919091528151808403909101815260c09092019052805193019290922092915050565b6040805160808101825260008082526020820181905291810182905260608101919091529056fe4348414e4e454c5f434c4f53455f4645455f5452414e534645525f4641494c45444368616e6e656c436c6f73652861646472657373206368616e6e656c5f6164722c75696e743332206368616e6e656c5f7365712c75696e743235362062616c616e63652c626f6f6c2069735f66696e616c294348414e4e454c5f434c4f53455f524546554e445f5452414e534645525f4641494c45444348414e4e454c5f434c4f53455f5041594f55545f5452414e534645525f4641494c4544a165627a7a723058204c740504f7caa17e755daa39e7ae93bca1eef5f6d69dd4e53ddcbe279c067f8f0029454950373132446f6d61696e28737472696e67206e616d652c737472696e672076657273696f6e2c75696e7432353620636861696e49642c6164647265737320766572696679696e67436f6e747261637429",
  "source": "///////////////////////////////////////////////////////////////////////////////\n//\n//  Copyright (C) 2018-2019 Crossbar.io Technologies GmbH and contributors.\n//\n//  Licensed under the Apache License, Version 2.0 (the \"License\");\n//  you may not use this file except in compliance with the License.\n//  You may obtain a copy of the License at\n//\n//      http://www.apache.org/licenses/LICENSE-2.0\n//\n//  Unless required by applicable law or agreed to in writing, software\n//  distributed under the License is distributed on an \"AS IS\" BASIS,\n//  WITHOUT WARRANTIES OR CONDITIONS OF ANY KIND, either express or implied.\n//  See the License for the specific language governing permissions and\n//  limitations under the License.\n//\n///////////////////////////////////////////////////////////////////////////////\n\npragma solidity ^0.5.2;\n//pragma experimental ABIEncoderV2;\n\n// https://openzeppelin.org/api/docs/math_SafeMath.html\nimport \"openzeppelin-solidity/contracts/math/SafeMath.sol\";\n\n// https://openzeppelin.org/api/docs/cryptography_ECDSA.html\nimport \"openzeppelin-solidity/contracts/cryptography/ECDSA.sol\";\n\nimport \"./XBRToken.sol\";\n\n\n/**\n * XBR Payment/Paying Channel between a XBR data consumer and the XBR market maker,\n * or the XBR Market Maker and a XBR data provider.\n */\ncontract XBRChannel {\n\n    // Add safe math functions to uint256 using SafeMath lib from OpenZeppelin\n    using SafeMath for uint256;\n\n    // Add recover method for bytes32 using ECDSA lib from OpenZeppelin\n    using ECDSA for bytes32;\n\n    /// Payment channel types.\n    enum ChannelType { NONE, PAYMENT, PAYING }\n\n    /// Payment channel states.\n    enum ChannelState { NONE, OPEN, CLOSING, CLOSED }\n\n    /// EIP712 type data.\n    bytes32 constant EIP712_DOMAIN_TYPEHASH = keccak256(\n        \"EIP712Domain(string name,string version,uint256 chainId,address verifyingContract)\"\n    );\n\n    /// EIP712 type data.\n    bytes32 constant CHANNELCLOSE_DOMAIN_TYPEHASH = keccak256(\n        \"ChannelClose(address channel_adr,uint32 channel_seq,uint256 balance,bool is_final)\"\n    );\n\n    /// EIP712 type data.\n    bytes32 private DOMAIN_SEPARATOR;\n\n    /// XBR Network ERC20 token (XBR for the CrossbarFX technology stack)\n    XBRToken private _token;\n\n    /// When this channel is closing, the sequence number of the closing transaction.\n    uint32 private _closing_channel_seq;\n\n    /// When this channel is closing, the off-chain closing balance of the closing transaction.\n    uint256 private _closing_balance;\n\n    /// Address of the `XBR Network Organization <https://xbr.network/>`_\n    address public organization;\n\n    /// Address of XBRNetwork instance that created this channel.\n    address public network;\n\n    /// Current payment channel type (either payment or paying channel).\n    ChannelType public ctype;\n\n    /// Current payment channel state.\n    ChannelState public state;\n\n    /// The XBR Market ID this channel is operating payments (or payouts) for.\n    bytes16 public marketId;\n\n    /**\n     * The off-chain market maker that operates this payment or paying channel.\n     */\n    address public marketmaker;\n\n    /**\n     * The sender of the payments in this channel. Either a XBR Consumer (payment channels) or\n     * the XBR Market Maker (paying channels).\n     */\n    address public sender;\n\n    /**\n     * The delegate of the channel, e.g. the XBR Consumer delegate in case of a payment channel\n     * or the XBR Provider (delegate) in case of a paying channel that is allowed to consume or\n     * provide data with payment therefor running under this channel.\n     */\n    address public delegate;\n\n    /**\n     * Recipient of the payments in this channel. Either the XBR Market Operator (payment\n     * channels) or a XBR Provider (paying channels) in the market.\n     */\n    address public recipient;\n\n    /// Amount of XBR held in the channel.\n    uint256 public amount;\n\n    /// Block timestamp when the channel was created.\n    uint256 public openedAt;\n\n    /// Block timestamp when the channel was closed (finally, after the timeout).\n    uint256 public closingAt;\n\n    /// Block timestamp when the channel was closed (finally, after the timeout).\n    uint256 public closedAt;\n\n    /**\n     * Timeout with which the channel will be closed (the grace period during which the\n     * channel will wait for participants to submit their last signed transaction).\n     */\n    uint32 public timeout;\n\n    /**\n     * Event emitted when payment channel is closing (that is, one of the two state channel\n     * participants has called \"close()\", initiating start of the channel timeout).\n     */\n    event Closing(bytes16 indexed marketId, address signer, uint256 payout, uint256 fee,\n        uint256 refund, uint256 timeoutAt);\n\n    /**\n     * Event emitted when payment channel has finally closed, which happens after both state\n     * channel participants have called close(), agreeing on last state, or after the timeout\n     * at latest - in case the second participant doesn't react within timeout)\n     */\n    event Closed(bytes16 indexed marketId, address signer, uint256 payout, uint256 fee,\n        uint256 refund, uint256 closedAt);\n\n    /// EIP712 type.\n    struct EIP712Domain {\n        string  name;\n        string  version;\n        uint256 chainId;\n        address verifyingContract;\n    }\n\n    /// EIP712 type.\n    struct ChannelClose {\n        address channel_adr;\n        uint32 channel_seq;\n        uint256 balance;\n        bool is_final;\n    }\n\n    /**\n     * Create a new XBR payment channel for handling microtransactions of XBR tokens.\n     *\n     * @param marketId_ The ID of the XBR market this payment channel is associated with.\n     * @param sender_ The sender (onchain) of the payments.\n     * @param delegate_ The offchain delegate allowed to spend XBR offchain, from the channel,\n     *     in the name of the original sender.\n     * @param recipient_ The receiver (onchain) of the payments.\n     * @param amount_ The amount of XBR held in the channel.\n     * @param timeout_ The payment channel timeout period that begins with the first call to `close()`\n     */\n    constructor (address organization_, address token_, address network_, bytes16 marketId_, address marketmaker_,\n        address sender_, address delegate_, address recipient_, uint256 amount_, uint32 timeout_,\n        ChannelType ctype_) public {\n\n        organization = organization_;\n        network = network_;\n        ctype = ctype_;\n        state = ChannelState.OPEN;\n        marketId = marketId_;\n        marketmaker = marketmaker_;\n        sender = sender_;\n        delegate = delegate_;\n        recipient = recipient_;\n        amount = amount_;\n        timeout = timeout_;\n        openedAt = block.timestamp; // solhint-disable-line\n\n        _token = XBRToken(token_);\n\n        DOMAIN_SEPARATOR = hash(EIP712Domain({\n            name: \"XBR\",\n            version: \"1\",\n            chainId: 1,\n            verifyingContract: 0x254dffcd3277C0b1660F6d42EFbB754edaBAbC2B\n            // verifyingContract: network_\n        }));\n    }\n\n    function hash(EIP712Domain memory domain_) internal pure returns (bytes32) {\n        return keccak256(abi.encode(\n            EIP712_DOMAIN_TYPEHASH,\n            keccak256(bytes(domain_.name)),\n            keccak256(bytes(domain_.version)),\n            domain_.chainId,\n            domain_.verifyingContract\n        ));\n    }\n\n    function hash(ChannelClose memory close_) internal pure returns (bytes32) {\n        return keccak256(abi.encode(\n            CHANNELCLOSE_DOMAIN_TYPEHASH,\n            close_.channel_adr,\n            close_.channel_seq,\n            close_.balance,\n            close_.is_final\n        ));\n    }\n\n    /**\n     * Split a signature given as a bytes string into components.\n     */\n    function splitSignature (bytes memory signature_rsv) private pure returns (uint8 v, bytes32 r, bytes32 s) {\n        require(signature_rsv.length == 65, \"INVALID_SIGNATURE_LENGTH\");\n\n        //  // first 32 bytes, after the length prefix\n        //  r := mload(add(sig, 32))\n        //  // second 32 bytes\n        //  s := mload(add(sig, 64))\n        //  // final byte (first byte of the next 32 bytes)\n        //  v := byte(0, mload(add(sig, 96)))\n        assembly\n        {\n            r := mload(add(signature_rsv, 32))\n            s := mload(add(signature_rsv, 64))\n            v := and(mload(add(signature_rsv, 65)), 255)\n        }\n        if (v < 27) {\n            v += 27;\n        }\n\n        return (v, r, s);\n    }\n\n    /**\n     * Verify close transaction typed data was signed by signer.\n     */\n    function verifyClose (address signer, address channel_adr_, uint32 channel_seq_, uint256 balance_,\n        bool is_final_, bytes memory sig_rsv_) public view returns (bool) {\n\n        (uint8 v, bytes32 r, bytes32 s) = splitSignature(sig_rsv_);\n\n        ChannelClose memory close = ChannelClose({\n            channel_adr: channel_adr_,\n            channel_seq: channel_seq_,\n            balance: balance_,\n            is_final: is_final_\n        });\n\n        bytes32 digest = keccak256(abi.encodePacked(\n            \"\\x19\\x01\",\n            DOMAIN_SEPARATOR,\n            hash(close)\n        ));\n\n        return ecrecover(digest, v, r, s) == signer;\n    }\n\n    /**\n     * Trigger closing this payment channel. When the first participant has called `close()`\n     * submitting its latest transaction/state, a timeout period begins during which the\n     * other party of the payment channel has to submit its latest transaction/state too.\n     * When both transaction have been submitted, and the submitted transactions/states agree,\n     * the channel immediately closes, and the consumed amount of token in the channel is\n     * transferred to the channel recipient, and the remaining amount of token is transferred\n     * back to the original sender.\n     */\n    function close (uint32 channel_seq_, uint256 balance_, bool is_final_,\n        bytes memory delegate_sig, bytes memory marketmaker_sig) public {\n\n        require(verifyClose(delegate, address(this), channel_seq_, balance_, is_final_, delegate_sig),\n            \"INVALID_DELEGATE_SIGNATURE\");\n\n        require(verifyClose(marketmaker, address(this), channel_seq_, balance_, is_final_, marketmaker_sig),\n            \"INVALID_MARKETMAKER_SIGNATURE\");\n\n        // closing (off-chain) balance must be valid\n        require(0 <= balance_ && balance_ <= amount, \"INVALID_CLOSING_BALANCE\");\n\n        // closing (off-chain) sequence must be valid\n        require(channel_seq_ >= 1, \"INVALID_CLOSING_SEQ\");\n\n        // channel must be in correct state (OPEN or CLOSING)\n        require(state == ChannelState.OPEN || state == ChannelState.CLOSING, \"CHANNEL_NOT_OPEN\");\n\n        // if the channel is already closing ..\n        if (state == ChannelState.CLOSING) {\n            // the channel must not yet be timed out\n            require(closedAt == 0, \"INTERNAL_ERROR_CLOSED_AT_NONZERO\");\n            require(block.timestamp < closingAt, \"CHANNEL_TIMEOUT\"); // solhint-disable-line\n\n            // the submitted transaction must be more recent\n            require(channel_seq_ < _closing_channel_seq, \"OUTDATED_TRANSACTION\");\n        }\n\n        // the amount earned (by the recipient) is initial channel amount minus last off-chain balance\n        uint256 earned = (amount - balance_);\n\n        // the remaining amount (send back to the buyer) ia the last off-chain balance\n        uint256 refund = balance_;\n\n        // the fee to the xbr network is 1% of the earned amount\n        uint256 fee = earned / 100;\n\n        // the amount paid out to the recipient\n        uint256 payout = earned - fee;\n\n        // if we got a newer closing transaction, process it ..\n        if (channel_seq_ > _closing_channel_seq) {\n\n            // the closing balance of a newer transaction must be not greater than anyone we already know\n            if (_closing_channel_seq > 0) {\n                require(balance_ <= _closing_balance, \"TRANSACTION_BALANCE_OUTDATED\");\n            }\n\n            // note the closing transaction sequence number and closing off-chain balance\n            state = ChannelState.CLOSING;\n            _closing_channel_seq = channel_seq_;\n            _closing_balance = balance_;\n\n            // note the new channel closing date\n            closingAt = block.timestamp + timeout; // solhint-disable-line\n\n            // notify channel observers\n            emit Closing(marketId, sender, payout, fee, refund, closingAt);\n        }\n\n        // finally close the channel ..\n        if (is_final_ || balance_ == 0 || (state == ChannelState.CLOSING && block.timestamp >= closingAt)) { // solhint-disable-line\n\n            // now send tokens locked in this channel (which escrows the tokens) to the recipient,\n            // the xbr network (for the network fee), and refund remaining tokens to the original sender\n            if (payout > 0) {\n                require(_token.transfer(recipient, payout), \"CHANNEL_CLOSE_PAYOUT_TRANSFER_FAILED\");\n            }\n\n            if (fee > 0) {\n                require(_token.transfer(organization, fee), \"CHANNEL_CLOSE_FEE_TRANSFER_FAILED\");\n            }\n\n            if (refund > 0) {\n                require(_token.transfer(sender, refund), \"CHANNEL_CLOSE_REFUND_TRANSFER_FAILED\");\n            }\n\n            // mark channel as closed (but do not selfdestruct)\n            closedAt = block.timestamp; // solhint-disable-line\n            state = ChannelState.CLOSED;\n\n            // notify channel observers\n            emit Closed(marketId, sender, payout, fee, refund, closedAt);\n        }\n    }\n}\n",
  "sourcePath": "/home/oberstet/scm/crossbario/xbr-protocol/contracts/XBRChannel.sol",
  "compiler": {
    "name": "solc",
    "version": "0.5.2+commit.1df8f40c.Emscripten.clang"
  },
  "schemaVersion": "3.0.15",
  "updatedAt": "2019-09-09T13:52:59.977Z",
  "devdoc": {
    "methods": {
      "constructor": {
        "params": {
          "amount_": "The amount of XBR held in the channel.",
          "delegate_": "The offchain delegate allowed to spend XBR offchain, from the channel,    in the name of the original sender.",
          "marketId_": "The ID of the XBR market this payment channel is associated with.",
          "recipient_": "The receiver (onchain) of the payments.",
          "sender_": "The sender (onchain) of the payments.",
          "timeout_": "The payment channel timeout period that begins with the first call to `close()`"
        }
      }
    }
  },
  "userdoc": {
    "methods": {
      "close(uint32,uint256,bool,bytes,bytes)": {
        "notice": "Trigger closing this payment channel. When the first participant has called `close()` submitting its latest transaction/state, a timeout period begins during which the other party of the payment channel has to submit its latest transaction/state too. When both transaction have been submitted, and the submitted transactions/states agree, the channel immediately closes, and the consumed amount of token in the channel is transferred to the channel recipient, and the remaining amount of token is transferred back to the original sender."
      },
      "constructor": "Create a new XBR payment channel for handling microtransactions of XBR tokens.",
      "verifyClose(address,address,uint32,uint256,bool,bytes)": {
        "notice": "Verify close transaction typed data was signed by signer."
      }
    },
    "notice": "XBR Payment/Paying Channel between a XBR data consumer and the XBR market maker, or the XBR Market Maker and a XBR data provider."
  }
}