{
  "contractName": "XBRChannel",
  "abi": [
    {
      "constant": true,
      "inputs": [],
      "name": "ctype",
      "outputs": [
        {
          "name": "",
          "type": "uint8"
        }
      ],
      "payable": false,
      "stateMutability": "view",
      "type": "function"
    },
    {
      "constant": true,
      "inputs": [],
      "name": "openedAt",
      "outputs": [
        {
          "name": "",
          "type": "uint256"
        }
      ],
      "payable": false,
      "stateMutability": "view",
      "type": "function"
    },
    {
      "constant": true,
      "inputs": [],
      "name": "recipient",
      "outputs": [
        {
          "name": "",
          "type": "address"
        }
      ],
      "payable": false,
      "stateMutability": "view",
      "type": "function"
    },
    {
      "constant": true,
      "inputs": [],
      "name": "sender",
      "outputs": [
        {
          "name": "",
          "type": "address"
        }
      ],
      "payable": false,
      "stateMutability": "view",
      "type": "function"
    },
    {
      "constant": true,
      "inputs": [],
      "name": "marketId",
      "outputs": [
        {
          "name": "",
          "type": "bytes16"
        }
      ],
      "payable": false,
      "stateMutability": "view",
      "type": "function"
    },
    {
      "constant": true,
      "inputs": [],
      "name": "timeout",
      "outputs": [
        {
          "name": "",
          "type": "uint32"
        }
      ],
      "payable": false,
      "stateMutability": "view",
      "type": "function"
    },
    {
      "constant": true,
      "inputs": [],
      "name": "closedAt",
      "outputs": [
        {
          "name": "",
          "type": "uint256"
        }
      ],
      "payable": false,
      "stateMutability": "view",
      "type": "function"
    },
    {
      "constant": true,
      "inputs": [],
      "name": "amount",
      "outputs": [
        {
          "name": "",
          "type": "uint256"
        }
      ],
      "payable": false,
      "stateMutability": "view",
      "type": "function"
    },
    {
      "constant": true,
      "inputs": [],
      "name": "state",
      "outputs": [
        {
          "name": "",
          "type": "uint8"
        }
      ],
      "payable": false,
      "stateMutability": "view",
      "type": "function"
    },
    {
      "constant": true,
      "inputs": [],
      "name": "delegate",
      "outputs": [
        {
          "name": "",
          "type": "address"
        }
      ],
      "payable": false,
      "stateMutability": "view",
      "type": "function"
    },
    {
      "inputs": [
        {
          "name": "token_",
          "type": "address"
        },
        {
          "name": "marketId_",
          "type": "bytes16"
        },
        {
          "name": "sender_",
          "type": "address"
        },
        {
          "name": "delegate_",
          "type": "address"
        },
        {
          "name": "recipient_",
          "type": "address"
        },
        {
          "name": "amount_",
          "type": "uint256"
        },
        {
          "name": "timeout_",
          "type": "uint32"
        },
        {
          "name": "ctype_",
          "type": "uint8"
        }
      ],
      "payable": false,
      "stateMutability": "nonpayable",
      "type": "constructor"
    },
    {
      "anonymous": false,
      "inputs": [
        {
          "indexed": true,
          "name": "marketId",
          "type": "bytes16"
        },
        {
          "indexed": false,
          "name": "signer",
          "type": "address"
        },
        {
          "indexed": false,
          "name": "earned",
          "type": "uint256"
        },
        {
          "indexed": false,
          "name": "remaining",
          "type": "uint256"
        },
        {
          "indexed": false,
          "name": "timeoutAt",
          "type": "uint256"
        }
      ],
      "name": "Closing",
      "type": "event"
    },
    {
      "anonymous": false,
      "inputs": [
        {
          "indexed": true,
          "name": "marketId",
          "type": "bytes16"
        },
        {
          "indexed": false,
          "name": "signer",
          "type": "address"
        },
        {
          "indexed": false,
          "name": "earned",
          "type": "uint256"
        },
        {
          "indexed": false,
          "name": "remaining",
          "type": "uint256"
        },
        {
          "indexed": false,
          "name": "closedAt",
          "type": "uint256"
        }
      ],
      "name": "Closed",
      "type": "event"
    },
    {
      "constant": true,
      "inputs": [
        {
          "name": "tx_signer",
          "type": "address"
        },
        {
          "name": "pubkey_",
          "type": "bytes32"
        },
        {
          "name": "key_id_",
          "type": "bytes16"
        },
        {
          "name": "channel_seq_",
          "type": "uint32"
        },
        {
          "name": "amount_",
          "type": "uint256"
        },
        {
          "name": "balance_",
          "type": "uint256"
        },
        {
          "name": "v",
          "type": "uint8"
        },
        {
          "name": "r",
          "type": "bytes32"
        },
        {
          "name": "s",
          "type": "bytes32"
        }
      ],
      "name": "verifyClose",
      "outputs": [
        {
          "name": "",
          "type": "bool"
        }
      ],
      "payable": false,
      "stateMutability": "pure",
      "type": "function"
    },
    {
      "constant": false,
      "inputs": [
        {
          "name": "pubkey_",
          "type": "bytes32"
        },
        {
          "name": "key_id_",
          "type": "bytes16"
        },
        {
          "name": "channel_seq_",
          "type": "uint32"
        },
        {
          "name": "amount_",
          "type": "uint256"
        },
        {
          "name": "balance_",
          "type": "uint256"
        },
        {
          "name": "delegate_sig",
          "type": "bytes"
        },
        {
          "name": "marketmaker_sig",
          "type": "bytes"
        }
      ],
      "name": "close",
      "outputs": [],
      "payable": false,
      "stateMutability": "nonpayable",
      "type": "function"
    }
  ],
  "bytecode": "0x608060405234801561001057600080fd5b5060405161010080610ec0833981018060405261010081101561003257600080fd5b508051602082015160408301516060840151608085015160a086015160c087015160e09097015160008054600160a060020a031916600160a060020a0389161780825597989697959694959394929382919060a060020a60ff021916740100000000000000000000000000000000000000008360028111156100b057fe5b0217905550600080546001919060a860020a60ff021916750100000000000000000000000000000000000000000083021790555050600180546001608060020a0319167001000000000000000000000000000000009097049690961790955560028054600160a060020a0319908116600160a060020a03968716179091556003805482169486169490941790935560048054909316919093161790556005556008805463ffffffff191663ffffffff9092169190911790555042600655610d448061017c6000396000f3fe608060405234801561001057600080fd5b50600436106100d1576000357c01000000000000000000000000000000000000000000000000000000009004806370dea79a1161008e57806370dea79a146102dd5780639ef27b00146102fe578063aa8c217c14610306578063c19d93fb1461030e578063c89e436114610326578063d004a4791461032e576100d1565b806305a78750146100d657806338930203146101025780633e1aa05d1461011c57806366d003ac1461028357806367e404ce146102a75780636ed71ede146102af575b600080fd5b6100de6103b6565b604051808260028111156100ee57fe5b60ff16815260200191505060405180910390f35b61010a6103d7565b60408051918252519081900360200190f35b610281600480360360e081101561013257600080fd5b8135916fffffffffffffffffffffffffffffffff196020820135169163ffffffff604083013516916060810135916080820135919081019060c0810160a082013564010000000081111561018557600080fd5b82018360208201111561019757600080fd5b803590602001918460018302840111640100000000831117156101b957600080fd5b91908080601f016020809104026020016040519081016040528093929190818152602001838380828437600092019190915250929594936020810193503591505064010000000081111561020c57600080fd5b82018360208201111561021e57600080fd5b8035906020019184600183028401116401000000008311171561024057600080fd5b91908080601f0160208091040260200160405190810160405280939291908181526020018383808284376000920191909152509295506103dd945050505050565b005b61028b610808565b60408051600160a060020a039092168252519081900360200190f35b61028b610817565b6102b7610826565b604080516fffffffffffffffffffffffffffffffff199092168252519081900360200190f35b6102e561083f565b6040805163ffffffff9092168252519081900360200190f35b61010a61084b565b61010a610851565b610316610857565b604051808260038111156100ee57fe5b61028b610879565b6103a2600480360361012081101561034557600080fd5b50600160a060020a03813516906020810135906fffffffffffffffffffffffffffffffff196040820135169063ffffffff6060820135169060808101359060a08101359060ff60c0820135169060e0810135906101000135610888565b604080519115158252519081900360200190f35b60005474010000000000000000000000000000000000000000900460ff1681565b60065481565b60008060006103eb85610ba3565b92509250925060008060006103ff87610ba3565b9194509250905060016000547501000000000000000000000000000000000000000000900460ff16600381111561043257fe5b14610487576040805160e560020a62461bcd02815260206004820152601060248201527f4348414e4e454c5f4e4f545f4f50454e00000000000000000000000000000000604482015290519081900360640190fd5b8860001115801561049a57506005548911155b15156104f0576040805160e560020a62461bcd02815260206004820152601760248201527f494e56414c49445f434c4f53494e475f42414c414e4345000000000000000000604482015290519081900360640190fd5b600163ffffffff8c16101561054f576040805160e560020a62461bcd02815260206004820152601360248201527f494e56414c49445f434c4f53494e475f53455100000000000000000000000000604482015290519081900360640190fd5b60055489900389600080831115610643576000805460048054604080517fa9059cbb000000000000000000000000000000000000000000000000000000008152600160a060020a0392831693810193909352602483018890525192169263a9059cbb926044808401936020939083900390910190829087803b1580156105d457600080fd5b505af11580156105e8573d6000803e3d6000fd5b505050506040513d60208110156105fe57600080fd5b505190508015156106435760405160e560020a62461bcd028152600401808060200182810382526024815260200180610c206024913960400191505060405180910390fd5b60008211156107305760008054600254604080517fa9059cbb000000000000000000000000000000000000000000000000000000008152600160a060020a039283166004820152602481018790529051919092169263a9059cbb92604480820193602093909283900390910190829087803b1580156106c157600080fd5b505af11580156106d5573d6000803e3d6000fd5b505050506040513d60208110156106eb57600080fd5b505190508015156107305760405160e560020a62461bcd028152600401808060200182810382526027815260200180610ca06027913960400191505060405180910390fd5b42600755600080546003919075ff0000000000000000000000000000000000000000001916750100000000000000000000000000000000000000000083021790555060015460025460075460408051600160a060020a039093168352602083018790528281018690526060830191909152517001000000000000000000000000000000009092026fffffffffffffffffffffffffffffffff1916917f41187f1197da4e77f4c6b169c888a9bb2ed8610f9325e5beaa84b72b10ba2d70916080908290030190a250505050505050505050505050505050565b600454600160a060020a031681565b600254600160a060020a031681565b6001547001000000000000000000000000000000000281565b60085463ffffffff1681565b60075481565b60055481565b6000547501000000000000000000000000000000000000000000900460ff1681565b600354600160a060020a031681565b6000600160806040519081016040528060528152602001610cc7605291396040516020018082805190602001908083835b602083106108d85780518252601f1990920191602091820191016108b9565b51815160001960209485036101000a0190811690199190911617905260408051601f19959093018381039590950183528481528251928201929092207f5842520000000000000000000000000000000000000000000000000000000000855282519485900360030185207f31000000000000000000000000000000000000000000000000000000000000008652835195869003600101862086840192909252858401526060850152611691608085015273254dffcd3277c0b1660f6d42efbb754edababc2b60a0808601919091528251808603909101815260c08501808452815191909201206101408501909252605c808252919550935091610c44915060e001396040516020018082805190602001908083835b60208310610a0c5780518252601f1990920191602091820191016109ed565b6001836020036101000a038019825116818451168082178552505050505050905001915050604051602081830303815290604052805190602001208b8b8b8b8b60405160200180878152602001868152602001856fffffffffffffffffffffffffffffffff19166fffffffffffffffffffffffffffffffff191681526020018463ffffffff1663ffffffff16815260200183815260200182815260200196505050505050506040516020818303038152906040528051906020012060405160200180807f5c7831395c783031000000000000000000000000000000000000000000000000815250600801838152602001828152602001925050506040516020818303038152906040528051906020012085858560405160008152602001604052604051808581526020018460ff1660ff1681526020018381526020018281526020019450505050506020604051602081039080840390855afa158015610b76573d6000803e3d6000fd5b50505060206040510351600160a060020a03168a600160a060020a03161490509998505050505050505050565b600080600083516041141515610c03576040805160e560020a62461bcd02815260206004820152601860248201527f494e56414c49445f5349474e41545552455f4c454e4754480000000000000000604482015290519081900360640190fd5b5050506020810151604082015160609092015160001a9290919056fe4348414e4e454c5f434c4f53455f4541524e45445f5452414e534645525f4641494c45445472616e73616374696f6e2875696e74323536207075626b65792c75696e74313238206b65795f69642c75696e743332206368616e6e656c5f7365712c75696e7432353620616d6f756e742c75696e743235362062616c616e6365294348414e4e454c5f434c4f53455f52454d41494e494e475f5452414e534645525f4641494c4544454950373132446f6d61696e28737472696e67206e616d652c737472696e672076657273696f6e2c75696e7432353620636861696e49642c6164647265737320766572696679696e67436f6e747261637429a165627a7a723058206ee48dce8a1585140b775373081f2c96beec9291aeddad0891864b7d163a876f0029",
  "source": "///////////////////////////////////////////////////////////////////////////////\n//\n//  Copyright (C) 2018 Crossbar.io Technologies GmbH and contributors.\n//\n//  Licensed under the Apache License, Version 2.0 (the \"License\");\n//  you may not use this file except in compliance with the License.\n//  You may obtain a copy of the License at\n//\n//      http://www.apache.org/licenses/LICENSE-2.0\n//\n//  Unless required by applicable law or agreed to in writing, software\n//  distributed under the License is distributed on an \"AS IS\" BASIS,\n//  WITHOUT WARRANTIES OR CONDITIONS OF ANY KIND, either express or implied.\n//  See the License for the specific language governing permissions and\n//  limitations under the License.\n//\n///////////////////////////////////////////////////////////////////////////////\n\npragma solidity ^0.5.2;\n\n// https://openzeppelin.org/api/docs/math_SafeMath.html\nimport \"openzeppelin-solidity/contracts/math/SafeMath.sol\";\n\n// https://openzeppelin.org/api/docs/cryptography_ECDSA.html\nimport \"openzeppelin-solidity/contracts/cryptography/ECDSA.sol\";\n\nimport \"./XBRToken.sol\";\n\n\n/**\n * XBR Payment/Paying Channel between a XBR data consumer and the XBR market maker,\n * or the XBR Market Maker and a XBR data provider.\n */\ncontract XBRChannel {\n\n    // Add safe math functions to uint256 using SafeMath lib from OpenZeppelin\n    using SafeMath for uint256;\n\n/*\n    // Add recover method for bytes32 using ECDSA lib from OpenZeppelin\n    using ECDSA for bytes32;\n*/\n\n    uint256 constant chainId = 5777;\n\n    address constant verifyingContract = 0x254dffcd3277C0b1660F6d42EFbB754edaBAbC2B;\n\n    string private constant EIP712_DOMAIN =\n        \"EIP712Domain(string name,string version,uint256 chainId,address verifyingContract)\";\n\n    bytes32 private constant EIP712_DOMAIN_TYPEHASH = keccak256(abi.encodePacked(EIP712_DOMAIN));\n\n    string private constant TRANSACTION_TYPE =\n        \"Transaction(uint256 pubkey,uint128 key_id,uint32 channel_seq,uint256 amount,uint256 balance)\";\n\n    bytes32 private constant TRANSACTION_DOMAIN_TYPEHASH = keccak256(abi.encodePacked(TRANSACTION_TYPE));\n\n    bytes32 private constant DOMAIN_SEPARATOR = keccak256(abi.encode(\n        EIP712_DOMAIN_TYPEHASH,\n        keccak256(\"XBR\"),\n        keccak256(\"1\"),\n        chainId,\n        verifyingContract\n    ));\n\n    /// XBR Network ERC20 token (XBR for the CrossbarFX technology stack)\n    XBRToken private _token;\n\n    /// Payment channel types.\n    enum ChannelType { NONE, PAYMENT, PAYING }\n\n    /// Payment channel states.\n    enum ChannelState { NONE, OPEN, CLOSING, CLOSED }\n\n    /// Current payment channel type (either payment or paying channel).\n    ChannelType public ctype;\n\n    /// Current payment channel state.\n    ChannelState public state;\n\n    /// The XBR Market ID this channel is operating payments (or payouts) for.\n    bytes16 public marketId;\n\n    /**\n     * The sender of the payments in this channel. Either a XBR Consumer (delegate) in case\n     * of a payment channel, or the XBR Market Maker (delegate) in case of a paying channel.\n     */\n    address public sender;\n\n    /**\n     * The other delegate of the channel, e.g. the XBR Market Maker in case of a payment channel,\n     * or a XBR Provider (delegate) in case of a paying channel.\n     */\n    address public delegate;\n\n    /**\n     * Recipient of the payments in this channel. Either the XBR Market Operator (payment\n     * channels) or a XBR Provider (paying channels).\n     */\n    address public recipient;\n\n    /// Amount of XBR held in the channel.\n    uint256 public amount;\n\n    /// Block timestamp when the channel was created.\n    uint256 public openedAt;\n\n    /// Block timestamp when the channel was closed (finally, after the timeout).\n    uint256 public closedAt;\n\n    /**\n     * Timeout with which the channel will be closed (the grace period during which the\n     * channel will wait for participants to submit their last signed transaction).\n     */\n    uint32 public timeout;\n\n    /// Signatures of the channel participants (when channel is closing).\n    mapping (bytes32 => address) private _signatures;\n\n    /**\n     * Event emitted when payment channel is closing (that is, one of the two state channel\n     * participants has called \"close()\", initiating start of the channel timeout).\n     */\n    event Closing(bytes16 indexed marketId, address signer, uint256 earned, uint256 remaining, uint256 timeoutAt);\n\n    /**\n     * Event emitted when payment channel has finally closed, which happens after both state\n     * channel participants have called close(), agreeing on last state, or after the timeout\n     * at latest - in case the second participant doesn't react within timeout)\n     */\n    event Closed(bytes16 indexed marketId, address signer, uint256 earned, uint256 remaining, uint256 closedAt);\n\n    /**\n     * Create a new XBR payment channel for handling microtransactions of XBR tokens.\n     *\n     * @param marketId_ The ID of the XBR market this payment channel is associated with.\n     * @param sender_ The sender (onchain) of the payments.\n     * @param delegate_ The offchain delegate allowed to spend XBR offchain, from the channel,\n     *     in the name of the original sender.\n     * @param recipient_ The receiver (onchain) of the payments.\n     * @param amount_ The amount of XBR held in the channel.\n     * @param timeout_ The payment channel timeout period that begins with the first call to `close()`\n     */\n    constructor (address token_, bytes16 marketId_, address sender_, address delegate_,\n                address recipient_, uint256 amount_, uint32 timeout_, ChannelType ctype_) public {\n\n        _token = XBRToken(token_);\n        ctype = ctype_;\n        state = ChannelState.OPEN;\n        marketId = marketId_;\n        sender = sender_;\n        delegate = delegate_;\n        recipient = recipient_;\n        amount = amount_;\n        timeout = timeout_;\n        openedAt = block.timestamp; // solhint-disable-line\n    }\n\n    /**\n     * Split a signature given as a bytes string into components.\n     */\n    function splitSignature (bytes memory sig) internal pure returns (uint8 v, bytes32 r, bytes32 s)\n    {\n        require(sig.length == 65, \"INVALID_SIGNATURE_LENGTH\");\n\n        assembly {\n            // first 32 bytes, after the length prefix\n            r := mload(add(sig, 32))\n            // second 32 bytes\n            s := mload(add(sig, 64))\n            // final byte (first byte of the next 32 bytes)\n            v := byte(0, mload(add(sig, 96)))\n        }\n\n        return (v, r, s);\n    }\n\n    /**\n     * Verify close transaction typed data was signed by signer.\n     */\n    function verifyClose (address tx_signer, bytes32 pubkey_, bytes16 key_id_, uint32 channel_seq_,\n        uint256 amount_, uint256 balance_, uint8 v, bytes32 r, bytes32 s) public pure returns (bool) {\n\n        return tx_signer == ecrecover(keccak256(abi.encodePacked(\n            \"\\\\x19\\\\x01\",\n            DOMAIN_SEPARATOR,\n            keccak256(abi.encode(\n                TRANSACTION_DOMAIN_TYPEHASH,\n                pubkey_,\n                key_id_,\n                channel_seq_,\n                amount_,\n                balance_\n            ))\n        )), v, r, s);\n    }\n\n    /**\n     * Trigger closing this payment channel. When the first participant has called `close()`\n     * submitting its latest transaction/state, a timeout period begins during which the\n     * other party of the payment channel has to submit its latest transaction/state too.\n     * When both transaction have been submitted, and the submitted transactions/states agree,\n     * the channel immediately closes, and the consumed amount of token in the channel is\n     * transferred to the channel recipient, and the remaining amount of token is transferred\n     * back to the original sender.\n     */\n    function close (bytes32 pubkey_, bytes16 key_id_, uint32 channel_seq_, uint256 amount_, uint256 balance_,\n                    bytes memory delegate_sig, bytes memory marketmaker_sig) public {\n\n        (uint8 _delegate_sig_v, bytes32 _delegate_sig_r, bytes32 _delegate_sig_s) = splitSignature(delegate_sig);\n        (uint8 _maker_sig_v, bytes32 _maker_sig_r, bytes32 _maker_sig_s) = splitSignature(marketmaker_sig);\n\n        // FIXME: abpy and abjs agree on signature, but the following code does not (anymore, because\n        // it \"did already work\")\n        if (false) {\n            if (ctype == XBRChannel.ChannelType.PAYMENT) {\n                require(verifyClose(delegate, pubkey_, key_id_, channel_seq_, amount_,\n                    balance_, _delegate_sig_v, _delegate_sig_r, _delegate_sig_s), \"INVALID_DELEGATE_SIGNATURE\");\n                require(verifyClose(sender, pubkey_, key_id_, channel_seq_, amount_,\n                    balance_, _maker_sig_v, _maker_sig_r, _maker_sig_s), \"INVALID_MARKETMAKER_SIGNATURE\");\n            } else {\n                require(verifyClose(sender, pubkey_, key_id_, channel_seq_, amount_,\n                    balance_, _delegate_sig_v, _delegate_sig_r, _delegate_sig_s), \"INVALID_DELEGATE_SIGNATURE\");\n                require(verifyClose(delegate, pubkey_, key_id_, channel_seq_, amount_,\n                    balance_, _maker_sig_v, _maker_sig_r, _maker_sig_s), \"INVALID_MARKETMAKER_SIGNATURE\");\n            }\n        }\n\n        require(state == ChannelState.OPEN, \"CHANNEL_NOT_OPEN\");\n        require(0 <= balance_ && balance_ <= amount, \"INVALID_CLOSING_BALANCE\");\n        require(channel_seq_ >= 1, \"INVALID_CLOSING_SEQ\");\n\n        uint256 earned = amount - balance_;\n        uint256 remaining = balance_;\n\n        bool success = false;\n        if (earned > 0) {\n            success = _token.transfer(recipient, earned);\n            require(success, \"CHANNEL_CLOSE_EARNED_TRANSFER_FAILED\");\n        }\n\n        if (remaining > 0) {\n            success = _token.transfer(sender, remaining);\n            require(success, \"CHANNEL_CLOSE_REMAINING_TRANSFER_FAILED\");\n        }\n\n        // FIXME: selfdestruct ?! to whom?\n        // FIXME: recipient amountamount vs txamount vs ..\n        // FIXME: network fee\n        // FIXME: timeout and CLOSING event\n\n        closedAt = block.timestamp; // solhint-disable-line\n        state = ChannelState.CLOSED;\n        emit Closed(marketId, sender, earned, remaining, closedAt);\n    }\n}\n",
  "sourcePath": "/home/oberstet/scm/crossbario/xbr-protocol/contracts/XBRChannel.sol",
  "compiler": {
    "name": "solc",
    "version": "0.5.2+commit.1df8f40c.Emscripten.clang"
  },
  "schemaVersion": "3.0.13",
  "updatedAt": "2019-08-28T00:33:53.110Z",
  "devdoc": {
    "methods": {
      "constructor": {
        "params": {
          "amount_": "The amount of XBR held in the channel.",
          "delegate_": "The offchain delegate allowed to spend XBR offchain, from the channel,    in the name of the original sender.",
          "marketId_": "The ID of the XBR market this payment channel is associated with.",
          "recipient_": "The receiver (onchain) of the payments.",
          "sender_": "The sender (onchain) of the payments.",
          "timeout_": "The payment channel timeout period that begins with the first call to `close()`"
        }
      }
    }
  },
  "userdoc": {
    "methods": {
      "close(bytes32,bytes16,uint32,uint256,uint256,bytes,bytes)": {
        "notice": "Trigger closing this payment channel. When the first participant has called `close()` submitting its latest transaction/state, a timeout period begins during which the other party of the payment channel has to submit its latest transaction/state too. When both transaction have been submitted, and the submitted transactions/states agree, the channel immediately closes, and the consumed amount of token in the channel is transferred to the channel recipient, and the remaining amount of token is transferred back to the original sender."
      },
      "constructor": "Create a new XBR payment channel for handling microtransactions of XBR tokens.",
      "verifyClose(address,bytes32,bytes16,uint32,uint256,uint256,uint8,bytes32,bytes32)": {
        "notice": "Verify close transaction typed data was signed by signer."
      }
    },
    "notice": "XBR Payment/Paying Channel between a XBR data consumer and the XBR market maker, or the XBR Market Maker and a XBR data provider."
  }
}