{
  "contractName": "XBRChannel",
  "abi": [
    {
      "inputs": [
        {
          "name": "token",
          "type": "address"
        },
        {
          "name": "marketId",
          "type": "bytes16"
        },
        {
          "name": "sender",
          "type": "address"
        },
        {
          "name": "delegate",
          "type": "address"
        },
        {
          "name": "recipient",
          "type": "address"
        },
        {
          "name": "amount",
          "type": "uint256"
        },
        {
          "name": "channelTimeout",
          "type": "uint32"
        },
        {
          "name": "channelType",
          "type": "uint8"
        }
      ],
      "payable": false,
      "stateMutability": "nonpayable",
      "type": "constructor"
    },
    {
      "anonymous": false,
      "inputs": [
        {
          "indexed": true,
          "name": "marketId",
          "type": "bytes16"
        },
        {
          "indexed": false,
          "name": "signer",
          "type": "address"
        },
        {
          "indexed": false,
          "name": "amount",
          "type": "uint256"
        },
        {
          "indexed": false,
          "name": "timeoutAt",
          "type": "uint256"
        }
      ],
      "name": "Closing",
      "type": "event"
    },
    {
      "anonymous": false,
      "inputs": [
        {
          "indexed": true,
          "name": "marketId",
          "type": "bytes16"
        },
        {
          "indexed": false,
          "name": "signer",
          "type": "address"
        },
        {
          "indexed": false,
          "name": "amount",
          "type": "uint256"
        },
        {
          "indexed": false,
          "name": "closedAt",
          "type": "uint256"
        }
      ],
      "name": "Closed",
      "type": "event"
    },
    {
      "constant": true,
      "inputs": [
        {
          "name": "signer",
          "type": "address"
        },
        {
          "name": "tx_pubkey",
          "type": "bytes32"
        },
        {
          "name": "tx_key_id",
          "type": "bytes16"
        },
        {
          "name": "tx_channel_seq",
          "type": "uint32"
        },
        {
          "name": "tx_amount",
          "type": "uint256"
        },
        {
          "name": "tx_balance",
          "type": "uint256"
        },
        {
          "name": "v",
          "type": "uint8"
        },
        {
          "name": "r",
          "type": "bytes32"
        },
        {
          "name": "s",
          "type": "bytes32"
        }
      ],
      "name": "verifyTransaction",
      "outputs": [
        {
          "name": "",
          "type": "bool"
        }
      ],
      "payable": false,
      "stateMutability": "pure",
      "type": "function"
    },
    {
      "constant": true,
      "inputs": [],
      "name": "channelType",
      "outputs": [
        {
          "name": "",
          "type": "uint8"
        }
      ],
      "payable": false,
      "stateMutability": "view",
      "type": "function"
    },
    {
      "constant": true,
      "inputs": [],
      "name": "channelState",
      "outputs": [
        {
          "name": "",
          "type": "uint8"
        }
      ],
      "payable": false,
      "stateMutability": "view",
      "type": "function"
    },
    {
      "constant": true,
      "inputs": [],
      "name": "marketId",
      "outputs": [
        {
          "name": "",
          "type": "bytes16"
        }
      ],
      "payable": false,
      "stateMutability": "view",
      "type": "function"
    },
    {
      "constant": true,
      "inputs": [],
      "name": "sender",
      "outputs": [
        {
          "name": "",
          "type": "address"
        }
      ],
      "payable": false,
      "stateMutability": "view",
      "type": "function"
    },
    {
      "constant": true,
      "inputs": [],
      "name": "delegate",
      "outputs": [
        {
          "name": "",
          "type": "address"
        }
      ],
      "payable": false,
      "stateMutability": "view",
      "type": "function"
    },
    {
      "constant": true,
      "inputs": [],
      "name": "recipient",
      "outputs": [
        {
          "name": "",
          "type": "address"
        }
      ],
      "payable": false,
      "stateMutability": "view",
      "type": "function"
    },
    {
      "constant": true,
      "inputs": [],
      "name": "amount",
      "outputs": [
        {
          "name": "",
          "type": "uint256"
        }
      ],
      "payable": false,
      "stateMutability": "view",
      "type": "function"
    },
    {
      "constant": true,
      "inputs": [],
      "name": "openedAt",
      "outputs": [
        {
          "name": "",
          "type": "uint256"
        }
      ],
      "payable": false,
      "stateMutability": "view",
      "type": "function"
    },
    {
      "constant": true,
      "inputs": [],
      "name": "closedAt",
      "outputs": [
        {
          "name": "",
          "type": "uint256"
        }
      ],
      "payable": false,
      "stateMutability": "view",
      "type": "function"
    },
    {
      "constant": true,
      "inputs": [],
      "name": "channelTimeout",
      "outputs": [
        {
          "name": "",
          "type": "uint32"
        }
      ],
      "payable": false,
      "stateMutability": "view",
      "type": "function"
    },
    {
      "constant": false,
      "inputs": [
        {
          "name": "tx_pubkey",
          "type": "bytes32"
        },
        {
          "name": "tx_key_id",
          "type": "bytes16"
        },
        {
          "name": "tx_channel_seq",
          "type": "uint32"
        },
        {
          "name": "tx_amount",
          "type": "uint256"
        },
        {
          "name": "tx_balance",
          "type": "uint256"
        },
        {
          "name": "delegate_v",
          "type": "uint8"
        },
        {
          "name": "delegate_r",
          "type": "bytes32"
        },
        {
          "name": "delegate_s",
          "type": "bytes32"
        },
        {
          "name": "marketmaker_v",
          "type": "uint8"
        },
        {
          "name": "marketmaker_r",
          "type": "bytes32"
        },
        {
          "name": "marketmaker_s",
          "type": "bytes32"
        }
      ],
      "name": "close",
      "outputs": [],
      "payable": false,
      "stateMutability": "nonpayable",
      "type": "function"
    }
  ],
  "bytecode": "0x608060405234801561001057600080fd5b50604051610100806107a5833981018060405261010081101561003257600080fd5b508051602082015160408301516060840151608085015160a086015160c087015160e09097015160008054600160a060020a031916600160a060020a0389161780825597989697959694959394929382919060a060020a60ff021916740100000000000000000000000000000000000000008360028111156100b057fe5b0217905550600080546001919060a860020a60ff021916750100000000000000000000000000000000000000000083021790555050600180546001608060020a0319167001000000000000000000000000000000009097049690961790955560028054600160a060020a0319908116600160a060020a03968716179091556003805482169486169490941790935560048054909316919093161790556005556008805463ffffffff191663ffffffff90921691909117905550436006556106298061017c6000396000f3fe608060405234801561001057600080fd5b50600436106100d1576000357c01000000000000000000000000000000000000000000000000000000009004806367e404ce1161008e57806367e404ce146102685780636ed71ede146102705780639ef27b001461029e578063aa8c217c146102a6578063c89e4361146102ae578063ded2e715146102b6576100d1565b80632ef2d55e146100d6578063359d4be2146100f75780633893020314610176578063490d59a41461019057806355b550941461021857806366d003ac14610244575b600080fd5b6100de6102ce565b6040805163ffffffff9092168252519081900360200190f35b610174600480360361016081101561010e57600080fd5b508035906fffffffffffffffffffffffffffffffff196020820135169063ffffffff6040820135169060608101359060808101359060ff60a082013581169160c08101359160e082013591610100810135909116906101208101359061014001356102da565b005b61017e610553565b60408051918252519081900360200190f35b61020460048036036101208110156101a757600080fd5b50600160a060020a03813516906020810135906fffffffffffffffffffffffffffffffff196040820135169063ffffffff6060820135169060808101359060a08101359060ff60c0820135169060e0810135906101000135610559565b604080519115158252519081900360200190f35b610220610568565b6040518082600381111561023057fe5b60ff16815260200191505060405180910390f35b61024c61058a565b60408051600160a060020a039092168252519081900360200190f35b61024c610599565b6102786105a8565b604080516fffffffffffffffffffffffffffffffff199092168252519081900360200190f35b61017e6105c1565b61017e6105c7565b61024c6105cd565b6102be6105dc565b6040518082600281111561023057fe5b60085463ffffffff1690565b60016000547501000000000000000000000000000000000000000000900460ff16600381111561030657fe5b1461037257604080517f08c379a000000000000000000000000000000000000000000000000000000000815260206004820152601060248201527f4348414e4e454c5f4e4f545f4f50454e00000000000000000000000000000000604482015290519081900360640190fd5b6000805460048054600554604080517fa9059cbb000000000000000000000000000000000000000000000000000000008152600160a060020a039384169481019490945260248401919091525192169163a9059cbb9160448082019260209290919082900301818787803b1580156103e957600080fd5b505af11580156103fd573d6000803e3d6000fd5b505050506040513d602081101561041357600080fd5b5051905080151561048557604080517f08c379a000000000000000000000000000000000000000000000000000000000815260206004820152601d60248201527f4348414e4e454c5f434c4f53455f5452414e534645525f4641494c4544000000604482015290519081900360640190fd5b43600755600080546003919075ff0000000000000000000000000000000000000000001916750100000000000000000000000000000000000000000083021790555060015460025460055460075460408051600160a060020a039094168452602084019290925282820152517001000000000000000000000000000000009092026fffffffffffffffffffffffffffffffff1916917f149862a34bbf1a64df1b3d1a30d1521062eba33815665c97e48f4f7a4e549088916060908290030190a2505050505050505050505050565b60065490565b60019998505050505050505050565b6000547501000000000000000000000000000000000000000000900460ff1690565b600454600160a060020a031690565b600254600160a060020a031690565b6001547001000000000000000000000000000000000290565b60075490565b60055490565b600354600160a060020a031690565b60005474010000000000000000000000000000000000000000900460ff169056fea165627a7a723058206a903e3edc46f5e5ab4e47e3653de3d19e47fbdca7558ac2b539833318423d680029",
  "source": "///////////////////////////////////////////////////////////////////////////////\n//\n//  Copyright (C) 2018 Crossbar.io Technologies GmbH and contributors.\n//\n//  Licensed under the Apache License, Version 2.0 (the \"License\");\n//  you may not use this file except in compliance with the License.\n//  You may obtain a copy of the License at\n//\n//      http://www.apache.org/licenses/LICENSE-2.0\n//\n//  Unless required by applicable law or agreed to in writing, software\n//  distributed under the License is distributed on an \"AS IS\" BASIS,\n//  WITHOUT WARRANTIES OR CONDITIONS OF ANY KIND, either express or implied.\n//  See the License for the specific language governing permissions and\n//  limitations under the License.\n//\n///////////////////////////////////////////////////////////////////////////////\n\npragma solidity ^0.5.2;\n\n// https://openzeppelin.org/api/docs/math_SafeMath.html\nimport \"openzeppelin-solidity/contracts/math/SafeMath.sol\";\n\n// https://openzeppelin.org/api/docs/cryptography_ECDSA.html\nimport \"openzeppelin-solidity/contracts/cryptography/ECDSA.sol\";\n\nimport \"./XBRToken.sol\";\n\n\n/**\n * XBR Payment/Paying Channel between a XBR data consumer and the XBR market maker,\n * or the XBR Market Maker and a XBR data provider.\n */\ncontract XBRChannel {\n\n    // Add safe math functions to uint256 using SafeMath lib from OpenZeppelin\n    using SafeMath for uint256;\n\n    // Add recover method for bytes32 using ECDSA lib from OpenZeppelin\n    using ECDSA for bytes32;\n\n    uint256 constant chainId = 5777;\n\n    address constant verifyingContract = 0x254dffcd3277C0b1660F6d42EFbB754edaBAbC2B;\n\n    string private constant EIP712_DOMAIN = \"EIP712Domain(string name,string version,uint256 chainId,address verifyingContract)\";\n\n    bytes32 private constant EIP712_DOMAIN_TYPEHASH = keccak256(abi.encodePacked(EIP712_DOMAIN));\n\n    string private constant TRANSACTION_TYPE = \"Transaction(uint256 pubkey,uint128 key_id,uint32 channel_seq,uint256 amount,uint256 balance)\";\n\n    bytes32 private constant TRANSACTION_DOMAIN_TYPEHASH = keccak256(abi.encodePacked(TRANSACTION_TYPE));\n\n    bytes32 private constant DOMAIN_SEPARATOR = keccak256(abi.encode(\n        EIP712_DOMAIN_TYPEHASH,\n        keccak256(\"XBR\"),\n        keccak256(\"1\"),\n        chainId,\n        verifyingContract\n    ));\n\n    /// XBR Network ERC20 token (XBR for the CrossbarFX technology stack)\n    XBRToken private _token;\n\n    /// Payment channel types.\n    enum ChannelType { NONE, PAYMENT, PAYING }\n\n    /// Payment channel states.\n    enum ChannelState { NONE, OPEN, CLOSING, CLOSED }\n\n    /// Current payment channel type (either payment or paying channel).\n    ChannelType private _type;\n\n    /// Current payment channel state.\n    ChannelState private _state;\n\n    /// The XBR Market ID this channel is operating payments (or payouts) for.\n    bytes16 private _marketId;\n\n    /**\n     * The sender of the payments in this channel. Either a XBR Consumer (delegate) in case\n     * of a payment channel, or the XBR Market Maker (delegate) in case of a paying channel.\n     */\n    address private _sender;\n\n    /**\n     * The other delegate of the channel, e.g. the XBR Market Maker in case of a payment channel,\n     * or a XBR Provider (delegate) in case of a paying channel.\n     */\n    address private _delegate;\n\n    /**\n     * Recipient of the payments in this channel. Either the XBR Market Operator (payment\n     * channels) or a XBR Provider (paying channels).\n     */\n    address private _recipient;\n\n    /// Amount of XBR held in the channel.\n    uint256 private _amount;\n\n    /// Block number when the channel was created.\n    uint256 private _openedAt;\n\n    /// Block number when the channel was closed (finally, after the timeout).\n    uint256 private _closedAt;\n\n    /**\n     * Timeout with which the channel will be closed (the grace period during which the\n     * channel will wait for participants to submit their last signed transaction).\n     */\n    uint32 private _channelTimeout;\n\n    /// Signatures of the channel participants (when channel is closing).\n    mapping (bytes32 => address) private _signatures;\n\n    /**\n     * Event emitted when payment channel is closing (that is, one of the two state channel\n     * participants has called \"close()\", initiating start of the channel timeout).\n     */\n    event Closing(bytes16 indexed marketId, address signer, uint256 amount, uint256 timeoutAt);\n\n    /**\n     * Event emitted when payment channel has finally closed, which happens after both state\n     * channel participants have called close(), agreeing on last state, or after the timeout\n     * at latest - in case the second participant doesn't react within timeout)\n     */\n    event Closed(bytes16 indexed marketId, address signer, uint256 amount, uint256 closedAt);\n\n    /**\n     * Create a new XBR payment channel for handling microtransactions of XBR tokens.\n     *\n     * @param marketId The ID of the XBR market this payment channel is associated with.\n     * @param sender The sender (onchain) of the payments.\n     * @param delegate The offchain delegate allowed to spend XBR offchain, from the channel,\n     *     in the name of the original sender.\n     * @param recipient The receiver (onchain) of the payments.\n     * @param amount The amount of XBR held in the channel.\n     * @param channelTimeout The payment channel timeout period that begins with the first call to `close()`\n     */\n    constructor (address token, bytes16 marketId, address sender, address delegate, address recipient, uint256 amount,\n        uint32 channelTimeout, ChannelType channelType) public {\n\n        _token = XBRToken(token);\n        _type = channelType;\n        _state = ChannelState.OPEN;\n        _marketId = marketId;\n        _sender = sender;\n        _delegate = delegate;\n        _recipient = recipient;\n        _amount = amount;\n        _channelTimeout = channelTimeout;\n        _openedAt = block.number; // solhint-disable-line\n    }\n\n    /**\n     * Verify transaction typed data was signed by signer.\n     */\n    function verifyTransaction (address signer,\n                                bytes32 tx_pubkey, bytes16 tx_key_id, uint32 tx_channel_seq,\n                                uint256 tx_amount, uint256 tx_balance,\n                                uint8 v, bytes32 r, bytes32 s) public pure returns (bool) {\n/*\nFIXME: commenting in the following code leads to \"ran out of gas\" during deployment. why?\n\n        return signer == ecrecover(keccak256(abi.encodePacked(\n            \"\\\\x19\\\\x01\",\n            DOMAIN_SEPARATOR,\n            keccak256(abi.encode(\n                TRANSACTION_DOMAIN_TYPEHASH,\n                tx_pubkey,\n                tx_key_id,\n                tx_channel_seq,\n                tx_amount,\n                tx_balance\n            ))\n        )), v, r, s);\n*/\n        return true;\n    }\n\n    /**\n     * The XBR Market ID this channel is operating payments for.\n     */\n    function channelType () public view returns (ChannelType) {\n        return _type;\n    }\n\n    /**\n     * The XBR Market ID this channel is operating payments for.\n     */\n    function channelState () public view returns (ChannelState) {\n        return _state;\n    }\n\n    /**\n     * The XBR Market ID this channel is operating payments for.\n     */\n    function marketId () public view returns (bytes16) {\n        return _marketId;\n    }\n\n    /**\n     * The sender of the payments in this channel. Either a XBR Consumer or XBR Market Maker (delegate).\n     */\n    function sender () public view returns (address) {\n        return _sender;\n    }\n\n    /**\n     * The delegate working for the sender, and using this channel to pay for data keys. E.g. a\n     * XBR Consumer (delegate) or XBR Provider (delegate).\n     */\n    function delegate () public view returns (address) {\n        return _delegate;\n    }\n\n    /**\n     * Recipient of the payments in this channel. Either a XBR Market Maker (delegate) or a XBR Provider.\n     */\n    function recipient () public view returns (address) {\n        return _recipient;\n    }\n\n    /**\n     * Amount of XBR held in the channel.\n     */\n    function amount () public view returns (uint256) {\n        return _amount;\n    }\n\n    /**\n     * Block number when the channel was created.\n     */\n    function openedAt () public view returns (uint256) {\n        return _openedAt;\n    }\n\n    /**\n     * Block number when the channel was closed (finally, after the timeout).\n     */\n    function closedAt () public view returns (uint256) {\n        return _closedAt;\n    }\n\n    /**\n     * Timeout with which the channel will be closed (the grace period during which the\n     * channel will wait for participants to submit their last signed transaction).\n     */\n    function channelTimeout () public view returns (uint32) {\n        return _channelTimeout;\n    }\n\n    /**\n     * Trigger closing this payment channel. When the first participant has called `close()`\n     * submitting its latest transaction/state, a timeout period begins during which the\n     * other party of the payment channel has to submit its latest transaction/state too.\n     * When both transaction have been submitted, and the submitted transactions/states agree,\n     * the channel immediately closes, and the consumed amount of token in the channel is\n     * transferred to the channel recipient, and the remaining amount of token is transferred\n     * back to the original sender.\n     */\n    function close (bytes32 tx_pubkey, bytes16 tx_key_id, uint32 tx_channel_seq, uint256 tx_amount, uint256 tx_balance,\n                    uint8 delegate_v, bytes32 delegate_r, bytes32 delegate_s,\n                    uint8 marketmaker_v, bytes32 marketmaker_r, bytes32 marketmaker_s) public {\n\n/*\n        if (_type == XBRChannel.ChannelType.PAYMENT) {\n            require(verifyTransaction(_sender, tx_pubkey, tx_key_id, tx_channel_seq, tx_amount, tx_balance, marketmaker_v, marketmaker_r, marketmaker_s), \"INVALID_MARKETMAKER_SIGNATURE\");\n            require(verifyTransaction(_delegate, tx_pubkey, tx_key_id, tx_channel_seq, tx_amount, tx_balance, delegate_v, delegate_r, delegate_s), \"INVALID_DELEGATE_SIGNATURE\");\n        } else {\n            require(verifyTransaction(_delegate, tx_pubkey, tx_key_id, tx_channel_seq, tx_amount, tx_balance, marketmaker_v, marketmaker_r, marketmaker_s), \"INVALID_MARKETMAKER_SIGNATURE\");\n            require(verifyTransaction(_sender, tx_pubkey, tx_key_id, tx_channel_seq, tx_amount, tx_balance, delegate_v, delegate_r, delegate_s), \"INVALID_DELEGATE_SIGNATURE\");\n        }\n*/\n        require(_state == ChannelState.OPEN, \"CHANNEL_NOT_OPEN\");\n\n        // approve(address spender, uint256 amount) external returns (bool)\n        // transferFrom(address sender, address recipient, uint256 amount)\n        // revert(\"invalid signature\");\n        // selfdestruct(_sender);\n\n        // bool success = _token.transferFrom(address(this), _recipient, _amount);\n        bool success = _token.transfer(_recipient, _amount);\n        require(success, \"CHANNEL_CLOSE_TRANSFER_FAILED\");\n\n        // FIXME: selfdestruct ?! to whom?\n        // FIXME: recipient amount_amount vs tx_amount vs ..\n        // FIXME: network fee\n\n        _closedAt = block.number; // solhint-disable-line\n        _state = ChannelState.CLOSED;\n        emit Closed(_marketId, _sender, _amount, _closedAt);\n    }\n}\n",
  "sourcePath": "/home/oberstet/scm/crossbario/xbr-protocol/contracts/XBRChannel.sol",
  "compiler": {
    "name": "solc",
    "version": "0.5.2+commit.1df8f40c.Emscripten.clang"
  },
  "schemaVersion": "3.0.11",
  "updatedAt": "2019-07-28T12:38:08.496Z",
  "devdoc": {
    "methods": {
      "constructor": {
        "params": {
          "amount": "The amount of XBR held in the channel.",
          "channelTimeout": "The payment channel timeout period that begins with the first call to `close()`",
          "delegate": "The offchain delegate allowed to spend XBR offchain, from the channel,    in the name of the original sender.",
          "marketId": "The ID of the XBR market this payment channel is associated with.",
          "recipient": "The receiver (onchain) of the payments.",
          "sender": "The sender (onchain) of the payments."
        }
      }
    }
  },
  "userdoc": {
    "methods": {
      "amount()": {
        "notice": "Amount of XBR held in the channel."
      },
      "channelState()": {
        "notice": "The XBR Market ID this channel is operating payments for."
      },
      "channelTimeout()": {
        "notice": "Timeout with which the channel will be closed (the grace period during which the channel will wait for participants to submit their last signed transaction)."
      },
      "channelType()": {
        "notice": "The XBR Market ID this channel is operating payments for."
      },
      "close(bytes32,bytes16,uint32,uint256,uint256,uint8,bytes32,bytes32,uint8,bytes32,bytes32)": {
        "notice": "Trigger closing this payment channel. When the first participant has called `close()` submitting its latest transaction/state, a timeout period begins during which the other party of the payment channel has to submit its latest transaction/state too. When both transaction have been submitted, and the submitted transactions/states agree, the channel immediately closes, and the consumed amount of token in the channel is transferred to the channel recipient, and the remaining amount of token is transferred back to the original sender."
      },
      "closedAt()": {
        "notice": "Block number when the channel was closed (finally, after the timeout)."
      },
      "constructor": "Create a new XBR payment channel for handling microtransactions of XBR tokens.",
      "delegate()": {
        "notice": "The delegate working for the sender, and using this channel to pay for data keys. E.g. a XBR Consumer (delegate) or XBR Provider (delegate)."
      },
      "marketId()": {
        "notice": "The XBR Market ID this channel is operating payments for."
      },
      "openedAt()": {
        "notice": "Block number when the channel was created."
      },
      "recipient()": {
        "notice": "Recipient of the payments in this channel. Either a XBR Market Maker (delegate) or a XBR Provider."
      },
      "sender()": {
        "notice": "The sender of the payments in this channel. Either a XBR Consumer or XBR Market Maker (delegate)."
      },
      "verifyTransaction(address,bytes32,bytes16,uint32,uint256,uint256,uint8,bytes32,bytes32)": {
        "notice": "Verify transaction typed data was signed by signer."
      }
    },
    "notice": "XBR Payment/Paying Channel between a XBR data consumer and the XBR market maker, or the XBR Market Maker and a XBR data provider."
  }
}