{
  "contractName": "XBRCatalog",
  "abi": [
    {
      "inputs": [
        {
          "internalType": "address",
          "name": "networkAdr",
          "type": "address"
        }
      ],
      "payable": false,
      "stateMutability": "nonpayable",
      "type": "constructor"
    },
    {
      "anonymous": false,
      "inputs": [
        {
          "indexed": true,
          "internalType": "bytes16",
          "name": "catalogId",
          "type": "bytes16"
        },
        {
          "indexed": false,
          "internalType": "bytes16",
          "name": "apiId",
          "type": "bytes16"
        },
        {
          "indexed": false,
          "internalType": "uint256",
          "name": "published",
          "type": "uint256"
        },
        {
          "indexed": false,
          "internalType": "string",
          "name": "schema",
          "type": "string"
        },
        {
          "indexed": false,
          "internalType": "string",
          "name": "meta",
          "type": "string"
        }
      ],
      "name": "ApiPublished",
      "type": "event"
    },
    {
      "anonymous": false,
      "inputs": [
        {
          "indexed": true,
          "internalType": "bytes16",
          "name": "catalogId",
          "type": "bytes16"
        },
        {
          "indexed": false,
          "internalType": "uint256",
          "name": "created",
          "type": "uint256"
        },
        {
          "indexed": false,
          "internalType": "uint32",
          "name": "catalogSeq",
          "type": "uint32"
        },
        {
          "indexed": false,
          "internalType": "address",
          "name": "owner",
          "type": "address"
        },
        {
          "indexed": false,
          "internalType": "string",
          "name": "terms",
          "type": "string"
        },
        {
          "indexed": false,
          "internalType": "string",
          "name": "meta",
          "type": "string"
        }
      ],
      "name": "CatalogCreated",
      "type": "event"
    },
    {
      "anonymous": false,
      "inputs": [
        {
          "indexed": true,
          "internalType": "address",
          "name": "account",
          "type": "address"
        }
      ],
      "name": "MaintainerAdded",
      "type": "event"
    },
    {
      "anonymous": false,
      "inputs": [
        {
          "indexed": true,
          "internalType": "address",
          "name": "account",
          "type": "address"
        }
      ],
      "name": "MaintainerRemoved",
      "type": "event"
    },
    {
      "constant": false,
      "inputs": [
        {
          "internalType": "address",
          "name": "account",
          "type": "address"
        }
      ],
      "name": "addMaintainer",
      "outputs": [],
      "payable": false,
      "stateMutability": "nonpayable",
      "type": "function"
    },
    {
      "constant": true,
      "inputs": [
        {
          "internalType": "uint256",
          "name": "",
          "type": "uint256"
        }
      ],
      "name": "catalogIds",
      "outputs": [
        {
          "internalType": "bytes16",
          "name": "",
          "type": "bytes16"
        }
      ],
      "payable": false,
      "stateMutability": "view",
      "type": "function"
    },
    {
      "constant": true,
      "inputs": [
        {
          "internalType": "bytes16",
          "name": "",
          "type": "bytes16"
        }
      ],
      "name": "catalogs",
      "outputs": [
        {
          "internalType": "uint256",
          "name": "created",
          "type": "uint256"
        },
        {
          "internalType": "uint32",
          "name": "seq",
          "type": "uint32"
        },
        {
          "internalType": "address",
          "name": "owner",
          "type": "address"
        },
        {
          "internalType": "string",
          "name": "terms",
          "type": "string"
        },
        {
          "internalType": "string",
          "name": "meta",
          "type": "string"
        },
        {
          "internalType": "bytes",
          "name": "signature",
          "type": "bytes"
        }
      ],
      "payable": false,
      "stateMutability": "view",
      "type": "function"
    },
    {
      "constant": true,
      "inputs": [
        {
          "internalType": "address",
          "name": "account",
          "type": "address"
        }
      ],
      "name": "isMaintainer",
      "outputs": [
        {
          "internalType": "bool",
          "name": "",
          "type": "bool"
        }
      ],
      "payable": false,
      "stateMutability": "view",
      "type": "function"
    },
    {
      "constant": true,
      "inputs": [],
      "name": "network",
      "outputs": [
        {
          "internalType": "contract XBRNetwork",
          "name": "",
          "type": "address"
        }
      ],
      "payable": false,
      "stateMutability": "view",
      "type": "function"
    },
    {
      "constant": false,
      "inputs": [],
      "name": "renounceMaintainer",
      "outputs": [],
      "payable": false,
      "stateMutability": "nonpayable",
      "type": "function"
    },
    {
      "constant": false,
      "inputs": [
        {
          "internalType": "bytes16",
          "name": "catalogId",
          "type": "bytes16"
        },
        {
          "internalType": "string",
          "name": "terms",
          "type": "string"
        },
        {
          "internalType": "string",
          "name": "meta",
          "type": "string"
        }
      ],
      "name": "createCatalog",
      "outputs": [],
      "payable": false,
      "stateMutability": "nonpayable",
      "type": "function"
    },
    {
      "constant": false,
      "inputs": [
        {
          "internalType": "address",
          "name": "member",
          "type": "address"
        },
        {
          "internalType": "uint256",
          "name": "created",
          "type": "uint256"
        },
        {
          "internalType": "bytes16",
          "name": "catalogId",
          "type": "bytes16"
        },
        {
          "internalType": "string",
          "name": "terms",
          "type": "string"
        },
        {
          "internalType": "string",
          "name": "meta",
          "type": "string"
        },
        {
          "internalType": "bytes",
          "name": "signature",
          "type": "bytes"
        }
      ],
      "name": "createCatalogFor",
      "outputs": [],
      "payable": false,
      "stateMutability": "nonpayable",
      "type": "function"
    },
    {
      "constant": false,
      "inputs": [
        {
          "internalType": "bytes16",
          "name": "catalogId",
          "type": "bytes16"
        },
        {
          "internalType": "bytes16",
          "name": "apiId",
          "type": "bytes16"
        },
        {
          "internalType": "string",
          "name": "schema",
          "type": "string"
        },
        {
          "internalType": "string",
          "name": "meta",
          "type": "string"
        }
      ],
      "name": "publishApi",
      "outputs": [],
      "payable": false,
      "stateMutability": "nonpayable",
      "type": "function"
    },
    {
      "constant": false,
      "inputs": [
        {
          "internalType": "address",
          "name": "member",
          "type": "address"
        },
        {
          "internalType": "uint256",
          "name": "published",
          "type": "uint256"
        },
        {
          "internalType": "bytes16",
          "name": "catalogId",
          "type": "bytes16"
        },
        {
          "internalType": "bytes16",
          "name": "apiId",
          "type": "bytes16"
        },
        {
          "internalType": "string",
          "name": "schema",
          "type": "string"
        },
        {
          "internalType": "string",
          "name": "meta",
          "type": "string"
        },
        {
          "internalType": "bytes",
          "name": "signature",
          "type": "bytes"
        }
      ],
      "name": "publishApiFor",
      "outputs": [],
      "payable": false,
      "stateMutability": "nonpayable",
      "type": "function"
    }
  ],
  "bytecode": "0x60806040526001805463ffffffff60a01b1916600160a01b1790553480156200002757600080fd5b5060405162001f8338038062001f838339810160408190526200004a9162000195565b6200005e336001600160e01b036200008416565b600180546001600160a01b0319166001600160a01b039290921691909117905562000298565b6200009f816000620000d660201b62000f271790919060201c565b6040516001600160a01b038216907f1390a149489c82e9e2e89927bdb17ad1ea3f0cc314fce06c96369721d3afb8f090600090a250565b620000eb82826001600160e01b036200013916565b15620001145760405162461bcd60e51b81526004016200010b906200023f565b60405180910390fd5b6001600160a01b0316600090815260209190915260409020805460ff19166001179055565b60006001600160a01b038216620001645760405162461bcd60e51b81526004016200010b9062000251565b506001600160a01b03811660009081526020839052604090205460ff165b92915050565b805162000182816200027e565b600060208284031215620001a857600080fd5b6000620001b6848462000188565b949350505050565b6000620001cd601f8362000263565b7f526f6c65733a206163636f756e7420616c72656164792068617320726f6c6500815260200192915050565b60006200020860228362000263565b7f526f6c65733a206163636f756e7420697320746865207a65726f206164647265815261737360f01b602082015260400192915050565b602080825281016200018281620001be565b602080825281016200018281620001f9565b90815260200190565b60006001600160a01b03821662000182565b62000289816200026c565b81146200029557600080fd5b50565b611cdb80620002a86000396000f3fe608060405234801561001057600080fd5b506004361061009e5760003560e01c8063b81a9f3d11610066578063b81a9f3d14610116578063d4a39aac14610129578063dd57366a1461013c578063ef4172611461015c578063fd4ed6cb1461017c5761009e565b8063314db06b146100a35780635784f358146100ad57806357c50b2b146100c05780636739afca146100ee5780636b453c1f14610103575b600080fd5b6100ab61018f565b005b6100ab6100bb366004611322565b61019a565b6100d36100ce366004611304565b6101be565b6040516100e596959493929190611b15565b60405180910390f35b6100f66103a1565b6040516100e591906119ee565b6100ab6101113660046110f5565b6103b0565b6100ab61012436600461121a565b6103ce565b6100ab610137366004611139565b610610565b61014f61014a3660046110f5565b61085c565b6040516100e591906119d2565b61016f61016a36600461142c565b610874565b6040516100e591906119e0565b6100ab61018a3660046113b1565b6108a8565b610198336108ca565b565b6101b833438686868660405180602001604052806000815250610912565b50505050565b6002602081815260009283526040928390208054600180830154838601805488516101009482161594909402600019011696909604601f8101869004860283018601909752868252919563ffffffff8316956401000000009093046001600160a01b0316949192918301828280156102775780601f1061024c57610100808354040283529160200191610277565b820191906000526020600020905b81548152906001019060200180831161025a57829003601f168201915b5050505060038301805460408051602060026001851615610100026000190190941693909304601f81018490048402820184019092528181529495949350908301828280156103075780601f106102dc57610100808354040283529160200191610307565b820191906000526020600020905b8154815290600101906020018083116102ea57829003601f168201915b5050505060048301805460408051602060026001851615610100026000190190941693909304601f81018490048402820184019092528181529495949350908301828280156103975780601f1061036c57610100808354040283529160200191610397565b820191906000526020600020905b81548152906001019060200180831161037a57829003601f168201915b5050505050905086565b6001546001600160a01b031681565b6103b93361085c565b6103c257600080fd5b6103cb81610b5a565b50565b73__XBRTypes______________________________63a0736940876040518060e00160405280600160009054906101000a90046001600160a01b03166001600160a01b03166359c8e6036040518163ffffffff1660e01b815260040160206040518083038186803b15801561044257600080fd5b505afa158015610456573d6000803e3d6000fd5b505050506040513d601f19601f8201168201806040525061047a919081019061144a565b81526001546040805163a787d61b60e01b815290516020938401936001600160a01b039093169263a787d61b9260048082019391829003018186803b1580156104c257600080fd5b505afa1580156104d6573d6000803e3d6000fd5b505050506040513d601f19601f820116820180604052506104fa919081019061111b565b6001600160a01b031681526020018a6001600160a01b03168152602001898152602001886001600160801b031916815260200187815260200186815250846040518463ffffffff1660e01b8152600401610556939291906119b2565b60206040518083038186803b15801561056e57600080fd5b505af4158015610582573d6000803e3d6000fd5b505050506040513d601f19601f820116820180604052506105a691908101906112e6565b6105cb5760405162461bcd60e51b81526004016105c290611a8c565b60405180910390fd5b4385111580156105de5750600443038510155b6105fa5760405162461bcd60e51b81526004016105c290611a1c565b610608868686868686610ba2565b505050505050565b73__XBRTypes______________________________63efc9731c88604051806101000160405280600160009054906101000a90046001600160a01b03166001600160a01b03166359c8e6036040518163ffffffff1660e01b815260040160206040518083038186803b15801561068557600080fd5b505afa158015610699573d6000803e3d6000fd5b505050506040513d601f19601f820116820180604052506106bd919081019061144a565b81526001546040805163a787d61b60e01b815290516020938401936001600160a01b039093169263a787d61b9260048082019391829003018186803b15801561070557600080fd5b505afa158015610719573d6000803e3d6000fd5b505050506040513d601f19601f8201168201806040525061073d919081019061111b565b6001600160a01b031681526020018b6001600160a01b031681526020018a8152602001896001600160801b0319168152602001886001600160801b031916815260200187815260200186815250846040518463ffffffff1660e01b81526004016107a99392919061197e565b60206040518083038186803b1580156107c157600080fd5b505af41580156107d5573d6000803e3d6000fd5b505050506040513d601f19601f820116820180604052506107f991908101906112e6565b6108155760405162461bcd60e51b81526004016105c290611a6c565b4386111580156108285750600443038610155b6108445760405162461bcd60e51b81526004016105c290611a3c565b61085387878787878787610912565b50505050505050565b600061086e818363ffffffff610e9716565b92915050565b6003818154811061088157fe5b9060005260206000209060029182820401919006601002915054906101000a900460801b81565b6108c5334385858560405180602001604052806000815250610ba2565b505050565b6108db60008263ffffffff610edf16565b6040516001600160a01b038216907fa7b36d52bea726c3aa90d876d0e52a1089a347b3e3408a03f08eae32f96fdbb490600090a250565b60015460405163022b92c360e21b81526000916001600160a01b0316906308ae4b0c90610943908b90600401611970565b60006040518083038186803b15801561095b57600080fd5b505afa15801561096f573d6000803e3d6000fd5b505050506040513d6000823e601f3d908101601f191682016040526109979190810190611468565b509350600192506109a6915050565b8160058111156109b257fe5b146109cf5760405162461bcd60e51b81526004016105c290611a2c565b6001600160801b0319861660009081526002602052604090206001015464010000000090046001600160a01b0316610a195760405162461bcd60e51b81526004016105c290611a0c565b6001600160801b031986166000908152600260205260409020600101546001600160a01b038981166401000000009092041614610a685760405162461bcd60e51b81526004016105c290611aac565b6001600160801b03198087166000908152600260209081526040808320938916835260059093019052205415610ab05760405162461bcd60e51b81526004016105c290611a5c565b604080516080810182528881526020808201878152828401879052606083018690526001600160801b0319808b16600090815260028452858120918b16815260059091018352939093208251815592518051929392610b159260018501920190610f73565b5060408201518051610b31916002840191602090910190610f73565b5060608201518051610b4d916003840191602090910190610f73565b5050505050505050505050565b610b6b60008263ffffffff610f2716565b6040516001600160a01b038216907f1390a149489c82e9e2e89927bdb17ad1ea3f0cc314fce06c96369721d3afb8f090600090a250565b60015460405163022b92c360e21b81526000916001600160a01b0316906308ae4b0c90610bd3908a90600401611970565b60006040518083038186803b158015610beb57600080fd5b505afa158015610bff573d6000803e3d6000fd5b505050506040513d6000823e601f3d908101601f19168201604052610c279190810190611468565b50935060019250610c36915050565b816005811115610c4257fe5b1480610c5957506002816005811115610c5757fe5b145b610c755760405162461bcd60e51b81526004016105c290611a2c565b6001600160801b0319851660009081526002602052604090206001015464010000000090046001600160a01b031615610cc05760405162461bcd60e51b81526004016105c290611a9c565b6040805160c08101825287815260018054600160a01b900463ffffffff90811660208085019182526001600160a01b038d8116868801908152606087018c8152608088018c905260a088018b90526001600160801b03198e16600090815260028086529990208851815594519685018054925163ffffffff199093169790961696909617640100000000600160c01b0319166401000000009190921602179092559151805193949293610d7a938501929190910190610f73565b5060808201518051610d96916003840191602090910190610f73565b5060a08201518051610db2916004840191602090910190610f73565b505060038054600180820183556000929092527fc2575a0e9e593c00f959f8c92f12db2869c3395a3b0502d05e2516446f71f85b600282040180546001600160801b039284166010026101000a928302191660808a901c92909202919091179055805463ffffffff60a01b198116600160a01b9182900463ffffffff90811684018116830291909117928390556040516001600160801b03198a1694507f9ed7833d6b5e64c6ffaf3fa3b96b119205c7e408d70650f7aee67ccca5c5682893610e86938c93910416908c908a908a90611abc565b60405180910390a250505050505050565b60006001600160a01b038216610ebf5760405162461bcd60e51b81526004016105c290611a7c565b506001600160a01b03166000908152602091909152604090205460ff1690565b610ee98282610e97565b610f055760405162461bcd60e51b81526004016105c290611a4c565b6001600160a01b0316600090815260209190915260409020805460ff19169055565b610f318282610e97565b15610f4e5760405162461bcd60e51b81526004016105c2906119fc565b6001600160a01b0316600090815260209190915260409020805460ff19166001179055565b828054600181600116156101000203166002900490600052602060002090601f016020900481019282601f10610fb457805160ff1916838001178555610fe1565b82800160010185558215610fe1579182015b82811115610fe1578251825591602001919060010190610fc6565b50610fed929150610ff1565b5090565b61100b91905b80821115610fed5760008155600101610ff7565b90565b803561086e81611c5c565b805161086e81611c5c565b805161086e81611c70565b803561086e81611c79565b600082601f83011261104b57600080fd5b815161105e61105982611ba9565b611b83565b9150808252602083016020830185838301111561107a57600080fd5b611085838284611c26565b50505092915050565b600082601f83011261109f57600080fd5b81356110ad61105982611ba9565b915080825260208301602083018583830111156110c957600080fd5b611085838284611c1a565b805161086e81611c82565b803561086e81611c8f565b805161086e81611c8f565b60006020828403121561110757600080fd5b6000611113848461100e565b949350505050565b60006020828403121561112d57600080fd5b60006111138484611019565b600080600080600080600060e0888a03121561115457600080fd5b60006111608a8a61100e565b97505060206111718a828b016110df565b96505060406111828a828b0161102f565b95505060606111938a828b0161102f565b94505060808801356001600160401b038111156111af57600080fd5b6111bb8a828b0161108e565b93505060a08801356001600160401b038111156111d757600080fd5b6111e38a828b0161108e565b92505060c08801356001600160401b038111156111ff57600080fd5b61120b8a828b0161108e565b91505092959891949750929550565b60008060008060008060c0878903121561123357600080fd5b600061123f898961100e565b965050602061125089828a016110df565b955050604061126189828a0161102f565b94505060608701356001600160401b0381111561127d57600080fd5b61128989828a0161108e565b93505060808701356001600160401b038111156112a557600080fd5b6112b189828a0161108e565b92505060a08701356001600160401b038111156112cd57600080fd5b6112d989828a0161108e565b9150509295509295509295565b6000602082840312156112f857600080fd5b60006111138484611024565b60006020828403121561131657600080fd5b6000611113848461102f565b6000806000806080858703121561133857600080fd5b6000611344878761102f565b94505060206113558782880161102f565b93505060408501356001600160401b0381111561137157600080fd5b61137d8782880161108e565b92505060608501356001600160401b0381111561139957600080fd5b6113a58782880161108e565b91505092959194509250565b6000806000606084860312156113c657600080fd5b60006113d2868661102f565b93505060208401356001600160401b038111156113ee57600080fd5b6113fa8682870161108e565b92505060408401356001600160401b0381111561141657600080fd5b6114228682870161108e565b9150509250925092565b60006020828403121561143e57600080fd5b600061111384846110df565b60006020828403121561145c57600080fd5b600061111384846110ea565b600080600080600060a0868803121561148057600080fd5b600061148c88886110ea565b95505060208601516001600160401b038111156114a857600080fd5b6114b48882890161103a565b94505060408601516001600160401b038111156114d057600080fd5b6114dc8882890161103a565b93505060606114ed888289016110d4565b92505060808601516001600160401b0381111561150957600080fd5b6115158882890161103a565b9150509295509295909350565b61152b81611bdd565b82525050565b61152b81611be8565b61152b81611bed565b600061154e82611bd0565b6115588185611bd4565b9350611568818560208601611c26565b61157181611c52565b9093019392505050565b61152b81611c0f565b6000611591601f83611bd4565b7f526f6c65733a206163636f756e7420616c72656164792068617320726f6c6500815260200192915050565b60006115ca600f83611bd4565b6e4e4f5f535543485f434154414c4f4760881b815260200192915050565b60006115f5602383611bd4565b7f494e56414c49445f434154414c4f475f4352454154455f424c4f434b5f4e554d8152622122a960e91b602082015260400192915050565b600061163a601383611bd4565b7229a2a72222a92fa727aa2fa0afa6a2a6a122a960691b815260200192915050565b6000611669602083611bd4565b7f494e56414c49445f4150495f5055424c4953485f424c4f434b5f4e554d424552815260200192915050565b60006116a2602183611bd4565b7f526f6c65733a206163636f756e7420646f6573206e6f74206861766520726f6c8152606560f81b602082015260400192915050565b60006116e5601283611bd4565b714150495f414c52454144595f45584953545360701b815260200192915050565b6000611713601d83611bd4565b7f494e56414c49445f4150495f5055424c4953485f5349474e4154555245000000815260200192915050565b600061174c602283611bd4565b7f526f6c65733a206163636f756e7420697320746865207a65726f206164647265815261737360f01b602082015260400192915050565b6000611790602083611bd4565b7f494e56414c49445f434154414c4f475f4352454154455f5349474e4154555245815260200192915050565b60006117c9601683611bd4565b75434154414c4f475f414c52454144595f45584953545360501b815260200192915050565b60006117fb601383611bd4565b7229a2a72222a92fa4a9afa727aa2fa7aba722a960691b815260200192915050565b8051600090610100840190611832858261195e565b5060208301516118456020860182611522565b5060408301516118586040860182611522565b50606083015161186b606086018261195e565b50608083015161187e608086018261153a565b5060a083015161189160a086018261153a565b5060c083015184820360c08601526118a98282611543565b91505060e083015184820360e08601526118c38282611543565b95945050505050565b805160009060e08401906118e0858261195e565b5060208301516118f36020860182611522565b5060408301516119066040860182611522565b506060830151611919606086018261195e565b50608083015161192c608086018261153a565b5060a083015184820360a08601526119448282611543565b91505060c083015184820360c08601526118c38282611543565b61152b8161100b565b61152b81611c06565b6020810161086e8284611522565b6060810161198c8286611522565b818103602083015261199e818561181d565b905081810360408301526118c38184611543565b606081016119c08286611522565b818103602083015261199e81856118cc565b6020810161086e8284611531565b6020810161086e828461153a565b6020810161086e828461157b565b6020808252810161086e81611584565b6020808252810161086e816115bd565b6020808252810161086e816115e8565b6020808252810161086e8161162d565b6020808252810161086e8161165c565b6020808252810161086e81611695565b6020808252810161086e816116d8565b6020808252810161086e81611706565b6020808252810161086e8161173f565b6020808252810161086e81611783565b6020808252810161086e816117bc565b6020808252810161086e816117ee565b60a08101611aca828861195e565b611ad76020830187611967565b611ae46040830186611522565b8181036060830152611af68185611543565b90508181036080830152611b0a8184611543565b979650505050505050565b60c08101611b23828961195e565b611b306020830188611967565b611b3d6040830187611522565b8181036060830152611b4f8186611543565b90508181036080830152611b638185611543565b905081810360a0830152611b778184611543565b98975050505050505050565b6040518181016001600160401b0381118282101715611ba157600080fd5b604052919050565b60006001600160401b03821115611bbf57600080fd5b506020601f91909101601f19160190565b5190565b90815260200190565b600061086e82611bfa565b151590565b6001600160801b03191690565b6001600160a01b031690565b63ffffffff1690565b600061086e82611bdd565b82818337506000910152565b60005b83811015611c41578181015183820152602001611c29565b838111156101b85750506000910152565b601f01601f191690565b611c6581611bdd565b81146103cb57600080fd5b611c6581611be8565b611c6581611bed565b600681106103cb57600080fd5b611c658161100b56fea365627a7a72315820ed5a8c20be025cf9e271c08bd152304113bedbc266bf2208740f7000f12906f76c6578706572696d656e74616cf564736f6c63430005100040",
  "source": "///////////////////////////////////////////////////////////////////////////////\n//\n//  Copyright (C) 2018-2020 Crossbar.io Technologies GmbH and contributors.\n//\n//  Licensed under the Apache License, Version 2.0 (the \"License\");\n//  you may not use this file except in compliance with the License.\n//  You may obtain a copy of the License at\n//\n//      http://www.apache.org/licenses/LICENSE-2.0\n//\n//  Unless required by applicable law or agreed to in writing, software\n//  distributed under the License is distributed on an \"AS IS\" BASIS,\n//  WITHOUT WARRANTIES OR CONDITIONS OF ANY KIND, either express or implied.\n//  See the License for the specific language governing permissions and\n//  limitations under the License.\n//\n///////////////////////////////////////////////////////////////////////////////\n\npragma solidity ^0.5.12;\npragma experimental ABIEncoderV2;\n\n// https://openzeppelin.org/api/docs/math_SafeMath.html\nimport \"openzeppelin-solidity/contracts/math/SafeMath.sol\";\n\nimport \"./XBRMaintained.sol\";\nimport \"./XBRTypes.sol\";\nimport \"./XBRToken.sol\";\nimport \"./XBRNetwork.sol\";\n\n\n/// XBR API catalogs contract.\ncontract XBRCatalog is XBRMaintained {\n\n    // Add safe math functions to uint256 using SafeMath lib from OpenZeppelin\n    using SafeMath for uint256;\n\n    /// Event emitted when a new catalog was created.\n    event CatalogCreated (bytes16 indexed catalogId, uint256 created, uint32 catalogSeq,\n        address owner, string terms, string meta);\n\n    /// Event emitted when an API has been published to a catalog.\n    event ApiPublished (bytes16 indexed catalogId, bytes16 apiId, uint256 published,\n        string schema, string meta);\n\n    /// Instance of XBRNetwork contract this contract is linked to.\n    XBRNetwork public network;\n\n    /// Created catalogs are sequence numbered using this counter (to allow deterministic collision-free IDs for markets)\n    uint32 private catalogSeq = 1;\n\n    /// Current XBR Catalogs (\"catalog directory\")\n    mapping(bytes16 => XBRTypes.Catalog) public catalogs;\n\n    /// List of IDs of current XBR Catalogs.\n    bytes16[] public catalogIds;\n\n    // Constructor for this contract, only called once (when deploying the network).\n    //\n    // @param networkAdr The XBR network contract this instance is associated with.\n    constructor (address networkAdr) public {\n        network = XBRNetwork(networkAdr);\n    }\n\n    /// Create a new XBR catalog. The sender of the transaction must be XBR network member\n    /// and automatically becomes owner of the new catalog.\n    ///\n    /// @param catalogId The ID of the new catalog.\n    /// @param terms Multihash for terms that apply to the catalog and to all APIs as published to this catalog.\n    /// @param meta Multihash for optional catalog meta-data.\n    function createCatalog (bytes16 catalogId, string memory terms, string memory meta) public {\n\n        _createCatalog(msg.sender, block.number, catalogId, terms, meta, \"\");\n    }\n\n    /// Create a new XBR catalog for a member. The member must be XBR network member, must have signed the\n    /// transaction data, and will become owner of the new catalog.\n    ///\n    /// Note: This version uses pre-signed data where the actual blockchain transaction is\n    /// submitted by a gateway paying the respective gas (in ETH) for the blockchain transaction.\n    ///\n    /// @param member Member that creates the catalog and will become owner.\n    /// @param created Block number when the catalog was created.\n    /// @param catalogId The ID of the new catalog.\n    /// @param terms Multihash for terms that apply to the catalog and to all APIs as published to this catalog.\n    /// @param meta Multihash for optional catalog meta-data.\n    /// @param signature Signature created by the member.\n    function createCatalogFor (address member, uint256 created, bytes16 catalogId, string memory terms,\n        string memory meta, bytes memory signature) public {\n\n        require(XBRTypes.verify(member, XBRTypes.EIP712CatalogCreate(network.verifyingChain(), network.verifyingContract(),\n            member, created, catalogId, terms, meta), signature),\n            \"INVALID_CATALOG_CREATE_SIGNATURE\");\n\n        // signature must have been created in a window of 5 blocks from the current one\n        require(created <= block.number && created >= (block.number - 4), \"INVALID_CATALOG_CREATE_BLOCK_NUMBER\");\n\n        _createCatalog(member, created, catalogId, terms, meta, signature);\n    }\n\n    function _createCatalog (address member, uint256 created, bytes16 catalogId, string memory terms,\n        string memory meta, bytes memory signature) private {\n\n        (, , , XBRTypes.MemberLevel member_level, ) = network.members(member);\n\n        // the catalog owner must be a registered member\n        require(member_level == XBRTypes.MemberLevel.ACTIVE ||\n                member_level == XBRTypes.MemberLevel.VERIFIED, \"SENDER_NOT_A_MEMBER\");\n\n        // catalogs must not yet exist\n        require(catalogs[catalogId].owner == address(0), \"CATALOG_ALREADY_EXISTS\");\n\n        // store new catalog object\n        catalogs[catalogId] = XBRTypes.Catalog(created, catalogSeq, member, terms, meta, signature);\n\n        // add catalogId to list of all catalog IDs\n        catalogIds.push(catalogId);\n\n        // increment catalog sequence for next catalog\n        catalogSeq = catalogSeq + 1;\n\n        // notify observers of new catalogs\n        emit CatalogCreated(catalogId, created, catalogSeq, member, terms, meta);\n    }\n\n    /// Publish the given API to the specified catalog.\n    ///\n    /// @param catalogId The ID of the XBR API catalog to publish the API to.\n    /// @param apiId The ID of the new API (must be unique).\n    /// @param schema Multihash of API Flatbuffers schema (required).\n    /// @param meta Multihash for optional meta-data.\n    function publishApi (bytes16 catalogId, bytes16 apiId, string memory schema, string memory meta) public {\n\n        _publishApi(msg.sender, block.number, catalogId, apiId, schema, meta, \"\");\n    }\n\n    /// Publish the given API to the specified catalog.\n    ///\n    /// Note: This version uses pre-signed data where the actual blockchain transaction is\n    /// submitted by a gateway paying the respective gas (in ETH) for the blockchain transaction.\n    ///\n    /// @param member Member that is publishing the API.\n    /// @param published Block number when the API was published.\n    /// @param catalogId The ID of the XBR API catalog to publish the API to.\n    /// @param apiId The ID of the new API (must be unique).\n    /// @param schema Multihash of API Flatbuffers schema (required).\n    /// @param meta Multihash for optional meta-data.\n    /// @param signature Signature created by the member.\n    function publishApiFor (address member, uint256 published, bytes16 catalogId, bytes16 apiId,\n        string memory schema, string memory meta, bytes memory signature) public {\n\n        require(XBRTypes.verify(member, XBRTypes.EIP712ApiPublish(network.verifyingChain(), network.verifyingContract(),\n            member, published, catalogId, apiId, schema, meta), signature), \"INVALID_API_PUBLISH_SIGNATURE\");\n\n        // signature must have been created in a window of 5 blocks from the current one\n        require(published <= block.number && published >= (block.number - 4), \"INVALID_API_PUBLISH_BLOCK_NUMBER\");\n\n        _publishApi(member, published, catalogId, apiId, schema, meta, signature);\n    }\n\n    function _publishApi (address member, uint256 published, bytes16 catalogId, bytes16 apiId,\n        string memory schema, string memory meta, bytes memory signature) private {\n\n        (, , , XBRTypes.MemberLevel member_level, ) = network.members(member);\n\n        // the publishing user must be a registered member\n        require(member_level == XBRTypes.MemberLevel.ACTIVE, \"SENDER_NOT_A_MEMBER\");\n\n        // the catalog to publish to must exist\n        require(catalogs[catalogId].owner != address(0), \"NO_SUCH_CATALOG\");\n\n        // the publishing member must be owner of the catalog\n        require(catalogs[catalogId].owner == member, \"SENDER_IS_NOT_OWNER\");\n\n        // the API, identified by the ID, must not yet exist\n        require(catalogs[catalogId].apis[apiId].published == 0, \"API_ALREADY_EXISTS\");\n\n        // add API to API-map of catalog\n        catalogs[catalogId].apis[apiId] = XBRTypes.Api(published, schema, meta, signature);\n    }\n}\n",
  "sourcePath": "/home/oberstet/scm/crossbario/xbr-protocol/contracts/XBRCatalog.sol",
  "compiler": {
    "name": "solc",
    "version": "0.5.16+commit.9c3226ce.Emscripten.clang"
  },
  "schemaVersion": "3.0.23",
  "updatedAt": "2020-03-18T17:59:52.933Z",
  "devdoc": {
    "methods": {
      "addMaintainer(address)": {
        "params": {
          "account": "The account to grant maintainer rights to."
        }
      },
      "createCatalog(bytes16,string,string)": {
        "params": {
          "catalogId": "The ID of the new catalog.",
          "meta": "Multihash for optional catalog meta-data.",
          "terms": "Multihash for terms that apply to the catalog and to all APIs as published to this catalog."
        }
      },
      "createCatalogFor(address,uint256,bytes16,string,string,bytes)": {
        "params": {
          "catalogId": "The ID of the new catalog.",
          "created": "Block number when the catalog was created.",
          "member": "Member that creates the catalog and will become owner.",
          "meta": "Multihash for optional catalog meta-data.",
          "signature": "Signature created by the member.",
          "terms": "Multihash for terms that apply to the catalog and to all APIs as published to this catalog."
        }
      },
      "isMaintainer(address)": {
        "params": {
          "account": "The account to check."
        },
        "return": "`true` if the account is maintainer, otherwise `false`."
      },
      "publishApi(bytes16,bytes16,string,string)": {
        "params": {
          "apiId": "The ID of the new API (must be unique).",
          "catalogId": "The ID of the XBR API catalog to publish the API to.",
          "meta": "Multihash for optional meta-data.",
          "schema": "Multihash of API Flatbuffers schema (required)."
        }
      },
      "publishApiFor(address,uint256,bytes16,bytes16,string,string,bytes)": {
        "params": {
          "apiId": "The ID of the new API (must be unique).",
          "catalogId": "The ID of the XBR API catalog to publish the API to.",
          "member": "Member that is publishing the API.",
          "meta": "Multihash for optional meta-data.",
          "published": "Block number when the API was published.",
          "schema": "Multihash of API Flatbuffers schema (required).",
          "signature": "Signature created by the member."
        }
      }
    }
  },
  "userdoc": {
    "methods": {
      "addMaintainer(address)": {
        "notice": "Add a new maintainer to the list of maintainers."
      },
      "createCatalog(bytes16,string,string)": {
        "notice": "Create a new XBR catalog. The sender of the transaction must be XBR network member and automatically becomes owner of the new catalog. "
      },
      "createCatalogFor(address,uint256,bytes16,string,string,bytes)": {
        "notice": "Create a new XBR catalog for a member. The member must be XBR network member, must have signed the transaction data, and will become owner of the new catalog.     /// Note: This version uses pre-signed data where the actual blockchain transaction is submitted by a gateway paying the respective gas (in ETH) for the blockchain transaction. "
      },
      "isMaintainer(address)": {
        "notice": "Check if the given address is currently a maintainer."
      },
      "publishApi(bytes16,bytes16,string,string)": {
        "notice": "Publish the given API to the specified catalog. "
      },
      "publishApiFor(address,uint256,bytes16,bytes16,string,string,bytes)": {
        "notice": "Publish the given API to the specified catalog.     /// Note: This version uses pre-signed data where the actual blockchain transaction is submitted by a gateway paying the respective gas (in ETH) for the blockchain transaction. "
      },
      "renounceMaintainer()": {
        "notice": "Give away maintainer rights."
      }
    },
    "notice": "XBR API catalogs contract."
  }
}