{
  "contractName": "XBRChannel",
  "abi": [
    {
      "inputs": [
        {
          "name": "network",
          "type": "address"
        },
        {
          "name": "token",
          "type": "address"
        },
        {
          "name": "marketId",
          "type": "bytes16"
        },
        {
          "name": "sender",
          "type": "address"
        },
        {
          "name": "delegate",
          "type": "address"
        },
        {
          "name": "recipient",
          "type": "address"
        },
        {
          "name": "amount",
          "type": "uint256"
        },
        {
          "name": "channelTimeout",
          "type": "uint32"
        },
        {
          "name": "channelType",
          "type": "uint8"
        }
      ],
      "payable": false,
      "stateMutability": "nonpayable",
      "type": "constructor"
    },
    {
      "anonymous": false,
      "inputs": [
        {
          "indexed": true,
          "name": "marketId",
          "type": "bytes16"
        },
        {
          "indexed": false,
          "name": "signer",
          "type": "address"
        },
        {
          "indexed": false,
          "name": "amount",
          "type": "uint256"
        },
        {
          "indexed": false,
          "name": "timeoutAt",
          "type": "uint256"
        }
      ],
      "name": "Closing",
      "type": "event"
    },
    {
      "anonymous": false,
      "inputs": [
        {
          "indexed": true,
          "name": "marketId",
          "type": "bytes16"
        },
        {
          "indexed": false,
          "name": "signer",
          "type": "address"
        },
        {
          "indexed": false,
          "name": "amount",
          "type": "uint256"
        },
        {
          "indexed": false,
          "name": "closedAt",
          "type": "uint256"
        }
      ],
      "name": "Closed",
      "type": "event"
    },
    {
      "constant": true,
      "inputs": [],
      "name": "network",
      "outputs": [
        {
          "name": "",
          "type": "address"
        }
      ],
      "payable": false,
      "stateMutability": "view",
      "type": "function"
    },
    {
      "constant": true,
      "inputs": [],
      "name": "token",
      "outputs": [
        {
          "name": "",
          "type": "address"
        }
      ],
      "payable": false,
      "stateMutability": "view",
      "type": "function"
    },
    {
      "constant": true,
      "inputs": [],
      "name": "channelType",
      "outputs": [
        {
          "name": "",
          "type": "uint8"
        }
      ],
      "payable": false,
      "stateMutability": "view",
      "type": "function"
    },
    {
      "constant": true,
      "inputs": [],
      "name": "channelState",
      "outputs": [
        {
          "name": "",
          "type": "uint8"
        }
      ],
      "payable": false,
      "stateMutability": "view",
      "type": "function"
    },
    {
      "constant": true,
      "inputs": [],
      "name": "marketId",
      "outputs": [
        {
          "name": "",
          "type": "bytes16"
        }
      ],
      "payable": false,
      "stateMutability": "view",
      "type": "function"
    },
    {
      "constant": true,
      "inputs": [],
      "name": "sender",
      "outputs": [
        {
          "name": "",
          "type": "address"
        }
      ],
      "payable": false,
      "stateMutability": "view",
      "type": "function"
    },
    {
      "constant": true,
      "inputs": [],
      "name": "delegate",
      "outputs": [
        {
          "name": "",
          "type": "address"
        }
      ],
      "payable": false,
      "stateMutability": "view",
      "type": "function"
    },
    {
      "constant": true,
      "inputs": [],
      "name": "recipient",
      "outputs": [
        {
          "name": "",
          "type": "address"
        }
      ],
      "payable": false,
      "stateMutability": "view",
      "type": "function"
    },
    {
      "constant": true,
      "inputs": [],
      "name": "amount",
      "outputs": [
        {
          "name": "",
          "type": "uint256"
        }
      ],
      "payable": false,
      "stateMutability": "view",
      "type": "function"
    },
    {
      "constant": true,
      "inputs": [],
      "name": "openedAt",
      "outputs": [
        {
          "name": "",
          "type": "uint256"
        }
      ],
      "payable": false,
      "stateMutability": "view",
      "type": "function"
    },
    {
      "constant": true,
      "inputs": [],
      "name": "closedAt",
      "outputs": [
        {
          "name": "",
          "type": "uint256"
        }
      ],
      "payable": false,
      "stateMutability": "view",
      "type": "function"
    },
    {
      "constant": true,
      "inputs": [],
      "name": "channelTimeout",
      "outputs": [
        {
          "name": "",
          "type": "uint32"
        }
      ],
      "payable": false,
      "stateMutability": "view",
      "type": "function"
    },
    {
      "constant": false,
      "inputs": [
        {
          "name": "tx_pubkey",
          "type": "bytes32"
        },
        {
          "name": "tx_key_id",
          "type": "bytes16"
        },
        {
          "name": "tx_channel_seq",
          "type": "uint32"
        },
        {
          "name": "tx_amount",
          "type": "uint256"
        },
        {
          "name": "tx_balance",
          "type": "uint256"
        },
        {
          "name": "delegate_v",
          "type": "uint8"
        },
        {
          "name": "delegate_r",
          "type": "bytes32"
        },
        {
          "name": "delegate_s",
          "type": "bytes32"
        },
        {
          "name": "marketmaker_v",
          "type": "uint8"
        },
        {
          "name": "marketmaker_r",
          "type": "bytes32"
        },
        {
          "name": "marketmaker_s",
          "type": "bytes32"
        }
      ],
      "name": "close",
      "outputs": [],
      "payable": false,
      "stateMutability": "nonpayable",
      "type": "function"
    }
  ],
  "bytecode": "0x608060405234801561001057600080fd5b506040516101208061084e83398101806040526100309190810190610194565b60018054600160a060020a03808c16600160a060020a03199283161780845560008054928d16929093169190911790915582919060a060020a60ff0219167401000000000000000000000000000000000000000083600281111561009057fe5b021790555060018054819060a860020a60ff021916750100000000000000000000000000000000000000000082021790555050600280546001608060020a0319167001000000000000000000000000000000009097049690961790955560038054600160a060020a0319908116600160a060020a03968716179091556004805482169486169490941790935560058054909316919093161790556006556009805463ffffffff191663ffffffff9092169190911790555050436007556102a1565b600061015d8251610264565b9392505050565b600061015d8251610275565b600061015d8251610282565b600061015d8251610295565b600061015d8251610298565b60008060008060008060008060006101208a8c0312156101b357600080fd5b60006101bf8c8c610151565b99505060206101d08c828d01610151565b98505060406101e18c828d01610164565b97505060606101f28c828d01610151565b96505060806102038c828d01610151565b95505060a06102148c828d01610151565b94505060c06102258c828d0161017c565b93505060e06102368c828d01610188565b9250506101006102488c828d01610170565b9150509295985092959850929598565b600160a060020a031690565b600061026f82610258565b92915050565b6001608060020a03191690565b60006003821061029157600080fd5b5090565b90565b63ffffffff1690565b61059e806102b06000396000f3fe608060405234801561001057600080fd5b50600436106100ec576000357c01000000000000000000000000000000000000000000000000000000009004806367e404ce116100a9578063aa8c217c11610083578063aa8c217c14610190578063c89e436114610198578063ded2e715146101a0578063fc0c546a146101b5576100ec565b806367e404ce1461016b5780636ed71ede146101735780639ef27b0014610188576100ec565b80632ef2d55e146100f1578063359d4be21461010f578063389302031461012457806355b550941461013957806366d003ac1461014e5780636739afca14610163575b600080fd5b6100f96101bd565b60405161010691906104e5565b60405180910390f35b61012261011d36600461033f565b6101c9565b005b61012c61024f565b60405161010691906104d7565b610141610255565b60405161010691906104bb565b610156610277565b6040516101069190610469565b610156610286565b610156610295565b61017b6102a4565b60405161010691906104ad565b61012c6102bd565b61012c6102c3565b6101566102c9565b6101a86102d8565b60405161010691906104c9565b6101566102f9565b60095463ffffffff1690565b6002546003546006546008546040517001000000000000000000000000000000009094026fffffffffffffffffffffffffffffffff1916937f149862a34bbf1a64df1b3d1a30d1521062eba33815665c97e48f4f7a4e5490889361023a93600160a060020a0390911692909161047d565b60405180910390a25050505050505050505050565b60075490565b6001547501000000000000000000000000000000000000000000900460ff1690565b600554600160a060020a031690565b600154600160a060020a031690565b600354600160a060020a031690565b6002547001000000000000000000000000000000000290565b60085490565b60065490565b600454600160a060020a031690565b60015474010000000000000000000000000000000000000000900460ff1690565b600054600160a060020a031690565b600061031482356104fe565b9392505050565b6000610314823561053c565b6000610314823561053f565b60006103148235610548565b60008060008060008060008060008060006101608c8e03121561036157600080fd5b600061036d8e8e61031b565b9b5050602061037e8e828f01610308565b9a5050604061038f8e828f01610327565b99505060606103a08e828f0161031b565b98505060806103b18e828f0161031b565b97505060a06103c28e828f01610333565b96505060c06103d38e828f0161031b565b95505060e06103e48e828f0161031b565b9450506101006103f68e828f01610333565b9350506101206104088e828f0161031b565b92505061014061041a8e828f0161031b565b9150509295989b509295989b9093969950565b610436816104f3565b82525050565b610436816104fe565b6104368161054e565b61043681610559565b6104368161053c565b6104368161053f565b60208101610477828461042d565b92915050565b6060810161048b828661042d565b6104986020830185610457565b6104a56040830184610457565b949350505050565b60208101610477828461043c565b602081016104778284610445565b60208101610477828461044e565b602081016104778284610457565b602081016104778284610460565b600061047782610530565b6fffffffffffffffffffffffffffffffff191690565b60006004821061052057fe5b5090565b60006003821061052057fe5b600160a060020a031690565b90565b63ffffffff1690565b60ff1690565b600061047782610514565b60006104778261052456fea265627a7a7230582070dc500c3a07aefe9ff5c8550bc9f8498c103ac95e46327a67ecf1b4036292cc6c6578706572696d656e74616cf50037",
  "source": "///////////////////////////////////////////////////////////////////////////////\n//\n//  Copyright (C) 2018 Crossbar.io Technologies GmbH and contributors.\n//\n//  Licensed under the Apache License, Version 2.0 (the \"License\");\n//  you may not use this file except in compliance with the License.\n//  You may obtain a copy of the License at\n//\n//      http://www.apache.org/licenses/LICENSE-2.0\n//\n//  Unless required by applicable law or agreed to in writing, software\n//  distributed under the License is distributed on an \"AS IS\" BASIS,\n//  WITHOUT WARRANTIES OR CONDITIONS OF ANY KIND, either express or implied.\n//  See the License for the specific language governing permissions and\n//  limitations under the License.\n//\n///////////////////////////////////////////////////////////////////////////////\n\npragma solidity ^0.5.2;\npragma experimental ABIEncoderV2;\n\n// https://openzeppelin.org/api/docs/math_SafeMath.html\nimport \"openzeppelin-solidity/contracts/math/SafeMath.sol\";\n\n// https://openzeppelin.org/api/docs/cryptography_ECDSA.html\nimport \"openzeppelin-solidity/contracts/cryptography/ECDSA.sol\";\n\nimport \"./XBRToken.sol\";\n\n\n/**\n * XBR Payment/Paying Channel between a XBR data consumer and the XBR market maker,\n * or the XBR Market Maker and a XBR data provider.\n */\ncontract XBRChannel {\n\n    // Add safe math functions to uint256 using SafeMath lib from OpenZeppelin\n    using SafeMath for uint256;\n\n    // Add recover method for bytes32 using ECDSA lib from OpenZeppelin\n    using ECDSA for bytes32;\n\n    uint256 constant chainId = 5777;\n\n    address constant verifyingContract = 0x254dffcd3277C0b1660F6d42EFbB754edaBAbC2B;\n\n    string private constant EIP712_DOMAIN = \"EIP712Domain(string name,string version,uint256 chainId,address verifyingContract)\";\n\n    bytes32 private constant EIP712_DOMAIN_TYPEHASH = keccak256(abi.encodePacked(EIP712_DOMAIN));\n\n    string private constant TRANSACTION_TYPE = \"Transaction(uint256 pubkey,uint128 key_id,uint32 channel_seq,uint256 amount,uint256 balance)\";\n\n    bytes32 private constant TRANSACTION_DOMAIN_TYPEHASH = keccak256(abi.encodePacked(TRANSACTION_TYPE));\n\n    bytes32 private constant DOMAIN_SEPARATOR = keccak256(abi.encode(\n        EIP712_DOMAIN_TYPEHASH,\n        keccak256(\"XBR\"),\n        keccak256(\"1\"),\n        chainId,\n        verifyingContract\n    ));\n\n    /// Address of the XBR Network ERC20 token (XBR for the CrossbarFX technology stack)\n    address private _token;\n\n    /// Address of the XBR Network contract (XBR for the CrossbarFX technology stack)\n    address private _network;\n\n    /// Payment channel types.\n    enum ChannelType { NONE, PAYMENT, PAYING }\n\n    /// Payment channel states.\n    enum ChannelState { NONE, OPEN, CLOSING, CLOSED }\n\n    /// Current payment channel type (either payment or paying channel).\n    ChannelType private _type;\n\n    /// Current payment channel state.\n    ChannelState private _state;\n\n    /// The XBR Market ID this channel is operating payments (or payouts) for.\n    bytes16 private _marketId;\n\n    /**\n     * The sender of the payments in this channel. Either a XBR Consumer (delegate) in case\n     * of a payment channel, or the XBR Market Maker (delegate) in case of a paying channel.\n     */\n    address private _sender;\n\n    /**\n     * The other delegate of the channel, e.g. the XBR Market Maker in case of a payment channel,\n     * or a XBR Provider (delegate) in case of a paying channel.\n     */\n    address private _delegate;\n\n    /**\n     * Recipient of the payments in this channel. Either the XBR Market Operator (payment\n     * channels) or a XBR Provider (paying channels).\n     */\n    address private _recipient;\n\n    /// Amount of XBR held in the channel.\n    uint256 private _amount;\n\n    /// Block number when the channel was created.\n    uint256 private _openedAt;\n\n    /// Block number when the channel was closed (finally, after the timeout).\n    uint256 private _closedAt;\n\n    /**\n     * Timeout with which the channel will be closed (the grace period during which the\n     * channel will wait for participants to submit their last signed transaction).\n     */\n    uint32 private _channelTimeout;\n\n    /// Signatures of the channel participants (when channel is closing).\n    mapping (bytes32 => address) private _signatures;\n\n    /**\n     * Event emitted when payment channel is closing (that is, one of the two state channel\n     * participants has called \"close()\", initiating start of the channel timeout).\n     */\n    event Closing(bytes16 indexed marketId, address signer, uint256 amount, uint256 timeoutAt);\n\n    /**\n     * Event emitted when payment channel has finally closed, which happens after both state\n     * channel participants have called close(), agreeing on last state, or after the timeout\n     * at latest - in case the second participant doesn't react within timeout)\n     */\n    event Closed(bytes16 indexed marketId, address signer, uint256 amount, uint256 closedAt);\n\n    /**\n     * Create a new XBR payment channel for handling microtransactions of XBR tokens.\n     *\n     * @param marketId The ID of the XBR market this payment channel is associated with.\n     * @param sender The sender (onchain) of the payments.\n     * @param delegate The offchain delegate allowed to spend XBR offchain, from the channel,\n     *     in the name of the original sender.\n     * @param recipient The receiver (onchain) of the payments.\n     * @param amount The amount of XBR held in the channel.\n     * @param channelTimeout The payment channel timeout period that begins with the first call to `close()`\n     */\n    constructor (address network, address token, bytes16 marketId, address sender, address delegate, address recipient, uint256 amount,\n        uint32 channelTimeout, ChannelType channelType) public {\n\n        _network = network;\n        _token = token;\n        _type = channelType;\n        _state = ChannelState.OPEN;\n        _marketId = marketId;\n        _sender = sender;\n        _delegate = delegate;\n        _recipient = recipient;\n        _amount = amount;\n        _channelTimeout = channelTimeout;\n        _openedAt = block.number; // solhint-disable-line\n    }\n\n    /**\n     * Verify transaction typed data was signed by signer.\n     */\n/* FIXME\n    function verifyTransaction (address signer,\n                                bytes32 tx_pubkey, bytes16 tx_key_id, uint32 tx_channel_seq, uint256 tx_amount, uint256 tx_balance,\n                                uint8 v, bytes32 r, bytes32 s) public pure returns (bool) {\n\n        return signer == ecrecover(keccak256(abi.encodePacked(\n            \"\\\\x19\\\\x01\",\n            DOMAIN_SEPARATOR,\n            keccak256(abi.encode(\n                TRANSACTION_DOMAIN_TYPEHASH,\n                tx_pubkey,\n                tx_key_id,\n                tx_channel_seq,\n                tx_amount,\n                tx_balance\n            ))\n        )), v, r, s);\n    }\n*/\n    /**\n     * Address of the XBRNetwork contract his channel contract was created from.\n     */\n    function network () public view returns (address) {\n        return _network;\n    }\n\n    /**\n     * Address of the XBRToken contract this channel holds tokens for.\n     */\n    function token () public view returns (address) {\n        return _token;\n    }\n\n    /**\n     * The XBR Market ID this channel is operating payments for.\n     */\n    function channelType () public view returns (ChannelType) {\n        return _type;\n    }\n\n    /**\n     * The XBR Market ID this channel is operating payments for.\n     */\n    function channelState () public view returns (ChannelState) {\n        return _state;\n    }\n\n    /**\n     * The XBR Market ID this channel is operating payments for.\n     */\n    function marketId () public view returns (bytes16) {\n        return _marketId;\n    }\n\n    /**\n     * The sender of the payments in this channel. Either a XBR Consumer or XBR Market Maker (delegate).\n     */\n    function sender () public view returns (address) {\n        return _sender;\n    }\n\n    /**\n     * The delegate working for the sender, and using this channel to pay for data keys. E.g. a\n     * XBR Consumer (delegate) or XBR Provider (delegate).\n     */\n    function delegate () public view returns (address) {\n        return _delegate;\n    }\n\n    /**\n     * Recipient of the payments in this channel. Either a XBR Market Maker (delegate) or a XBR Provider.\n     */\n    function recipient () public view returns (address) {\n        return _recipient;\n    }\n\n    /**\n     * Amount of XBR held in the channel.\n     */\n    function amount () public view returns (uint256) {\n        return _amount;\n    }\n\n    /**\n     * Block number when the channel was created.\n     */\n    function openedAt () public view returns (uint256) {\n        return _openedAt;\n    }\n\n    /**\n     * Block number when the channel was closed (finally, after the timeout).\n     */\n    function closedAt () public view returns (uint256) {\n        return _closedAt;\n    }\n\n    /**\n     * Timeout with which the channel will be closed (the grace period during which the\n     * channel will wait for participants to submit their last signed transaction).\n     */\n    function channelTimeout () public view returns (uint32) {\n        return _channelTimeout;\n    }\n\n    /**\n     * Trigger closing this payment channel. When the first participant has called `close()`\n     * submitting its latest transaction/state, a timeout period begins during which the\n     * other party of the payment channel has to submit its latest transaction/state too.\n     * When both transaction have been submitted, and the submitted transactions/states agree,\n     * the channel immediately closes, and the consumed amount of token in the channel is\n     * transferred to the channel recipient, and the remaining amount of token is transferred\n     * back to the original sender.\n     */\n    function close (bytes32 tx_pubkey, bytes16 tx_key_id, uint32 tx_channel_seq, uint256 tx_amount, uint256 tx_balance,\n                    uint8 delegate_v, bytes32 delegate_r, bytes32 delegate_s,\n                    uint8 marketmaker_v, bytes32 marketmaker_r, bytes32 marketmaker_s) public {\n/* FIXME\nCould not identify the intended function with name `close`, positional argument(s) of type\n    `(<class 'bytes'>, <class 'bytes'>, <class 'int'>, <class 'bytes'>, <class 'bytes'>, <class 'int'>, <class 'bytes'>, <class 'bytes'>, <class 'int'>, <class 'bytes'>, <class 'bytes'>)` and keyword argument(s) of type `{}`.\nFound 1 function(s) with the name `close`:\n    ['close(bytes32,bytes16,uint32,uint256,uint256,uint8,bytes32,bytes32,uint8,bytes32,bytes32)']\nFunction invocation failed due to no matching argument types.\n*/\n\n/* FIXME: with the following code, deployment on ganache fails with \"out of gas\"\n        if (_type == XBRChannel.ChannelType.PAYMENT) {\n            require(verifyTransaction(_sender, tx_pubkey, tx_key_id, tx_channel_seq, tx_amount, tx_balance, marketmaker_v, marketmaker_r, marketmaker_s), \"INVALID_MARKETMAKER_SIGNATURE\");\n            require(verifyTransaction(_delegate, tx_pubkey, tx_key_id, tx_channel_seq, tx_amount, tx_balance, delegate_v, delegate_r, delegate_s), \"INVALID_DELEGATE_SIGNATURE\");\n        } else {\n            require(verifyTransaction(_delegate, tx_pubkey, tx_key_id, tx_channel_seq, tx_amount, tx_balance, marketmaker_v, marketmaker_r, marketmaker_s), \"INVALID_MARKETMAKER_SIGNATURE\");\n            require(verifyTransaction(_sender, tx_pubkey, tx_key_id, tx_channel_seq, tx_amount, tx_balance, delegate_v, delegate_r, delegate_s), \"INVALID_DELEGATE_SIGNATURE\");\n        }\n*/\n/* FIXME: with the following code, deployment on ganache fails with \"out of gas\"\n        XBRToken tc = XBRToken(_token);\n        bool success = tc.transferFrom(address(this), _recipient, _amount);\n        require(success, \"CHANNEL_COSE_TRANSFER_FAILED\");\n*/\n        // FIXME: selfdestruct ?! to whom?\n        // FIXME: recipient amount_amount vs tx_amount vs ..\n        // FIXME: network fee\n\n        emit Closed(_marketId, _sender, _amount, _closedAt);\n    }\n\n\n/* FIXME\n    function close (bytes32 h, uint8 v, bytes32 r, bytes32 s, uint32 sequence, uint256 value) public view {\n        address signer;\n        bytes32 proof;\n\n        // get signer from signature\n        signer = ecrecover(h, v, r, s);\n\n        if (signer != _sender && signer != _recipient) {\n            revert(\"invalid signature\");\n        }\n\n        proof = keccak256(abi.encodePacked(this, sequence, value));\n\n        if (proof != h) {\n            revert(\"invalid signature (signature is valid but doesn't match the data provided)\");\n        }\n        if (_signatures[proof] == 0) {\n            _signatures[proof] = signer;\n\n            // event Closing(bytes16 indexed marketId, address signer, uint256 amount, uint256 timeoutAt);\n            emit Closing(_marketId, signer, value, block.number + _channelTimeout);\n\n        } else if (_signatures[proof] != signer) {\n            // channel completed, both _signatures provided\n            _closedAt = block.number;\n            if (!_recipient.send(value)) { // solhint-disable-line\n                revert(\"transaction failed on the very last meter\");\n            }\n\n            // refund back anything left to the original opener of the payment channel\n            selfdestruct(_sender);\n\n            // event Closed(bytes16 indexed marketId, address signer, uint256 amount, uint256 closedAt);\n            emit Closed(_marketId, signer, value, _closedAt);\n        }\n\n    function timeout () public {\n        require(_closedAt == 0, \"CHANNEL_ALREADY_CLOSED\");\n        // require(_signatures[proof] != 0, \"CHANNEL_NOT_YET_SIGNED\");\n\n        if (_openedAt + _channelTimeout > now) { // solhint-disable-line\n            revert(\"channel timeout\");\n        }\n        _closedAt = block.number;\n\n        // FIXME\n        // selfdestruct(_sender);\n        // emit Closed();\n    }\n\n    function _verify (bytes32 hash, uint8 v, bytes16 r, bytes32 s, address expectedSigner) internal pure returns (bool)\n    {\n        bytes memory prefix = \"\\x19Ethereum Signed Message:\\n32\";\n        bytes32 prefixedHash = keccak256(abi.encodePacked(prefix, hash));\n        return ecrecover(prefixedHash, v, r, s) == expectedSigner;\n    }\n*/\n}\n",
  "sourcePath": "/home/oberstet/scm/crossbario/xbr-protocol/contracts/XBRChannel.sol",
  "compiler": {
    "name": "solc",
    "version": "0.5.2+commit.1df8f40c.Emscripten.clang"
  },
  "schemaVersion": "3.0.11",
  "updatedAt": "2019-07-27T10:51:57.895Z",
  "devdoc": {
    "methods": {
      "constructor": {
        "params": {
          "amount": "The amount of XBR held in the channel.",
          "channelTimeout": "The payment channel timeout period that begins with the first call to `close()`",
          "delegate": "The offchain delegate allowed to spend XBR offchain, from the channel,    in the name of the original sender.",
          "marketId": "The ID of the XBR market this payment channel is associated with.",
          "recipient": "The receiver (onchain) of the payments.",
          "sender": "The sender (onchain) of the payments."
        }
      }
    }
  },
  "userdoc": {
    "methods": {
      "amount()": {
        "notice": "Amount of XBR held in the channel."
      },
      "channelState()": {
        "notice": "The XBR Market ID this channel is operating payments for."
      },
      "channelTimeout()": {
        "notice": "Timeout with which the channel will be closed (the grace period during which the channel will wait for participants to submit their last signed transaction)."
      },
      "channelType()": {
        "notice": "The XBR Market ID this channel is operating payments for."
      },
      "close(bytes32,bytes16,uint32,uint256,uint256,uint8,bytes32,bytes32,uint8,bytes32,bytes32)": {
        "notice": "Trigger closing this payment channel. When the first participant has called `close()` submitting its latest transaction/state, a timeout period begins during which the other party of the payment channel has to submit its latest transaction/state too. When both transaction have been submitted, and the submitted transactions/states agree, the channel immediately closes, and the consumed amount of token in the channel is transferred to the channel recipient, and the remaining amount of token is transferred back to the original sender."
      },
      "closedAt()": {
        "notice": "Block number when the channel was closed (finally, after the timeout)."
      },
      "constructor": "Create a new XBR payment channel for handling microtransactions of XBR tokens.",
      "delegate()": {
        "notice": "The delegate working for the sender, and using this channel to pay for data keys. E.g. a XBR Consumer (delegate) or XBR Provider (delegate)."
      },
      "marketId()": {
        "notice": "The XBR Market ID this channel is operating payments for."
      },
      "network()": {
        "notice": "Address of the XBRNetwork contract his channel contract was created from."
      },
      "openedAt()": {
        "notice": "Block number when the channel was created."
      },
      "recipient()": {
        "notice": "Recipient of the payments in this channel. Either a XBR Market Maker (delegate) or a XBR Provider."
      },
      "sender()": {
        "notice": "The sender of the payments in this channel. Either a XBR Consumer or XBR Market Maker (delegate)."
      },
      "token()": {
        "notice": "Address of the XBRToken contract this channel holds tokens for."
      }
    },
    "notice": "XBR Payment/Paying Channel between a XBR data consumer and the XBR market maker, or the XBR Market Maker and a XBR data provider."
  }
}