{
  "contractName": "XBRMarket",
  "abi": [
    {
      "inputs": [
        {
          "internalType": "address",
          "name": "networkAdr",
          "type": "address"
        }
      ],
      "payable": false,
      "stateMutability": "nonpayable",
      "type": "constructor"
    },
    {
      "anonymous": false,
      "inputs": [
        {
          "indexed": true,
          "internalType": "bytes16",
          "name": "marketId",
          "type": "bytes16"
        },
        {
          "indexed": false,
          "internalType": "address",
          "name": "actor",
          "type": "address"
        },
        {
          "indexed": false,
          "internalType": "uint8",
          "name": "actorType",
          "type": "uint8"
        },
        {
          "indexed": false,
          "internalType": "uint256",
          "name": "joined",
          "type": "uint256"
        },
        {
          "indexed": false,
          "internalType": "uint256",
          "name": "security",
          "type": "uint256"
        },
        {
          "indexed": false,
          "internalType": "string",
          "name": "meta",
          "type": "string"
        }
      ],
      "name": "ActorJoined",
      "type": "event"
    },
    {
      "anonymous": false,
      "inputs": [
        {
          "indexed": true,
          "internalType": "bytes16",
          "name": "marketId",
          "type": "bytes16"
        },
        {
          "indexed": false,
          "internalType": "address",
          "name": "actor",
          "type": "address"
        },
        {
          "indexed": false,
          "internalType": "uint8",
          "name": "actorType",
          "type": "uint8"
        }
      ],
      "name": "ActorLeft",
      "type": "event"
    },
    {
      "anonymous": false,
      "inputs": [
        {
          "indexed": false,
          "internalType": "address",
          "name": "member",
          "type": "address"
        },
        {
          "indexed": false,
          "internalType": "uint256",
          "name": "updated",
          "type": "uint256"
        },
        {
          "indexed": false,
          "internalType": "bytes16",
          "name": "marketId",
          "type": "bytes16"
        },
        {
          "indexed": false,
          "internalType": "address",
          "name": "delegate",
          "type": "address"
        },
        {
          "indexed": false,
          "internalType": "uint8",
          "name": "delegateType",
          "type": "uint8"
        },
        {
          "indexed": false,
          "internalType": "bytes16",
          "name": "apiCatalog",
          "type": "bytes16"
        },
        {
          "indexed": false,
          "internalType": "bool",
          "name": "consent",
          "type": "bool"
        },
        {
          "indexed": false,
          "internalType": "string",
          "name": "servicePrefix",
          "type": "string"
        }
      ],
      "name": "ConsentSet",
      "type": "event"
    },
    {
      "anonymous": false,
      "inputs": [
        {
          "indexed": true,
          "internalType": "address",
          "name": "account",
          "type": "address"
        }
      ],
      "name": "MaintainerAdded",
      "type": "event"
    },
    {
      "anonymous": false,
      "inputs": [
        {
          "indexed": true,
          "internalType": "address",
          "name": "account",
          "type": "address"
        }
      ],
      "name": "MaintainerRemoved",
      "type": "event"
    },
    {
      "anonymous": false,
      "inputs": [
        {
          "indexed": true,
          "internalType": "bytes16",
          "name": "marketId",
          "type": "bytes16"
        }
      ],
      "name": "MarketClosed",
      "type": "event"
    },
    {
      "anonymous": false,
      "inputs": [
        {
          "indexed": true,
          "internalType": "bytes16",
          "name": "marketId",
          "type": "bytes16"
        },
        {
          "indexed": false,
          "internalType": "uint256",
          "name": "created",
          "type": "uint256"
        },
        {
          "indexed": false,
          "internalType": "uint32",
          "name": "marketSeq",
          "type": "uint32"
        },
        {
          "indexed": false,
          "internalType": "address",
          "name": "owner",
          "type": "address"
        },
        {
          "indexed": false,
          "internalType": "address",
          "name": "coin",
          "type": "address"
        },
        {
          "indexed": false,
          "internalType": "string",
          "name": "terms",
          "type": "string"
        },
        {
          "indexed": false,
          "internalType": "string",
          "name": "meta",
          "type": "string"
        },
        {
          "indexed": false,
          "internalType": "address",
          "name": "maker",
          "type": "address"
        },
        {
          "indexed": false,
          "internalType": "uint256",
          "name": "providerSecurity",
          "type": "uint256"
        },
        {
          "indexed": false,
          "internalType": "uint256",
          "name": "consumerSecurity",
          "type": "uint256"
        },
        {
          "indexed": false,
          "internalType": "uint256",
          "name": "marketFee",
          "type": "uint256"
        }
      ],
      "name": "MarketCreated",
      "type": "event"
    },
    {
      "anonymous": false,
      "inputs": [
        {
          "indexed": true,
          "internalType": "bytes16",
          "name": "marketId",
          "type": "bytes16"
        },
        {
          "indexed": false,
          "internalType": "uint32",
          "name": "marketSeq",
          "type": "uint32"
        },
        {
          "indexed": false,
          "internalType": "address",
          "name": "owner",
          "type": "address"
        },
        {
          "indexed": false,
          "internalType": "address",
          "name": "coin",
          "type": "address"
        },
        {
          "indexed": false,
          "internalType": "string",
          "name": "terms",
          "type": "string"
        },
        {
          "indexed": false,
          "internalType": "string",
          "name": "meta",
          "type": "string"
        },
        {
          "indexed": false,
          "internalType": "address",
          "name": "maker",
          "type": "address"
        },
        {
          "indexed": false,
          "internalType": "uint256",
          "name": "providerSecurity",
          "type": "uint256"
        },
        {
          "indexed": false,
          "internalType": "uint256",
          "name": "consumerSecurity",
          "type": "uint256"
        },
        {
          "indexed": false,
          "internalType": "uint256",
          "name": "marketFee",
          "type": "uint256"
        }
      ],
      "name": "MarketUpdated",
      "type": "event"
    },
    {
      "constant": false,
      "inputs": [
        {
          "internalType": "address",
          "name": "account",
          "type": "address"
        }
      ],
      "name": "addMaintainer",
      "outputs": [],
      "payable": false,
      "stateMutability": "nonpayable",
      "type": "function"
    },
    {
      "constant": true,
      "inputs": [
        {
          "internalType": "address",
          "name": "account",
          "type": "address"
        }
      ],
      "name": "isMaintainer",
      "outputs": [
        {
          "internalType": "bool",
          "name": "",
          "type": "bool"
        }
      ],
      "payable": false,
      "stateMutability": "view",
      "type": "function"
    },
    {
      "constant": true,
      "inputs": [
        {
          "internalType": "uint256",
          "name": "",
          "type": "uint256"
        }
      ],
      "name": "marketIds",
      "outputs": [
        {
          "internalType": "bytes16",
          "name": "",
          "type": "bytes16"
        }
      ],
      "payable": false,
      "stateMutability": "view",
      "type": "function"
    },
    {
      "constant": true,
      "inputs": [
        {
          "internalType": "bytes16",
          "name": "",
          "type": "bytes16"
        }
      ],
      "name": "markets",
      "outputs": [
        {
          "internalType": "uint256",
          "name": "created",
          "type": "uint256"
        },
        {
          "internalType": "uint32",
          "name": "seq",
          "type": "uint32"
        },
        {
          "internalType": "address",
          "name": "owner",
          "type": "address"
        },
        {
          "internalType": "address",
          "name": "coin",
          "type": "address"
        },
        {
          "internalType": "string",
          "name": "terms",
          "type": "string"
        },
        {
          "internalType": "string",
          "name": "meta",
          "type": "string"
        },
        {
          "internalType": "address",
          "name": "maker",
          "type": "address"
        },
        {
          "internalType": "uint256",
          "name": "providerSecurity",
          "type": "uint256"
        },
        {
          "internalType": "uint256",
          "name": "consumerSecurity",
          "type": "uint256"
        },
        {
          "internalType": "uint256",
          "name": "marketFee",
          "type": "uint256"
        },
        {
          "internalType": "bytes",
          "name": "signature",
          "type": "bytes"
        }
      ],
      "payable": false,
      "stateMutability": "view",
      "type": "function"
    },
    {
      "constant": true,
      "inputs": [
        {
          "internalType": "address",
          "name": "",
          "type": "address"
        }
      ],
      "name": "marketsByMaker",
      "outputs": [
        {
          "internalType": "bytes16",
          "name": "",
          "type": "bytes16"
        }
      ],
      "payable": false,
      "stateMutability": "view",
      "type": "function"
    },
    {
      "constant": true,
      "inputs": [
        {
          "internalType": "address",
          "name": "",
          "type": "address"
        },
        {
          "internalType": "uint256",
          "name": "",
          "type": "uint256"
        }
      ],
      "name": "marketsByOwner",
      "outputs": [
        {
          "internalType": "bytes16",
          "name": "",
          "type": "bytes16"
        }
      ],
      "payable": false,
      "stateMutability": "view",
      "type": "function"
    },
    {
      "constant": true,
      "inputs": [],
      "name": "network",
      "outputs": [
        {
          "internalType": "contract XBRNetwork",
          "name": "",
          "type": "address"
        }
      ],
      "payable": false,
      "stateMutability": "view",
      "type": "function"
    },
    {
      "constant": false,
      "inputs": [],
      "name": "renounceMaintainer",
      "outputs": [],
      "payable": false,
      "stateMutability": "nonpayable",
      "type": "function"
    },
    {
      "constant": false,
      "inputs": [
        {
          "internalType": "bytes16",
          "name": "marketId",
          "type": "bytes16"
        },
        {
          "internalType": "address",
          "name": "coin",
          "type": "address"
        },
        {
          "internalType": "string",
          "name": "terms",
          "type": "string"
        },
        {
          "internalType": "string",
          "name": "meta",
          "type": "string"
        },
        {
          "internalType": "address",
          "name": "maker",
          "type": "address"
        },
        {
          "internalType": "uint256",
          "name": "providerSecurity",
          "type": "uint256"
        },
        {
          "internalType": "uint256",
          "name": "consumerSecurity",
          "type": "uint256"
        },
        {
          "internalType": "uint256",
          "name": "marketFee",
          "type": "uint256"
        }
      ],
      "name": "createMarket",
      "outputs": [],
      "payable": false,
      "stateMutability": "nonpayable",
      "type": "function"
    },
    {
      "constant": false,
      "inputs": [
        {
          "internalType": "address",
          "name": "member",
          "type": "address"
        },
        {
          "internalType": "uint256",
          "name": "created",
          "type": "uint256"
        },
        {
          "internalType": "bytes16",
          "name": "marketId",
          "type": "bytes16"
        },
        {
          "internalType": "address",
          "name": "coin",
          "type": "address"
        },
        {
          "internalType": "string",
          "name": "terms",
          "type": "string"
        },
        {
          "internalType": "string",
          "name": "meta",
          "type": "string"
        },
        {
          "internalType": "address",
          "name": "maker",
          "type": "address"
        },
        {
          "internalType": "uint256",
          "name": "providerSecurity",
          "type": "uint256"
        },
        {
          "internalType": "uint256",
          "name": "consumerSecurity",
          "type": "uint256"
        },
        {
          "internalType": "uint256",
          "name": "marketFee",
          "type": "uint256"
        },
        {
          "internalType": "bytes",
          "name": "signature",
          "type": "bytes"
        }
      ],
      "name": "createMarketFor",
      "outputs": [],
      "payable": false,
      "stateMutability": "nonpayable",
      "type": "function"
    },
    {
      "constant": false,
      "inputs": [
        {
          "internalType": "bytes16",
          "name": "marketId",
          "type": "bytes16"
        },
        {
          "internalType": "uint8",
          "name": "actorType",
          "type": "uint8"
        },
        {
          "internalType": "string",
          "name": "meta",
          "type": "string"
        }
      ],
      "name": "joinMarket",
      "outputs": [
        {
          "internalType": "uint256",
          "name": "",
          "type": "uint256"
        }
      ],
      "payable": false,
      "stateMutability": "nonpayable",
      "type": "function"
    },
    {
      "constant": false,
      "inputs": [
        {
          "internalType": "address",
          "name": "member",
          "type": "address"
        },
        {
          "internalType": "uint256",
          "name": "joined",
          "type": "uint256"
        },
        {
          "internalType": "bytes16",
          "name": "marketId",
          "type": "bytes16"
        },
        {
          "internalType": "uint8",
          "name": "actorType",
          "type": "uint8"
        },
        {
          "internalType": "string",
          "name": "meta",
          "type": "string"
        },
        {
          "internalType": "bytes",
          "name": "signature",
          "type": "bytes"
        }
      ],
      "name": "joinMarketFor",
      "outputs": [
        {
          "internalType": "uint256",
          "name": "",
          "type": "uint256"
        }
      ],
      "payable": false,
      "stateMutability": "nonpayable",
      "type": "function"
    },
    {
      "constant": false,
      "inputs": [
        {
          "internalType": "bytes16",
          "name": "marketId",
          "type": "bytes16"
        },
        {
          "internalType": "address",
          "name": "delegate",
          "type": "address"
        },
        {
          "internalType": "uint8",
          "name": "delegateType",
          "type": "uint8"
        },
        {
          "internalType": "bytes16",
          "name": "apiCatalog",
          "type": "bytes16"
        },
        {
          "internalType": "bool",
          "name": "consent",
          "type": "bool"
        },
        {
          "internalType": "string",
          "name": "servicePrefix",
          "type": "string"
        }
      ],
      "name": "setConsent",
      "outputs": [],
      "payable": false,
      "stateMutability": "nonpayable",
      "type": "function"
    },
    {
      "constant": false,
      "inputs": [
        {
          "internalType": "address",
          "name": "member",
          "type": "address"
        },
        {
          "internalType": "uint256",
          "name": "updated",
          "type": "uint256"
        },
        {
          "internalType": "bytes16",
          "name": "marketId",
          "type": "bytes16"
        },
        {
          "internalType": "address",
          "name": "delegate",
          "type": "address"
        },
        {
          "internalType": "uint8",
          "name": "delegateType",
          "type": "uint8"
        },
        {
          "internalType": "bytes16",
          "name": "apiCatalog",
          "type": "bytes16"
        },
        {
          "internalType": "bool",
          "name": "consent",
          "type": "bool"
        },
        {
          "internalType": "string",
          "name": "servicePrefix",
          "type": "string"
        },
        {
          "internalType": "bytes",
          "name": "signature",
          "type": "bytes"
        }
      ],
      "name": "setConsentFor",
      "outputs": [],
      "payable": false,
      "stateMutability": "nonpayable",
      "type": "function"
    },
    {
      "constant": false,
      "inputs": [
        {
          "internalType": "address",
          "name": "member",
          "type": "address"
        },
        {
          "internalType": "uint256",
          "name": "updated",
          "type": "uint256"
        },
        {
          "internalType": "bytes16",
          "name": "marketId",
          "type": "bytes16"
        },
        {
          "internalType": "address",
          "name": "delegate",
          "type": "address"
        },
        {
          "internalType": "uint8",
          "name": "delegateType",
          "type": "uint8"
        },
        {
          "internalType": "bytes16",
          "name": "apiCatalog",
          "type": "bytes16"
        },
        {
          "internalType": "bool",
          "name": "consent",
          "type": "bool"
        },
        {
          "internalType": "string",
          "name": "servicePrefix",
          "type": "string"
        },
        {
          "internalType": "bytes",
          "name": "signature",
          "type": "bytes"
        }
      ],
      "name": "_setConsent",
      "outputs": [],
      "payable": false,
      "stateMutability": "nonpayable",
      "type": "function"
    },
    {
      "constant": true,
      "inputs": [],
      "name": "countMarkets",
      "outputs": [
        {
          "internalType": "uint256",
          "name": "",
          "type": "uint256"
        }
      ],
      "payable": false,
      "stateMutability": "view",
      "type": "function"
    },
    {
      "constant": true,
      "inputs": [
        {
          "internalType": "bytes16",
          "name": "marketId",
          "type": "bytes16"
        }
      ],
      "name": "getMarketOwner",
      "outputs": [
        {
          "internalType": "address",
          "name": "",
          "type": "address"
        }
      ],
      "payable": false,
      "stateMutability": "view",
      "type": "function"
    },
    {
      "constant": true,
      "inputs": [
        {
          "internalType": "bytes16",
          "name": "marketId",
          "type": "bytes16"
        }
      ],
      "name": "getMarketMaker",
      "outputs": [
        {
          "internalType": "address",
          "name": "",
          "type": "address"
        }
      ],
      "payable": false,
      "stateMutability": "view",
      "type": "function"
    },
    {
      "constant": true,
      "inputs": [
        {
          "internalType": "address",
          "name": "owner",
          "type": "address"
        },
        {
          "internalType": "uint256",
          "name": "index",
          "type": "uint256"
        }
      ],
      "name": "getMarketsByOwner",
      "outputs": [
        {
          "internalType": "bytes16",
          "name": "",
          "type": "bytes16"
        }
      ],
      "payable": false,
      "stateMutability": "view",
      "type": "function"
    },
    {
      "constant": true,
      "inputs": [
        {
          "internalType": "bytes16",
          "name": "marketId",
          "type": "bytes16"
        },
        {
          "internalType": "address",
          "name": "actor",
          "type": "address"
        },
        {
          "internalType": "enum XBRTypes.ActorType",
          "name": "actorType",
          "type": "uint8"
        }
      ],
      "name": "isActor",
      "outputs": [
        {
          "internalType": "bool",
          "name": "",
          "type": "bool"
        }
      ],
      "payable": false,
      "stateMutability": "view",
      "type": "function"
    },
    {
      "constant": true,
      "inputs": [
        {
          "internalType": "address",
          "name": "owner",
          "type": "address"
        }
      ],
      "name": "countMarketsByOwner",
      "outputs": [
        {
          "internalType": "uint256",
          "name": "",
          "type": "uint256"
        }
      ],
      "payable": false,
      "stateMutability": "view",
      "type": "function"
    },
    {
      "constant": true,
      "inputs": [
        {
          "internalType": "bytes16",
          "name": "marketId",
          "type": "bytes16"
        },
        {
          "internalType": "address",
          "name": "actor",
          "type": "address"
        },
        {
          "internalType": "uint8",
          "name": "actorType",
          "type": "uint8"
        }
      ],
      "name": "getMarketActor",
      "outputs": [
        {
          "internalType": "uint256",
          "name": "",
          "type": "uint256"
        },
        {
          "internalType": "uint256",
          "name": "",
          "type": "uint256"
        },
        {
          "internalType": "string",
          "name": "",
          "type": "string"
        },
        {
          "internalType": "bytes",
          "name": "",
          "type": "bytes"
        }
      ],
      "payable": false,
      "stateMutability": "view",
      "type": "function"
    },
    {
      "constant": true,
      "inputs": [
        {
          "internalType": "bytes16",
          "name": "marketId",
          "type": "bytes16"
        }
      ],
      "name": "getAllMarketProviders",
      "outputs": [
        {
          "internalType": "address[]",
          "name": "",
          "type": "address[]"
        }
      ],
      "payable": false,
      "stateMutability": "view",
      "type": "function"
    },
    {
      "constant": true,
      "inputs": [
        {
          "internalType": "bytes16",
          "name": "marketId",
          "type": "bytes16"
        }
      ],
      "name": "getAllMarketConsumers",
      "outputs": [
        {
          "internalType": "address[]",
          "name": "",
          "type": "address[]"
        }
      ],
      "payable": false,
      "stateMutability": "view",
      "type": "function"
    },
    {
      "constant": true,
      "inputs": [
        {
          "internalType": "bytes16",
          "name": "marketId",
          "type": "bytes16"
        },
        {
          "internalType": "address",
          "name": "actor",
          "type": "address"
        }
      ],
      "name": "getAllPaymentChannels",
      "outputs": [
        {
          "internalType": "address[]",
          "name": "",
          "type": "address[]"
        }
      ],
      "payable": false,
      "stateMutability": "view",
      "type": "function"
    },
    {
      "constant": true,
      "inputs": [
        {
          "internalType": "bytes16",
          "name": "marketId",
          "type": "bytes16"
        },
        {
          "internalType": "address",
          "name": "actor",
          "type": "address"
        }
      ],
      "name": "getAllPayingChannels",
      "outputs": [
        {
          "internalType": "address[]",
          "name": "",
          "type": "address[]"
        }
      ],
      "payable": false,
      "stateMutability": "view",
      "type": "function"
    },
    {
      "constant": true,
      "inputs": [
        {
          "internalType": "bytes16",
          "name": "marketId",
          "type": "bytes16"
        },
        {
          "internalType": "address",
          "name": "delegate",
          "type": "address"
        }
      ],
      "name": "currentPaymentChannelByDelegate",
      "outputs": [
        {
          "internalType": "address",
          "name": "",
          "type": "address"
        }
      ],
      "payable": false,
      "stateMutability": "view",
      "type": "function"
    },
    {
      "constant": true,
      "inputs": [
        {
          "internalType": "bytes16",
          "name": "marketId",
          "type": "bytes16"
        },
        {
          "internalType": "address",
          "name": "delegate",
          "type": "address"
        }
      ],
      "name": "currentPayingChannelByDelegate",
      "outputs": [
        {
          "internalType": "address",
          "name": "",
          "type": "address"
        }
      ],
      "payable": false,
      "stateMutability": "view",
      "type": "function"
    }
  ],
  "bytecode": "0x60806040526001805463ffffffff60a01b1916600160a01b1790553480156200002757600080fd5b5060405162004062380380620040628339810160408190526200004a9162000195565b6200005e336001600160e01b036200008416565b600180546001600160a01b0319166001600160a01b039290921691909117905562000298565b6200009f816000620000d660201b620026681790919060201c565b6040516001600160a01b038216907f1390a149489c82e9e2e89927bdb17ad1ea3f0cc314fce06c96369721d3afb8f090600090a250565b620000eb82826001600160e01b036200013916565b15620001145760405162461bcd60e51b81526004016200010b906200023f565b60405180910390fd5b6001600160a01b0316600090815260209190915260409020805460ff19166001179055565b60006001600160a01b038216620001645760405162461bcd60e51b81526004016200010b9062000251565b506001600160a01b03811660009081526020839052604090205460ff165b92915050565b805162000182816200027e565b600060208284031215620001a857600080fd5b6000620001b6848462000188565b949350505050565b6000620001cd601f8362000263565b7f526f6c65733a206163636f756e7420616c72656164792068617320726f6c6500815260200192915050565b60006200020860228362000263565b7f526f6c65733a206163636f756e7420697320746865207a65726f206164647265815261737360f01b602082015260400192915050565b602080825281016200018281620001be565b602080825281016200018281620001f9565b90815260200190565b60006001600160a01b03821662000182565b62000289816200026c565b81146200029557600080fd5b50565b613dba80620002a86000396000f3fe608060405234801561001057600080fd5b50600436106101c45760003560e01c80637f37fcd0116100f9578063db18584011610097578063df21d34211610071578063df21d342146103f0578063f513181814610403578063fb58c7c314610416578063fd5bd39114610429576101c4565b8063db185840146103b7578063dba7b772146103ca578063dd57366a146103dd576101c4565b8063a65db4da116100d3578063a65db4da14610354578063b4381fd314610367578063bc385fcd14610391578063c1318bff146103a4576101c4565b80637f37fcd01461030b5780638edb314f1461031e5780639fa7a6aa14610341576101c4565b80634ddd4331116101665780636739afca116101405780636739afca146102bd5780636b453c1f146102d2578063779a9683146102e55780637ba5c48d146102f8576101c4565b80634ddd43311461027757806352cf82e81461028a578063559d17381461029d576101c4565b8063314db06b116101a2578063314db06b14610225578063329a40471461022f5780633d1fbba11461024f5780634d88ee3e1461026f576101c4565b80631290cc1a146101c95780631b223eab146101f2578063287c05a214610212575b600080fd5b6101dc6101d73660046128e4565b61043c565b6040516101e991906138f3565b60405180910390f35b610205610200366004612c70565b610451565b6040516101e991906138d4565b6101dc610220366004612920565b6104e1565b61022d610524565b005b61024261023d3660046128e4565b61052f565b6040516101e99190613a7f565b61026261025d366004612ca0565b61054a565b6040516101e991906138e5565b610242610628565b61022d61028536600461295a565b61062f565b610205610298366004612c70565b6108a0565b6102b06102ab366004612c52565b61092d565b6040516101e991906137e3565b6102c561095c565b6040516101e99190613901565b61022d6102e03660046128e4565b61096b565b6101dc6102f3366004612eef565b610989565b610205610306366004612c52565b6109bd565b61022d610319366004612a8d565b610a37565b61033161032c366004612dcb565b610a42565b6040516101e99493929190613a8d565b6102b061034f366004612c70565b610cd4565b6102b0610362366004612c70565b610d0c565b61037a610375366004612c52565b610d44565b6040516101e99b9a99989796959493929190613b7b565b6102b061039f366004612c52565b610f54565b61022d6103b2366004612e0e565b610f7c565b6102426103c5366004612b7f565b610fa4565b61022d6103d8366004612ced565b6111e5565b6102626103eb3660046128e4565b611211565b6102056103fe366004612c52565b611223565b6101dc610411366004612920565b61129b565b610242610424366004612e77565b6112ea565b61022d610437366004612a8d565b611311565b60046020526000908152604090205460801b81565b6001600160801b0319821660009081526002602090815260408083206001600160a01b0385168452600d018252918290206004018054835181840281018401909452808452606093928301828280156104d357602002820191906000526020600020905b81546001600160a01b031681526001909101906020018083116104b5575b505050505090505b92915050565b600560205281600052604060002081815481106104fa57fe5b9060005260206000209060029182820401919006601002915091509054906101000a900460801b81565b61052d33611570565b565b6001600160a01b031660009081526005602052604090205490565b6001600160801b03198316600090815260026020526040812060010154600160201b90046001600160a01b031661058357506000610621565b600282600281111561059157fe5b14156105d057506001600160801b0319831660009081526002602090815260408083206001600160a01b0386168452600d019091529020541515610621565b60018260028111156105de57fe5b141561061d57506001600160801b0319831660009081526002602090815260408083206001600160a01b0386168452600c019091529020541515610621565b5060005b9392505050565b6003545b90565b73__XBRTypes______________________________630c5524ee8c604051806101400160405280600160009054906101000a90046001600160a01b03166001600160a01b03166359c8e6036040518163ffffffff1660e01b815260040160206040518083038186803b1580156106a457600080fd5b505afa1580156106b8573d6000803e3d6000fd5b505050506040513d601f19601f820116820180604052506106dc9190810190612f0d565b81526001546040805163a787d61b60e01b815290516020938401936001600160a01b039093169263a787d61b9260048082019391829003018186803b15801561072457600080fd5b505afa158015610738573d6000803e3d6000fd5b505050506040513d601f19601f8201168201806040525061075c9190810190612902565b6001600160a01b031681526020018f6001600160a01b031681526020018e81526020018d6001600160801b03191681526020018c6001600160a01b031681526020018b81526020018a8152602001896001600160a01b0316815260200186815250846040518463ffffffff1660e01b81526004016107dc9392919061384d565b60206040518083038186803b1580156107f457600080fd5b505af4158015610808573d6000803e3d6000fd5b505050506040513d601f19601f8201168201806040525061082c9190810190612c34565b6108515760405162461bcd60e51b81526004016108489061395f565b60405180910390fd5b438a111580156108645750600443038a10155b6108805760405162461bcd60e51b8152600401610848906139cf565b6108938b8b8b8b8b8b8b8b8b8b8b6115b8565b5050505050505050505050565b6001600160801b0319821660009081526002602090815260408083206001600160a01b0385168452600c018252918290206004018054835181840281018401909452808452606093928301828280156104d3576020028201919060005260206000209081546001600160a01b031681526001909101906020018083116104b5575050505050905092915050565b6001600160801b031916600090815260026020526040902060010154600160201b90046001600160a01b031690565b6001546001600160a01b031681565b61097433611211565b61097d57600080fd5b61098681611f11565b50565b6003818154811061099657fe5b9060005260206000209060029182820401919006601002915054906101000a900460801b81565b6001600160801b03198116600090815260026020908152604091829020600a01805483518184028101840190945280845260609392830182828015610a2b57602002820191906000526020600020905b81546001600160a01b03168152600190910190602001808311610a0d575b50505050509050919050565b505050505050505050565b6001600160801b0319831660009081526002602052604081206001015481906060908190600160201b90046001600160a01b0316610a925760405162461bcd60e51b8152600401610848906139ef565b60ff851660011480610aa7575060ff85166002145b610ac35760405162461bcd60e51b81526004016108489061393f565b60ff851660021415610c34576001600160801b0319871660009081526002602081815260408084206001600160a01b038b168552600d018252928390208054600180830154838601805488519381161561010002600019011696909604601f810186900486028301860190975286825292959194929360038701928491830182828015610b915780601f10610b6657610100808354040283529160200191610b91565b820191906000526020600020905b815481529060010190602001808311610b7457829003601f168201915b5050845460408051602060026001851615610100026000190190941693909304601f810184900484028201840190925281815295975086945092508401905082828015610c1f5780601f10610bf457610100808354040283529160200191610c1f565b820191906000526020600020905b815481529060010190602001808311610c0257829003601f168201915b50505050509050945094509450945050610ccb565b6001600160801b0319871660009081526002602081815260408084206001600160a01b038b168552600c018252928390208054600180830154838601805488519381161561010002600019011696909604601f810186900486028301860190975286825292959194929360038701928491830182828015610b915780601f10610b6657610100808354040283529160200191610b91565b93509350935093565b6001600160801b03199190911660009081526002602090815260408083206001600160a01b039485168452600f019091529020541690565b6001600160801b03199190911660009081526002602090815260408083206001600160a01b039485168452600e019091529020541690565b60026020818152600092835260409283902080546001808301548386015460038501805489516101009582161595909502600019011697909704601f8101879004870284018701909852878352929663ffffffff821696600160201b9092046001600160a01b039081169694169493830182828015610e045780601f10610dd957610100808354040283529160200191610e04565b820191906000526020600020905b815481529060010190602001808311610de757829003601f168201915b5050505060048301805460408051602060026001851615610100026000190190941693909304601f8101849004840282018401909252818152949594935090830182828015610e945780601f10610e6957610100808354040283529160200191610e94565b820191906000526020600020905b815481529060010190602001808311610e7757829003601f168201915b50505050600583015460068401546007850154600886015460098701805460408051602060026101006001861615026000190190941693909304601f810184900484028201840190925281815298996001600160a01b039097169895975093959294929390830182828015610f4a5780601f10610f1f57610100808354040283529160200191610f4a565b820191906000526020600020905b815481529060010190602001808311610f2d57829003601f168201915b505050505090508b565b6001600160801b0319166000908152600260205260409020600501546001600160a01b031690565b610f9c334388888888888860405180602001604052806000815250610a37565b505050505050565b600073__XBRTypes______________________________63bc062532886040518060e00160405280600160009054906101000a90046001600160a01b03166001600160a01b03166359c8e6036040518163ffffffff1660e01b815260040160206040518083038186803b15801561101a57600080fd5b505afa15801561102e573d6000803e3d6000fd5b505050506040513d601f19601f820116820180604052506110529190810190612f0d565b81526001546040805163a787d61b60e01b815290516020938401936001600160a01b039093169263a787d61b9260048082019391829003018186803b15801561109a57600080fd5b505afa1580156110ae573d6000803e3d6000fd5b505050506040513d601f19601f820116820180604052506110d29190810190612902565b6001600160a01b031681526020018b6001600160a01b031681526020018a8152602001896001600160801b03191681526020018860ff16815260200187815250856040518463ffffffff1660e01b81526004016111319392919061386d565b60206040518083038186803b15801561114957600080fd5b505af415801561115d573d6000803e3d6000fd5b505050506040513d601f19601f820116820180604052506111819190810190612c34565b61119d5760405162461bcd60e51b81526004016108489061399f565b4386111580156111b05750600443038610155b6111cc5760405162461bcd60e51b81526004016108489061397f565b6111da878787878787611f59565b979650505050505050565b61120733438a8a8a8a8a8a8a8a604051806020016040528060008152506115b8565b5050505050505050565b60006104db818363ffffffff6125d816565b6001600160801b03198116600090815260026020908152604091829020600b01805483518184028101840190945280845260609392830182828015610a2b576020028201919060005260206000209081546001600160a01b03168152600190910190602001808311610a0d5750505050509050919050565b6001600160a01b03821660009081526005602052604081208054839081106112bf57fe5b90600052602060002090600291828204019190066010029054906101000a900460801b905092915050565b6000611309334386868660405180602001604052806000815250611f59565b949350505050565b73__XBRTypes______________________________638fc8980a8a604051806101400160405280600160009054906101000a90046001600160a01b03166001600160a01b03166359c8e6036040518163ffffffff1660e01b815260040160206040518083038186803b15801561138657600080fd5b505afa15801561139a573d6000803e3d6000fd5b505050506040513d601f19601f820116820180604052506113be9190810190612f0d565b81526001546040805163a787d61b60e01b815290516020938401936001600160a01b039093169263a787d61b9260048082019391829003018186803b15801561140657600080fd5b505afa15801561141a573d6000803e3d6000fd5b505050506040513d601f19601f8201168201806040525061143e9190810190612902565b6001600160a01b031681526020018d6001600160a01b031681526020018c81526020018b6001600160801b03191681526020018a6001600160a01b031681526020018960ff168152602001886001600160801b0319168152602001871515815260200186815250846040518463ffffffff1660e01b81526004016114c493929190613819565b60206040518083038186803b1580156114dc57600080fd5b505af41580156114f0573d6000803e3d6000fd5b505050506040513d601f19601f820116820180604052506115149190810190612c34565b6115305760405162461bcd60e51b815260040161084890613a0f565b4388111580156115435750600443038810155b61155f5760405162461bcd60e51b815260040161084890613a3f565b610a37898989898989898989610a37565b61158160008263ffffffff61262016565b6040516001600160a01b038216907fa7b36d52bea726c3aa90d876d0e52a1089a347b3e3408a03f08eae32f96fdbb490600090a250565b60015460405163022b92c360e21b81526000916001600160a01b0316906308ae4b0c906115e9908f906004016137e3565b60006040518083038186803b15801561160157600080fd5b505afa158015611615573d6000803e3d6000fd5b505050506040513d6000823e601f3d908101601f1916820160405261163d9190810190612f2b565b5093506001925061164c915050565b81600581111561165857fe5b148061166f5750600281600581111561166d57fe5b145b61168b5760405162461bcd60e51b81526004016108489061398f565b6001600160801b03198a16600090815260026020526040902060010154600160201b90046001600160a01b0316156116d55760405162461bcd60e51b81526004016108489061392f565b600154604051630fa1ef5160e31b81526001600160a01b0390911690637d0f7a8890611705908c906004016137e3565b60206040518083038186803b15801561171d57600080fd5b505afa158015611731573d6000803e3d6000fd5b505050506040513d601f19601f820116820180604052506117559190810190612c34565b15156001146117765760405162461bcd60e51b81526004016108489061391f565b6001600160a01b03861661179c5760405162461bcd60e51b81526004016108489061396f565b6001600160a01b03861660009081526004602052604090205460801b6001600160801b031916156117df5760405162461bcd60e51b81526004016108489061394f565b600160009054906101000a90046001600160a01b03166001600160a01b031663fc0c546a6040518163ffffffff1660e01b815260040160206040518083038186803b15801561182d57600080fd5b505afa158015611841573d6000803e3d6000fd5b505050506040513d601f19601f820116820180604052506118659190810190612ed1565b6001600160a01b03166318160ddd6040518163ffffffff1660e01b815260040160206040518083038186803b15801561189d57600080fd5b505afa1580156118b1573d6000803e3d6000fd5b505050506040513d601f19601f820116820180604052506118d59190810190612f0d565b8511156118f45760405162461bcd60e51b815260040161084890613a5f565b600160009054906101000a90046001600160a01b03166001600160a01b031663fc0c546a6040518163ffffffff1660e01b815260040160206040518083038186803b15801561194257600080fd5b505afa158015611956573d6000803e3d6000fd5b505050506040513d601f19601f8201168201806040525061197a9190810190612ed1565b6001600160a01b03166318160ddd6040518163ffffffff1660e01b815260040160206040518083038186803b1580156119b257600080fd5b505afa1580156119c6573d6000803e3d6000fd5b505050506040513d601f19601f820116820180604052506119ea9190810190612f0d565b841115611a095760405162461bcd60e51b8152600401610848906139ff565b60015460408051637e062a3560e11b8152905162989680926001600160a01b03169163fc0c546a916004808301926020929190829003018186803b158015611a5057600080fd5b505afa158015611a64573d6000803e3d6000fd5b505050506040513d601f19601f82011682018060405250611a889190810190612ed1565b6001600160a01b03166318160ddd6040518163ffffffff1660e01b815260040160206040518083038186803b158015611ac057600080fd5b505afa158015611ad4573d6000803e3d6000fd5b505050506040513d601f19601f82011682018060405250611af89190810190612f0d565b03670de0b6b3a7640000028310611b215760405162461bcd60e51b815260040161084890613a4f565b604051806101a001604052808c8152602001600160149054906101000a900463ffffffff1663ffffffff1681526020018d6001600160a01b031681526020018a6001600160a01b03168152602001898152602001888152602001876001600160a01b031681526020018681526020018581526020018481526020018381526020016000604051908082528060200260200182016040528015611bcd578160200160208202803883390190505b5081526020016000604051908082528060200260200182016040528015611bfe578160200160208202803883390190505b5090526001600160801b03198b1660009081526002602081815260409283902084518155848201516001820180549587015163ffffffff1990961663ffffffff90921691909117640100000000600160c01b031916600160201b6001600160a01b0396871602179055606085015192810180546001600160a01b0319169390941692909217909255608083015180519192611ca1926003850192909101906126b4565b5060a08201518051611cbd9160048401916020909101906126b4565b5060c08201516005820180546001600160a01b0319166001600160a01b0390921691909117905560e08201516006820155610100820151600782015561012082015160088201556101408201518051611d209160098401916020909101906126b4565b506101608201518051611d3d91600a840191602090910190612732565b506101808201518051611d5a91600b840191602090910190612732565b509050508960046000886001600160a01b03166001600160a01b0316815260200190815260200160002060006101000a8154816001600160801b03021916908360801c0217905550600560008d6001600160a01b03166001600160a01b031681526020019081526020016000208a908060018154018082558091505090600182039060005260206000209060029182820401919006601002909192909190916101000a8154816001600160801b03021916908360801c02179055505060038a908060018154018082558091505090600182039060005260206000209060029182820401919006601002909192909190916101000a8154816001600160801b03021916908360801c021790555050600160149054906101000a900463ffffffff16600101600160146101000a81548163ffffffff021916908363ffffffff160217905550896001600160801b0319167fe3ce82684bff0ae57c32d641ba9125e18cd31346398d4d3e1b3c809b4a8523ca8c600160149054906101000a900463ffffffff168f8d8d8d8d8d8d8d604051611efb9a99989796959493929190613ad8565b60405180910390a2505050505050505050505050565b611f2260008263ffffffff61266816565b6040516001600160a01b038216907f1390a149489c82e9e2e89927bdb17ad1ea3f0cc314fce06c96369721d3afb8f090600090a250565b60015460405163022b92c360e21b815260009182916001600160a01b03909116906308ae4b0c90611f8e908b906004016137e3565b60006040518083038186803b158015611fa657600080fd5b505afa158015611fba573d6000803e3d6000fd5b505050506040513d6000823e601f3d908101601f19168201604052611fe29190810190612f2b565b50935060019250611ff1915050565b816005811115611ffd57fe5b1461201a5760405162461bcd60e51b81526004016108489061398f565b6001600160801b03198616600090815260026020526040902060010154600160201b90046001600160a01b03166120635760405162461bcd60e51b8152600401610848906139ef565b6001600160801b031986166000908152600260205260409020600101546001600160a01b03898116600160201b9092041614156120b25760405162461bcd60e51b815260040161084890613a6f565b60ff8516600114806120c7575060ff85166002145b6120e35760405162461bcd60e51b81526004016108489061393f565b600060ff861660011415612165576001600160801b0319871660009081526002602090815260408083206001600160a01b038d168452600c0190915290205460ff16156121425760405162461bcd60e51b815260040161084890613a1f565b506001600160801b031986166000908152600260205260409020600601546121d5565b6001600160801b0319871660009081526002602090815260408083206001600160a01b038d168452600d0190915290205460ff16156121b65760405162461bcd60e51b8152600401610848906139bf565b506001600160801b031986166000908152600260205260409020600701545b80156123245760015460408051637e062a3560e11b815290516000926001600160a01b03169163fc0c546a916004808301926020929190829003018186803b15801561222057600080fd5b505afa158015612234573d6000803e3d6000fd5b505050506040513d601f19601f820116820180604052506122589190810190612ed1565b6001600160801b03198916600090815260026020526040908190206001015490516323b872dd60e01b81526001600160a01b03928316926323b872dd926122b1928f92600160201b9092049091169087906004016137f1565b602060405180830381600087803b1580156122cb57600080fd5b505af11580156122df573d6000803e3d6000fd5b505050506040513d601f19601f820116820180604052506123039190810190612c34565b9050806123225760405162461bcd60e51b815260040161084890613a2f565b505b60ff86166001141561245b576040518060a00160405280898152602001828152602001868152602001858152602001600060405190808252806020026020018201604052801561237e578160200160208202803883390190505b5090526001600160801b0319881660009081526002602081815260408084206001600160a01b038f168552600c01825292839020845181558482015160018201559284015180516123d69385019291909101906126b4565b50606082015180516123f29160038401916020909101906126b4565b506080820151805161240e916004840191602090910190612732565b5050506001600160801b0319871660009081526002602090815260408220600a01805460018101825590835291200180546001600160a01b0319166001600160a01b038b16179055612582565b6040518060a0016040528089815260200182815260200186815260200185815260200160006040519080825280602002602001820160405280156124a9578160200160208202803883390190505b5090526001600160801b0319881660009081526002602081815260408084206001600160a01b038f168552600d01825292839020845181558482015160018201559284015180516125019385019291909101906126b4565b506060820151805161251d9160038401916020909101906126b4565b5060808201518051612539916004840191602090910190612732565b5050506001600160801b0319871660009081526002602090815260408220600b01805460018101825590835291200180546001600160a01b0319166001600160a01b038b161790555b866001600160801b0319167f7c37cc18b0d70854a11abeed873f3c5dea809a2b3522ff30f58ba8e6a04cdc7b8a888b858a6040516125c495949392919061388d565b60405180910390a298975050505050505050565b60006001600160a01b0382166126005760405162461bcd60e51b8152600401610848906139df565b506001600160a01b03166000908152602091909152604090205460ff1690565b61262a82826125d8565b6126465760405162461bcd60e51b8152600401610848906139af565b6001600160a01b0316600090815260209190915260409020805460ff19169055565b61267282826125d8565b1561268f5760405162461bcd60e51b81526004016108489061390f565b6001600160a01b0316600090815260209190915260409020805460ff19166001179055565b828054600181600116156101000203166002900490600052602060002090601f016020900481019282601f106126f557805160ff1916838001178555612722565b82800160010185558215612722579182015b82811115612722578251825591602001919060010190612707565b5061272e929150612793565b5090565b828054828255906000526020600020908101928215612787579160200282015b8281111561278757825182546001600160a01b0319166001600160a01b03909116178255602090920191600190910190612752565b5061272e9291506127ad565b61062c91905b8082111561272e5760008155600101612799565b61062c91905b8082111561272e5780546001600160a01b03191681556001016127b3565b80356104db81613d1c565b80516104db81613d1c565b80356104db81613d30565b80516104db81613d30565b80356104db81613d39565b600082601f83011261281957600080fd5b815161282c61282782613c59565b613c33565b9150808252602083016020830185838301111561284857600080fd5b612853838284613ce2565b50505092915050565b600082601f83011261286d57600080fd5b813561287b61282782613c59565b9150808252602083016020830185838301111561289757600080fd5b612853838284613cd6565b80516104db81613d42565b80356104db81613d4b565b80516104db81613d58565b80356104db81613d65565b80516104db81613d65565b80356104db81613d6e565b6000602082840312156128f657600080fd5b600061130984846127d1565b60006020828403121561291457600080fd5b600061130984846127dc565b6000806040838503121561293357600080fd5b600061293f85856127d1565b9250506020612950858286016128c3565b9150509250929050565b60008060008060008060008060008060006101608c8e03121561297c57600080fd5b60006129888e8e6127d1565b9b505060206129998e828f016128c3565b9a505060406129aa8e828f016127fd565b99505060606129bb8e828f016127d1565b98505060808c01356001600160401b038111156129d757600080fd5b6129e38e828f0161285c565b97505060a08c01356001600160401b038111156129ff57600080fd5b612a0b8e828f0161285c565b96505060c0612a1c8e828f016127d1565b95505060e0612a2d8e828f016128c3565b945050610100612a3f8e828f016128c3565b935050610120612a518e828f016128c3565b9250506101408c01356001600160401b03811115612a6e57600080fd5b612a7a8e828f0161285c565b9150509295989b509295989b9093969950565b60008060008060008060008060006101208a8c031215612aac57600080fd5b6000612ab88c8c6127d1565b9950506020612ac98c828d016128c3565b9850506040612ada8c828d016127fd565b9750506060612aeb8c828d016127d1565b9650506080612afc8c828d016128d9565b95505060a0612b0d8c828d016127fd565b94505060c0612b1e8c828d016127e7565b93505060e08a01356001600160401b03811115612b3a57600080fd5b612b468c828d0161285c565b9250506101008a01356001600160401b03811115612b6357600080fd5b612b6f8c828d0161285c565b9150509295985092959850929598565b60008060008060008060c08789031215612b9857600080fd5b6000612ba489896127d1565b9650506020612bb589828a016128c3565b9550506040612bc689828a016127fd565b9450506060612bd789828a016128d9565b93505060808701356001600160401b03811115612bf357600080fd5b612bff89828a0161285c565b92505060a08701356001600160401b03811115612c1b57600080fd5b612c2789828a0161285c565b9150509295509295509295565b600060208284031215612c4657600080fd5b600061130984846127f2565b600060208284031215612c6457600080fd5b600061130984846127fd565b60008060408385031215612c8357600080fd5b6000612c8f85856127fd565b9250506020612950858286016127d1565b600080600060608486031215612cb557600080fd5b6000612cc186866127fd565b9350506020612cd2868287016127d1565b9250506040612ce3868287016128ad565b9150509250925092565b600080600080600080600080610100898b031215612d0a57600080fd5b6000612d168b8b6127fd565b9850506020612d278b828c016127d1565b97505060408901356001600160401b03811115612d4357600080fd5b612d4f8b828c0161285c565b96505060608901356001600160401b03811115612d6b57600080fd5b612d778b828c0161285c565b9550506080612d888b828c016127d1565b94505060a0612d998b828c016128c3565b93505060c0612daa8b828c016128c3565b92505060e0612dbb8b828c016128c3565b9150509295985092959890939650565b600080600060608486031215612de057600080fd5b6000612dec86866127fd565b9350506020612dfd868287016127d1565b9250506040612ce3868287016128d9565b60008060008060008060c08789031215612e2757600080fd5b6000612e3389896127fd565b9650506020612e4489828a016127d1565b9550506040612e5589828a016128d9565b9450506060612e6689828a016127fd565b9350506080612bff89828a016127e7565b600080600060608486031215612e8c57600080fd5b6000612e9886866127fd565b9350506020612ea9868287016128d9565b92505060408401356001600160401b03811115612ec557600080fd5b612ce38682870161285c565b600060208284031215612ee357600080fd5b600061130984846128a2565b600060208284031215612f0157600080fd5b600061130984846128c3565b600060208284031215612f1f57600080fd5b600061130984846128ce565b600080600080600060a08688031215612f4357600080fd5b6000612f4f88886128ce565b95505060208601516001600160401b03811115612f6b57600080fd5b612f7788828901612808565b94505060408601516001600160401b03811115612f9357600080fd5b612f9f88828901612808565b9350506060612fb0888289016128b8565b92505060808601516001600160401b03811115612fcc57600080fd5b612fd888828901612808565b9150509295509295909350565b6000612ff18383612ff9565b505060200190565b61300281613c93565b82525050565b600061301382613c86565b61301d8185613c8a565b935061302883613c80565b8060005b838110156130565781516130408882612fe5565b975061304b83613c80565b92505060010161302c565b509495945050505050565b61300281613c9e565b61300281613ca3565b600061307e82613c86565b6130888185613c8a565b9350613098818560208601613ce2565b6130a181613d12565b9093019392505050565b61300281613cb0565b60006130c1601f83613c8a565b7f526f6c65733a206163636f756e7420616c72656164792068617320726f6c6500815260200192915050565b60006130fa600c83613c8a565b6b24a72b20a624a22fa1a7a4a760a11b815260200192915050565b6000613122601583613c8a565b744d41524b45545f414c52454144595f45584953545360581b815260200192915050565b6000613153601283613c8a565b71494e56414c49445f4143544f525f5459504560701b815260200192915050565b6000613181602683613c8a565b7f4d414b45525f414c52454144595f574f524b494e475f464f525f4f544845525f81526513505492d15560d21b602082015260400192915050565b60006131c9601f83613c8a565b7f494e56414c49445f4d41524b45545f4352454154455f5349474e415455524500815260200192915050565b6000613202600d83613c8a565b6c24a72b20a624a22fa6a0a5a2a960991b815260200192915050565b600061322b601f83613c8a565b7f494e56414c49445f524547495354455245445f424c4f434b5f4e554d42455200815260200192915050565b6000613264601383613c8a565b7229a2a72222a92fa727aa2fa0afa6a2a6a122a960691b815260200192915050565b6000613293601d83613c8a565b7f494e56414c49445f4d41524b45545f4a4f494e5f5349474e4154555245000000815260200192915050565b60006132cc602183613c8a565b7f526f6c65733a206163636f756e7420646f6573206e6f74206861766520726f6c8152606560f81b602082015260400192915050565b600061330f601a83613c8a565b7f414c52454144595f4a4f494e45445f41535f434f4e53554d4552000000000000815260200192915050565b6000613348601c83613c8a565b7f494e56414c49445f435245415445445f424c4f434b5f4e554d42455200000000815260200192915050565b6000613381602283613c8a565b7f526f6c65733a206163636f756e7420697320746865207a65726f206164647265815261737360f01b602082015260400192915050565b60006133c5600e83613c8a565b6d1393d7d4d550d217d3505492d15560921b815260200192915050565b60006133ef601983613c8a565b7f494e56414c49445f434f4e53554d45525f534543555249545900000000000000815260200192915050565b6000613428601983613c8a565b7f494e56414c49445f434f4e53454e545f5349474e415455524500000000000000815260200192915050565b6000613461601a83613c8a565b7f414c52454144595f4a4f494e45445f41535f50524f5649444552000000000000815260200192915050565b600061349a602083613c8a565b7f4a4f494e5f4d41524b45545f5452414e534645525f46524f4d5f4641494c4544815260200192915050565b60006134d3601c83613c8a565b7f494e56414c49445f434f4e53454e545f424c4f434b5f4e554d42455200000000815260200192915050565b600061350c601283613c8a565b71494e56414c49445f4d41524b45545f46454560701b815260200192915050565b600061353a601983613c8a565b7f494e56414c49445f50524f56494445525f534543555249545900000000000000815260200192915050565b6000613573600f83613c8a565b6e29a2a72222a92fa4a9afa7aba722a960891b815260200192915050565b80516000906101408401906135a685826137c8565b5060208301516135b96020860182612ff9565b5060408301516135cc6040860182612ff9565b5060608301516135df60608601826137c8565b5060808301516135f2608086018261306a565b5060a083015161360560a0860182612ff9565b5060c083015161361860c08601826137da565b5060e083015161362b60e086018261306a565b50610100830151613640610100860182613061565b5061012083015184820361012086015261365a8282613073565b95945050505050565b805160009061014084019061367885826137c8565b50602083015161368b6020860182612ff9565b50604083015161369e6040860182612ff9565b5060608301516136b160608601826137c8565b5060808301516136c4608086018261306a565b5060a08301516136d760a0860182612ff9565b5060c083015184820360c08601526136ef8282613073565b91505060e083015184820360e08601526137098282613073565b915050610100830151613720610100860182612ff9565b506101208301516137356101208601826137c8565b509392505050565b805160009060e084019061375185826137c8565b5060208301516137646020860182612ff9565b5060408301516137776040860182612ff9565b50606083015161378a60608601826137c8565b50608083015161379d608086018261306a565b5060a08301516137b060a08601826137da565b5060c083015184820360c086015261365a8282613073565b6130028161062c565b61300281613cc7565b61300281613cd0565b602081016104db8284612ff9565b606081016137ff8286612ff9565b61380c6020830185612ff9565b61130960408301846137c8565b606081016138278286612ff9565b81810360208301526138398185613591565b9050818103604083015261365a8184613073565b6060810161385b8286612ff9565b81810360208301526138398185613663565b6060810161387b8286612ff9565b8181036020830152613839818561373d565b60a0810161389b8288612ff9565b6138a860208301876137da565b6138b560408301866137c8565b6138c260608301856137c8565b81810360808301526111da8184613073565b602080825281016106218184613008565b602081016104db8284613061565b602081016104db828461306a565b602081016104db82846130ab565b602080825281016104db816130b4565b602080825281016104db816130ed565b602080825281016104db81613115565b602080825281016104db81613146565b602080825281016104db81613174565b602080825281016104db816131bc565b602080825281016104db816131f5565b602080825281016104db8161321e565b602080825281016104db81613257565b602080825281016104db81613286565b602080825281016104db816132bf565b602080825281016104db81613302565b602080825281016104db8161333b565b602080825281016104db81613374565b602080825281016104db816133b8565b602080825281016104db816133e2565b602080825281016104db8161341b565b602080825281016104db81613454565b602080825281016104db8161348d565b602080825281016104db816134c6565b602080825281016104db816134ff565b602080825281016104db8161352d565b602080825281016104db81613566565b602081016104db82846137c8565b60808101613a9b82876137c8565b613aa860208301866137c8565b8181036040830152613aba8185613073565b90508181036060830152613ace8184613073565b9695505050505050565b6101408101613ae7828d6137c8565b613af4602083018c6137d1565b613b01604083018b612ff9565b613b0e606083018a612ff9565b8181036080830152613b208189613073565b905081810360a0830152613b348188613073565b9050613b4360c0830187612ff9565b613b5060e08301866137c8565b613b5e6101008301856137c8565b613b6c6101208301846137c8565b9b9a5050505050505050505050565b6101608101613b8a828e6137c8565b613b97602083018d6137d1565b613ba4604083018c612ff9565b613bb1606083018b612ff9565b8181036080830152613bc3818a613073565b905081810360a0830152613bd78189613073565b9050613be660c0830188612ff9565b613bf360e08301876137c8565b613c016101008301866137c8565b613c0f6101208301856137c8565b818103610140830152613c228184613073565b9d9c50505050505050505050505050565b6040518181016001600160401b0381118282101715613c5157600080fd5b604052919050565b60006001600160401b03821115613c6f57600080fd5b506020601f91909101601f19160190565b60200190565b5190565b90815260200190565b60006104db82613cbb565b151590565b6001600160801b03191690565b60006104db82613c93565b6001600160a01b031690565b63ffffffff1690565b60ff1690565b82818337506000910152565b60005b83811015613cfd578181015183820152602001613ce5565b83811115613d0c576000848401525b50505050565b601f01601f191690565b613d2581613c93565b811461098657600080fd5b613d2581613c9e565b613d2581613ca3565b613d2581613cb0565b6003811061098657600080fd5b6006811061098657600080fd5b613d258161062c565b613d2581613cd056fea365627a7a72315820d803226578f98d5151651ebae308f6dbd969037e9207b4f045a9fb4fa8a77bfb6c6578706572696d656e74616cf564736f6c63430005100040",
  "source": "///////////////////////////////////////////////////////////////////////////////\n//\n//  Copyright (C) 2018-2020 Crossbar.io Technologies GmbH and contributors.\n//\n//  Licensed under the Apache License, Version 2.0 (the \"License\");\n//  you may not use this file except in compliance with the License.\n//  You may obtain a copy of the License at\n//\n//      http://www.apache.org/licenses/LICENSE-2.0\n//\n//  Unless required by applicable law or agreed to in writing, software\n//  distributed under the License is distributed on an \"AS IS\" BASIS,\n//  WITHOUT WARRANTIES OR CONDITIONS OF ANY KIND, either express or implied.\n//  See the License for the specific language governing permissions and\n//  limitations under the License.\n//\n///////////////////////////////////////////////////////////////////////////////\n\npragma solidity ^0.5.12;\npragma experimental ABIEncoderV2;\n\n// https://openzeppelin.org/api/docs/math_SafeMath.html\nimport \"openzeppelin-solidity/contracts/math/SafeMath.sol\";\n\nimport \"./XBRMaintained.sol\";\nimport \"./XBRTypes.sol\";\nimport \"./XBRToken.sol\";\nimport \"./XBRNetwork.sol\";\n\n\n/**\n * The `XBR Market <https://github.com/crossbario/xbr-protocol/blob/master/contracts/XBRMarket.sol>`__\n * contract manages XBR data markets and serves as an anchor for all payment and paying channels for\n * each respective market.\n */\ncontract XBRMarket is XBRMaintained {\n\n    // Add safe math functions to uint256 using SafeMath lib from OpenZeppelin\n    using SafeMath for uint256;\n\n    /// Event emitted when a new market was created.\n    event MarketCreated (bytes16 indexed marketId, uint created, uint32 marketSeq, address owner, address coin, string terms,\n        string meta, address maker, uint256 providerSecurity, uint256 consumerSecurity, uint256 marketFee);\n\n    /// Event emitted when a market was updated.\n    event MarketUpdated (bytes16 indexed marketId, uint32 marketSeq, address owner, address coin, string terms, string meta,\n        address maker, uint256 providerSecurity, uint256 consumerSecurity, uint256 marketFee);\n\n    /// Event emitted when a market was closed.\n    event MarketClosed (bytes16 indexed marketId);\n\n    /// Event emitted when a new actor joined a market.\n    event ActorJoined (bytes16 indexed marketId, address actor, uint8 actorType, uint joined,\n        uint256 security, string meta);\n\n    /// Event emitted when an actor has left a market.\n    event ActorLeft (bytes16 indexed marketId, address actor, uint8 actorType);\n\n    /// Event emitted when an actor has set consent on a ``(market, delegate, api)`` triple.\n    event ConsentSet (address member, uint256 updated, bytes16 marketId, address delegate,\n        uint8 delegateType, bytes16 apiCatalog, bool consent, string servicePrefix);\n\n    /// Instance of XBRNetwork contract this contract is linked to.\n    XBRNetwork public network;\n\n    /// Created markets are sequence numbered using this counter (to allow deterministic collision-free IDs for markets)\n    uint32 private marketSeq = 1;\n\n    /// Current XBR Markets (\"market directory\")\n    mapping(bytes16 => XBRTypes.Market) public markets;\n\n    /// List of IDs of current XBR Markets.\n    bytes16[] public marketIds;\n\n    /// Index: maker address => market ID\n    mapping(address => bytes16) public marketsByMaker;\n\n    /// Index: market owner address => [market ID]\n    mapping(address => bytes16[]) public marketsByOwner;\n\n    // Constructor for this contract, only called once (when deploying the network).\n    //\n    // @param networkAdr The XBR network contract this instance is associated with.\n    constructor (address networkAdr) public {\n        network = XBRNetwork(networkAdr);\n    }\n\n    /// Create a new XBR market. The sender of the transaction must be XBR network member\n    /// and automatically becomes owner of the new market.\n    ///\n    /// @param marketId The ID of the market to create. Must be unique (not yet existing).\n    /// @param coin The ERC20 coin to be used as the means of payment in the market.\n    /// @param terms Multihash for market terms set by the market owner.\n    /// @param meta Multihash for optional market metadata.\n    /// @param maker The address of the XBR market maker that will run this market. The delegate of the market owner.\n    /// @param providerSecurity The amount of coins a XBR provider joining the market must deposit.\n    /// @param consumerSecurity The amount of coins a XBR consumer joining the market must deposit.\n    /// @param marketFee The fee taken by the market (beneficiary is the market owner). The fee is a percentage of\n    ///                  the revenue of the XBR Provider that receives coins paid for transactions.\n    ///                  The fee must be between 0% (inclusive) and 100% (inclusive), and is expressed as\n    ///                  a fraction of the total supply of coins in the ERC20 token specified for the market.\n    function createMarket (bytes16 marketId, address coin, string memory terms, string memory meta, address maker,\n        uint256 providerSecurity, uint256 consumerSecurity, uint256 marketFee) public {\n\n        _createMarket(msg.sender, block.number, marketId, coin, terms, meta, maker,\n            providerSecurity, consumerSecurity, marketFee, \"\");\n    }\n\n    /// Create a new XBR market for a member. The member must be XBR network member, must have signed the\n    /// transaction data, and will become owner of the new market.\n    ///\n    /// Note: This version uses pre-signed data where the actual blockchain transaction is\n    /// submitted by a gateway paying the respective gas (in ETH) for the blockchain transaction.\n    ///\n    /// @param member The member that creates the market (will become market owner).\n    /// @param created Block number when the market was created.\n    /// @param marketId The ID of the market to create. Must be unique (not yet existing).\n    /// @param coin The ERC20 coin to be used as the means of payment in the market.\n    /// @param terms Multihash for market terms set by the market owner.\n    /// @param meta Multihash for optional market metadata.\n    /// @param maker The address of the XBR market maker that will run this market. The delegate of the market owner.\n    /// @param providerSecurity The amount of coins a XBR provider joining the market must deposit.\n    /// @param consumerSecurity The amount of coins a XBR consumer joining the market must deposit.\n    /// @param marketFee The fee taken by the market (beneficiary is the market owner). The fee is a percentage of\n    ///                  the revenue of the XBR Provider that receives coins paid for transactions.\n    ///                  The fee must be between 0% (inclusive) and 100% (inclusive), and is expressed as\n    ///                  a fraction of the total supply of coins in the ERC20 token specified for the market.\n    /// @param signature EIP712 signature created by the member.\n    function createMarketFor (address member, uint256 created, bytes16 marketId, address coin,\n        string memory terms, string memory meta, address maker, uint256 providerSecurity, uint256 consumerSecurity,\n        uint256 marketFee, bytes memory signature) public {\n/*\n        require(XBRTypes.verify(member, XBRTypes.EIP712MarketCreate(network.verifyingChain(), network.verifyingContract(),\n            member, created, marketId, coin, terms, meta, maker, providerSecurity, consumerSecurity, marketFee), signature),\n            \"INVALID_MARKET_CREATE_SIGNATURE\");\n*/\n        require(XBRTypes.verify(member, XBRTypes.EIP712MarketCreate(network.verifyingChain(), network.verifyingContract(),\n            member, created, marketId, coin, terms, meta, maker, marketFee), signature),\n            \"INVALID_MARKET_CREATE_SIGNATURE\");\n\n        // signature must have been created in a window of 5 blocks from the current one\n        require(created <= block.number && created >= (block.number - 4), \"INVALID_CREATED_BLOCK_NUMBER\");\n\n        _createMarket(member, created, marketId, coin, terms, meta, maker,\n            providerSecurity, consumerSecurity, marketFee, signature);\n    }\n\n    function _createMarket (address member, uint256 created, bytes16 marketId, address coin, string memory terms,\n        string memory meta, address maker, uint256 providerSecurity, uint256 consumerSecurity, uint256 marketFee,\n        bytes memory signature) private {\n\n        (, , , XBRTypes.MemberLevel member_level, ) = network.members(member);\n\n        // the market operator (owner) must be a registered member\n        require(member_level == XBRTypes.MemberLevel.ACTIVE ||\n                member_level == XBRTypes.MemberLevel.VERIFIED, \"SENDER_NOT_A_MEMBER\");\n\n        // market must not yet exist (to generate a new marketId: )\n        require(markets[marketId].owner == address(0), \"MARKET_ALREADY_EXISTS\");\n\n        // FIXME: expand this to check against XBRNetwork.coins (which is not yet there)\n        // require(coin == address(network.token()), \"INVALID_COIN\");\n        require(network.coins(coin) == true, \"INVALID_COIN\");\n\n        // must provide a valid market maker address already when creating a market\n        require(maker != address(0), \"INVALID_MAKER\");\n\n        // the market maker can only work for one market\n        require(marketsByMaker[maker] == bytes16(0), \"MAKER_ALREADY_WORKING_FOR_OTHER_MARKET\");\n\n        // provider security must be non-negative (and obviously smaller than the total token supply)\n        require(providerSecurity >= 0 && providerSecurity <= network.token().totalSupply(), \"INVALID_PROVIDER_SECURITY\");\n\n        // consumer security must be non-negative (and obviously smaller than the total token supply)\n        require(consumerSecurity >= 0 && consumerSecurity <= network.token().totalSupply(), \"INVALID_CONSUMER_SECURITY\");\n\n        // FIXME: treat market fee\n        require(marketFee >= 0 && marketFee < (network.token().totalSupply() - 10**7) * 10**18, \"INVALID_MARKET_FEE\");\n\n        // now remember out new market ..\n        markets[marketId] = XBRTypes.Market(created, marketSeq, member, coin, terms, meta, maker,\n            providerSecurity, consumerSecurity, marketFee, signature, new address[](0), new address[](0));\n\n        // .. and the market-maker-to-market mapping\n        marketsByMaker[maker] = marketId;\n\n        // .. and the market-owner-to-market mapping\n        marketsByOwner[member].push(marketId);\n\n        // .. and list of markst IDs\n        marketIds.push(marketId);\n\n        // increment market sequence for next market\n        marketSeq = marketSeq + 1;\n\n        // notify observers (eg a dormant market maker waiting to be associated)\n        emit MarketCreated(marketId, created, marketSeq, member, coin, terms, meta, maker,\n            providerSecurity, consumerSecurity, marketFee);\n    }\n\n    /// Join the given XBR market as the specified type of actor, which must be PROVIDER or CONSUMER.\n    ///\n    /// @param marketId The ID of the XBR data market to join.\n    /// @param actorType The type of actor under which to join: PROVIDER or CONSUMER.\n    /// @param meta The XBR market provider/consumer metadata. IPFS Multihash pointing to a JSON file with metadata.\n    function joinMarket (bytes16 marketId, uint8 actorType, string memory meta) public returns (uint256) {\n\n        return _joinMarket(msg.sender, block.number, marketId, actorType, meta, \"\");\n    }\n\n    /// Join the specified member to the given XBR market as the specified type of actor,\n    /// which must be PROVIDER or CONSUMER.\n    ///\n    /// Note: This version uses pre-signed data where the actual blockchain transaction is\n    /// submitted by a gateway paying the respective gas (in ETH) for the blockchain transaction.\n    ///\n    /// @param member The member that creates the market (will become market owner).\n    /// @param joined Block number when the member joined the market.\n    /// @param marketId The ID of the XBR data market to join.\n    /// @param actorType The type of actor under which to join: PROVIDER or CONSUMER.\n    /// @param meta The XBR market provider/consumer metadata. IPFS Multihash pointing to a JSON file with metadata.\n    /// @param signature EIP712 signature created by the member.\n    function joinMarketFor (address member, uint256 joined, bytes16 marketId, uint8 actorType,\n        string memory meta, bytes memory signature) public returns (uint256) {\n\n        require(XBRTypes.verify(member, XBRTypes.EIP712MarketJoin(network.verifyingChain(), network.verifyingContract(),\n            member, joined, marketId, actorType, meta), signature), \"INVALID_MARKET_JOIN_SIGNATURE\");\n\n        // signature must have been created in a window of 5 blocks from the current one\n        require(joined <= block.number && joined >= (block.number - 4), \"INVALID_REGISTERED_BLOCK_NUMBER\");\n\n        return _joinMarket(member, joined, marketId, actorType, meta, signature);\n    }\n\n    function _joinMarket (address member, uint256 joined, bytes16 marketId, uint8 actorType,\n        string memory meta, bytes memory signature) private returns (uint256) {\n\n        (, , , XBRTypes.MemberLevel member_level, ) = network.members(member);\n\n        // the joining sender must be a registered member\n        require(member_level == XBRTypes.MemberLevel.ACTIVE, \"SENDER_NOT_A_MEMBER\");\n\n        // the market to join must exist\n        require(markets[marketId].owner != address(0), \"NO_SUCH_MARKET\");\n\n        // the market owner cannot join as an actor (provider/consumer) in the market\n        require(markets[marketId].owner != member, \"SENDER_IS_OWNER\");\n\n        // the joining member must join as a data provider (seller) or data consumer (buyer)\n        require(actorType == uint8(XBRTypes.ActorType.PROVIDER) ||\n                actorType == uint8(XBRTypes.ActorType.CONSUMER), \"INVALID_ACTOR_TYPE\");\n\n        // get the security amount required for joining the market (if any)\n        uint256 security;\n        // if (uint8(actorType) == uint8(ActorType.PROVIDER)) {\n        if (actorType == uint8(XBRTypes.ActorType.PROVIDER)) {\n            // the joining member must not be joined as a provider already\n            require(uint8(markets[marketId].providerActors[member].joined) == 0, \"ALREADY_JOINED_AS_PROVIDER\");\n            security = markets[marketId].providerSecurity;\n        } else  {\n            // the joining member must not be joined as a consumer already\n            require(uint8(markets[marketId].consumerActors[member].joined) == 0, \"ALREADY_JOINED_AS_CONSUMER\");\n            security = markets[marketId].consumerSecurity;\n        }\n\n        if (security > 0) {\n            // Transfer (if any) security to the market owner (for ActorType.CONSUMER or ActorType.PROVIDER)\n            bool success = network.token().transferFrom(member, markets[marketId].owner, security);\n            require(success, \"JOIN_MARKET_TRANSFER_FROM_FAILED\");\n        }\n\n        // remember actor (by actor address) within market\n        if (actorType == uint8(XBRTypes.ActorType.PROVIDER)) {\n            markets[marketId].providerActors[member] = XBRTypes.Actor(joined, security, meta, signature, new address[](0));\n            markets[marketId].providerActorAdrs.push(member);\n        } else {\n            markets[marketId].consumerActors[member] = XBRTypes.Actor(joined, security, meta, signature, new address[](0));\n            markets[marketId].consumerActorAdrs.push(member);\n        }\n\n        // emit event ActorJoined(bytes16 marketId, address actor, ActorType actorType, uint joined,\n        //                        uint256 security, string meta)\n        emit ActorJoined(marketId, member, actorType, joined, security, meta);\n\n        // return effective security transferred\n        return security;\n    }\n\n    /// Track consent of an actor in a market to allow the specified seller or buyer delegate\n    /// to provide or consume data under the respective API catalog in the given market.\n    ///\n    /// @param marketId The ID of the XBR data market in which to provide or consume data. Any\n    ///                 terms attached to the market or the API apply.\n    /// @param delegate The address of the off-chain provider or consumer delegate, which is a piece\n    ///                 of software acting on behalf and under consent of the actor in the market.\n    /// @param delegateType The type of off-chain delegate, a data provider or data consumer.\n    /// @param apiCatalog The ID of the API or API catalog to which the consent shall apply.\n    /// @param consent Consent granted or revoked.\n    /// @param servicePrefix The WAMP URI prefix to be used by the delegate in the data plane realm.\n    function setConsent (bytes16 marketId, address delegate, uint8 delegateType, bytes16 apiCatalog,\n        bool consent, string memory servicePrefix) public {\n\n        return _setConsent(msg.sender, block.number, marketId, delegate, delegateType,\n            apiCatalog, consent, servicePrefix, \"\");\n    }\n\n    /// Track consent of an actor in a market to allow the specified seller or buyer delegate\n    /// to provide or consume data under the respective API catalog in the given market.\n    ///\n    /// IMPORTANT: This version uses pre-signed data where the actual blockchain transaction is\n    /// submitted by a gateway paying the respective gas (in ETH) for the blockchain transaction.\n    ///\n    /// @param member Address of member (which must be actor in the market) that sets consent.\n    /// @param updated Block number at which the consent setting member has created the signature.\n    /// @param marketId The ID of the XBR data market in which to provide or consume data. Any\n    ///                 terms attached to the market or the API apply.\n    /// @param delegate The address of the off-chain provider or consumer delegate, which is a piece\n    ///                 of software acting on behalf and under consent of the actor in the market.\n    /// @param delegateType The type of off-chain delegate, a data provider or data consumer.\n    /// @param apiCatalog The ID of the API or API catalog to which the consent shall apply.\n    /// @param consent Consent granted or revoked.\n    /// @param servicePrefix The WAMP URI prefix to be used by the delegate in the data plane realm.\n    /// @param signature EIP712 signature, signed by the consent setting member.\n    function setConsentFor (address member, uint256 updated, bytes16 marketId, address delegate,\n        uint8 delegateType, bytes16 apiCatalog, bool consent, string memory servicePrefix,\n        bytes memory signature) public {\n\n        require(XBRTypes.verify(member, XBRTypes.EIP712Consent(network.verifyingChain(), network.verifyingContract(),\n            member, updated, marketId, delegate, delegateType, apiCatalog, consent, servicePrefix), signature),\n            \"INVALID_CONSENT_SIGNATURE\");\n\n        // signature must have been created in a window of 5 blocks from the current one\n        require(updated <= block.number && updated >= (block.number - 4), \"INVALID_CONSENT_BLOCK_NUMBER\");\n\n        return _setConsent(member, updated, marketId, delegate, delegateType,\n            apiCatalog, consent, servicePrefix, signature);\n    }\n\n    function _setConsent (address member, uint256 updated, bytes16 marketId, address delegate,\n        uint8 delegateType, bytes16 apiCatalog, bool consent, string memory servicePrefix,\n        bytes memory signature) public {\n\n        // FIXME\n    }\n\n    /// Get the total number of markets defined.\n    function countMarkets() public view returns (uint) {\n        return marketIds.length;\n    }\n\n    /*\n    // TypeError: Only libraries are allowed to use the mapping type in public or external functions.\n    function getMarket(bytes16 marketId) public view returns (XBRTypes.Market memory) {\n        return markets[marketId];\n    }\n    */\n\n    /// Get the market owner for the given market.\n    function getMarketOwner(bytes16 marketId) public view returns (address) {\n        return markets[marketId].owner;\n    }\n\n    /// Get the market maker for the given market.\n    function getMarketMaker(bytes16 marketId) public view returns (address) {\n        return markets[marketId].maker;\n    }\n\n    /// Get the n-th market owned by the given member.\n    function getMarketsByOwner(address owner, uint index) public view returns (bytes16) {\n        return marketsByOwner[owner][index];\n    }\n\n    /// Check if the specified member is actor in the given market.\n    function isActor(bytes16 marketId, address actor, XBRTypes.ActorType actorType) public view returns (bool) {\n        if (markets[marketId].owner == address(0)) {\n            return false;\n        } else {\n            if (actorType ==  XBRTypes.ActorType.CONSUMER) {\n                return markets[marketId].consumerActors[actor].joined > 0;\n            } else if (actorType ==  XBRTypes.ActorType.PROVIDER) {\n                return markets[marketId].providerActors[actor].joined > 0;\n            } else {\n                return false;\n            }\n        }\n    }\n\n    /// Get the number of market owned by the specified member.\n    function countMarketsByOwner(address owner) public view returns (uint) {\n        return marketsByOwner[owner].length;\n    }\n\n    /// Get market actor data for the given actor (address) and actor type in the specified market.\n    function getMarketActor (bytes16 marketId, address actor, uint8 actorType) public view\n        returns (uint, uint256, string memory, bytes memory)\n    {\n        // the market must exist\n        require(markets[marketId].owner != address(0), \"NO_SUCH_MARKET\");\n\n        // must ask for a data provider (seller) or data consumer (buyer)\n        require(actorType == uint8(XBRTypes.ActorType.PROVIDER) ||\n                actorType == uint8(XBRTypes.ActorType.CONSUMER), \"INVALID_ACTOR_TYPE\");\n\n        if (actorType == uint8(XBRTypes.ActorType.CONSUMER)) {\n            XBRTypes.Actor storage _actor = markets[marketId].consumerActors[actor];\n            return (_actor.joined, _actor.security, _actor.meta, _actor.signature);\n        } else {\n            XBRTypes.Actor storage _actor = markets[marketId].providerActors[actor];\n            return (_actor.joined, _actor.security, _actor.meta, _actor.signature);\n        }\n    }\n\n    /**\n     * Lookup all provider actors in a XBR Market.\n     *\n     * @param marketId The XBR Market to provider actors for.\n     * @return List of provider actor addresses in the market.\n     */\n    function getAllMarketProviders(bytes16 marketId) public view returns (address[] memory) {\n        return markets[marketId].providerActorAdrs;\n    }\n\n    /**\n     * Lookup all consumer actors in a XBR Market.\n     *\n     * @param marketId The XBR Market to consumer actors for.\n     * @return List of consumer actor addresses in the market.\n     */\n    function getAllMarketConsumers(bytes16 marketId) public view returns (address[] memory) {\n        return markets[marketId].consumerActorAdrs;\n    }\n\n    /**\n     * Lookup all payment channels for an consumer actor in a XBR Market.\n     *\n     * @param marketId The XBR Market to get payment channels for.\n     * @param actor The XBR actor to get payment channels for.\n     * @return List of contract addresses of payment channels in the market.\n     */\n    function getAllPaymentChannels(bytes16 marketId, address actor) public view returns (address[] memory) {\n        return markets[marketId].consumerActors[actor].channels;\n    }\n\n    /**\n     * Lookup all paying channels for an provider actor in a XBR Market.\n     *\n     * @param marketId The XBR Market to get paying channels for.\n     * @param actor The XBR actor to get paying channels for.\n     * @return List of contract addresses of paying channels in the market.\n     */\n    function getAllPayingChannels(bytes16 marketId, address actor) public view returns (address[] memory) {\n        return markets[marketId].providerActors[actor].channels;\n    }\n\n    /**\n     * Lookup the current payment channel to use for the given delegate in the given market.\n     *\n     * @param marketId The XBR Market to get the current payment channel address for.\n     * @param delegate The delegate to get the current payment channel address for.\n     * @return Current payment channel address for the given delegate/market.\n     */\n    function currentPaymentChannelByDelegate(bytes16 marketId, address delegate) public view returns (address) {\n        return markets[marketId].currentPaymentChannelByDelegate[delegate];\n    }\n\n    /**\n     * Lookup the current paying channel to use for the given delegate in the given market.\n     *\n     * @param marketId The XBR Market to get the current paying channel address for.\n     * @param delegate The delegate to get the current paying channel address for.\n     * @return Current paying channel address for the given delegate/market.\n     */\n    function currentPayingChannelByDelegate(bytes16 marketId, address delegate) public view returns (address) {\n        return markets[marketId].currentPayingChannelByDelegate[delegate];\n    }\n}\n",
  "sourcePath": "/home/oberstet/scm/crossbario/xbr-protocol/contracts/XBRMarket.sol",
  "compiler": {
    "name": "solc",
    "version": "0.5.16+commit.9c3226ce.Emscripten.clang"
  },
  "schemaVersion": "3.0.23",
  "updatedAt": "2020-03-18T17:59:52.957Z",
  "devdoc": {
    "methods": {
      "addMaintainer(address)": {
        "params": {
          "account": "The account to grant maintainer rights to."
        }
      },
      "createMarket(bytes16,address,string,string,address,uint256,uint256,uint256)": {
        "params": {
          "coin": "The ERC20 coin to be used as the means of payment in the market.",
          "consumerSecurity": "The amount of coins a XBR consumer joining the market must deposit.",
          "maker": "The address of the XBR market maker that will run this market. The delegate of the market owner.",
          "marketFee": "The fee taken by the market (beneficiary is the market owner). The fee is a percentage of                  the revenue of the XBR Provider that receives coins paid for transactions.                  The fee must be between 0% (inclusive) and 100% (inclusive), and is expressed as                  a fraction of the total supply of coins in the ERC20 token specified for the market.",
          "marketId": "The ID of the market to create. Must be unique (not yet existing).",
          "meta": "Multihash for optional market metadata.",
          "providerSecurity": "The amount of coins a XBR provider joining the market must deposit.",
          "terms": "Multihash for market terms set by the market owner."
        }
      },
      "createMarketFor(address,uint256,bytes16,address,string,string,address,uint256,uint256,uint256,bytes)": {
        "params": {
          "coin": "The ERC20 coin to be used as the means of payment in the market.",
          "consumerSecurity": "The amount of coins a XBR consumer joining the market must deposit.",
          "created": "Block number when the market was created.",
          "maker": "The address of the XBR market maker that will run this market. The delegate of the market owner.",
          "marketFee": "The fee taken by the market (beneficiary is the market owner). The fee is a percentage of                  the revenue of the XBR Provider that receives coins paid for transactions.                  The fee must be between 0% (inclusive) and 100% (inclusive), and is expressed as                  a fraction of the total supply of coins in the ERC20 token specified for the market.",
          "marketId": "The ID of the market to create. Must be unique (not yet existing).",
          "member": "The member that creates the market (will become market owner).",
          "meta": "Multihash for optional market metadata.",
          "providerSecurity": "The amount of coins a XBR provider joining the market must deposit.",
          "signature": "EIP712 signature created by the member.",
          "terms": "Multihash for market terms set by the market owner."
        }
      },
      "currentPayingChannelByDelegate(bytes16,address)": {
        "params": {
          "delegate": "The delegate to get the current paying channel address for.",
          "marketId": "The XBR Market to get the current paying channel address for."
        },
        "return": "Current paying channel address for the given delegate/market."
      },
      "currentPaymentChannelByDelegate(bytes16,address)": {
        "params": {
          "delegate": "The delegate to get the current payment channel address for.",
          "marketId": "The XBR Market to get the current payment channel address for."
        },
        "return": "Current payment channel address for the given delegate/market."
      },
      "getAllMarketConsumers(bytes16)": {
        "params": {
          "marketId": "The XBR Market to consumer actors for."
        },
        "return": "List of consumer actor addresses in the market."
      },
      "getAllMarketProviders(bytes16)": {
        "params": {
          "marketId": "The XBR Market to provider actors for."
        },
        "return": "List of provider actor addresses in the market."
      },
      "getAllPayingChannels(bytes16,address)": {
        "params": {
          "actor": "The XBR actor to get paying channels for.",
          "marketId": "The XBR Market to get paying channels for."
        },
        "return": "List of contract addresses of paying channels in the market."
      },
      "getAllPaymentChannels(bytes16,address)": {
        "params": {
          "actor": "The XBR actor to get payment channels for.",
          "marketId": "The XBR Market to get payment channels for."
        },
        "return": "List of contract addresses of payment channels in the market."
      },
      "isMaintainer(address)": {
        "params": {
          "account": "The account to check."
        },
        "return": "`true` if the account is maintainer, otherwise `false`."
      },
      "joinMarket(bytes16,uint8,string)": {
        "params": {
          "actorType": "The type of actor under which to join: PROVIDER or CONSUMER.",
          "marketId": "The ID of the XBR data market to join.",
          "meta": "The XBR market provider/consumer metadata. IPFS Multihash pointing to a JSON file with metadata."
        }
      },
      "joinMarketFor(address,uint256,bytes16,uint8,string,bytes)": {
        "params": {
          "actorType": "The type of actor under which to join: PROVIDER or CONSUMER.",
          "joined": "Block number when the member joined the market.",
          "marketId": "The ID of the XBR data market to join.",
          "member": "The member that creates the market (will become market owner).",
          "meta": "The XBR market provider/consumer metadata. IPFS Multihash pointing to a JSON file with metadata.",
          "signature": "EIP712 signature created by the member."
        }
      },
      "setConsent(bytes16,address,uint8,bytes16,bool,string)": {
        "params": {
          "apiCatalog": "The ID of the API or API catalog to which the consent shall apply.",
          "consent": "Consent granted or revoked.",
          "delegate": "The address of the off-chain provider or consumer delegate, which is a piece                 of software acting on behalf and under consent of the actor in the market.",
          "delegateType": "The type of off-chain delegate, a data provider or data consumer.",
          "marketId": "The ID of the XBR data market in which to provide or consume data. Any                 terms attached to the market or the API apply.",
          "servicePrefix": "The WAMP URI prefix to be used by the delegate in the data plane realm."
        }
      },
      "setConsentFor(address,uint256,bytes16,address,uint8,bytes16,bool,string,bytes)": {
        "params": {
          "apiCatalog": "The ID of the API or API catalog to which the consent shall apply.",
          "consent": "Consent granted or revoked.",
          "delegate": "The address of the off-chain provider or consumer delegate, which is a piece                 of software acting on behalf and under consent of the actor in the market.",
          "delegateType": "The type of off-chain delegate, a data provider or data consumer.",
          "marketId": "The ID of the XBR data market in which to provide or consume data. Any                 terms attached to the market or the API apply.",
          "member": "Address of member (which must be actor in the market) that sets consent.",
          "servicePrefix": "The WAMP URI prefix to be used by the delegate in the data plane realm.",
          "signature": "EIP712 signature, signed by the consent setting member.",
          "updated": "Block number at which the consent setting member has created the signature."
        }
      }
    }
  },
  "userdoc": {
    "methods": {
      "addMaintainer(address)": {
        "notice": "Add a new maintainer to the list of maintainers."
      },
      "countMarkets()": {
        "notice": "Get the total number of markets defined."
      },
      "countMarketsByOwner(address)": {
        "notice": "Get the number of market owned by the specified member."
      },
      "createMarket(bytes16,address,string,string,address,uint256,uint256,uint256)": {
        "notice": "Create a new XBR market. The sender of the transaction must be XBR network member and automatically becomes owner of the new market. "
      },
      "createMarketFor(address,uint256,bytes16,address,string,string,address,uint256,uint256,uint256,bytes)": {
        "notice": "Create a new XBR market for a member. The member must be XBR network member, must have signed the transaction data, and will become owner of the new market.     /// Note: This version uses pre-signed data where the actual blockchain transaction is submitted by a gateway paying the respective gas (in ETH) for the blockchain transaction. "
      },
      "currentPayingChannelByDelegate(bytes16,address)": {
        "notice": "Lookup the current paying channel to use for the given delegate in the given market."
      },
      "currentPaymentChannelByDelegate(bytes16,address)": {
        "notice": "Lookup the current payment channel to use for the given delegate in the given market."
      },
      "getAllMarketConsumers(bytes16)": {
        "notice": "Lookup all consumer actors in a XBR Market."
      },
      "getAllMarketProviders(bytes16)": {
        "notice": "Lookup all provider actors in a XBR Market."
      },
      "getAllPayingChannels(bytes16,address)": {
        "notice": "Lookup all paying channels for an provider actor in a XBR Market."
      },
      "getAllPaymentChannels(bytes16,address)": {
        "notice": "Lookup all payment channels for an consumer actor in a XBR Market."
      },
      "getMarketActor(bytes16,address,uint8)": {
        "notice": "Get market actor data for the given actor (address) and actor type in the specified market."
      },
      "getMarketMaker(bytes16)": {
        "notice": "Get the market maker for the given market."
      },
      "getMarketOwner(bytes16)": {
        "notice": "Get the market owner for the given market."
      },
      "getMarketsByOwner(address,uint256)": {
        "notice": "Get the n-th market owned by the given member."
      },
      "isActor(bytes16,address,uint8)": {
        "notice": "Check if the specified member is actor in the given market."
      },
      "isMaintainer(address)": {
        "notice": "Check if the given address is currently a maintainer."
      },
      "joinMarket(bytes16,uint8,string)": {
        "notice": "Join the given XBR market as the specified type of actor, which must be PROVIDER or CONSUMER. "
      },
      "joinMarketFor(address,uint256,bytes16,uint8,string,bytes)": {
        "notice": "Join the specified member to the given XBR market as the specified type of actor, which must be PROVIDER or CONSUMER.     /// Note: This version uses pre-signed data where the actual blockchain transaction is submitted by a gateway paying the respective gas (in ETH) for the blockchain transaction. "
      },
      "renounceMaintainer()": {
        "notice": "Give away maintainer rights."
      },
      "setConsent(bytes16,address,uint8,bytes16,bool,string)": {
        "notice": "Track consent of an actor in a market to allow the specified seller or buyer delegate to provide or consume data under the respective API catalog in the given market. "
      },
      "setConsentFor(address,uint256,bytes16,address,uint8,bytes16,bool,string,bytes)": {
        "notice": "Track consent of an actor in a market to allow the specified seller or buyer delegate to provide or consume data under the respective API catalog in the given market.     /// IMPORTANT: This version uses pre-signed data where the actual blockchain transaction is submitted by a gateway paying the respective gas (in ETH) for the blockchain transaction. "
      }
    },
    "notice": "The `XBR Market <https://github.com/crossbario/xbr-protocol/blob/master/contracts/XBRMarket.sol>`__ contract manages XBR data markets and serves as an anchor for all payment and paying channels for each respective market."
  }
}