{
  "contractName": "XBRNetwork",
  "abi": [
    {
      "inputs": [
        {
          "internalType": "address",
          "name": "networkToken",
          "type": "address"
        },
        {
          "internalType": "address",
          "name": "networkOrganization",
          "type": "address"
        }
      ],
      "payable": false,
      "stateMutability": "nonpayable",
      "type": "constructor"
    },
    {
      "anonymous": false,
      "inputs": [
        {
          "indexed": true,
          "internalType": "address",
          "name": "account",
          "type": "address"
        }
      ],
      "name": "MaintainerAdded",
      "type": "event"
    },
    {
      "anonymous": false,
      "inputs": [
        {
          "indexed": true,
          "internalType": "address",
          "name": "account",
          "type": "address"
        }
      ],
      "name": "MaintainerRemoved",
      "type": "event"
    },
    {
      "anonymous": false,
      "inputs": [
        {
          "indexed": true,
          "internalType": "address",
          "name": "member",
          "type": "address"
        },
        {
          "indexed": false,
          "internalType": "uint256",
          "name": "registered",
          "type": "uint256"
        },
        {
          "indexed": false,
          "internalType": "string",
          "name": "eula",
          "type": "string"
        },
        {
          "indexed": false,
          "internalType": "string",
          "name": "profile",
          "type": "string"
        },
        {
          "indexed": false,
          "internalType": "enum XBRTypes.MemberLevel",
          "name": "level",
          "type": "uint8"
        }
      ],
      "name": "MemberRegistered",
      "type": "event"
    },
    {
      "anonymous": false,
      "inputs": [
        {
          "indexed": false,
          "internalType": "address",
          "name": "member",
          "type": "address"
        }
      ],
      "name": "MemberRetired",
      "type": "event"
    },
    {
      "constant": false,
      "inputs": [
        {
          "internalType": "address",
          "name": "account",
          "type": "address"
        }
      ],
      "name": "addMaintainer",
      "outputs": [],
      "payable": false,
      "stateMutability": "nonpayable",
      "type": "function"
    },
    {
      "constant": true,
      "inputs": [
        {
          "internalType": "address",
          "name": "",
          "type": "address"
        }
      ],
      "name": "coins",
      "outputs": [
        {
          "internalType": "bool",
          "name": "",
          "type": "bool"
        }
      ],
      "payable": false,
      "stateMutability": "view",
      "type": "function"
    },
    {
      "constant": true,
      "inputs": [],
      "name": "eula",
      "outputs": [
        {
          "internalType": "string",
          "name": "",
          "type": "string"
        }
      ],
      "payable": false,
      "stateMutability": "view",
      "type": "function"
    },
    {
      "constant": true,
      "inputs": [
        {
          "internalType": "address",
          "name": "account",
          "type": "address"
        }
      ],
      "name": "isMaintainer",
      "outputs": [
        {
          "internalType": "bool",
          "name": "",
          "type": "bool"
        }
      ],
      "payable": false,
      "stateMutability": "view",
      "type": "function"
    },
    {
      "constant": true,
      "inputs": [
        {
          "internalType": "address",
          "name": "",
          "type": "address"
        }
      ],
      "name": "members",
      "outputs": [
        {
          "internalType": "uint256",
          "name": "registered",
          "type": "uint256"
        },
        {
          "internalType": "string",
          "name": "eula",
          "type": "string"
        },
        {
          "internalType": "string",
          "name": "profile",
          "type": "string"
        },
        {
          "internalType": "enum XBRTypes.MemberLevel",
          "name": "level",
          "type": "uint8"
        },
        {
          "internalType": "bytes",
          "name": "signature",
          "type": "bytes"
        }
      ],
      "payable": false,
      "stateMutability": "view",
      "type": "function"
    },
    {
      "constant": true,
      "inputs": [],
      "name": "organization",
      "outputs": [
        {
          "internalType": "address",
          "name": "",
          "type": "address"
        }
      ],
      "payable": false,
      "stateMutability": "view",
      "type": "function"
    },
    {
      "constant": false,
      "inputs": [],
      "name": "renounceMaintainer",
      "outputs": [],
      "payable": false,
      "stateMutability": "nonpayable",
      "type": "function"
    },
    {
      "constant": true,
      "inputs": [],
      "name": "token",
      "outputs": [
        {
          "internalType": "contract XBRToken",
          "name": "",
          "type": "address"
        }
      ],
      "payable": false,
      "stateMutability": "view",
      "type": "function"
    },
    {
      "constant": true,
      "inputs": [],
      "name": "verifyingChain",
      "outputs": [
        {
          "internalType": "uint256",
          "name": "",
          "type": "uint256"
        }
      ],
      "payable": false,
      "stateMutability": "view",
      "type": "function"
    },
    {
      "constant": true,
      "inputs": [],
      "name": "verifyingContract",
      "outputs": [
        {
          "internalType": "address",
          "name": "",
          "type": "address"
        }
      ],
      "payable": false,
      "stateMutability": "view",
      "type": "function"
    },
    {
      "constant": false,
      "inputs": [
        {
          "internalType": "string",
          "name": "networkEula",
          "type": "string"
        },
        {
          "internalType": "string",
          "name": "memberProfile",
          "type": "string"
        }
      ],
      "name": "registerMember",
      "outputs": [],
      "payable": false,
      "stateMutability": "nonpayable",
      "type": "function"
    },
    {
      "constant": false,
      "inputs": [
        {
          "internalType": "address",
          "name": "member",
          "type": "address"
        },
        {
          "internalType": "uint256",
          "name": "registered",
          "type": "uint256"
        },
        {
          "internalType": "string",
          "name": "networkEula",
          "type": "string"
        },
        {
          "internalType": "string",
          "name": "memberProfile",
          "type": "string"
        },
        {
          "internalType": "bytes",
          "name": "signature",
          "type": "bytes"
        }
      ],
      "name": "registerMemberFor",
      "outputs": [],
      "payable": false,
      "stateMutability": "nonpayable",
      "type": "function"
    },
    {
      "constant": false,
      "inputs": [
        {
          "internalType": "address",
          "name": "networkOrganization",
          "type": "address"
        }
      ],
      "name": "setOrganization",
      "outputs": [],
      "payable": false,
      "stateMutability": "nonpayable",
      "type": "function"
    },
    {
      "constant": false,
      "inputs": [
        {
          "internalType": "address",
          "name": "member",
          "type": "address"
        },
        {
          "internalType": "enum XBRTypes.MemberLevel",
          "name": "level",
          "type": "uint8"
        }
      ],
      "name": "setMemberLevel",
      "outputs": [],
      "payable": false,
      "stateMutability": "nonpayable",
      "type": "function"
    },
    {
      "constant": false,
      "inputs": [
        {
          "internalType": "address",
          "name": "coin",
          "type": "address"
        },
        {
          "internalType": "bool",
          "name": "isPayable",
          "type": "bool"
        }
      ],
      "name": "setCoinPayable",
      "outputs": [],
      "payable": false,
      "stateMutability": "nonpayable",
      "type": "function"
    }
  ],
  "bytecode": "0x60806040523480156200001157600080fd5b506040516200177a3803806200177a83398101604081905262000034916200032d565b62000048336001600160e01b036200017716565b46600181815560028054306001600160a01b03199182161782556003805482166001600160a01b038881169182179092556000908152600660209081526040808320805460ff1916881790556004805490951693891693909317909355815160a081018352428152825180850184528281528185019081528351808601855283815282850152606082019590955282518085018452828152608082015233825260058452919020815181559251805191946200010b93908501929101906200027b565b5060408201518051620001299160028401916020909101906200027b565b50606082015160038201805460ff191660018360058111156200014857fe5b0217905550608082015180516200016a9160048401916020909101906200027b565b5090505050505062000446565b62000192816000620001c960201b620009fb1790919060201c565b6040516001600160a01b038216907f1390a149489c82e9e2e89927bdb17ad1ea3f0cc314fce06c96369721d3afb8f090600090a250565b620001de82826001600160e01b036200022c16565b15620002075760405162461bcd60e51b8152600401620001fe90620003ed565b60405180910390fd5b6001600160a01b0316600090815260209190915260409020805460ff19166001179055565b60006001600160a01b038216620002575760405162461bcd60e51b8152600401620001fe90620003ff565b506001600160a01b03811660009081526020839052604090205460ff165b92915050565b828054600181600116156101000203166002900490600052602060002090601f016020900481019282601f10620002be57805160ff1916838001178555620002ee565b82800160010185558215620002ee579182015b82811115620002ee578251825591602001919060010190620002d1565b50620002fc92915062000300565b5090565b6200031d91905b80821115620002fc576000815560010162000307565b90565b805162000275816200042c565b600080604083850312156200034157600080fd5b60006200034f858562000320565b9250506020620003628582860162000320565b9150509250929050565b60006200037b601f8362000411565b7f526f6c65733a206163636f756e7420616c72656164792068617320726f6c6500815260200192915050565b6000620003b660228362000411565b7f526f6c65733a206163636f756e7420697320746865207a65726f206164647265815261737360f01b602082015260400192915050565b6020808252810162000275816200036c565b602080825281016200027581620003a7565b90815260200190565b60006001600160a01b03821662000275565b62000437816200041a565b81146200044357600080fd5b50565b61132480620004566000396000f3fe608060405234801561001057600080fd5b50600436106100f55760003560e01c80636b453c1f11610097578063a787d61b11610066578063a787d61b146101ed578063a8f7d8ea146101f5578063dd57366a1461020a578063fc0c546a1461021d576100f5565b80636b453c1f146101945780637d0f7a88146101a757806382d9e98b146101c757806390fef8ca146101da576100f5565b8063314db06b116100d3578063314db06b146101515780634e69149c1461015957806350405fdf1461016c57806359c8e6031461017f576100f5565b806308ae4b0c146100fa5780630e0e4aea1461012757806323bd4d7a1461013c575b600080fd5b61010d610108366004610b6d565b610232565b60405161011e959493929190611138565b60405180910390f35b61013a610135366004610b93565b610406565b005b610144610443565b60405161011e9190610ff1565b61013a610452565b61013a610167366004610b6d565b61045d565b61013a61017a366004610bcd565b610491565b61018761052b565b60405161011e91906110e7565b61013a6101a2366004610b6d565b610531565b6101ba6101b5366004610b6d565b61054f565b60405161011e9190611033565b61013a6101d5366004610bfd565b610564565b61013a6101e8366004610cd8565b610688565b6101446106a8565b6101fd6106b7565b60405161011e919061104f565b6101ba610218366004610b6d565b6106d3565b6102256106ed565b60405161011e9190611041565b6005602090815260009182526040918290208054600180830180548651600293821615610100026000190190911692909204601f8101869004860283018601909652858252919492939092908301828280156102cf5780601f106102a4576101008083540402835291602001916102cf565b820191906000526020600020905b8154815290600101906020018083116102b257829003601f168201915b50505060028085018054604080516020601f60001961010060018716150201909416959095049283018590048502810185019091528181529596959450909250908301828280156103615780601f1061033657610100808354040283529160200191610361565b820191906000526020600020905b81548152906001019060200180831161034457829003601f168201915b50505050600383015460048401805460408051602060026101006001861615026000190190941693909304601f8101849004840282018401909252818152959660ff90941695939450908301828280156103fc5780601f106103d1576101008083540402835291602001916103fc565b820191906000526020600020905b8154815290600101906020018083116103df57829003601f168201915b5050505050905085565b61040f336106d3565b61041857600080fd5b6001600160a01b03919091166000908152600660205260409020805460ff1916911515919091179055565b6004546001600160a01b031681565b61045b336106fc565b565b610466336106d3565b61046f57600080fd5b600480546001600160a01b0319166001600160a01b0392909216919091179055565b61049a336106d3565b6104a357600080fd5b3360009081526005602081905260409091206003015460ff16908111156104c657fe5b6104eb5760405162461bcd60e51b81526004016104e290611097565b60405180910390fd5b6001600160a01b03821660009081526005602081905260409091206003018054839260ff1990911690600190849081111561052257fe5b02179055505050565b60015481565b61053a336106d3565b61054357600080fd5b61054c81610744565b50565b60066020526000908152604090205460ff1681565b6040805160c08101825260015481526002546001600160a01b039081166020830152871681830152606081018690526080810185905260a081018490529051633402ce0160e01b815273__XBRTypes______________________________91633402ce01916105d99189918690600401610fff565b60206040518083038186803b1580156105f157600080fd5b505af4158015610605573d6000803e3d6000fd5b505050506040513d601f19601f820116820180604052506106299190810190610cba565b6106455760405162461bcd60e51b81526004016104e290611077565b4384111580156106585750600443038410155b6106745760405162461bcd60e51b81526004016104e2906110a7565b610681858585858561078c565b5050505050565b6106a4334384846040518060200160405280600081525061078c565b5050565b6002546001600160a01b031681565b6040518060600160405280602e81526020016112b4602e913981565b60006106e5818363ffffffff61096716565b90505b919050565b6003546001600160a01b031681565b61070d60008263ffffffff6109b316565b6040516001600160a01b038216907fa7b36d52bea726c3aa90d876d0e52a1089a347b3e3408a03f08eae32f96fdbb490600090a250565b61075560008263ffffffff6109fb16565b6040516001600160a01b038216907f1390a149489c82e9e2e89927bdb17ad1ea3f0cc314fce06c96369721d3afb8f090600090a250565b6001600160a01b03851660009081526005602081905260409091206003015460ff16908111156107b857fe5b60ff16156107d85760405162461bcd60e51b81526004016104e290611087565b6040518060600160405280602e81526020016112b4602e9139604051602001610801919061104f565b6040516020818303038152906040528051906020012083604051602001610828919061104f565b604051602081830303815290604052805190602001201461085b5760405162461bcd60e51b81526004016104e2906110d7565b6040805160a08101825285815260208101859052908101839052606081016001815260209081018390526001600160a01b038716600090815260058252604090208251815582820151805191926108ba92600185019290910190610a47565b50604082015180516108d6916002840191602090910190610a47565b50606082015160038201805460ff191660018360058111156108f457fe5b021790555060808201518051610914916004840191602090910190610a47565b50905050846001600160a01b03167f10e02cc5ae33a370a3d23ce6e20ed94923f69eb718276f6c13cc36e5cf19c174858585600160405161095894939291906110f5565b60405180910390a25050505050565b60006001600160a01b03821661098f5760405162461bcd60e51b81526004016104e2906110c7565b506001600160a01b03811660009081526020839052604090205460ff165b92915050565b6109bd8282610967565b6109d95760405162461bcd60e51b81526004016104e2906110b7565b6001600160a01b0316600090815260209190915260409020805460ff19169055565b610a058282610967565b15610a225760405162461bcd60e51b81526004016104e290611067565b6001600160a01b0316600090815260209190915260409020805460ff19166001179055565b828054600181600116156101000203166002900490600052602060002090601f016020900481019282601f10610a8857805160ff1916838001178555610ab5565b82800160010185558215610ab5579182015b82811115610ab5578251825591602001919060010190610a9a565b50610ac1929150610ac5565b5090565b610adf91905b80821115610ac15760008155600101610acb565b90565b80356109ad81611280565b80356109ad81611294565b80516109ad81611294565b600082601f830112610b1457600080fd5b8135610b27610b22826111bf565b611198565b91508082526020830160208301858383011115610b4357600080fd5b610b4e838284611230565b50505092915050565b80356109ad8161129d565b80356109ad816112aa565b600060208284031215610b7f57600080fd5b6000610b8b8484610ae2565b949350505050565b60008060408385031215610ba657600080fd5b6000610bb28585610ae2565b9250506020610bc385828601610aed565b9150509250929050565b60008060408385031215610be057600080fd5b6000610bec8585610ae2565b9250506020610bc385828601610b57565b600080600080600060a08688031215610c1557600080fd5b6000610c218888610ae2565b9550506020610c3288828901610b62565b945050604086013567ffffffffffffffff811115610c4f57600080fd5b610c5b88828901610b03565b935050606086013567ffffffffffffffff811115610c7857600080fd5b610c8488828901610b03565b925050608086013567ffffffffffffffff811115610ca157600080fd5b610cad88828901610b03565b9150509295509295909350565b600060208284031215610ccc57600080fd5b6000610b8b8484610af8565b60008060408385031215610ceb57600080fd5b823567ffffffffffffffff811115610d0257600080fd5b610d0e85828601610b03565b925050602083013567ffffffffffffffff811115610d2b57600080fd5b610bc385828601610b03565b610d40816111f4565b82525050565b610d40816111ff565b6000610d5a826111e7565b610d6481856111eb565b9350610d7481856020860161123c565b610d7d8161126c565b9093019392505050565b610d408161121a565b610d4081611225565b6000610da6601f836111eb565b7f526f6c65733a206163636f756e7420616c72656164792068617320726f6c6500815260200192915050565b6000610ddf6021836111eb565b7f494e56414c49445f4d454d4245525f52454749535445525f5349474e415455528152604560f81b602082015260400192915050565b6000610e226019836111eb565b7f4d454d4245525f414c52454144595f5245474953544552454400000000000000815260200192915050565b6000610e5b600e836111eb565b6d2727afa9aaa1a42fa6a2a6a122a960911b815260200192915050565b6000610e85601f836111eb565b7f494e56414c49445f524547495354455245445f424c4f434b5f4e554d42455200815260200192915050565b6000610ebe6021836111eb565b7f526f6c65733a206163636f756e7420646f6573206e6f74206861766520726f6c8152606560f81b602082015260400192915050565b6000610f016022836111eb565b7f526f6c65733a206163636f756e7420697320746865207a65726f206164647265815261737360f01b602082015260400192915050565b6000610f45600c836111eb565b6b494e56414c49445f45554c4160a01b815260200192915050565b805160009060c0840190610f748582610fe8565b506020830151610f876020860182610d37565b506040830151610f9a6040860182610d37565b506060830151610fad6060860182610fe8565b5060808301518482036080860152610fc58282610d4f565b91505060a083015184820360a0860152610fdf8282610d4f565b95945050505050565b610d4081610adf565b602081016109ad8284610d37565b6060810161100d8286610d37565b818103602083015261101f8185610f60565b90508181036040830152610fdf8184610d4f565b602081016109ad8284610d46565b602081016109ad8284610d87565b602080825281016110608184610d4f565b9392505050565b602080825281016106e581610d99565b602080825281016106e581610dd2565b602080825281016106e581610e15565b602080825281016106e581610e4e565b602080825281016106e581610e78565b602080825281016106e581610eb1565b602080825281016106e581610ef4565b602080825281016106e581610f38565b602081016109ad8284610fe8565b608081016111038287610fe8565b81810360208301526111158186610d4f565b905081810360408301526111298185610d4f565b9050610fdf6060830184610d90565b60a081016111468288610fe8565b81810360208301526111588187610d4f565b9050818103604083015261116c8186610d4f565b905061117b6060830185610d90565b818103608083015261118d8184610d4f565b979650505050505050565b60405181810167ffffffffffffffff811182821017156111b757600080fd5b604052919050565b600067ffffffffffffffff8211156111d657600080fd5b506020601f91909101601f19160190565b5190565b90815260200190565b60006106e58261120e565b151590565b806106e881611276565b6001600160a01b031690565b60006106e5826111f4565b60006106e582611204565b82818337506000910152565b60005b8381101561125757818101518382015260200161123f565b83811115611266576000848401525b50505050565b601f01601f191690565b6006811061054c57fe5b611289816111f4565b811461054c57600080fd5b611289816111ff565b6006811061054c57600080fd5b61128981610adf56fe516d563165654465787453645572525551703974555846385364765665796b616977594c67725848485679554c59a365627a7a72315820b9b0836648c556244773cad88df2750c356fe5ba3f2b645ae66f7ba4509417026c6578706572696d656e74616cf564736f6c63430005100040",
  "source": "///////////////////////////////////////////////////////////////////////////////\n//\n//  Copyright (C) 2018-2020 Crossbar.io Technologies GmbH and contributors.\n//\n//  Licensed under the Apache License, Version 2.0 (the \"License\");\n//  you may not use this file except in compliance with the License.\n//  You may obtain a copy of the License at\n//\n//      http://www.apache.org/licenses/LICENSE-2.0\n//\n//  Unless required by applicable law or agreed to in writing, software\n//  distributed under the License is distributed on an \"AS IS\" BASIS,\n//  WITHOUT WARRANTIES OR CONDITIONS OF ANY KIND, either express or implied.\n//  See the License for the specific language governing permissions and\n//  limitations under the License.\n//\n///////////////////////////////////////////////////////////////////////////////\n\npragma solidity ^0.5.12;\npragma experimental ABIEncoderV2;\n\n// https://openzeppelin.org/api/docs/math_SafeMath.html\nimport \"openzeppelin-solidity/contracts/math/SafeMath.sol\";\n\nimport \"./XBRMaintained.sol\";\nimport \"./XBRTypes.sol\";\nimport \"./XBRToken.sol\";\n\n\n/**\n * The `XBR Network <https://github.com/crossbario/xbr-protocol/blob/master/contracts/XBRNetwork.sol>`__\n * contract is the on-chain anchor of and the entry point to the XBR protocol.\n */\ncontract XBRNetwork is XBRMaintained {\n\n    // Add safe math functions to uint256 using SafeMath lib from OpenZeppelin\n    using SafeMath for uint256;\n\n    /// Event emitted when a new member registered in the XBR Network.\n    event MemberRegistered (address indexed member, uint registered, string eula, string profile, XBRTypes.MemberLevel level);\n\n    /// Event emitted when a member leaves the XBR Network.\n    event MemberRetired (address member);\n\n    /// Chain ID of the blockchain this contract is running on, used in EIP712 typed data signature verification.\n    uint256 public verifyingChain;\n\n    /// Verifying contract address, used in EIP712 typed data signature verification.\n    address public verifyingContract;\n\n    /// IPFS multihash of the `XBR Network EULA <https://github.com/crossbario/xbr-protocol/blob/master/ipfs/xbr-eula/XBR-EULA.txt>`__.\n    string public constant eula = \"QmV1eeDextSdUrRUQp9tUXF8SdvVeykaiwYLgrXHHVyULY\";\n\n    /// Address of the XBR Networks' own ERC20 token for network-wide purposes.\n    XBRToken public token;\n\n    /// Address of the `XBR Network Organization <https://xbr.network/>`__.\n    address public organization;\n\n    /// Current XBR Network members (\"member directory\").\n    mapping(address => XBRTypes.Member) public members;\n\n    /// ERC20 coins which can specified as a means of payment when creating a new data market.\n    mapping(address => bool) public coins;\n\n    /// Create the XBR network.\n    ///\n    /// @param networkToken The token to run this network itself on. Note that XBR data markets can use\n    ///                     any ERC20 token (enabled in the ``coins`` mapping of this contract) as\n    ///                     a means of payment in the respective market.\n    /// @param networkOrganization The XBR network organization address.\n    constructor (address networkToken, address networkOrganization) public {\n\n        // read chain ID into temp local var (to avoid \"TypeError: Only local variables are supported\").\n        uint256 chainId;\n        assembly {\n            chainId := chainid()\n        }\n        verifyingChain = chainId;\n\n        verifyingContract = address(this);\n\n        token = XBRToken(networkToken);\n        coins[networkToken] = true;\n\n        organization = networkOrganization;\n\n        // technically, the creator of the XBR network contract instance is a XBR member (by definition).\n        members[msg.sender] = XBRTypes.Member(block.timestamp, \"\", \"\", XBRTypes.MemberLevel.VERIFIED, \"\");\n    }\n\n    /// Register the sender of this transaction in the XBR network. All XBR stakeholders, namely data\n    /// providers (\"sellers\"), data consumers (\"buyers\") and data market operators, must be registered\n    /// in the XBR network.\n    ///\n    /// @param networkEula Multihash of the XBR EULA being agreed to and stored as one ZIP file archive on IPFS.\n    /// @param memberProfile Optional public member profile: the IPFS Multihash of the member profile stored in IPFS.\n    function registerMember (string memory networkEula, string memory memberProfile) public {\n        _registerMember(msg.sender, block.number, networkEula, memberProfile, \"\");\n    }\n\n    /// Register the specified new member in the XBR Network. All XBR stakeholders, namely data\n    /// providers (\"sellers\"), data consumers (\"buyers\") and data market operators, must be registered\n    /// in the XBR network.\n    ///\n    /// Note: This version uses pre-signed data where the actual blockchain transaction is\n    /// submitted by a gateway paying the respective gas (in ETH) for the blockchain transaction.\n    ///\n    /// @param member Address of the registering (new) member.\n    /// @param registered Block number at which the registering member has created the signature.\n    /// @param networkEula Multihash of the XBR EULA being agreed to and stored as one ZIP file archive on IPFS.\n    /// @param memberProfile Optional public member profile: the IPFS Multihash of the member profile stored in IPFS.\n    /// @param signature EIP712 signature, signed by the registering member.\n    function registerMemberFor (address member, uint256 registered, string memory networkEula,\n        string memory memberProfile, bytes memory signature) public {\n\n        // verify signature\n        require(XBRTypes.verify(member, XBRTypes.EIP712MemberRegister(verifyingChain, verifyingContract,\n            member, registered, networkEula, memberProfile), signature), \"INVALID_MEMBER_REGISTER_SIGNATURE\");\n\n        // signature must have been created in a window of 5 blocks from the current one\n        require(registered <= block.number && registered >= (block.number - 4), \"INVALID_REGISTERED_BLOCK_NUMBER\");\n\n        _registerMember(member, registered, networkEula, memberProfile, signature);\n    }\n\n    function _registerMember (address member, uint256 registered, string memory networkEula, string memory profile, bytes memory signature) private {\n        // check that sender is not already a member\n        require(uint8(members[member].level) == 0, \"MEMBER_ALREADY_REGISTERED\");\n\n        // check that the EULA the member accepted is the one we expect\n        require(keccak256(abi.encode(networkEula)) ==\n                keccak256(abi.encode(eula)), \"INVALID_EULA\");\n\n        // remember the member\n        members[member] = XBRTypes.Member(registered, networkEula, profile, XBRTypes.MemberLevel.ACTIVE, signature);\n\n        // notify observers of new member\n        emit MemberRegistered(member, registered, networkEula, profile, XBRTypes.MemberLevel.ACTIVE);\n    }\n\n    /// Set the XBR network organization address.\n    ///\n    /// @param networkOrganization The XBR network organization address.\n    function setOrganization (address networkOrganization) public onlyMaintainer {\n        organization = networkOrganization;\n    }\n\n    /// Set (override manually) the member level of a XBR Network member. Being able to do so\n    /// currently serves two purposes:\n    ///\n    /// - having a last resort to handle situation where members violated the EULA\n    /// - being able to manually patch things in error/bug cases\n    ///\n    /// @param member The address of the XBR network member to override member level.\n    /// @param level The member level to set the member to.\n    function setMemberLevel (address member, XBRTypes.MemberLevel level) public onlyMaintainer {\n        require(uint(members[msg.sender].level) != 0, \"NO_SUCH_MEMBER\");\n\n        members[member].level = level;\n    }\n\n    /// Set ERC20 coins as usable as a means of payment when opening data markets.\n    ///\n    /// @param coin The address of the ERC20 coin to change.\n    /// @param isPayable When true, the coin can be specified when opening a new data market.\n    function setCoinPayable (address coin, bool isPayable) public onlyMaintainer {\n        coins[coin] = isPayable;\n    }\n}\n",
  "sourcePath": "/home/oberstet/scm/crossbario/xbr-protocol/contracts/XBRNetwork.sol",
  "compiler": {
    "name": "solc",
    "version": "0.5.16+commit.9c3226ce.Emscripten.clang"
  },
  "schemaVersion": "3.0.23",
  "updatedAt": "2020-03-18T17:59:52.973Z",
  "devdoc": {
    "methods": {
      "addMaintainer(address)": {
        "params": {
          "account": "The account to grant maintainer rights to."
        }
      },
      "constructor": {
        "params": {
          "networkOrganization": "The XBR network organization address.",
          "networkToken": "The token to run this network itself on. Note that XBR data markets can use                     any ERC20 token (enabled in the ``coins`` mapping of this contract) as                     a means of payment in the respective market."
        }
      },
      "isMaintainer(address)": {
        "params": {
          "account": "The account to check."
        },
        "return": "`true` if the account is maintainer, otherwise `false`."
      },
      "registerMember(string,string)": {
        "params": {
          "memberProfile": "Optional public member profile: the IPFS Multihash of the member profile stored in IPFS.",
          "networkEula": "Multihash of the XBR EULA being agreed to and stored as one ZIP file archive on IPFS."
        }
      },
      "registerMemberFor(address,uint256,string,string,bytes)": {
        "params": {
          "member": "Address of the registering (new) member.",
          "memberProfile": "Optional public member profile: the IPFS Multihash of the member profile stored in IPFS.",
          "networkEula": "Multihash of the XBR EULA being agreed to and stored as one ZIP file archive on IPFS.",
          "registered": "Block number at which the registering member has created the signature.",
          "signature": "EIP712 signature, signed by the registering member."
        }
      },
      "setCoinPayable(address,bool)": {
        "params": {
          "coin": "The address of the ERC20 coin to change.",
          "isPayable": "When true, the coin can be specified when opening a new data market."
        }
      },
      "setMemberLevel(address,uint8)": {
        "params": {
          "level": "The member level to set the member to.",
          "member": "The address of the XBR network member to override member level."
        }
      },
      "setOrganization(address)": {
        "params": {
          "networkOrganization": "The XBR network organization address."
        }
      }
    }
  },
  "userdoc": {
    "methods": {
      "addMaintainer(address)": {
        "notice": "Add a new maintainer to the list of maintainers."
      },
      "constructor": "Create the XBR network. ",
      "isMaintainer(address)": {
        "notice": "Check if the given address is currently a maintainer."
      },
      "registerMember(string,string)": {
        "notice": "Register the sender of this transaction in the XBR network. All XBR stakeholders, namely data providers (\"sellers\"), data consumers (\"buyers\") and data market operators, must be registered in the XBR network. "
      },
      "registerMemberFor(address,uint256,string,string,bytes)": {
        "notice": "Register the specified new member in the XBR Network. All XBR stakeholders, namely data providers (\"sellers\"), data consumers (\"buyers\") and data market operators, must be registered in the XBR network.     /// Note: This version uses pre-signed data where the actual blockchain transaction is submitted by a gateway paying the respective gas (in ETH) for the blockchain transaction. "
      },
      "renounceMaintainer()": {
        "notice": "Give away maintainer rights."
      },
      "setCoinPayable(address,bool)": {
        "notice": "Set ERC20 coins as usable as a means of payment when opening data markets. "
      },
      "setMemberLevel(address,uint8)": {
        "notice": "Set (override manually) the member level of a XBR Network member. Being able to do so currently serves two purposes:     /// - having a last resort to handle situation where members violated the EULA - being able to manually patch things in error/bug cases "
      },
      "setOrganization(address)": {
        "notice": "Set the XBR network organization address. "
      }
    },
    "notice": "The `XBR Network <https://github.com/crossbario/xbr-protocol/blob/master/contracts/XBRNetwork.sol>`__ contract is the on-chain anchor of and the entry point to the XBR protocol."
  }
}