{
  "contractName": "XBRNetworkProxy",
  "abi": [
    {
      "constant": false,
      "inputs": [],
      "name": "renounceMaintainer",
      "outputs": [],
      "payable": false,
      "stateMutability": "nonpayable",
      "type": "function"
    },
    {
      "constant": false,
      "inputs": [
        {
          "name": "account",
          "type": "address"
        }
      ],
      "name": "addMaintainer",
      "outputs": [],
      "payable": false,
      "stateMutability": "nonpayable",
      "type": "function"
    },
    {
      "constant": true,
      "inputs": [
        {
          "name": "account",
          "type": "address"
        }
      ],
      "name": "isMaintainer",
      "outputs": [
        {
          "name": "",
          "type": "bool"
        }
      ],
      "payable": false,
      "stateMutability": "view",
      "type": "function"
    },
    {
      "anonymous": false,
      "inputs": [
        {
          "indexed": true,
          "name": "account",
          "type": "address"
        }
      ],
      "name": "MaintainerAdded",
      "type": "event"
    },
    {
      "anonymous": false,
      "inputs": [
        {
          "indexed": true,
          "name": "account",
          "type": "address"
        }
      ],
      "name": "MaintainerRemoved",
      "type": "event"
    },
    {
      "constant": false,
      "inputs": [
        {
          "name": "networkContract",
          "type": "address"
        }
      ],
      "name": "setNetworkContract",
      "outputs": [],
      "payable": false,
      "stateMutability": "nonpayable",
      "type": "function"
    }
  ],
  "bytecode": "0x60806040526100163364010000000061001b810204565b610191565b61003360008264010000000061031961006a82021704565b604051600160a060020a038216907f1390a149489c82e9e2e89927bdb17ad1ea3f0cc314fce06c96369721d3afb8f090600090a250565b61007d828264010000000061010e810204565b156100e957604080517f08c379a000000000000000000000000000000000000000000000000000000000815260206004820152601f60248201527f526f6c65733a206163636f756e7420616c72656164792068617320726f6c6500604482015290519081900360640190fd5b600160a060020a0316600090815260209190915260409020805460ff19166001179055565b6000600160a060020a0382161515610171576040517f08c379a00000000000000000000000000000000000000000000000000000000081526004018080602001828103825260228152602001806105c36022913960400191505060405180910390fd5b50600160a060020a03166000908152602091909152604090205460ff1690565b610423806101a06000396000f3fe608060405234801561001057600080fd5b5060043610610068577c01000000000000000000000000000000000000000000000000000000006000350463314db06b811461006d578063599b9348146100775780636b453c1f1461009d578063dd57366a146100c3575b600080fd5b6100756100fd565b005b6100756004803603602081101561008d57600080fd5b5035600160a060020a0316610108565b610075600480360360208110156100b357600080fd5b5035600160a060020a031661014b565b6100e9600480360360208110156100d957600080fd5b5035600160a060020a031661016b565b604080519115158252519081900360200190f35b61010633610183565b565b6101113361016b565b151561011c57600080fd5b6001805473ffffffffffffffffffffffffffffffffffffffff1916600160a060020a0392909216919091179055565b6101543361016b565b151561015f57600080fd5b610168816101cb565b50565b600061017d818363ffffffff61021316565b92915050565b61019460008263ffffffff61029616565b604051600160a060020a038216907fa7b36d52bea726c3aa90d876d0e52a1089a347b3e3408a03f08eae32f96fdbb490600090a250565b6101dc60008263ffffffff61031916565b604051600160a060020a038216907f1390a149489c82e9e2e89927bdb17ad1ea3f0cc314fce06c96369721d3afb8f090600090a250565b6000600160a060020a0382161515610276576040517f08c379a00000000000000000000000000000000000000000000000000000000081526004018080602001828103825260228152602001806103d66022913960400191505060405180910390fd5b50600160a060020a03166000908152602091909152604090205460ff1690565b6102a08282610213565b15156102f7576040517f08c379a00000000000000000000000000000000000000000000000000000000081526004018080602001828103825260218152602001806103b56021913960400191505060405180910390fd5b600160a060020a0316600090815260209190915260409020805460ff19169055565b6103238282610213565b1561038f57604080517f08c379a000000000000000000000000000000000000000000000000000000000815260206004820152601f60248201527f526f6c65733a206163636f756e7420616c72656164792068617320726f6c6500604482015290519081900360640190fd5b600160a060020a0316600090815260209190915260409020805460ff1916600117905556fe526f6c65733a206163636f756e7420646f6573206e6f74206861766520726f6c65526f6c65733a206163636f756e7420697320746865207a65726f2061646472657373a165627a7a72305820272d7283e5762afc64795e1bf3c8fd30530375b77ecc122f7e815b16f60cbadc0029526f6c65733a206163636f756e7420697320746865207a65726f2061646472657373",
  "source": "///////////////////////////////////////////////////////////////////////////////\n//\n//  Copyright (C) 2018 Crossbar.io Technologies GmbH and contributors.\n//\n//  Licensed under the Apache License, Version 2.0 (the \"License\");\n//  you may not use this file except in compliance with the License.\n//  You may obtain a copy of the License at\n//\n//      http://www.apache.org/licenses/LICENSE-2.0\n//\n//  Unless required by applicable law or agreed to in writing, software\n//  distributed under the License is distributed on an \"AS IS\" BASIS,\n//  WITHOUT WARRANTIES OR CONDITIONS OF ANY KIND, either express or implied.\n//  See the License for the specific language governing permissions and\n//  limitations under the License.\n//\n///////////////////////////////////////////////////////////////////////////////\n\npragma solidity ^0.5.2;\n\nimport \"./XBRMaintained.sol\";\n\n\n/**\n * @title XBR Network root SC\n * @author The XBR Project\n */\ncontract XBRNetworkProxy is XBRMaintained {\n\n    address internal _networkContract;\n\n    function setNetworkContract (address networkContract) public onlyMaintainer {\n        _networkContract = networkContract;\n    }\n}\n",
  "sourcePath": "/home/oberstet/scm/crossbario/xbr-protocol/contracts/XBRNetworkProxy.sol",
  "compiler": {
    "name": "solc",
    "version": "0.5.2+commit.1df8f40c.Emscripten.clang"
  },
  "schemaVersion": "3.0.13",
  "updatedAt": "2019-08-28T00:33:53.150Z",
  "devdoc": {
    "author": "The XBR Project",
    "methods": {
      "addMaintainer(address)": {
        "params": {
          "account": "The account to grant maintainer rights to."
        }
      },
      "isMaintainer(address)": {
        "params": {
          "account": "The account to check."
        },
        "return": "`true` if the account is maintainer, otherwise `false`."
      }
    },
    "title": "XBR Network root SC"
  },
  "userdoc": {
    "methods": {
      "addMaintainer(address)": {
        "notice": "Add a new maintainer to the list of maintainers."
      },
      "isMaintainer(address)": {
        "notice": "Check if the given address is currently a maintainer."
      },
      "renounceMaintainer()": {
        "notice": "Give away maintainer rights."
      }
    }
  }
}