{
  "contractName": "XBRNetwork",
  "abi": [
    {
      "constant": true,
      "inputs": [],
      "name": "organization",
      "outputs": [
        {
          "name": "",
          "type": "address"
        }
      ],
      "payable": false,
      "stateMutability": "view",
      "type": "function"
    },
    {
      "constant": false,
      "inputs": [],
      "name": "renounceMaintainer",
      "outputs": [],
      "payable": false,
      "stateMutability": "nonpayable",
      "type": "function"
    },
    {
      "constant": false,
      "inputs": [
        {
          "name": "account",
          "type": "address"
        }
      ],
      "name": "addMaintainer",
      "outputs": [],
      "payable": false,
      "stateMutability": "nonpayable",
      "type": "function"
    },
    {
      "constant": true,
      "inputs": [
        {
          "name": "account",
          "type": "address"
        }
      ],
      "name": "isMaintainer",
      "outputs": [
        {
          "name": "",
          "type": "bool"
        }
      ],
      "payable": false,
      "stateMutability": "view",
      "type": "function"
    },
    {
      "constant": true,
      "inputs": [],
      "name": "token",
      "outputs": [
        {
          "name": "",
          "type": "address"
        }
      ],
      "payable": false,
      "stateMutability": "view",
      "type": "function"
    },
    {
      "inputs": [
        {
          "name": "token_",
          "type": "address"
        },
        {
          "name": "organization_",
          "type": "address"
        }
      ],
      "payable": false,
      "stateMutability": "nonpayable",
      "type": "constructor"
    },
    {
      "anonymous": false,
      "inputs": [
        {
          "indexed": true,
          "name": "member",
          "type": "address"
        },
        {
          "indexed": false,
          "name": "eula",
          "type": "string"
        },
        {
          "indexed": false,
          "name": "profile",
          "type": "string"
        },
        {
          "indexed": false,
          "name": "level",
          "type": "uint8"
        }
      ],
      "name": "MemberCreated",
      "type": "event"
    },
    {
      "anonymous": false,
      "inputs": [
        {
          "indexed": false,
          "name": "member",
          "type": "address"
        }
      ],
      "name": "MemberRetired",
      "type": "event"
    },
    {
      "anonymous": false,
      "inputs": [
        {
          "indexed": true,
          "name": "domainId",
          "type": "bytes16"
        },
        {
          "indexed": false,
          "name": "domainSeq",
          "type": "uint32"
        },
        {
          "indexed": false,
          "name": "status",
          "type": "uint8"
        },
        {
          "indexed": false,
          "name": "owner",
          "type": "address"
        },
        {
          "indexed": false,
          "name": "domainKey",
          "type": "bytes32"
        },
        {
          "indexed": false,
          "name": "license",
          "type": "string"
        },
        {
          "indexed": false,
          "name": "terms",
          "type": "string"
        },
        {
          "indexed": false,
          "name": "meta",
          "type": "string"
        }
      ],
      "name": "DomainCreated",
      "type": "event"
    },
    {
      "anonymous": false,
      "inputs": [
        {
          "indexed": true,
          "name": "domainId",
          "type": "bytes16"
        },
        {
          "indexed": false,
          "name": "domainSeq",
          "type": "uint32"
        },
        {
          "indexed": false,
          "name": "status",
          "type": "uint8"
        },
        {
          "indexed": false,
          "name": "owner",
          "type": "address"
        },
        {
          "indexed": false,
          "name": "domainKey",
          "type": "bytes32"
        },
        {
          "indexed": false,
          "name": "license",
          "type": "string"
        },
        {
          "indexed": false,
          "name": "terms",
          "type": "string"
        },
        {
          "indexed": false,
          "name": "meta",
          "type": "string"
        }
      ],
      "name": "DomainUpdated",
      "type": "event"
    },
    {
      "anonymous": false,
      "inputs": [
        {
          "indexed": true,
          "name": "domainId",
          "type": "bytes16"
        },
        {
          "indexed": false,
          "name": "status",
          "type": "uint8"
        }
      ],
      "name": "DomainClosed",
      "type": "event"
    },
    {
      "anonymous": false,
      "inputs": [
        {
          "indexed": true,
          "name": "domainId",
          "type": "bytes16"
        },
        {
          "indexed": false,
          "name": "nodeId",
          "type": "bytes16"
        },
        {
          "indexed": false,
          "name": "nodeKey",
          "type": "bytes32"
        },
        {
          "indexed": false,
          "name": "config",
          "type": "string"
        }
      ],
      "name": "NodePaired",
      "type": "event"
    },
    {
      "anonymous": false,
      "inputs": [
        {
          "indexed": true,
          "name": "domainId",
          "type": "bytes16"
        },
        {
          "indexed": false,
          "name": "nodeId",
          "type": "bytes16"
        },
        {
          "indexed": false,
          "name": "nodeKey",
          "type": "bytes32"
        },
        {
          "indexed": false,
          "name": "config",
          "type": "string"
        }
      ],
      "name": "NodeUpdated",
      "type": "event"
    },
    {
      "anonymous": false,
      "inputs": [
        {
          "indexed": true,
          "name": "domainId",
          "type": "bytes16"
        },
        {
          "indexed": false,
          "name": "nodeId",
          "type": "bytes16"
        }
      ],
      "name": "NodeReleased",
      "type": "event"
    },
    {
      "anonymous": false,
      "inputs": [
        {
          "indexed": true,
          "name": "marketId",
          "type": "bytes16"
        },
        {
          "indexed": false,
          "name": "marketSeq",
          "type": "uint32"
        },
        {
          "indexed": false,
          "name": "owner",
          "type": "address"
        },
        {
          "indexed": false,
          "name": "terms",
          "type": "string"
        },
        {
          "indexed": false,
          "name": "meta",
          "type": "string"
        },
        {
          "indexed": false,
          "name": "maker",
          "type": "address"
        },
        {
          "indexed": false,
          "name": "providerSecurity",
          "type": "uint256"
        },
        {
          "indexed": false,
          "name": "consumerSecurity",
          "type": "uint256"
        },
        {
          "indexed": false,
          "name": "marketFee",
          "type": "uint256"
        }
      ],
      "name": "MarketCreated",
      "type": "event"
    },
    {
      "anonymous": false,
      "inputs": [
        {
          "indexed": true,
          "name": "marketId",
          "type": "bytes16"
        },
        {
          "indexed": false,
          "name": "marketSeq",
          "type": "uint32"
        },
        {
          "indexed": false,
          "name": "owner",
          "type": "address"
        },
        {
          "indexed": false,
          "name": "terms",
          "type": "string"
        },
        {
          "indexed": false,
          "name": "meta",
          "type": "string"
        },
        {
          "indexed": false,
          "name": "maker",
          "type": "address"
        },
        {
          "indexed": false,
          "name": "providerSecurity",
          "type": "uint256"
        },
        {
          "indexed": false,
          "name": "consumerSecurity",
          "type": "uint256"
        },
        {
          "indexed": false,
          "name": "marketFee",
          "type": "uint256"
        }
      ],
      "name": "MarketUpdated",
      "type": "event"
    },
    {
      "anonymous": false,
      "inputs": [
        {
          "indexed": true,
          "name": "marketId",
          "type": "bytes16"
        }
      ],
      "name": "MarketClosed",
      "type": "event"
    },
    {
      "anonymous": false,
      "inputs": [
        {
          "indexed": true,
          "name": "marketId",
          "type": "bytes16"
        },
        {
          "indexed": false,
          "name": "actor",
          "type": "address"
        },
        {
          "indexed": false,
          "name": "actorType",
          "type": "uint8"
        },
        {
          "indexed": false,
          "name": "security",
          "type": "uint256"
        }
      ],
      "name": "ActorJoined",
      "type": "event"
    },
    {
      "anonymous": false,
      "inputs": [
        {
          "indexed": true,
          "name": "marketId",
          "type": "bytes16"
        },
        {
          "indexed": false,
          "name": "actor",
          "type": "address"
        }
      ],
      "name": "ActorLeft",
      "type": "event"
    },
    {
      "anonymous": false,
      "inputs": [
        {
          "indexed": true,
          "name": "marketId",
          "type": "bytes16"
        },
        {
          "indexed": false,
          "name": "sender",
          "type": "address"
        },
        {
          "indexed": false,
          "name": "delegate",
          "type": "address"
        },
        {
          "indexed": false,
          "name": "receiver",
          "type": "address"
        },
        {
          "indexed": false,
          "name": "channel",
          "type": "address"
        }
      ],
      "name": "PaymentChannelCreated",
      "type": "event"
    },
    {
      "anonymous": false,
      "inputs": [
        {
          "indexed": true,
          "name": "marketId",
          "type": "bytes16"
        },
        {
          "indexed": false,
          "name": "sender",
          "type": "address"
        },
        {
          "indexed": false,
          "name": "delegate",
          "type": "address"
        },
        {
          "indexed": false,
          "name": "receiver",
          "type": "address"
        },
        {
          "indexed": false,
          "name": "amount",
          "type": "uint256"
        },
        {
          "indexed": false,
          "name": "timeout",
          "type": "uint32"
        }
      ],
      "name": "PayingChannelRequestCreated",
      "type": "event"
    },
    {
      "anonymous": false,
      "inputs": [
        {
          "indexed": true,
          "name": "account",
          "type": "address"
        }
      ],
      "name": "MaintainerAdded",
      "type": "event"
    },
    {
      "anonymous": false,
      "inputs": [
        {
          "indexed": true,
          "name": "account",
          "type": "address"
        }
      ],
      "name": "MaintainerRemoved",
      "type": "event"
    },
    {
      "constant": false,
      "inputs": [
        {
          "name": "eula",
          "type": "string"
        },
        {
          "name": "profile",
          "type": "string"
        }
      ],
      "name": "register",
      "outputs": [],
      "payable": false,
      "stateMutability": "nonpayable",
      "type": "function"
    },
    {
      "constant": false,
      "inputs": [],
      "name": "unregister",
      "outputs": [],
      "payable": false,
      "stateMutability": "nonpayable",
      "type": "function"
    },
    {
      "constant": true,
      "inputs": [
        {
          "name": "member",
          "type": "address"
        }
      ],
      "name": "getMemberLevel",
      "outputs": [
        {
          "name": "",
          "type": "uint8"
        }
      ],
      "payable": false,
      "stateMutability": "view",
      "type": "function"
    },
    {
      "constant": true,
      "inputs": [
        {
          "name": "member",
          "type": "address"
        }
      ],
      "name": "getMemberEula",
      "outputs": [
        {
          "name": "",
          "type": "string"
        }
      ],
      "payable": false,
      "stateMutability": "view",
      "type": "function"
    },
    {
      "constant": true,
      "inputs": [
        {
          "name": "member",
          "type": "address"
        }
      ],
      "name": "getMemberProfile",
      "outputs": [
        {
          "name": "",
          "type": "string"
        }
      ],
      "payable": false,
      "stateMutability": "view",
      "type": "function"
    },
    {
      "constant": false,
      "inputs": [
        {
          "name": "member",
          "type": "address"
        },
        {
          "name": "level",
          "type": "uint8"
        }
      ],
      "name": "setMemberLevel",
      "outputs": [],
      "payable": false,
      "stateMutability": "nonpayable",
      "type": "function"
    },
    {
      "constant": false,
      "inputs": [
        {
          "name": "domainId",
          "type": "bytes16"
        },
        {
          "name": "domainKey",
          "type": "bytes32"
        },
        {
          "name": "license",
          "type": "string"
        },
        {
          "name": "terms",
          "type": "string"
        },
        {
          "name": "meta",
          "type": "string"
        }
      ],
      "name": "createDomain",
      "outputs": [],
      "payable": false,
      "stateMutability": "nonpayable",
      "type": "function"
    },
    {
      "constant": false,
      "inputs": [
        {
          "name": "domainId",
          "type": "bytes16"
        }
      ],
      "name": "closeDomain",
      "outputs": [],
      "payable": false,
      "stateMutability": "nonpayable",
      "type": "function"
    },
    {
      "constant": true,
      "inputs": [
        {
          "name": "domainId",
          "type": "bytes16"
        }
      ],
      "name": "getDomainStatus",
      "outputs": [
        {
          "name": "",
          "type": "uint8"
        }
      ],
      "payable": false,
      "stateMutability": "view",
      "type": "function"
    },
    {
      "constant": true,
      "inputs": [
        {
          "name": "domainId",
          "type": "bytes16"
        }
      ],
      "name": "getDomainOwner",
      "outputs": [
        {
          "name": "",
          "type": "address"
        }
      ],
      "payable": false,
      "stateMutability": "view",
      "type": "function"
    },
    {
      "constant": true,
      "inputs": [
        {
          "name": "domainId",
          "type": "bytes16"
        }
      ],
      "name": "getDomainKey",
      "outputs": [
        {
          "name": "",
          "type": "bytes32"
        }
      ],
      "payable": false,
      "stateMutability": "view",
      "type": "function"
    },
    {
      "constant": true,
      "inputs": [
        {
          "name": "domainId",
          "type": "bytes16"
        }
      ],
      "name": "getDomainLicense",
      "outputs": [
        {
          "name": "",
          "type": "string"
        }
      ],
      "payable": false,
      "stateMutability": "view",
      "type": "function"
    },
    {
      "constant": true,
      "inputs": [
        {
          "name": "domainId",
          "type": "bytes16"
        }
      ],
      "name": "getDomainTerms",
      "outputs": [
        {
          "name": "",
          "type": "string"
        }
      ],
      "payable": false,
      "stateMutability": "view",
      "type": "function"
    },
    {
      "constant": true,
      "inputs": [
        {
          "name": "domainId",
          "type": "bytes16"
        }
      ],
      "name": "getDomainMeta",
      "outputs": [
        {
          "name": "",
          "type": "string"
        }
      ],
      "payable": false,
      "stateMutability": "view",
      "type": "function"
    },
    {
      "constant": false,
      "inputs": [
        {
          "name": "nodeId",
          "type": "bytes16"
        },
        {
          "name": "domainId",
          "type": "bytes16"
        },
        {
          "name": "nodeType",
          "type": "uint8"
        },
        {
          "name": "nodeKey",
          "type": "bytes32"
        },
        {
          "name": "config",
          "type": "string"
        }
      ],
      "name": "pairNode",
      "outputs": [],
      "payable": false,
      "stateMutability": "nonpayable",
      "type": "function"
    },
    {
      "constant": false,
      "inputs": [
        {
          "name": "nodeId",
          "type": "bytes16"
        }
      ],
      "name": "releaseNode",
      "outputs": [],
      "payable": false,
      "stateMutability": "nonpayable",
      "type": "function"
    },
    {
      "constant": true,
      "inputs": [
        {
          "name": "nodeKey",
          "type": "bytes32"
        }
      ],
      "name": "getNodeByKey",
      "outputs": [
        {
          "name": "",
          "type": "bytes16"
        }
      ],
      "payable": false,
      "stateMutability": "view",
      "type": "function"
    },
    {
      "constant": true,
      "inputs": [
        {
          "name": "nodeId",
          "type": "bytes16"
        }
      ],
      "name": "getNodeDomain",
      "outputs": [
        {
          "name": "",
          "type": "bytes16"
        }
      ],
      "payable": false,
      "stateMutability": "view",
      "type": "function"
    },
    {
      "constant": true,
      "inputs": [
        {
          "name": "nodeId",
          "type": "bytes16"
        }
      ],
      "name": "getNodeType",
      "outputs": [
        {
          "name": "",
          "type": "uint8"
        }
      ],
      "payable": false,
      "stateMutability": "view",
      "type": "function"
    },
    {
      "constant": true,
      "inputs": [
        {
          "name": "nodeId",
          "type": "bytes16"
        }
      ],
      "name": "getNodeKey",
      "outputs": [
        {
          "name": "",
          "type": "bytes32"
        }
      ],
      "payable": false,
      "stateMutability": "view",
      "type": "function"
    },
    {
      "constant": true,
      "inputs": [
        {
          "name": "nodeId",
          "type": "bytes16"
        }
      ],
      "name": "getNodeConfig",
      "outputs": [
        {
          "name": "",
          "type": "string"
        }
      ],
      "payable": false,
      "stateMutability": "view",
      "type": "function"
    },
    {
      "constant": false,
      "inputs": [
        {
          "name": "marketId",
          "type": "bytes16"
        },
        {
          "name": "terms",
          "type": "string"
        },
        {
          "name": "meta",
          "type": "string"
        },
        {
          "name": "maker",
          "type": "address"
        },
        {
          "name": "providerSecurity",
          "type": "uint256"
        },
        {
          "name": "consumerSecurity",
          "type": "uint256"
        },
        {
          "name": "marketFee",
          "type": "uint256"
        }
      ],
      "name": "createMarket",
      "outputs": [],
      "payable": false,
      "stateMutability": "nonpayable",
      "type": "function"
    },
    {
      "constant": true,
      "inputs": [
        {
          "name": "maker",
          "type": "address"
        }
      ],
      "name": "getMarketByMaker",
      "outputs": [
        {
          "name": "",
          "type": "bytes16"
        }
      ],
      "payable": false,
      "stateMutability": "view",
      "type": "function"
    },
    {
      "constant": true,
      "inputs": [
        {
          "name": "marketId",
          "type": "bytes16"
        }
      ],
      "name": "getMarketOwner",
      "outputs": [
        {
          "name": "",
          "type": "address"
        }
      ],
      "payable": false,
      "stateMutability": "view",
      "type": "function"
    },
    {
      "constant": true,
      "inputs": [
        {
          "name": "marketId",
          "type": "bytes16"
        }
      ],
      "name": "getMarketTerms",
      "outputs": [
        {
          "name": "",
          "type": "string"
        }
      ],
      "payable": false,
      "stateMutability": "view",
      "type": "function"
    },
    {
      "constant": true,
      "inputs": [
        {
          "name": "marketId",
          "type": "bytes16"
        }
      ],
      "name": "getMarketMeta",
      "outputs": [
        {
          "name": "",
          "type": "string"
        }
      ],
      "payable": false,
      "stateMutability": "view",
      "type": "function"
    },
    {
      "constant": true,
      "inputs": [
        {
          "name": "marketId",
          "type": "bytes16"
        }
      ],
      "name": "getMarketMaker",
      "outputs": [
        {
          "name": "",
          "type": "address"
        }
      ],
      "payable": false,
      "stateMutability": "view",
      "type": "function"
    },
    {
      "constant": true,
      "inputs": [
        {
          "name": "marketId",
          "type": "bytes16"
        }
      ],
      "name": "getMarketProviderSecurity",
      "outputs": [
        {
          "name": "",
          "type": "uint256"
        }
      ],
      "payable": false,
      "stateMutability": "view",
      "type": "function"
    },
    {
      "constant": true,
      "inputs": [
        {
          "name": "marketId",
          "type": "bytes16"
        }
      ],
      "name": "getMarketConsumerSecurity",
      "outputs": [
        {
          "name": "",
          "type": "uint256"
        }
      ],
      "payable": false,
      "stateMutability": "view",
      "type": "function"
    },
    {
      "constant": true,
      "inputs": [
        {
          "name": "marketId",
          "type": "bytes16"
        }
      ],
      "name": "getMarketFee",
      "outputs": [
        {
          "name": "",
          "type": "uint256"
        }
      ],
      "payable": false,
      "stateMutability": "view",
      "type": "function"
    },
    {
      "constant": false,
      "inputs": [
        {
          "name": "marketId",
          "type": "bytes16"
        },
        {
          "name": "terms",
          "type": "string"
        },
        {
          "name": "meta",
          "type": "string"
        },
        {
          "name": "maker",
          "type": "address"
        },
        {
          "name": "providerSecurity",
          "type": "uint256"
        },
        {
          "name": "consumerSecurity",
          "type": "uint256"
        },
        {
          "name": "marketFee",
          "type": "uint256"
        }
      ],
      "name": "updateMarket",
      "outputs": [
        {
          "name": "",
          "type": "bool"
        }
      ],
      "payable": false,
      "stateMutability": "nonpayable",
      "type": "function"
    },
    {
      "constant": true,
      "inputs": [
        {
          "name": "marketId",
          "type": "bytes16"
        }
      ],
      "name": "closeMarket",
      "outputs": [],
      "payable": false,
      "stateMutability": "view",
      "type": "function"
    },
    {
      "constant": false,
      "inputs": [
        {
          "name": "marketId",
          "type": "bytes16"
        },
        {
          "name": "actorType",
          "type": "uint8"
        }
      ],
      "name": "joinMarket",
      "outputs": [
        {
          "name": "",
          "type": "uint256"
        }
      ],
      "payable": false,
      "stateMutability": "nonpayable",
      "type": "function"
    },
    {
      "constant": true,
      "inputs": [
        {
          "name": "marketId",
          "type": "bytes16"
        }
      ],
      "name": "getAllMarketActors",
      "outputs": [
        {
          "name": "",
          "type": "address[]"
        }
      ],
      "payable": false,
      "stateMutability": "view",
      "type": "function"
    },
    {
      "constant": true,
      "inputs": [
        {
          "name": "marketId",
          "type": "bytes16"
        },
        {
          "name": "actor",
          "type": "address"
        }
      ],
      "name": "getMarketActorType",
      "outputs": [
        {
          "name": "",
          "type": "uint8"
        }
      ],
      "payable": false,
      "stateMutability": "view",
      "type": "function"
    },
    {
      "constant": true,
      "inputs": [
        {
          "name": "marketId",
          "type": "bytes16"
        },
        {
          "name": "actor",
          "type": "address"
        }
      ],
      "name": "getMarketActorSecurity",
      "outputs": [
        {
          "name": "",
          "type": "uint256"
        }
      ],
      "payable": false,
      "stateMutability": "view",
      "type": "function"
    },
    {
      "constant": true,
      "inputs": [
        {
          "name": "marketId",
          "type": "bytes16"
        }
      ],
      "name": "leaveMarket",
      "outputs": [],
      "payable": false,
      "stateMutability": "view",
      "type": "function"
    },
    {
      "constant": false,
      "inputs": [
        {
          "name": "marketId",
          "type": "bytes16"
        },
        {
          "name": "consumer",
          "type": "address"
        },
        {
          "name": "amount",
          "type": "uint256"
        }
      ],
      "name": "openPaymentChannel",
      "outputs": [
        {
          "name": "paymentChannel",
          "type": "address"
        }
      ],
      "payable": false,
      "stateMutability": "nonpayable",
      "type": "function"
    },
    {
      "constant": true,
      "inputs": [
        {
          "name": "marketId",
          "type": "bytes16"
        }
      ],
      "name": "getAllMarketPaymentChannels",
      "outputs": [
        {
          "name": "",
          "type": "address[]"
        }
      ],
      "payable": false,
      "stateMutability": "view",
      "type": "function"
    },
    {
      "constant": false,
      "inputs": [
        {
          "name": "marketId",
          "type": "bytes16"
        },
        {
          "name": "provider",
          "type": "address"
        },
        {
          "name": "amount",
          "type": "uint256"
        }
      ],
      "name": "requestPayingChannel",
      "outputs": [],
      "payable": false,
      "stateMutability": "nonpayable",
      "type": "function"
    }
  ],
  "bytecode": "0x60806040526001805467ffffffff000000001963ffffffff199091168217166401000000001790553480156200003457600080fd5b5060405160408062005127833981018060405260408110156200005657600080fd5b50805160209091015162000073336401000000006200016d810204565b600180547fffffffff0000000000000000000000000000000000000000ffffffffffffffff1668010000000000000000600160a060020a03858116919091029190911790915560028054600160a060020a031916918316919091178155604080516080810182526000606082018181528252825160208082018552918152908201529190820152336000908152600360209081526040909120825180519192620001239284929091019062000252565b5060208281015180516200013e926001850192019062000252565b50604082015160028201805460ff191660018360058111156200015d57fe5b02179055509050505050620002f7565b6200018860008264010000000062004491620001bf82021704565b604051600160a060020a038216907f1390a149489c82e9e2e89927bdb17ad1ea3f0cc314fce06c96369721d3afb8f090600090a250565b600160a060020a0381161515620001d557600080fd5b620001ea82826401000000006200021a810204565b15620001f557600080fd5b600160a060020a0316600090815260209190915260409020805460ff19166001179055565b6000600160a060020a03821615156200023257600080fd5b50600160a060020a03166000908152602091909152604090205460ff1690565b828054600181600116156101000203166002900490600052602060002090601f016020900481019282601f106200029557805160ff1916838001178555620002c5565b82800160010185558215620002c5579182015b82811115620002c5578251825591602001919060010190620002a8565b50620002d3929150620002d7565b5090565b620002f491905b80821115620002d35760008155600101620002de565b90565b614e2080620003076000396000f3fe608060405234801561001057600080fd5b50600436106102825760003560e060020a900480636b453c1f11610160578063af6c86f0116100d2578063dd57366a1161008b578063dd57366a14610f98578063decae33014610fbe578063e79a198f14610ff5578063e8bf533c14610ffd578063fb070fc014611024578063fc0c546a1461105457610282565b8063af6c86f014610e9f578063bc385fcd14610ed6578063c224f17414610efd578063cca28f3914610f24578063d43184d314610f4a578063d4dba11314610f7157610282565b806378e6cb851161012457806378e6cb8514610d8b57806380e00db914610db257806388ebed4a14610dd957806396c9fd9714610e00578063a4ae4a6214610e27578063a855d05214610e6357610282565b80636b453c1f14610b98578063710ccb3814610bbe57806372cd77cf14610d1657806372df143514610d3d57806378bab37c14610d6457610282565b80632b721492116101f9578063559d1738116101bd578063559d173814610a6d57806359269e6714610a945780635fef8a0214610ade5780636322108414610b055780636a3460fa14610b2b5780636b23fc0314610b7157610282565b80632b7214921461086b578063314db06b146108925780633ffbd47f1461089a57806350405fdf146109c757806353388580146109f657610282565b80630cc4e11d1161024b5780630cc4e11d14610668578063186def2b146107045780631cf909dc1461072b5780631ed714de146107515780632096398d1461077857806323bd4d7a1461084757610282565b806221ec191461028757806303e385e2146103f3578063083a85801461043b5780630a6edd06146104755780630bf7580014610641575b600080fd5b6103df600480360360e081101561029d57600080fd5b6001608060020a031982351691908101906040810160208201356401000000008111156102c957600080fd5b8201836020820111156102db57600080fd5b803590602001918460018302840111640100000000831117156102fd57600080fd5b91908080601f016020809104026020016040519081016040528093929190818152602001838380828437600092019190915250929594936020810193503591505064010000000081111561035057600080fd5b82018360208201111561036257600080fd5b8035906020019184600183028401116401000000008311171561038457600080fd5b91908080601f01602080910402602001604051908101604052809392919081815260200183838082843760009201919091525092955050600160a060020a03833516935050506020810135906040810135906060013561105c565b604080519115158252519081900360200190f35b6104296004803603604081101561040957600080fd5b5080356001608060020a0319169060200135600160a060020a03166117f6565b60408051918252519081900360200190f35b6104586004803603602081101561045157600080fd5b5035611830565b604080516001608060020a03199092168252519081900360200190f35b61063f600480360360a081101561048b57600080fd5b6001608060020a0319823516916020810135918101906060810160408201356401000000008111156104bc57600080fd5b8201836020820111156104ce57600080fd5b803590602001918460018302840111640100000000831117156104f057600080fd5b91908080601f016020809104026020016040519081016040528093929190818152602001838380828437600092019190915250929594936020810193503591505064010000000081111561054357600080fd5b82018360208201111561055557600080fd5b8035906020019184600183028401116401000000008311171561057757600080fd5b91908080601f01602080910402602001604051908101604052809392919081815260200183838082843760009201919091525092959493602081019350359150506401000000008111156105ca57600080fd5b8201836020820111156105dc57600080fd5b803590602001918460018302840111640100000000831117156105fe57600080fd5b91908080601f016020809104026020016040519081016040528093929190818152602001838380828437600092019190915250929550611848945050505050565b005b6104296004803603602081101561065757600080fd5b50356001608060020a031916611cf0565b61068f6004803603602081101561067e57600080fd5b50356001608060020a031916611d0f565b6040805160208082528351818301528351919283929083019185019080838360005b838110156106c95781810151838201526020016106b1565b50505050905090810190601f1680156106f65780820380516001836020036101000a031916815260200191505b509250505060405180910390f35b61063f6004803603602081101561071a57600080fd5b50356001608060020a031916611dc1565b61068f6004803603602081101561074157600080fd5b5035600160a060020a0316611e33565b61063f6004803603602081101561076757600080fd5b50356001608060020a031916611ea7565b61063f600480360360a081101561078e57600080fd5b6001608060020a0319823581169260208101359091169160ff6040830135169160608101359181019060a0810160808201356401000000008111156107d257600080fd5b8201836020820111156107e457600080fd5b8035906020019184600183028401116401000000008311171561080657600080fd5b91908080601f016020809104026020016040519081016040528093929190818152602001838380828437600092019190915250929550611f85945050505050565b61084f6123e1565b60408051600160a060020a039092168252519081900360200190f35b61068f6004803603602081101561088157600080fd5b50356001608060020a0319166123f0565b61063f612468565b61063f600480360360408110156108b057600080fd5b8101906020810181356401000000008111156108cb57600080fd5b8201836020820111156108dd57600080fd5b803590602001918460018302840111640100000000831117156108ff57600080fd5b91908080601f016020809104026020016040519081016040528093929190818152602001838380828437600092019190915250929594936020810193503591505064010000000081111561095257600080fd5b82018360208201111561096457600080fd5b8035906020019184600183028401116401000000008311171561098657600080fd5b91908080601f016020809104026020016040519081016040528093929190818152602001838380828437600092019190915250929550612473945050505050565b61063f600480360360408110156109dd57600080fd5b508035600160a060020a0316906020013560ff166127a6565b610a1d60048036036020811015610a0c57600080fd5b50356001608060020a03191661286c565b60408051602080825283518183015283519192839290830191858101910280838360005b83811015610a59578181015183820152602001610a41565b505050509050019250505060405180910390f35b61084f60048036036020811015610a8357600080fd5b50356001608060020a0319166128e5565b610aba60048036036020811015610aaa57600080fd5b5035600160a060020a0316612912565b60405180826005811115610aca57fe5b60ff16815260200191505060405180910390f35b61042960048036036020811015610af457600080fd5b50356001608060020a031916612933565b61045860048036036020811015610b1b57600080fd5b5035600160a060020a0316612952565b610b6160048036036040811015610b4157600080fd5b5080356001608060020a0319169060200135600160a060020a0316612973565b60405180826004811115610aca57fe5b61068f60048036036020811015610b8757600080fd5b50356001608060020a0319166129ad565b61063f60048036036020811015610bae57600080fd5b5035600160a060020a0316612a29565b61063f600480360360e0811015610bd457600080fd5b6001608060020a03198235169190810190604081016020820135640100000000811115610c0057600080fd5b820183602082011115610c1257600080fd5b80359060200191846001830284011164010000000083111715610c3457600080fd5b91908080601f0160208091040260200160405190810160405280939291908181526020018383808284376000920191909152509295949360208101935035915050640100000000811115610c8757600080fd5b820183602082011115610c9957600080fd5b80359060200191846001830284011164010000000083111715610cbb57600080fd5b91908080601f01602080910402602001604051908101604052809392919081815260200183838082843760009201919091525092955050600160a060020a038335169350505060208101359060408101359060600135612a46565b61045860048036036020811015610d2c57600080fd5b50356001608060020a03191661329f565b61068f60048036036020811015610d5357600080fd5b50356001608060020a0319166132c1565b61042960048036036020811015610d7a57600080fd5b50356001608060020a031916613339565b61068f60048036036020811015610da157600080fd5b50356001608060020a031916613358565b61063f60048036036020811015610dc857600080fd5b50356001608060020a0319166133d3565b61084f60048036036020811015610def57600080fd5b50356001608060020a031916613656565b61042960048036036020811015610e1657600080fd5b50356001608060020a031916613684565b61084f60048036036060811015610e3d57600080fd5b506001608060020a031981351690600160a060020a0360208201351690604001356136a3565b61063f60048036036060811015610e7957600080fd5b506001608060020a031981351690600160a060020a03602082013516906040013561393a565b610ec660048036036020811015610eb557600080fd5b50356001608060020a031916613aa3565b60405180826002811115610aca57fe5b61084f60048036036020811015610eec57600080fd5b50356001608060020a031916613aca565b61063f60048036036020811015610f1357600080fd5b50356001608060020a031916613af2565b61068f60048036036020811015610f3a57600080fd5b5035600160a060020a0316613ccb565b610a1d60048036036020811015610f6057600080fd5b50356001608060020a031916613d5e565b61042960048036036020811015610f8757600080fd5b50356001608060020a031916613dd6565b6103df60048036036020811015610fae57600080fd5b5035600160a060020a0316613df5565b610fe560048036036020811015610fd457600080fd5b50356001608060020a031916613e0d565b60405180826003811115610aca57fe5b61063f613e33565b61068f6004803603602081101561101357600080fd5b50356001608060020a031916613f02565b6104296004803603604081101561103a57600080fd5b5080356001608060020a031916906020013560ff16613f7d565b61084f614363565b6001608060020a03198716600090815260076020526040812080546401000000009004600160a060020a031615156110cc576040805160e560020a62461bcd02815260206004820152600e6024820152600080516020614d66833981519152604482015290519081900360640190fd5b80546401000000009004600160a060020a03163314611123576040805160e560020a62461bcd02815260206004820152600e6024820152600080516020614d86833981519152604482015290519081900360640190fd5b600160a060020a038616600090815260086020526040902054608060020a026001608060020a0319161561118b5760405160e560020a62461bcd028152600401808060200182810382526026815260200180614d406026913960400191505060405180910390fd5b600083101580156111a757506b0332e8a789bc7ef49e00000083105b15156111fd576040805160e560020a62461bcd02815260206004820152601260248201527f494e56414c49445f4d41524b45545f4645450000000000000000000000000000604482015290519081900360640190fd5b6000600160a060020a0387161580159061122757506003820154600160a060020a03888116911614155b1561127257506001608060020a031989166000908152600760205260409020600301805473ffffffffffffffffffffffffffffffffffffffff1916600160a060020a03881617905560015b600089511180156113b6575081600101604051602001808060200182810382528381815460018160011615610100020316600290048152602001915080546001816001161561010002031660029004801561130e5780601f106112e35761010080835404028352916020019161130e565b820191906000526020600020905b8154815290600101906020018083116112f157829003601f168201915b50509250505060405160208183030381529060405280519060200120896040516020018080602001828103825283818151815260200191508051906020019080838360005b8381101561136b578181015183820152602001611353565b50505050905090810190601f1680156113985780820380516001836020036101000a031916815260200191505b50925050506040516020818303038152906040528051906020012014155b156113f1576001608060020a03198a1660009081526007602090815260409091208a516113eb926001909201918c01906144df565b50600190505b6000885111801561152a5750604080516020808201908152600280860180546000196101006001831615020116919091049383018490529290918291606090910190849080156114825780601f1061145757610100808354040283529160200191611482565b820191906000526020600020905b81548152906001019060200180831161146557829003601f168201915b50509250505060405160208183030381529060405280519060200120886040516020018080602001828103825283818151815260200191508051906020019080838360005b838110156114df5781810151838201526020016114c7565b50505050905090810190601f16801561150c5780820380516001836020036101000a031916815260200191505b50925050506040516020818303038152906040528051906020012014155b15611565576001608060020a03198a166000908152600760209081526040909120895161155f926002909201918b01906144df565b50600190505b6004820154861461159357506001608060020a03198916600090815260076020526040902060040185905560015b600582015485146115c157506001608060020a03198916600090815260076020526040902060050184905560015b600682015484146115ef57506001608060020a03198916600090815260076020526040902060060183905560015b80156117e957896001608060020a0319167fe5e16c8bac0b35f728c96809036d527464a2850cd0ab58970a44d72b107498f68360000160009054906101000a900463ffffffff168460000160049054906101000a9004600160a060020a031685600101866002018760030160009054906101000a9004600160a060020a0316886004015489600501548a60060154604051808963ffffffff1663ffffffff16815260200188600160a060020a0316600160a060020a03168152602001806020018060200187600160a060020a0316600160a060020a0316815260200186815260200185815260200184815260200183810383528981815460018160011615610100020316600290048152602001915080546001816001161561010002031660029004801561175e5780601f106117335761010080835404028352916020019161175e565b820191906000526020600020905b81548152906001019060200180831161174157829003601f168201915b50508381038252885460026000196101006001841615020190911604808252602090910190899080156117d25780601f106117a7576101008083540402835291602001916117d2565b820191906000526020600020905b8154815290600101906020018083116117b557829003601f168201915b50509a505050505050505050505060405180910390a25b9998505050505050505050565b6001608060020a031982166000908152600760209081526040808320600160a060020a038516845260090190915290206001015492915050565b600090815260066020526040902054608060020a0290565b60013360009081526003602052604090206002015460ff16600581111561186b57fe5b1480611897575060023360009081526003602052604090206002015460ff16600581111561189557fe5b145b15156118ed576040805160e560020a62461bcd02815260206004820152600c60248201527f4e4f545f415f4d454d4245520000000000000000000000000000000000000000604482015290519081900360640190fd5b6001608060020a03198516600090815260046020526040902054650100000000009004600160a060020a03161561196e576040805160e560020a62461bcd02815260206004820152601560248201527f444f4d41494e5f414c52454144595f4558495354530000000000000000000000604482015290519081900360640190fd5b60408051610100810190915260018054640100000000900463ffffffff1682526020820190815260200133600160a060020a0316815260200185815260200184815260200183815260200182815260200160006040519080825280602002602001820160405280156119ea578160200160208202803883390190505b5090526001608060020a0319861660009081526004602090815260409091208251815463ffffffff191663ffffffff90911617808255918301519091829064ff000000001916640100000000836002811115611a4257fe5b021790555060408201518154600160a060020a03909116650100000000000278ffffffffffffffffffffffffffffffffffffffff0000000000199091161781556060820151600182015560808201518051611aa79160028401916020909101906144df565b5060a08201518051611ac39160038401916020909101906144df565b5060c08201518051611adf9160048401916020909101906144df565b5060e08201518051611afb91600584019160209091019061455d565b50506001805460405164010000000090910463ffffffff168082526001608060020a0319891693507fb3e08ef90bd1b5938971d100a5221986c383acaf94adb0c7a008f553b776b98b92909133908990899089908990602081018760ff16815260200186600160a060020a0316600160a060020a03168152602001858152602001806020018060200180602001848103845287818151815260200191508051906020019080838360005b83811015611bbd578181015183820152602001611ba5565b50505050905090810190601f168015611bea5780820380516001836020036101000a031916815260200191505b50848103835286518152865160209182019188019080838360005b83811015611c1d578181015183820152602001611c05565b50505050905090810190601f168015611c4a5780820380516001836020036101000a031916815260200191505b50848103825285518152855160209182019187019080838360005b83811015611c7d578181015183820152602001611c65565b50505050905090810190601f168015611caa5780820380516001836020036101000a031916815260200191505b509a505050505050505050505060405180910390a250506001805463ffffffff640100000000808304821684019091160267ffffffff0000000019909116179055505050565b6001608060020a03191660009081526004602052604090206001015490565b6001608060020a031981166000908152600560209081526040918290206002908101805484516001821615610100026000190190911692909204601f81018490048402830184019094528382526060939192909190830182828015611db55780601f10611d8a57610100808354040283529160200191611db5565b820191906000526020600020905b815481529060010190602001808311611d9857829003601f168201915b50505050509050919050565b6001608060020a031981166000908152600760205260409020546401000000009004600160a060020a03161515611e30576040805160e560020a62461bcd02815260206004820152600e6024820152600080516020614d66833981519152604482015290519081900360640190fd5b50565b600160a060020a03811660009081526003602090815260409182902080548351601f6002600019610100600186161502019093169290920491820184900484028101840190945280845260609392830182828015611db55780601f10611d8a57610100808354040283529160200191611db5565b6001608060020a031981166000908152600760205260409020546401000000009004600160a060020a03161515611f16576040805160e560020a62461bcd02815260206004820152600e6024820152600080516020614d66833981519152604482015290519081900360640190fd5b6001608060020a031981166000908152600760205260409020546401000000009004600160a060020a03163314611e30576040805160e560020a62461bcd02815260206004820152600e6024820152600080516020614d86833981519152604482015290519081900360640190fd5b6001608060020a03198416600090815260046020526040902054650100000000009004600160a060020a03161515612007576040805160e560020a62461bcd02815260206004820152600e60248201527f4e4f5f535543485f444f4d41494e000000000000000000000000000000000000604482015290519081900360640190fd5b6001608060020a03198416600090815260046020526040902054650100000000009004600160a060020a03163314612077576040805160e560020a62461bcd02815260206004820152600e6024820152600080516020614d86833981519152604482015290519081900360640190fd5b6001608060020a03198516600090815260056020526040902054608060020a900460ff1660038111156120a657fe5b60ff16156120fe576040805160e560020a62461bcd02815260206004820152601360248201527f4e4f44455f414c52454144595f50414952454400000000000000000000000000604482015290519081900360640190fd5b600082815260066020526040902054608060020a026001608060020a03191615612172576040805160e560020a62461bcd02815260206004820152601260248201527f4455504c49434154455f4e4f44455f4b45590000000000000000000000000000604482015290519081900360640190fd5b600183600381111561218057fe5b60ff16148061219c57506003838181111561219757fe5b60ff16145b15156121f2576040805160e560020a62461bcd02815260206004820152601160248201527f494e56414c49445f4e4f44455f54595045000000000000000000000000000000604482015290519081900360640190fd5b608060405190810160405280856001608060020a031916815260200184600381111561221a57fe5b8152602080820185905260409182018490526001608060020a03198881166000908152600583529290922083518154909316608060020a93849004178082559184015190929091839170ff00000000000000000000000000000000199091169083600381111561228657fe5b021790555060408201516001820155606082015180516122b09160028401916020909101906144df565b505050600082815260066020908152604080832080546001608060020a0319908116608060020a8b0490811790925588811680865260048552838620600501805460018181018355918852868820600282040180546001608060020a03929093166010026101000a918202199092169402939093179092558251908a1681528084018790526060928101838152865193820193909352855191947fb3d59b15ab99282c8dd963009b3b6c9d12c2422dcf7ee81f9c67c8c0996cb9ec948b9489948994939192608085019290860191908190849084905b8381101561239e578181015183820152602001612386565b50505050905090810190601f1680156123cb5780820380516001836020036101000a031916815260200191505b5094505050505060405180910390a25050505050565b600254600160a060020a031681565b6001608060020a0319811660009081526004602090815260409182902060030180548351601f6002600019610100600186161502019093169290920491820184900484028101840190945280845260609392830182828015611db55780601f10611d8a57610100808354040283529160200191611db5565b6124713361437e565b565b3360009081526003602052604090206002015460ff16600581111561249457fe5b156124e9576040805160e560020a62461bcd02815260206004820152601960248201527f4d454d4245525f414c52454144595f5245474953544552454400000000000000604482015290519081900360640190fd5b60405160200180806020018281038252602e815260200180614da6602e913960400191505060405160208183030381529060405280519060200120826040516020018080602001828103825283818151815260200191508051906020019080838360005b8381101561256557818101518382015260200161254d565b50505050905090810190601f1680156125925780820380516001836020036101000a031916815260200191505b509250505060405160208183030381529060405280519060200120141515612604576040805160e560020a62461bcd02815260206004820152600c60248201527f494e56414c49445f45554c410000000000000000000000000000000000000000604482015290519081900360640190fd5b6040805160608101825283815260208082018490526001828401523360009081526003825292909220815180519293919261264292849201906144df565b50602082810151805161265b92600185019201906144df565b50604082015160028201805460ff1916600183600581111561267957fe5b021790555090505033600160a060020a03167ff80f80714d0c23a9fad9abecbe04fa405bb13477a68a69a520886c0bb9853b29838360016040518080602001806020018460058111156126c857fe5b60ff168152602001838103835286818151815260200191508051906020019080838360005b838110156127055781810151838201526020016126ed565b50505050905090810190601f1680156127325780820380516001836020036101000a031916815260200191505b50838103825285518152855160209182019187019080838360005b8381101561276557818101518382015260200161274d565b50505050905090810190601f1680156127925780820380516001836020036101000a031916815260200191505b509550505050505060405180910390a25050565b6127af33613df5565b15156127ba57600080fd5b3360009081526003602052604090206002015460ff1660058111156127db57fe5b1515612831576040805160e560020a62461bcd02815260206004820152600e60248201527f4e4f5f535543485f4d454d424552000000000000000000000000000000000000604482015290519081900360640190fd5b600160a060020a0382166000908152600360205260409020600201805482919060ff1916600183600581111561286357fe5b02179055505050565b6001608060020a03198116600090815260076020818152604092839020909101805483518184028101840190945280845260609392830182828015611db557602002820191906000526020600020905b8154600160a060020a031681526001909101906020018083116128bc5750505050509050919050565b6001608060020a0319166000908152600760205260409020546401000000009004600160a060020a031690565b600160a060020a031660009081526003602052604090206002015460ff1690565b6001608060020a03191660009081526007602052604090206004015490565b600160a060020a0316600090815260086020526040902054608060020a0290565b6001608060020a031982166000908152600760209081526040808320600160a060020a038516845260090190915290205460ff1692915050565b6001608060020a03198116600090815260076020908152604091829020600190810180548451600293821615610100026000190190911692909204601f81018490048402830184019094528382526060939192909190830182828015611db55780601f10611d8a57610100808354040283529160200191611db5565b612a3233613df5565b1515612a3d57600080fd5b611e30816143c6565b6001546001608060020a03198816600090815260076020526040902054600160a060020a03680100000000000000009092048216916401000000009091041615612ada576040805160e560020a62461bcd02815260206004820152601560248201527f4d41524b45545f414c52454144595f4558495354530000000000000000000000604482015290519081900360640190fd5b600160a060020a0385161515612b3a576040805160e560020a62461bcd02815260206004820152600d60248201527f494e56414c49445f4d414b455200000000000000000000000000000000000000604482015290519081900360640190fd5b600160a060020a038516600090815260086020526040902054608060020a026001608060020a03191615612ba25760405160e560020a62461bcd028152600401808060200182810382526026815260200180614d406026913960400191505060405180910390fd5b60008410158015612c1a575080600160a060020a03166318160ddd6040518163ffffffff1660e060020a02815260040160206040518083038186803b158015612bea57600080fd5b505afa158015612bfe573d6000803e3d6000fd5b505050506040513d6020811015612c1457600080fd5b50518411155b1515612c70576040805160e560020a62461bcd02815260206004820152601960248201527f494e56414c49445f50524f56494445525f534543555249545900000000000000604482015290519081900360640190fd5b60008310158015612ce8575080600160a060020a03166318160ddd6040518163ffffffff1660e060020a02815260040160206040518083038186803b158015612cb857600080fd5b505afa158015612ccc573d6000803e3d6000fd5b505050506040513d6020811015612ce257600080fd5b50518311155b1515612d3e576040805160e560020a62461bcd02815260206004820152601960248201527f494e56414c49445f434f4e53554d45525f534543555249545900000000000000604482015290519081900360640190fd5b60008210158015612dc457506298968081600160a060020a03166318160ddd6040518163ffffffff1660e060020a02815260040160206040518083038186803b158015612d8a57600080fd5b505afa158015612d9e573d6000803e3d6000fd5b505050506040513d6020811015612db457600080fd5b505103670de0b6b3a76400000282105b1515612e1a576040805160e560020a62461bcd02815260206004820152601260248201527f494e56414c49445f4d41524b45545f4645450000000000000000000000000000604482015290519081900360640190fd5b604080516101408101825260015463ffffffff168152336020808301919091528183018a905260608201899052600160a060020a038816608083015260a0820187905260c0820186905260e0820185905282516000808252818301855261010084019190915283518181529182019093529091610120830191905090526001608060020a031989166000908152600760209081526040918290208351815485840151600160a060020a03166401000000000277ffffffffffffffffffffffffffffffffffffffff000000001963ffffffff90931663ffffffff199092169190911791909116178155918301518051612f1892600185019201906144df565b5060608201518051612f349160028401916020909101906144df565b50608082015160038201805473ffffffffffffffffffffffffffffffffffffffff1916600160a060020a0390921691909117905560a0820151600482015560c0820151600582015560e082015160068201556101008201518051612fa291600784019160209091019061460f565b506101208201518051612fbf91600884019160209091019061460f565b50506040805180820190915290508060028152600060209182018190526001608060020a03198b1681526007825260408082203383526009019092522081518154829060ff1916600183600481111561301457fe5b02179055506020820151816001015590505060076000896001608060020a0319166001608060020a03191681526020019081526020016000206008018590806001815401808255809150509060018203906000526020600020016000909192909190916101000a815481600160a060020a030219169083600160a060020a0316021790555050876008600087600160a060020a0316600160a060020a0316815260200190815260200160002060006101000a8154816001608060020a030219169083608060020a90040217905550600160009054906101000a900463ffffffff16600101600160006101000a81548163ffffffff021916908363ffffffff160217905550876001608060020a0319167f4bd7c78d90ab88f388bfeb546e0c4420507a56234e8f64c32e3f880f3538ce94600160009054906101000a900463ffffffff16338a8a8a8a8a8a604051808963ffffffff1663ffffffff16815260200188600160a060020a0316600160a060020a03168152602001806020018060200187600160a060020a0316600160a060020a03168152602001868152602001858152602001848152602001838103835289818151815260200191508051906020019080838360005b838110156131f35781810151838201526020016131db565b50505050905090810190601f1680156132205780820380516001836020036101000a031916815260200191505b5083810382528851815288516020918201918a019080838360005b8381101561325357818101518382015260200161323b565b50505050905090810190601f1680156132805780820380516001836020036101000a031916815260200191505b509a505050505050505050505060405180910390a25050505050505050565b6001608060020a031916600090815260056020526040902054608060020a0290565b6001608060020a0319811660009081526004602081815260409283902090910180548351601f6002600019610100600186161502019093169290920491820184900484028101840190945280845260609392830182828015611db55780601f10611d8a57610100808354040283529160200191611db5565b6001608060020a03191660009081526007602052604090206005015490565b6001608060020a031981166000908152600760209081526040918290206002908101805484516001821615610100026000190190911692909204601f81018490048402830184019094528382526060939192909190830182828015611db55780601f10611d8a57610100808354040283529160200191611db5565b60013360009081526003602052604090206002015460ff1660058111156133f657fe5b1480613422575060023360009081526003602052604090206002015460ff16600581111561342057fe5b145b1515613478576040805160e560020a62461bcd02815260206004820152600c60248201527f4e4f545f415f4d454d4245520000000000000000000000000000000000000000604482015290519081900360640190fd5b6001608060020a03198116600090815260046020526040902054650100000000009004600160a060020a031615156134fa576040805160e560020a62461bcd02815260206004820152600e60248201527f4e4f5f535543485f444f4d41494e000000000000000000000000000000000000604482015290519081900360640190fd5b6001608060020a03198116600090815260046020526040902054650100000000009004600160a060020a0316331461356a576040805160e560020a62461bcd02815260206004820152600e6024820152600080516020614d86833981519152604482015290519081900360640190fd5b60016001608060020a03198216600090815260046020526040902054640100000000900460ff16600281111561359c57fe5b146135f1576040805160e560020a62461bcd02815260206004820152601160248201527f444f4d41494e5f4e4f545f414354495645000000000000000000000000000000604482015290519081900360640190fd5b6001608060020a03198116600081815260046020908152604091829020805464ff00000000191664020000000017905581516002815291517f276aca339c66951bcad57d5ee78858b2ce183c4a230417461c550556c8b9f69e9281900390910190a250565b6001608060020a031916600090815260046020526040902054650100000000009004600160a060020a031690565b6001608060020a03191660009081526005602052604090206001015490565b6001608060020a031983166000908152600760205260408120546401000000009004600160a060020a03161515613712576040805160e560020a62461bcd02815260206004820152600e6024820152600080516020614d66833981519152604482015290519081900360640190fd5b6000843385600086603c61372461467d565b6001608060020a03199096168652600160a060020a039485166020870152928416604080870191909152919093166060850152608084019290925263ffffffff1660a0830152519081900360c001906000f080158015613788573d6000803e3d6000fd5b50600154604080517f23b872dd000000000000000000000000000000000000000000000000000000008152336004820152600160a060020a03808516602483015260448201889052915193945068010000000000000000909204169160009183916323b872dd9160648082019260209290919082900301818787803b15801561381057600080fd5b505af1158015613824573d6000803e3d6000fd5b505050506040513d602081101561383a57600080fd5b5051905080151561387f5760405160e560020a62461bcd028152600401808060200182810382526021815260200180614dd46021913960400191505060405180910390fd5b6001608060020a0319871660008181526007602081815260408084209283018054600181018255908552828520018054600160a060020a03808b1673ffffffffffffffffffffffffffffffffffffffff19909216821790925594869052925481513381528c8516938101939093526401000000009004909216818301526060810192909252517fab16e035d6a70660787e6c73a898a50b8fdc5e3fb07b087455e64af81a6bb25d9181900360800190a2509095945050505050565b6001608060020a031983166000908152600760205260409020546401000000009004600160a060020a031615156139a9576040805160e560020a62461bcd02815260206004820152600e6024820152600080516020614d66833981519152604482015290519081900360640190fd5b6001608060020a03198316600090815260076020526040902060030154600160a060020a03161515613a25576040805160e560020a62461bcd02815260206004820152601660248201527f4e4f5f4143544956455f4d41524b45545f4d414b455200000000000000000000604482015290519081900360640190fd5b6001608060020a03198316600081815260076020908152604091829020600301548251600160a060020a03918216815290861691810191909152338183015260608101849052600a608082015290517f1c3be017379c486bade742062ae83c3a0a25974e898e26fd98a221d0c53d9dca9181900360a00190a2505050565b6001608060020a031916600090815260046020526040902054640100000000900460ff1690565b6001608060020a031916600090815260076020526040902060030154600160a060020a031690565b6001608060020a03198116600090815260056020526040902054608060020a900460ff166003811115613b2157fe5b60ff161515613b7a576040805160e560020a62461bcd02815260206004820152600c60248201527f4e4f5f535543485f4e4f44450000000000000000000000000000000000000000604482015290519081900360640190fd5b6001608060020a0319808216600090815260056020908152604080832054608060020a029093168252600490522054650100000000009004600160a060020a03163314613bff576040805160e560020a62461bcd02815260206004820152600e6024820152600080516020614d86833981519152604482015290519081900360640190fd5b6001608060020a031981166000818152600560208181526040808420805460018201805470ffffffffffffffffffffffffffffffffff19831684559087905583518086019485905287815297909652939092529351608060020a90920293613c6c926002909201916144df565b5060008181526006602090815260409182902080546001608060020a0319908116909155825186821681529251908516927f22c6b34a83af23cbec20674e179fd0e690b13a36e294868475fb35a10c26811392908290030190a2505050565b60606003600083600160a060020a0316600160a060020a031681526020019081526020016000206001018054600181600116156101000203166002900480601f016020809104026020016040519081016040528092919081815260200182805460018160011615610100020316600290048015611db55780601f10611d8a57610100808354040283529160200191611db5565b6001608060020a03198116600090815260076020908152604091829020600801805483518184028101840190945280845260609392830182828015611db557602002820191906000526020600020908154600160a060020a031681526001909101906020018083116128bc5750505050509050919050565b6001608060020a03191660009081526007602052604090206006015490565b6000613e07818363ffffffff61440e16565b92915050565b6001608060020a031916600090815260056020526040902054608060020a900460ff1690565b3360009081526003602052604090206002015460ff166005811115613e5457fe5b1515613eaa576040805160e560020a62461bcd02815260206004820152600e60248201527f4e4f5f535543485f4d454d424552000000000000000000000000000000000000604482015290519081900360640190fd5b336000908152600360208190526040909120600201805460ff191660018302179055506040805133815290517fa59e3b52cc428f9ef295563b34bd6af71489d571edf9d7f38ba0e977d0abc6cf9181900360200190a1565b6001608060020a031981166000908152600460209081526040918290206002908101805484516001821615610100026000190190911692909204601f81018490048402830184019094528382526060939192909190830182828015611db55780601f10611d8a57610100808354040283529160200191611db5565b6001608060020a031982166000908152600760205260408120546401000000009004600160a060020a03161515613fec576040805160e560020a62461bcd02815260206004820152600e6024820152600080516020614d66833981519152604482015290519081900360640190fd5b6001608060020a03198316600090815260076020908152604080832033845260090190915290205460ff16600481111561402257fe5b60ff161561407a576040805160e560020a62461bcd02815260206004820152601460248201527f4143544f525f414c52454144595f4a4f494e4544000000000000000000000000604482015290519081900360640190fd5b600282600481111561408857fe5b60ff1614806140a5575060038260048111156140a057fe5b60ff16145b806140bd5750600482818111156140b857fe5b60ff16145b15156140c857600080fd5b600060038360048111156140d857fe5b60ff16141561410457506001608060020a03198316600090815260076020526040902060040154614141565b6004838181111561411157fe5b60ff16141561413d57506001608060020a03198316600090815260076020526040902060050154614141565b5060005b600154604080517f23b872dd00000000000000000000000000000000000000000000000000000000815233600482015230602482015260448101849052905168010000000000000000909204600160a060020a03169160009183916323b872dd9160648082019260209290919082900301818787803b1580156141c357600080fd5b505af11580156141d7573d6000803e3d6000fd5b505050506040513d60208110156141ed57600080fd5b50519050801515614248576040805160e560020a62461bcd02815260206004820181905260248201527f4a4f494e5f4d41524b45545f5452414e534645525f46524f4d5f4641494c4544604482015290519081900360640190fd5b604080519081016040528086600481111561425f57fe5b815260209081018590526001608060020a0319881660009081526007825260408082203383526009019092522081518154829060ff191660018360048111156142a457fe5b02179055506020918201516001918201556001608060020a03198816600081815260078452604080822060080180549485018155825290849020909201805473ffffffffffffffffffffffffffffffffffffffff191633908117909155915182815290927fc3b1ce444aaba0433920dfc940f56a5a9d00d97a0300340b4c79e237078a7c0c92918991889190810183600481111561433e57fe5b60ff168152602001828152602001935050505060405180910390a25090949350505050565b600154680100000000000000009004600160a060020a031681565b61438f60008263ffffffff61444516565b604051600160a060020a038216907fa7b36d52bea726c3aa90d876d0e52a1089a347b3e3408a03f08eae32f96fdbb490600090a250565b6143d760008263ffffffff61449116565b604051600160a060020a038216907f1390a149489c82e9e2e89927bdb17ad1ea3f0cc314fce06c96369721d3afb8f090600090a250565b6000600160a060020a038216151561442557600080fd5b50600160a060020a03166000908152602091909152604090205460ff1690565b600160a060020a038116151561445a57600080fd5b614464828261440e565b151561446f57600080fd5b600160a060020a0316600090815260209190915260409020805460ff19169055565b600160a060020a03811615156144a657600080fd5b6144b0828261440e565b156144ba57600080fd5b600160a060020a0316600090815260209190915260409020805460ff19166001179055565b828054600181600116156101000203166002900490600052602060002090601f016020900481019282601f1061452057805160ff191683800117855561454d565b8280016001018555821561454d579182015b8281111561454d578251825591602001919060010190614532565b5061455992915061468d565b5090565b828054828255906000526020600020906001016002900481019282156146035791602002820160005b838211156145ce57835183826101000a8154816001608060020a030219169083608060020a900402179055509260200192601001602081600f01049283019260010302614586565b80156146015782816101000a8154906001608060020a030219169055601001602081600f010492830192600103026145ce565b505b506145599291506146aa565b828054828255906000526020600020908101928215614671579160200282015b82811115614671578251825473ffffffffffffffffffffffffffffffffffffffff1916600160a060020a0390911617825560209092019160019091019061462f565b506145599291506146ce565b6040516106408061470083390190565b6146a791905b808211156145595760008155600101614693565b90565b6146a791905b808211156145595780546001608060020a03191681556001016146b0565b6146a791905b8082111561455957805473ffffffffffffffffffffffffffffffffffffffff191681556001016146d456fe608060405234801561001057600080fd5b5060405160c080610640833981018060405260c081101561003057600080fd5b508051602082015160408301516060840151608085015160a09095015160008054610100608860020a0319166101007001000000000000000000000000000000009097049690960295909517855560018054600160a060020a0319908116600160a060020a03968716179091556002805482169486169490941790935560038054909316939091169290921790556004929092556007805463ffffffff191663ffffffff909316929092179091554360055561054e9081906100f290396000f3fe608060405234801561001057600080fd5b50600436106100bb576000357c01000000000000000000000000000000000000000000000000000000009004806370dea79a1161008357806370dea79a146101625780639d3718951461016c5780639ef27b00146101b0578063aa8c217c146101b8578063c89e4361146101c0576100bb565b80632ef2d55e146100c057806338930203146100e157806366d003ac146100fb57806367e404ce1461012c5780636ed71ede14610134575b600080fd5b6100c86101c8565b6040805163ffffffff9092168252519081900360200190f35b6100e96101d4565b60408051918252519081900360200190f35b6101036101da565b6040805173ffffffffffffffffffffffffffffffffffffffff9092168252519081900360200190f35b6101036101f6565b61013c610212565b604080516fffffffffffffffffffffffffffffffff199092168252519081900360200190f35b61016a610230565b005b61016a600480360360c081101561018257600080fd5b5080359060ff6020820135169060408101359060608101359063ffffffff6080820135169060a001356102f4565b6100e96104b0565b6100e96104b6565b6101036104bc565b60075463ffffffff1690565b60055490565b60035473ffffffffffffffffffffffffffffffffffffffff1690565b60015473ffffffffffffffffffffffffffffffffffffffff1690565b60005461010090047001000000000000000000000000000000000290565b60065415610288576040805160e560020a62461bcd02815260206004820152601660248201527f4348414e4e454c5f414c52454144595f434c4f53454400000000000000000000604482015290519081900360640190fd5b6007546005544263ffffffff9092160111156102ee576040805160e560020a62461bcd02815260206004820152600f60248201527f6368616e6e656c2074696d656f75740000000000000000000000000000000000604482015290519081900360640190fd5b43600655565b60008060018888888860405160008152602001604052604051808581526020018460ff1660ff1681526020018381526020018281526020019450505050506020604051602081039080840390855afa158015610354573d6000803e3d6000fd5b5050604051601f19015160015490935073ffffffffffffffffffffffffffffffffffffffff808516911614801591506103a8575060035473ffffffffffffffffffffffffffffffffffffffff838116911614155b156103fd576040805160e560020a62461bcd02815260206004820152601160248201527f696e76616c6964207369676e6174757265000000000000000000000000000000604482015290519081900360640190fd5b50604080516c0100000000000000000000000030026020808301919091527c010000000000000000000000000000000000000000000000000000000063ffffffff8716026034830152603880830186905283518084039091018152605890920190925280519101208781146104a65760405160e560020a62461bcd02815260040180806020018281038252604a8152602001806104d9604a913960600191505060405180910390fd5b5050505050505050565b60065490565b60045490565b60025473ffffffffffffffffffffffffffffffffffffffff169056fe696e76616c6964207369676e617475726520287369676e61747572652069732076616c69642062757420646f65736e2774206d617463682074686520646174612070726f766964656429a165627a7a7230582066279392851f52c4e99185bb0bd2d49787212a69da27e07155ba6a0d2ea6f1f300294d414b45525f414c52454144595f574f524b494e475f464f525f4f544845525f4d41524b45544e4f5f535543485f4d41524b45540000000000000000000000000000000000004e4f545f415554484f52495a4544000000000000000000000000000000000000516d553747697a6272653137783656325652315132474a456a7a366d38533162586d427456785332766d766238314f50454e5f4348414e4e454c5f5452414e534645525f46524f4d5f4641494c4544a165627a7a72305820c839fe225bf18a7f8c5f807b01926a1040e3b99a7ac3e061ab99d71f984dc4a00029",
  "source": "///////////////////////////////////////////////////////////////////////////////\n//\n//  Copyright (C) 2018 Crossbar.io Technologies GmbH and contributors.\n//\n//  Licensed under the Apache License, Version 2.0 (the \"License\");\n//  you may not use this file except in compliance with the License.\n//  You may obtain a copy of the License at\n//\n//      http://www.apache.org/licenses/LICENSE-2.0\n//\n//  Unless required by applicable law or agreed to in writing, software\n//  distributed under the License is distributed on an \"AS IS\" BASIS,\n//  WITHOUT WARRANTIES OR CONDITIONS OF ANY KIND, either express or implied.\n//  See the License for the specific language governing permissions and\n//  limitations under the License.\n//\n///////////////////////////////////////////////////////////////////////////////\n\npragma solidity ^0.5.2;\n\n// https://openzeppelin.org/api/docs/math_SafeMath.html\nimport \"openzeppelin-solidity/contracts/math/SafeMath.sol\";\n\nimport \"./XBRToken.sol\";\nimport \"./XBRMaintained.sol\";\nimport \"./XBRPaymentChannel.sol\";\n\n\n/**\n * @title XBR Network main smart contract.\n * @author The XBR Project\n */\ncontract XBRNetwork is XBRMaintained {\n\n    // Add safe math functions to uint256 using SafeMath lib from OpenZeppelin\n    using SafeMath for uint256;\n\n    // //////// enums\n\n    /// XBR Network membership levels\n    enum MemberLevel { NULL, ACTIVE, VERIFIED, RETIRED, PENALTY, BLOCKED }\n\n    /// XBR Market Actor types\n    enum ActorType { NULL, NETWORK, MARKET, PROVIDER, CONSUMER }\n\n    /// XBR Domain status values\n    enum DomainStatus { NULL, ACTIVE, CLOSED }\n\n    /// XBR Carrier Node types\n    enum NodeType { NULL, MASTER, CORE, EDGE }\n\n    // //////// container types\n\n    /// Container type for holding XBR Network membership information.\n    struct Member {\n        string eula;\n        string profile;\n        MemberLevel level;\n    }\n\n    /// Container type for holding XBR Domain information.\n    struct Domain {\n        /// Domain sequence.\n        uint32 domainSeq;\n\n        /// Domain status\n        DomainStatus status;\n\n        /// Domain owner.\n        address owner;\n\n        /// Domain signing key (Ed25519 public key).\n        bytes32 domainKey;\n\n        /// Software stack license file on IPFS (required).\n        string license;\n\n        /// Optional domain terms on IPFS.\n        string terms;\n\n        /// Optional domain metadata on IPFS.\n        string meta;\n\n        /// Nodes within the domain.\n        bytes16[] nodes;\n    }\n\n    /// Container type for holding XBR Domain Nodes information.\n    struct Node {\n        bytes16 domain;\n\n        /// Type of node.\n        NodeType nodeType;\n\n        /// Node key (Ed25519 public key).\n        bytes32 key;\n\n        /// Optional (encrypted) node configuration on IPFS.\n        string config;\n    }\n\n    /// Container type for holding XBR Market information.\n    struct Market {\n        uint32 marketSeq;\n        address owner;\n        string terms;\n        string meta;\n        address maker;\n        uint256 providerSecurity;\n        uint256 consumerSecurity;\n        uint256 marketFee;\n        address[] channels;\n        address[] actorAddresses;\n        mapping(address => Actor) actors;\n    }\n\n    /// Container type for holding XBR Market Actors information.\n    struct Actor {\n        ActorType actorType;\n        uint256 security;\n    }\n\n    /// Container type for holding paying channel request information. FIXME: make this event-based (to save gas).\n    struct PayingChannelRequest {\n        bytes16 marketId;\n        address sender;\n        address delegate;\n        address recipient;\n        uint256 amount;\n        uint32 timeout;\n    }\n\n    // //////// events for MEMBERS\n\n    /// Event emitted when a new member joined the XBR Network.\n    event MemberCreated (address indexed member, string eula, string profile, MemberLevel level);\n\n    /// Event emitted when a member leaves the XBR Network.\n    event MemberRetired (address member);\n\n    // //////// events for DOMAINS\n\n    /// Event emitted when a new domain was created.\n    event DomainCreated (bytes16 indexed domainId, uint32 domainSeq, DomainStatus status, address owner,\n        bytes32 domainKey, string license, string terms, string meta);\n\n    /// Event emitted when a domain was updated.\n    event DomainUpdated (bytes16 indexed domainId, uint32 domainSeq, DomainStatus status, address owner,\n        bytes32 domainKey, string license, string terms, string meta);\n\n    /// Event emitted when a domain was closed.\n    event DomainClosed (bytes16 indexed domainId, DomainStatus status);\n\n    /// Event emitted when a new node was paired with the domain.\n    event NodePaired (bytes16 indexed domainId, bytes16 nodeId, bytes32 nodeKey, string config);\n\n    /// Event emitted when a node was updated.\n    event NodeUpdated (bytes16 indexed domainId, bytes16 nodeId, bytes32 nodeKey, string config);\n\n    /// Event emitted when a node was released from a domain.\n    event NodeReleased (bytes16 indexed domainId, bytes16 nodeId);\n\n    // //////// events for MARKETS\n\n    /// Event emitted when a new market was created.\n    event MarketCreated (bytes16 indexed marketId, uint32 marketSeq, address owner, string terms, string meta,\n        address maker, uint256 providerSecurity, uint256 consumerSecurity, uint256 marketFee);\n\n    /// Event emitted when a market was updated.\n    event MarketUpdated (bytes16 indexed marketId, uint32 marketSeq, address owner, string terms, string meta,\n        address maker, uint256 providerSecurity, uint256 consumerSecurity, uint256 marketFee);\n\n    /// Event emitted when a market was closed.\n    event MarketClosed (bytes16 indexed marketId);\n\n    /// Event emitted when a new actor joined a market.\n    event ActorJoined (bytes16 indexed marketId, address actor, ActorType actorType, uint256 security);\n\n    /// Event emitted when an actor has left a market.\n    event ActorLeft (bytes16 indexed marketId, address actor);\n\n    /// Event emitted when a new payment channel was created in a market.\n    event PaymentChannelCreated (bytes16 indexed marketId, address sender, address delegate,\n        address receiver, address channel);\n\n    /// Event emitted when a new request for a paying channel was created in a market.\n    event PayingChannelRequestCreated (bytes16 indexed marketId, address sender, address delegate,\n        address receiver, uint256 amount, uint32 timeout);\n\n    // Note: closing event of payment channels are emitted from XBRPaymentChannel (not from here)\n\n    // Created markets are sequence numbered using this counter (to allow deterministic collison-free IDs for markets)\n    uint32 private marketSeq = 1;\n\n    // Created domains are sequence numbered using this counter (to allow deterministic collison-free IDs for domains)\n    uint32 private domainSeq = 1;\n\n    /// Address of the XBR Network ERC20 token (XBR for the CrossbarFX technology stack)\n    address public token;\n\n    /// Address of the `XBR Network Organization <https://xbr.network/>`_\n    address public organization;\n\n    /// Current XBR Network members (\"member directory\").\n    mapping(address => Member) private members;\n\n    /// Current XBR Domains (\"domain directory\")\n    mapping(bytes16 => Domain) private domains;\n\n    /// Current XBR Nodes (\"node directory\");\n    mapping(bytes16 => Node) private nodes;\n\n    /// Index: node public key => (market ID, node ID)\n    mapping(bytes32 => bytes16) private nodesByKey;\n\n    /// Current XBR Markets (\"market directory\")\n    mapping(bytes16 => Market) private markets;\n\n    /// Index: maker address => market ID\n    mapping(address => bytes16) private marketsByMaker;\n\n    /**\n     * Create a new network.\n     *\n     * @param token_ The token to run this network on.\n     * @param organization_ The network technology provider and ecosystem sponsor.\n     */\n    constructor (address token_, address organization_) public {\n        token = token_;\n        organization = organization_;\n\n        members[msg.sender] = Member(\"\", \"\", MemberLevel.VERIFIED);\n    }\n\n    /**\n     * Join the XBR Network. All XBR stakeholders, namely XBR Data Providers,\n     * XBR Data Consumers, XBR Data Markets and XBR Data Clouds, must register\n     * with the XBR Network on the global blockchain by calling this function.\n     *\n     * @param eula The IPFS Multihash of the XBR EULA being agreed to and stored as one ZIP file archive on IPFS.\n     *             Currently, this must be equal to \"QmU7Gizbre17x6V2VR1Q2GJEjz6m8S1bXmBtVxS2vmvb81\"\n     * @param profile Optional public member profile: the IPFS Multihash of the member profile stored in IPFS.\n     */\n    function register (string memory eula, string memory profile) public {\n        require(uint(members[msg.sender].level) == 0, \"MEMBER_ALREADY_REGISTERED\");\n        require(keccak256(abi.encode(eula)) ==\n                keccak256(abi.encode(\"QmU7Gizbre17x6V2VR1Q2GJEjz6m8S1bXmBtVxS2vmvb81\")), \"INVALID_EULA\");\n\n        members[msg.sender] = Member(eula, profile, MemberLevel.ACTIVE);\n\n        emit MemberCreated(msg.sender, eula, profile, MemberLevel.ACTIVE);\n    }\n\n    /**\n     * Leave the XBR Network.\n     */\n    function unregister () public {\n        require(uint(members[msg.sender].level) != 0, \"NO_SUCH_MEMBER\");\n\n        // FIXME: check that the member has no active objects associated anymore\n\n        members[msg.sender].level = MemberLevel.RETIRED;\n\n        emit MemberRetired(msg.sender);\n    }\n\n    /**\n     * Returns XBR Network member level given an address.\n     *\n     * @param member The address to lookup the XBR Network member level for.\n     * @return The current member level of the member.\n     */\n    function getMemberLevel (address member) public view returns (MemberLevel) {\n        return members[member].level;\n    }\n\n    /**\n     * Returns XBR Network member EULA given an address.\n     *\n     * @param member The address to lookup the XBR Network member EULA for.\n     * @return IPFS Multihash pointing to XBR Network EULA file on IPFS.\n     */\n    function getMemberEula (address member) public view returns (string memory) {\n        return members[member].eula;\n    }\n\n    /**\n     * Returns XBR Network member profile given an address.\n     *\n     * @param member The address to lookup the XBR Network member profile for.\n     * @return IPFS Multihash pointing to member profile file on IPFS.\n     */\n    function getMemberProfile (address member) public view returns (string memory) {\n        return members[member].profile;\n    }\n\n    /**\n     * Manually override the member level of a XBR Network member. Being able to do so\n     * currently serves two purposes:\n     *\n     * - having a last resort to handle situation where members violated the EULA\n     * - being able to manually patch things in error/bug cases\n     *\n     * @param member The address of the XBR network member to override member level.\n     * @param level The member level to set the member to.\n     */\n    function setMemberLevel (address member, MemberLevel level) public onlyMaintainer {\n        require(uint(members[msg.sender].level) != 0, \"NO_SUCH_MEMBER\");\n\n        members[member].level = level;\n    }\n\n    /**\n     *  Create a new XBR domain. Then sender to the transaction must be XBR network member\n     *  and automatically becomes owner of the new domain.\n     *\n     *  @param domainId The ID of the domain to create. Must be globally unique (not yet existing).\n     *  @param domainKey The domain signing key. A Ed25519 (https://ed25519.cr.yp.to/) public key.\n     *  @param license The license for the software stack running the domain. IPFS Multihash\n     *                 pointing to a JSON/YAML file signed by the project release key.\n     */\n    function createDomain (bytes16 domainId, bytes32 domainKey, string memory license,\n        string memory terms, string memory meta) public {\n\n        require(members[msg.sender].level == MemberLevel.ACTIVE ||\n                members[msg.sender].level == MemberLevel.VERIFIED, \"NOT_A_MEMBER\");\n\n        require(domains[domainId].owner == address(0), \"DOMAIN_ALREADY_EXISTS\");\n\n        domains[domainId] = Domain(domainSeq, DomainStatus.ACTIVE, msg.sender, domainKey,\n                                    license, terms, meta, new bytes16[](0));\n\n        emit DomainCreated(domainId, domainSeq, DomainStatus.ACTIVE, msg.sender, domainKey,\n                            license, terms, meta);\n\n        domainSeq = domainSeq + 1;\n    }\n\n    /**\n     * Close an existing XBR domain. The sender must be owner of the domain, and the domain\n     * must not have any nodes paired (anymore).\n     *\n     * @param domainId The ID of the domain to close.\n     */\n    function closeDomain (bytes16 domainId) public {\n        require(members[msg.sender].level == MemberLevel.ACTIVE ||\n                members[msg.sender].level == MemberLevel.VERIFIED, \"NOT_A_MEMBER\");\n        require(domains[domainId].owner != address(0), \"NO_SUCH_DOMAIN\");\n        require(domains[domainId].owner == msg.sender, \"NOT_AUTHORIZED\");\n        require(domains[domainId].status == DomainStatus.ACTIVE, \"DOMAIN_NOT_ACTIVE\");\n\n        // FIXME: check that the domain has no active objects associated anymore\n\n        domains[domainId].status = DomainStatus.CLOSED;\n\n        emit DomainClosed(domainId, DomainStatus.CLOSED);\n    }\n\n    /**\n     * Returns domain status.\n     *\n     * @param domainId The ID of the domain to lookup status.\n     * @return The current status of the domain.\n     */\n    function getDomainStatus(bytes16 domainId) public view returns (DomainStatus) {\n        return domains[domainId].status;\n    }\n\n    /**\n     * Returns domain owner.\n     *\n     * @param domainId The ID of the domain to lookup owner.\n     * @return The address of the owner of the domain.\n     */\n    function getDomainOwner(bytes16 domainId) public view returns (address) {\n        return domains[domainId].owner;\n    }\n\n    /**\n     * Returns domain (signing) key.\n     *\n     * @param domainId The ID of the domain to lookup key.\n     * @return The Ed25519 public signing key for the domain.\n     */\n    function getDomainKey(bytes16 domainId) public view returns (bytes32) {\n        return domains[domainId].domainKey;\n    }\n\n    /**\n     * Returns domain license.\n     *\n     * @param domainId The ID of the domain to lookup license.\n     * @return IPFS Multihash pointer to domain license file on IPFS.\n     */\n    function getDomainLicense(bytes16 domainId) public view returns (string memory) {\n        return domains[domainId].license;\n    }\n\n    /**\n     * Returns domain terms.\n     *\n     * @param domainId The ID of the domain to lookup terms.\n     * @return IPFS Multihash pointer to domain terms on IPFS.\n     */\n    function getDomainTerms(bytes16 domainId) public view returns (string memory) {\n        return domains[domainId].terms;\n    }\n\n    /**\n     * Returns domain meta data.\n     *\n     * @param domainId The ID of the domain to lookup meta data.\n     * @return IPFS Multihash pointer to domain metadata file on IPFS.\n     */\n    function getDomainMeta(bytes16 domainId) public view returns (string memory) {\n        return domains[domainId].meta;\n    }\n\n    /**\n     * Pair a node with an existing XBR Domain. The sender must be owner of the domain.\n     *\n     * @param nodeId The ID of the node to pair. Must be globally unique (not yet existing).\n     * @param domainId The ID of the domain to pair the node with.\n     * @param nodeType The type of node to pair the node under.\n     * @param nodeKey The Ed25519 public node key.\n     * @param config Optional IPFS Multihash pointing to node configuration stored on IPFS\n     */\n    function pairNode (bytes16 nodeId, bytes16 domainId, NodeType nodeType, bytes32 nodeKey,\n        string memory config) public {\n\n        require(domains[domainId].owner != address(0), \"NO_SUCH_DOMAIN\");\n        require(domains[domainId].owner == msg.sender, \"NOT_AUTHORIZED\");\n        require(uint8(nodes[nodeId].nodeType) == 0, \"NODE_ALREADY_PAIRED\");\n        require(nodesByKey[nodeKey] == bytes16(0), \"DUPLICATE_NODE_KEY\");\n        require(uint8(nodeType) == uint8(NodeType.MASTER) ||\n                uint8(nodeType) == uint8(NodeType.EDGE), \"INVALID_NODE_TYPE\");\n\n        nodes[nodeId] = Node(domainId, nodeType, nodeKey, config);\n        nodesByKey[nodeKey] = nodeId;\n        domains[domainId].nodes.push(nodeId);\n\n        emit NodePaired(domainId, nodeId, nodeKey, config);\n    }\n\n    /**\n     * Release a node currently paired with an XBR domain. The sender must be owner of the domain.\n     *\n     * @param nodeId The ID of the node to release.\n     */\n    function releaseNode (bytes16 nodeId) public {\n        require(uint8(nodes[nodeId].nodeType) != 0, \"NO_SUCH_NODE\");\n        require(domains[nodes[nodeId].domain].owner == msg.sender, \"NOT_AUTHORIZED\");\n\n        bytes16 domainId = nodes[nodeId].domain;\n        bytes32 nodeKey = nodes[nodeId].key;\n\n        nodes[nodeId].domain = bytes16(0);\n        nodes[nodeId].nodeType = NodeType.NULL;\n        nodes[nodeId].key = bytes32(0);\n        nodes[nodeId].config = \"\";\n\n        nodesByKey[nodeKey] = bytes16(0);\n\n        emit NodeReleased(domainId, nodeId);\n    }\n\n    /**\n     * Lookup node ID by node public key.\n     *\n     * @param nodeKey The node public key to lookup\n     * @return The Ed25519 public key of the node.\n     */\n    function getNodeByKey(bytes32 nodeKey) public view returns (bytes16) {\n        return nodesByKey[nodeKey];\n    }\n\n    /**\n     * Returns domain for a node.\n     *\n     * @param nodeId The ID of the node to lookup the domain for.\n     * @return The domain the node is currently paired with.\n     */\n    function getNodeDomain(bytes16 nodeId) public view returns (bytes16) {\n        return nodes[nodeId].domain;\n    }\n\n    /**\n     * Returns node type for a node.\n     *\n     * @param nodeId The ID of the node to lookup the node type for.\n     * @return The node type.\n     */\n    function getNodeType(bytes16 nodeId) public view returns (NodeType) {\n        return nodes[nodeId].nodeType;\n    }\n\n    /**\n     * Returns node public key for a node.\n     *\n     * @param nodeId The ID of the node to lookup the node public key for.\n     * @return The node public key.\n     */\n    function getNodeKey(bytes16 nodeId) public view returns (bytes32) {\n        return nodes[nodeId].key;\n    }\n\n    /**\n     * Returns config for a node.\n     *\n     * @param nodeId The ID of the node to lookup the config for.\n     * @return IPFS Multihash pointer to node config.\n     */\n    function getNodeConfig(bytes16 nodeId) public view returns (string memory) {\n        return nodes[nodeId].config;\n    }\n\n    /**\n     * Create a new XBR market. The sender of the transaction must be XBR network member\n     * and automatically becomes owner of the new market.\n     *\n     * @param marketId The ID of the market to create. Must be unique (not yet existing).\n     * @param terms The XBR market terms set by the market owner. IPFS Multihash pointing\n     *              to a ZIP archive file with market documents.\n     * @param meta The XBR market metadata published by the market owner. IPFS Multihash pointing\n     *             to a RDF/Turtle file with market metadata.\n     * @param maker The address of the XBR market maker that will run this market. The delegate of the market owner.\n     * @param providerSecurity The amount of XBR tokens a XBR provider joining the market must deposit.\n     * @param consumerSecurity The amount of XBR tokens a XBR consumer joining the market must deposit.\n     * @param marketFee The fee taken by the market (beneficiary is the market owner). The fee is a percentage of\n     *                  the revenue of the XBR Provider that receives XBR Token paid for transactions.\n     *                  The fee must be between 0% (inclusive) and 99% (inclusive), and is expressed as\n     *                  a fraction of the total supply of XBR tokens.\n     */\n    function createMarket (bytes16 marketId, string memory terms, string memory meta, address maker,\n        uint256 providerSecurity, uint256 consumerSecurity, uint256 marketFee) public {\n\n        XBRToken _token = XBRToken(token);\n\n        require(markets[marketId].owner == address(0), \"MARKET_ALREADY_EXISTS\");\n        require(maker != address(0), \"INVALID_MAKER\");\n        require(marketsByMaker[maker] == bytes16(0), \"MAKER_ALREADY_WORKING_FOR_OTHER_MARKET\");\n        require(providerSecurity >= 0 && providerSecurity <= _token.totalSupply(), \"INVALID_PROVIDER_SECURITY\");\n        require(consumerSecurity >= 0 && consumerSecurity <= _token.totalSupply(), \"INVALID_CONSUMER_SECURITY\");\n        require(marketFee >= 0 && marketFee < (_token.totalSupply() - 10**7) * 10**18, \"INVALID_MARKET_FEE\");\n\n        markets[marketId] = Market(marketSeq, msg.sender, terms, meta, maker, providerSecurity,\n            consumerSecurity, marketFee, new address[](0), new address[](0));\n\n        markets[marketId].actors[msg.sender] = Actor(ActorType.MARKET, 0);\n        markets[marketId].actorAddresses.push(maker);\n\n        marketsByMaker[maker] = marketId;\n\n        marketSeq = marketSeq + 1;\n\n        emit MarketCreated(marketId, marketSeq, msg.sender, terms, meta, maker,\n                                providerSecurity, consumerSecurity, marketFee);\n    }\n\n    /**\n     * Lookup market ID by market maker address.\n     *\n     * @param maker The market maker address to lookup market for\n     * @return ID of the market maker.\n     */\n    function getMarketByMaker (address maker) public view returns (bytes16) {\n        return marketsByMaker[maker];\n    }\n\n    /**\n     * Returns owner for a market.\n     *\n     * @param marketId The ID of the market to lookup owner for.\n     * @return Address of the owner of the market.\n     */\n    function getMarketOwner (bytes16 marketId) public view returns (address) {\n        return markets[marketId].owner;\n    }\n\n    /**\n     * Returns terms for a market.\n     *\n     * @param marketId The ID of the market to lookup terms for.\n     * @return IPFS Multihash pointer to market terms.\n     */\n    function getMarketTerms (bytes16 marketId) public view returns (string memory) {\n        return markets[marketId].terms;\n    }\n\n    /**\n     * Returns metadata for a market.\n     *\n     * @param marketId The ID of the market to lookup metadata for.\n     * @return IPFS Multihash pointer to market metadata.\n     */\n    function getMarketMeta (bytes16 marketId) public view returns (string memory) {\n        return markets[marketId].meta;\n    }\n\n    /**\n     * Returns market maker for a market.\n     *\n     * @param marketId The ID of the market to lookup the market maker address for.\n     * @return The address of the (offchain) market maker delegate responsible for this market.\n     */\n    function getMarketMaker (bytes16 marketId) public view returns (address) {\n        return markets[marketId].maker;\n    }\n\n    /**\n     * Returns provider security for a market.\n     *\n     * @param marketId The ID of the market to lookup provider security for.\n     * @return The provider security defined in the market.\n     */\n    function getMarketProviderSecurity (bytes16 marketId) public view returns (uint256) {\n        return markets[marketId].providerSecurity;\n    }\n\n    /**\n     * Returns consumer security for a market.\n     *\n     * @param marketId The ID of the market to lookup consumer security for.\n     * @return The consumer security defined in the market.\n     */\n    function getMarketConsumerSecurity (bytes16 marketId) public view returns (uint256) {\n        return markets[marketId].consumerSecurity;\n    }\n\n    /**\n     * Returns market fee for a market.\n     *\n     * @param marketId The ID of the market to lookup market fee for.\n     * @return The fee defined in the market.\n     */\n    function getMarketFee (bytes16 marketId) public view returns (uint256) {\n        return markets[marketId].marketFee;\n    }\n\n    /**\n     * Update market information, like market terms, metadata or maker address.\n     *\n     * @param marketId The ID of the market to update.\n     * @param terms When terms should be updated, provide a string of non-zero length with\n     *              an IPFS Multihash pointing to the new ZIP file with market terms.\n     * @param meta When metadata should be updated, provide a string of non-zero length with\n     *             an IPFS Multihash pointing to the new RDF/Turtle file with market metadata.\n     * @param maker When maker should be updated, provide a non-zero address.\n     * @param providerSecurity Provider security to set that will apply for new members (providers) joining\n     *                         the market. It will NOT apply to current market members.\n     * @param consumerSecurity Consumer security to set that will apply for new members (consumers) joining\n     *                         the market. It will NOT apply to current market members.\n     * @param marketFee New market fee to set. The new market fee will apply to all new payment channels\n     *                  opened. It will NOT apply to already opened (or closed) payment channels.\n     * @return Flag indicating weather the market information was actually updated or left unchanged.\n     */\n    function updateMarket(bytes16 marketId, string memory terms, string memory meta, address maker,\n        uint256 providerSecurity, uint256 consumerSecurity, uint256 marketFee) public returns (bool) {\n\n        Market storage market = markets[marketId];\n\n        require(market.owner != address(0), \"NO_SUCH_MARKET\");\n        require(market.owner == msg.sender, \"NOT_AUTHORIZED\");\n        require(marketsByMaker[maker] == bytes16(0), \"MAKER_ALREADY_WORKING_FOR_OTHER_MARKET\");\n        require(marketFee >= 0 && marketFee < (10**9 - 10**7) * 10**18, \"INVALID_MARKET_FEE\");\n\n        bool wasChanged = false;\n\n        // for these knobs, only update when non-zero values provided\n        if (maker != address(0) && maker != market.maker) {\n            markets[marketId].maker = maker;\n            wasChanged = true;\n        }\n        if (bytes(terms).length > 0 && keccak256(abi.encode(terms)) != keccak256(abi.encode(market.terms))) {\n            markets[marketId].terms = terms;\n            wasChanged = true;\n        }\n        if (bytes(meta).length > 0 && keccak256(abi.encode(meta)) != keccak256(abi.encode(market.meta))) {\n            markets[marketId].meta = meta;\n            wasChanged = true;\n        }\n\n        // for these knobs, we allow updating to zero value\n        if (providerSecurity != market.providerSecurity) {\n            markets[marketId].providerSecurity = providerSecurity;\n            wasChanged = true;\n        }\n        if (consumerSecurity != market.consumerSecurity) {\n            markets[marketId].consumerSecurity = consumerSecurity;\n            wasChanged = true;\n        }\n        if (marketFee != market.marketFee) {\n            markets[marketId].marketFee = marketFee;\n            wasChanged = true;\n        }\n\n        if (wasChanged) {\n            emit MarketUpdated(marketId, market.marketSeq, market.owner, market.terms, market.meta, market.maker,\n                    market.providerSecurity, market.consumerSecurity, market.marketFee);\n        }\n\n        return wasChanged;\n    }\n\n    /**\n     * Close a market. A closed market will not accept new memberships.\n     *\n     * @param marketId The ID of the market to close.\n     */\n    function closeMarket (bytes16 marketId) public view {\n        require(markets[marketId].owner != address(0), \"NO_SUCH_MARKET\");\n        require(markets[marketId].owner == msg.sender, \"NOT_AUTHORIZED\");\n        // FIXME\n    }\n\n    /**\n     * Join the given XBR market as the specified type of actor, which must be PROVIDER or CONSUMER.\n     *\n     * @param marketId The ID of the XBR data market to join.\n     * @param actorType The type of actor under which to join: PROVIDER or CONSUMER.\n     */\n    function joinMarket (bytes16 marketId, ActorType actorType) public returns (uint256) {\n        require(markets[marketId].owner != address(0), \"NO_SUCH_MARKET\");\n        require(uint8(markets[marketId].actors[msg.sender].actorType) == 0, \"ACTOR_ALREADY_JOINED\");\n        require(uint8(actorType) == uint8(ActorType.MARKET) ||\n            uint8(actorType) == uint8(ActorType.PROVIDER) || uint8(actorType) == uint8(ActorType.CONSUMER));\n\n        uint256 security;\n        if (uint8(actorType) == uint8(ActorType.PROVIDER)) {\n            security = markets[marketId].providerSecurity;\n        } else if (uint8(actorType) == uint8(ActorType.CONSUMER)) {\n            security = markets[marketId].consumerSecurity;\n        } else {\n            security = 0;\n        }\n\n        XBRToken _token = XBRToken(token);\n        bool success = _token.transferFrom(msg.sender, address(this), security);\n        require(success, \"JOIN_MARKET_TRANSFER_FROM_FAILED\");\n\n        markets[marketId].actors[msg.sender] = Actor(actorType, security);\n        markets[marketId].actorAddresses.push(msg.sender);\n\n        // bytes16 marketId, address actor, ActorType actorType, uint256 security\n        emit ActorJoined(marketId, msg.sender, actorType, security);\n\n        return security;\n    }\n\n    /**\n     * Returns all actors in a given market.\n     *\n     * @param marketId The ID of the market to lookup actors.\n     * @return  List of addresses of market actors in the market.\n     */\n    function getAllMarketActors (bytes16 marketId) public view returns (address[] memory) {\n        return markets[marketId].actorAddresses;\n    }\n\n    /**\n     * Returns the type of an actor within a market.\n     *\n     * @param marketId The ID of the market to lookup actor type.\n     * @param actor The address of the actor to lookup.\n     * @return The type under which the actor is joined in the market.\n     */\n    function getMarketActorType (bytes16 marketId, address actor) public view returns (ActorType) {\n        return markets[marketId].actors[actor].actorType;\n    }\n\n    /**\n     * Returns the current security deposit of an actor within a market.\n     *\n     * @param marketId The ID of the market to lookup actor type.\n     * @param actor The address of the actor to lookup.\n     * @return The security deposit of the actor in the given market.\n     */\n    function getMarketActorSecurity (bytes16 marketId, address actor) public view returns (uint256) {\n        return markets[marketId].actors[actor].security;\n    }\n\n    /**\n     * As a market actor (participant) currently member of a market, leave that market.\n     * A market can only be left when all payment channels of the sender are closed (or expired).\n     *\n     * @param marketId The ID of the market to leave.\n     */\n    function leaveMarket (bytes16 marketId) public view {\n        require(markets[marketId].owner != address(0), \"NO_SUCH_MARKET\");\n        // FIXME\n    }\n\n    /**\n     * Open a new payment channel and deposit an amount of XBR token into a market.\n     *\n     * @param marketId The ID of the market to open a payment channel within.\n     * @param consumer The address of the (offchain) consumer delegate allowed to consumer the channel.\n     * @param amount Amount of XBR Token to deposit into the payment channel.\n     */\n    function openPaymentChannel (bytes16 marketId, address consumer, uint256 amount) public returns\n        (address paymentChannel) {\n\n        require(markets[marketId].owner != address(0), \"NO_SUCH_MARKET\");\n\n        // bytes16 marketId, address sender, address delegate, address recipient, uint256 amount, uint32 timeout\n        XBRPaymentChannel channel = new XBRPaymentChannel(marketId, msg.sender, consumer, address(0), amount, 60);\n\n        XBRToken _token = XBRToken(token);\n        bool success = _token.transferFrom(msg.sender, address(channel), amount);\n        require(success, \"OPEN_CHANNEL_TRANSFER_FROM_FAILED\");\n\n        markets[marketId].channels.push(address(channel));\n\n        // bytes16 marketId, address sender, address delegate, address receiver, address channel\n        emit PaymentChannelCreated(marketId, msg.sender, consumer, markets[marketId].owner, address(channel));\n\n        return address(channel);\n    }\n\n    /**\n     * Lookup all payment channels for a XBR Market.\n     *\n     * @param marketId The XBR Market to get payment channels for.\n     * @return List of contract addresses of payment channels in the market.\n     */\n    function getAllMarketPaymentChannels(bytes16 marketId) public view returns (address[] memory) {\n        return markets[marketId].channels;\n    }\n\n    /**\n     * As a data provider, request a new payment channel to get paid by the market maker. Given sufficient\n     * security amount (deposited by the data provider when joining the marker) to cover the request amount,\n     * the market maker will open a payment (state) channel to allow the market maker buying data keys in\n     * microtransactions, and offchain. The creation of the payment channel is asynchronously: the market maker\n     * is watching the global blockchain filtering for events relevant to the market managed by the maker.\n     * When a request to open a payment channel is recognized by the market maker, it will check the provider\n     * for sufficient security deposit covering the requested amount, and if all is fine, create a new payment\n     * channel and store the contract address for the channel request ID, so the data provider can retrieve it.\n     *\n     * @param marketId The ID of the market to request a paying channel within.\n     */\n    function requestPayingChannel (bytes16 marketId, address provider, uint256 amount) public {\n\n        require(markets[marketId].owner != address(0), \"NO_SUCH_MARKET\");\n        require(markets[marketId].maker != address(0), \"NO_ACTIVE_MARKET_MAKER\");\n\n        // bytes16 marketId, address sender, address delegate, address receiver, uint256 amount, uint32 timeout);\n        emit PayingChannelRequestCreated(marketId, markets[marketId].maker, provider, msg.sender, amount, 10);\n    }\n}\n",
  "sourcePath": "/home/oberstet/scm/xbr/xbr-protocol/contracts/XBRNetwork.sol",
  "compiler": {
    "name": "solc",
    "version": "0.5.2+commit.1df8f40c.Emscripten.clang"
  },
  "schemaVersion": "3.0.5",
  "updatedAt": "2019-06-04T10:01:11.450Z",
  "devdoc": {
    "author": "The XBR Project",
    "methods": {
      "addMaintainer(address)": {
        "params": {
          "account": "The account to grant maintainer rights to."
        }
      },
      "closeDomain(bytes16)": {
        "params": {
          "domainId": "The ID of the domain to close."
        }
      },
      "closeMarket(bytes16)": {
        "params": {
          "marketId": "The ID of the market to close."
        }
      },
      "constructor": {
        "params": {
          "organization_": "The network technology provider and ecosystem sponsor.",
          "token_": "The token to run this network on."
        }
      },
      "createDomain(bytes16,bytes32,string,string,string)": {
        "params": {
          "domainId": "The ID of the domain to create. Must be globally unique (not yet existing).",
          "domainKey": "The domain signing key. A Ed25519 (https://ed25519.cr.yp.to/) public key.",
          "license": "The license for the software stack running the domain. IPFS Multihash                pointing to a JSON/YAML file signed by the project release key."
        }
      },
      "createMarket(bytes16,string,string,address,uint256,uint256,uint256)": {
        "params": {
          "consumerSecurity": "The amount of XBR tokens a XBR consumer joining the market must deposit.",
          "maker": "The address of the XBR market maker that will run this market. The delegate of the market owner.",
          "marketFee": "The fee taken by the market (beneficiary is the market owner). The fee is a percentage of                 the revenue of the XBR Provider that receives XBR Token paid for transactions.                 The fee must be between 0% (inclusive) and 99% (inclusive), and is expressed as                 a fraction of the total supply of XBR tokens.",
          "marketId": "The ID of the market to create. Must be unique (not yet existing).",
          "meta": "The XBR market metadata published by the market owner. IPFS Multihash pointing            to a RDF/Turtle file with market metadata.",
          "providerSecurity": "The amount of XBR tokens a XBR provider joining the market must deposit.",
          "terms": "The XBR market terms set by the market owner. IPFS Multihash pointing             to a ZIP archive file with market documents."
        }
      },
      "getAllMarketActors(bytes16)": {
        "params": {
          "marketId": "The ID of the market to lookup actors."
        },
        "return": "List of addresses of market actors in the market."
      },
      "getAllMarketPaymentChannels(bytes16)": {
        "params": {
          "marketId": "The XBR Market to get payment channels for."
        },
        "return": "List of contract addresses of payment channels in the market."
      },
      "getDomainKey(bytes16)": {
        "params": {
          "domainId": "The ID of the domain to lookup key."
        },
        "return": "The Ed25519 public signing key for the domain."
      },
      "getDomainLicense(bytes16)": {
        "params": {
          "domainId": "The ID of the domain to lookup license."
        },
        "return": "IPFS Multihash pointer to domain license file on IPFS."
      },
      "getDomainMeta(bytes16)": {
        "params": {
          "domainId": "The ID of the domain to lookup meta data."
        },
        "return": "IPFS Multihash pointer to domain metadata file on IPFS."
      },
      "getDomainOwner(bytes16)": {
        "params": {
          "domainId": "The ID of the domain to lookup owner."
        },
        "return": "The address of the owner of the domain."
      },
      "getDomainStatus(bytes16)": {
        "params": {
          "domainId": "The ID of the domain to lookup status."
        },
        "return": "The current status of the domain."
      },
      "getDomainTerms(bytes16)": {
        "params": {
          "domainId": "The ID of the domain to lookup terms."
        },
        "return": "IPFS Multihash pointer to domain terms on IPFS."
      },
      "getMarketActorSecurity(bytes16,address)": {
        "params": {
          "actor": "The address of the actor to lookup.",
          "marketId": "The ID of the market to lookup actor type."
        },
        "return": "The security deposit of the actor in the given market."
      },
      "getMarketActorType(bytes16,address)": {
        "params": {
          "actor": "The address of the actor to lookup.",
          "marketId": "The ID of the market to lookup actor type."
        },
        "return": "The type under which the actor is joined in the market."
      },
      "getMarketByMaker(address)": {
        "params": {
          "maker": "The market maker address to lookup market for"
        },
        "return": "ID of the market maker."
      },
      "getMarketConsumerSecurity(bytes16)": {
        "params": {
          "marketId": "The ID of the market to lookup consumer security for."
        },
        "return": "The consumer security defined in the market."
      },
      "getMarketFee(bytes16)": {
        "params": {
          "marketId": "The ID of the market to lookup market fee for."
        },
        "return": "The fee defined in the market."
      },
      "getMarketMaker(bytes16)": {
        "params": {
          "marketId": "The ID of the market to lookup the market maker address for."
        },
        "return": "The address of the (offchain) market maker delegate responsible for this market."
      },
      "getMarketMeta(bytes16)": {
        "params": {
          "marketId": "The ID of the market to lookup metadata for."
        },
        "return": "IPFS Multihash pointer to market metadata."
      },
      "getMarketOwner(bytes16)": {
        "params": {
          "marketId": "The ID of the market to lookup owner for."
        },
        "return": "Address of the owner of the market."
      },
      "getMarketProviderSecurity(bytes16)": {
        "params": {
          "marketId": "The ID of the market to lookup provider security for."
        },
        "return": "The provider security defined in the market."
      },
      "getMarketTerms(bytes16)": {
        "params": {
          "marketId": "The ID of the market to lookup terms for."
        },
        "return": "IPFS Multihash pointer to market terms."
      },
      "getMemberEula(address)": {
        "params": {
          "member": "The address to lookup the XBR Network member EULA for."
        },
        "return": "IPFS Multihash pointing to XBR Network EULA file on IPFS."
      },
      "getMemberLevel(address)": {
        "params": {
          "member": "The address to lookup the XBR Network member level for."
        },
        "return": "The current member level of the member."
      },
      "getMemberProfile(address)": {
        "params": {
          "member": "The address to lookup the XBR Network member profile for."
        },
        "return": "IPFS Multihash pointing to member profile file on IPFS."
      },
      "getNodeByKey(bytes32)": {
        "params": {
          "nodeKey": "The node public key to lookup"
        },
        "return": "The Ed25519 public key of the node."
      },
      "getNodeConfig(bytes16)": {
        "params": {
          "nodeId": "The ID of the node to lookup the config for."
        },
        "return": "IPFS Multihash pointer to node config."
      },
      "getNodeDomain(bytes16)": {
        "params": {
          "nodeId": "The ID of the node to lookup the domain for."
        },
        "return": "The domain the node is currently paired with."
      },
      "getNodeKey(bytes16)": {
        "params": {
          "nodeId": "The ID of the node to lookup the node public key for."
        },
        "return": "The node public key."
      },
      "getNodeType(bytes16)": {
        "params": {
          "nodeId": "The ID of the node to lookup the node type for."
        },
        "return": "The node type."
      },
      "isMaintainer(address)": {
        "params": {
          "account": "The account to check."
        },
        "return": "`true` if the account is maintainer, otherwise `false`."
      },
      "joinMarket(bytes16,uint8)": {
        "params": {
          "actorType": "The type of actor under which to join: PROVIDER or CONSUMER.",
          "marketId": "The ID of the XBR data market to join."
        }
      },
      "leaveMarket(bytes16)": {
        "params": {
          "marketId": "The ID of the market to leave."
        }
      },
      "openPaymentChannel(bytes16,address,uint256)": {
        "params": {
          "amount": "Amount of XBR Token to deposit into the payment channel.",
          "consumer": "The address of the (offchain) consumer delegate allowed to consumer the channel.",
          "marketId": "The ID of the market to open a payment channel within."
        }
      },
      "pairNode(bytes16,bytes16,uint8,bytes32,string)": {
        "params": {
          "config": "Optional IPFS Multihash pointing to node configuration stored on IPFS",
          "domainId": "The ID of the domain to pair the node with.",
          "nodeId": "The ID of the node to pair. Must be globally unique (not yet existing).",
          "nodeKey": "The Ed25519 public node key.",
          "nodeType": "The type of node to pair the node under."
        }
      },
      "register(string,string)": {
        "params": {
          "eula": "The IPFS Multihash of the XBR EULA being agreed to and stored as one ZIP file archive on IPFS.            Currently, this must be equal to \"QmU7Gizbre17x6V2VR1Q2GJEjz6m8S1bXmBtVxS2vmvb81\"",
          "profile": "Optional public member profile: the IPFS Multihash of the member profile stored in IPFS."
        }
      },
      "releaseNode(bytes16)": {
        "params": {
          "nodeId": "The ID of the node to release."
        }
      },
      "requestPayingChannel(bytes16,address,uint256)": {
        "params": {
          "marketId": "The ID of the market to request a paying channel within."
        }
      },
      "setMemberLevel(address,uint8)": {
        "params": {
          "level": "The member level to set the member to.",
          "member": "The address of the XBR network member to override member level."
        }
      },
      "updateMarket(bytes16,string,string,address,uint256,uint256,uint256)": {
        "params": {
          "consumerSecurity": "Consumer security to set that will apply for new members (consumers) joining                        the market. It will NOT apply to current market members.",
          "maker": "When maker should be updated, provide a non-zero address.",
          "marketFee": "New market fee to set. The new market fee will apply to all new payment channels                 opened. It will NOT apply to already opened (or closed) payment channels.",
          "marketId": "The ID of the market to update.",
          "meta": "When metadata should be updated, provide a string of non-zero length with            an IPFS Multihash pointing to the new RDF/Turtle file with market metadata.",
          "providerSecurity": "Provider security to set that will apply for new members (providers) joining                        the market. It will NOT apply to current market members.",
          "terms": "When terms should be updated, provide a string of non-zero length with             an IPFS Multihash pointing to the new ZIP file with market terms."
        },
        "return": "Flag indicating weather the market information was actually updated or left unchanged."
      }
    },
    "title": "XBR Network main smart contract."
  },
  "userdoc": {
    "methods": {
      "addMaintainer(address)": {
        "notice": "Add a new maintainer to the list of maintainers."
      },
      "closeDomain(bytes16)": {
        "notice": "Close an existing XBR domain. The sender must be owner of the domain, and the domain must not have any nodes paired (anymore)."
      },
      "closeMarket(bytes16)": {
        "notice": "Close a market. A closed market will not accept new memberships."
      },
      "constructor": "Create a new network.",
      "createDomain(bytes16,bytes32,string,string,string)": {
        "notice": "Create a new XBR domain. Then sender to the transaction must be XBR network member and automatically becomes owner of the new domain."
      },
      "createMarket(bytes16,string,string,address,uint256,uint256,uint256)": {
        "notice": "Create a new XBR market. The sender of the transaction must be XBR network member and automatically becomes owner of the new market."
      },
      "getAllMarketActors(bytes16)": {
        "notice": "Returns all actors in a given market."
      },
      "getAllMarketPaymentChannels(bytes16)": {
        "notice": "Lookup all payment channels for a XBR Market."
      },
      "getDomainKey(bytes16)": {
        "notice": "Returns domain (signing) key."
      },
      "getDomainLicense(bytes16)": {
        "notice": "Returns domain license."
      },
      "getDomainMeta(bytes16)": {
        "notice": "Returns domain meta data."
      },
      "getDomainOwner(bytes16)": {
        "notice": "Returns domain owner."
      },
      "getDomainStatus(bytes16)": {
        "notice": "Returns domain status."
      },
      "getDomainTerms(bytes16)": {
        "notice": "Returns domain terms."
      },
      "getMarketActorSecurity(bytes16,address)": {
        "notice": "Returns the current security deposit of an actor within a market."
      },
      "getMarketActorType(bytes16,address)": {
        "notice": "Returns the type of an actor within a market."
      },
      "getMarketByMaker(address)": {
        "notice": "Lookup market ID by market maker address."
      },
      "getMarketConsumerSecurity(bytes16)": {
        "notice": "Returns consumer security for a market."
      },
      "getMarketFee(bytes16)": {
        "notice": "Returns market fee for a market."
      },
      "getMarketMaker(bytes16)": {
        "notice": "Returns market maker for a market."
      },
      "getMarketMeta(bytes16)": {
        "notice": "Returns metadata for a market."
      },
      "getMarketOwner(bytes16)": {
        "notice": "Returns owner for a market."
      },
      "getMarketProviderSecurity(bytes16)": {
        "notice": "Returns provider security for a market."
      },
      "getMarketTerms(bytes16)": {
        "notice": "Returns terms for a market."
      },
      "getMemberEula(address)": {
        "notice": "Returns XBR Network member EULA given an address."
      },
      "getMemberLevel(address)": {
        "notice": "Returns XBR Network member level given an address."
      },
      "getMemberProfile(address)": {
        "notice": "Returns XBR Network member profile given an address."
      },
      "getNodeByKey(bytes32)": {
        "notice": "Lookup node ID by node public key."
      },
      "getNodeConfig(bytes16)": {
        "notice": "Returns config for a node."
      },
      "getNodeDomain(bytes16)": {
        "notice": "Returns domain for a node."
      },
      "getNodeKey(bytes16)": {
        "notice": "Returns node public key for a node."
      },
      "getNodeType(bytes16)": {
        "notice": "Returns node type for a node."
      },
      "isMaintainer(address)": {
        "notice": "Check if the given address is currently a maintainer."
      },
      "joinMarket(bytes16,uint8)": {
        "notice": "Join the given XBR market as the specified type of actor, which must be PROVIDER or CONSUMER."
      },
      "leaveMarket(bytes16)": {
        "notice": "As a market actor (participant) currently member of a market, leave that market. A market can only be left when all payment channels of the sender are closed (or expired)."
      },
      "openPaymentChannel(bytes16,address,uint256)": {
        "notice": "Open a new payment channel and deposit an amount of XBR token into a market."
      },
      "pairNode(bytes16,bytes16,uint8,bytes32,string)": {
        "notice": "Pair a node with an existing XBR Domain. The sender must be owner of the domain."
      },
      "register(string,string)": {
        "notice": "Join the XBR Network. All XBR stakeholders, namely XBR Data Providers, XBR Data Consumers, XBR Data Markets and XBR Data Clouds, must register with the XBR Network on the global blockchain by calling this function."
      },
      "releaseNode(bytes16)": {
        "notice": "Release a node currently paired with an XBR domain. The sender must be owner of the domain."
      },
      "renounceMaintainer()": {
        "notice": "Give away maintainer rights."
      },
      "requestPayingChannel(bytes16,address,uint256)": {
        "notice": "As a data provider, request a new payment channel to get paid by the market maker. Given sufficient security amount (deposited by the data provider when joining the marker) to cover the request amount, the market maker will open a payment (state) channel to allow the market maker buying data keys in microtransactions, and offchain. The creation of the payment channel is asynchronously: the market maker is watching the global blockchain filtering for events relevant to the market managed by the maker. When a request to open a payment channel is recognized by the market maker, it will check the provider for sufficient security deposit covering the requested amount, and if all is fine, create a new payment channel and store the contract address for the channel request ID, so the data provider can retrieve it."
      },
      "setMemberLevel(address,uint8)": {
        "notice": "Manually override the member level of a XBR Network member. Being able to do so currently serves two purposes:     * - having a last resort to handle situation where members violated the EULA - being able to manually patch things in error/bug cases"
      },
      "unregister()": {
        "notice": "Leave the XBR Network."
      },
      "updateMarket(bytes16,string,string,address,uint256,uint256,uint256)": {
        "notice": "Update market information, like market terms, metadata or maker address."
      }
    }
  }
}