{
  "contractName": "XBRNetwork",
  "abi": [
    {
      "inputs": [
        {
          "internalType": "address",
          "name": "token_",
          "type": "address"
        },
        {
          "internalType": "address",
          "name": "organization_",
          "type": "address"
        }
      ],
      "payable": false,
      "stateMutability": "nonpayable",
      "type": "constructor"
    },
    {
      "anonymous": false,
      "inputs": [
        {
          "indexed": true,
          "internalType": "bytes16",
          "name": "marketId",
          "type": "bytes16"
        },
        {
          "indexed": false,
          "internalType": "address",
          "name": "actor",
          "type": "address"
        },
        {
          "indexed": false,
          "internalType": "uint8",
          "name": "actorType",
          "type": "uint8"
        },
        {
          "indexed": false,
          "internalType": "uint256",
          "name": "joined",
          "type": "uint256"
        },
        {
          "indexed": false,
          "internalType": "uint256",
          "name": "security",
          "type": "uint256"
        },
        {
          "indexed": false,
          "internalType": "string",
          "name": "meta",
          "type": "string"
        }
      ],
      "name": "ActorJoined",
      "type": "event"
    },
    {
      "anonymous": false,
      "inputs": [
        {
          "indexed": true,
          "internalType": "bytes16",
          "name": "marketId",
          "type": "bytes16"
        },
        {
          "indexed": false,
          "internalType": "address",
          "name": "actor",
          "type": "address"
        },
        {
          "indexed": false,
          "internalType": "uint8",
          "name": "actorType",
          "type": "uint8"
        }
      ],
      "name": "ActorLeft",
      "type": "event"
    },
    {
      "anonymous": false,
      "inputs": [
        {
          "indexed": true,
          "internalType": "bytes16",
          "name": "marketId",
          "type": "bytes16"
        },
        {
          "indexed": false,
          "internalType": "address",
          "name": "sender",
          "type": "address"
        },
        {
          "indexed": false,
          "internalType": "address",
          "name": "delegate",
          "type": "address"
        },
        {
          "indexed": false,
          "internalType": "address",
          "name": "recipient",
          "type": "address"
        },
        {
          "indexed": false,
          "internalType": "address",
          "name": "channel",
          "type": "address"
        },
        {
          "indexed": false,
          "internalType": "enum XBRChannel.ChannelType",
          "name": "channelType",
          "type": "uint8"
        }
      ],
      "name": "ChannelCreated",
      "type": "event"
    },
    {
      "anonymous": false,
      "inputs": [
        {
          "indexed": true,
          "internalType": "address",
          "name": "account",
          "type": "address"
        }
      ],
      "name": "MaintainerAdded",
      "type": "event"
    },
    {
      "anonymous": false,
      "inputs": [
        {
          "indexed": true,
          "internalType": "address",
          "name": "account",
          "type": "address"
        }
      ],
      "name": "MaintainerRemoved",
      "type": "event"
    },
    {
      "anonymous": false,
      "inputs": [
        {
          "indexed": true,
          "internalType": "bytes16",
          "name": "marketId",
          "type": "bytes16"
        }
      ],
      "name": "MarketClosed",
      "type": "event"
    },
    {
      "anonymous": false,
      "inputs": [
        {
          "indexed": true,
          "internalType": "bytes16",
          "name": "marketId",
          "type": "bytes16"
        },
        {
          "indexed": false,
          "internalType": "uint256",
          "name": "created",
          "type": "uint256"
        },
        {
          "indexed": false,
          "internalType": "uint32",
          "name": "marketSeq",
          "type": "uint32"
        },
        {
          "indexed": false,
          "internalType": "address",
          "name": "owner",
          "type": "address"
        },
        {
          "indexed": false,
          "internalType": "string",
          "name": "terms",
          "type": "string"
        },
        {
          "indexed": false,
          "internalType": "string",
          "name": "meta",
          "type": "string"
        },
        {
          "indexed": false,
          "internalType": "address",
          "name": "maker",
          "type": "address"
        },
        {
          "indexed": false,
          "internalType": "uint256",
          "name": "providerSecurity",
          "type": "uint256"
        },
        {
          "indexed": false,
          "internalType": "uint256",
          "name": "consumerSecurity",
          "type": "uint256"
        },
        {
          "indexed": false,
          "internalType": "uint256",
          "name": "marketFee",
          "type": "uint256"
        }
      ],
      "name": "MarketCreated",
      "type": "event"
    },
    {
      "anonymous": false,
      "inputs": [
        {
          "indexed": true,
          "internalType": "bytes16",
          "name": "marketId",
          "type": "bytes16"
        },
        {
          "indexed": false,
          "internalType": "uint32",
          "name": "marketSeq",
          "type": "uint32"
        },
        {
          "indexed": false,
          "internalType": "address",
          "name": "owner",
          "type": "address"
        },
        {
          "indexed": false,
          "internalType": "string",
          "name": "terms",
          "type": "string"
        },
        {
          "indexed": false,
          "internalType": "string",
          "name": "meta",
          "type": "string"
        },
        {
          "indexed": false,
          "internalType": "address",
          "name": "maker",
          "type": "address"
        },
        {
          "indexed": false,
          "internalType": "uint256",
          "name": "providerSecurity",
          "type": "uint256"
        },
        {
          "indexed": false,
          "internalType": "uint256",
          "name": "consumerSecurity",
          "type": "uint256"
        },
        {
          "indexed": false,
          "internalType": "uint256",
          "name": "marketFee",
          "type": "uint256"
        }
      ],
      "name": "MarketUpdated",
      "type": "event"
    },
    {
      "anonymous": false,
      "inputs": [
        {
          "indexed": true,
          "internalType": "address",
          "name": "member",
          "type": "address"
        },
        {
          "indexed": false,
          "internalType": "uint256",
          "name": "registered",
          "type": "uint256"
        },
        {
          "indexed": false,
          "internalType": "string",
          "name": "eula",
          "type": "string"
        },
        {
          "indexed": false,
          "internalType": "string",
          "name": "profile",
          "type": "string"
        },
        {
          "indexed": false,
          "internalType": "enum XBRTypes.MemberLevel",
          "name": "level",
          "type": "uint8"
        }
      ],
      "name": "MemberCreated",
      "type": "event"
    },
    {
      "anonymous": false,
      "inputs": [
        {
          "indexed": false,
          "internalType": "address",
          "name": "member",
          "type": "address"
        }
      ],
      "name": "MemberRetired",
      "type": "event"
    },
    {
      "anonymous": false,
      "inputs": [
        {
          "indexed": true,
          "internalType": "bytes16",
          "name": "marketId",
          "type": "bytes16"
        },
        {
          "indexed": false,
          "internalType": "address",
          "name": "sender",
          "type": "address"
        },
        {
          "indexed": false,
          "internalType": "address",
          "name": "recipient",
          "type": "address"
        },
        {
          "indexed": false,
          "internalType": "address",
          "name": "delegate",
          "type": "address"
        },
        {
          "indexed": false,
          "internalType": "uint256",
          "name": "amount",
          "type": "uint256"
        },
        {
          "indexed": false,
          "internalType": "uint32",
          "name": "timeout",
          "type": "uint32"
        }
      ],
      "name": "PayingChannelRequestCreated",
      "type": "event"
    },
    {
      "constant": false,
      "inputs": [
        {
          "internalType": "address",
          "name": "account",
          "type": "address"
        }
      ],
      "name": "addMaintainer",
      "outputs": [],
      "payable": false,
      "stateMutability": "nonpayable",
      "type": "function"
    },
    {
      "constant": true,
      "inputs": [],
      "name": "eula",
      "outputs": [
        {
          "internalType": "string",
          "name": "",
          "type": "string"
        }
      ],
      "payable": false,
      "stateMutability": "view",
      "type": "function"
    },
    {
      "constant": true,
      "inputs": [
        {
          "internalType": "address",
          "name": "account",
          "type": "address"
        }
      ],
      "name": "isMaintainer",
      "outputs": [
        {
          "internalType": "bool",
          "name": "",
          "type": "bool"
        }
      ],
      "payable": false,
      "stateMutability": "view",
      "type": "function"
    },
    {
      "constant": true,
      "inputs": [
        {
          "internalType": "uint256",
          "name": "",
          "type": "uint256"
        }
      ],
      "name": "marketIds",
      "outputs": [
        {
          "internalType": "bytes16",
          "name": "",
          "type": "bytes16"
        }
      ],
      "payable": false,
      "stateMutability": "view",
      "type": "function"
    },
    {
      "constant": true,
      "inputs": [
        {
          "internalType": "bytes16",
          "name": "",
          "type": "bytes16"
        }
      ],
      "name": "markets",
      "outputs": [
        {
          "internalType": "uint256",
          "name": "created",
          "type": "uint256"
        },
        {
          "internalType": "uint32",
          "name": "marketSeq",
          "type": "uint32"
        },
        {
          "internalType": "address",
          "name": "owner",
          "type": "address"
        },
        {
          "internalType": "string",
          "name": "terms",
          "type": "string"
        },
        {
          "internalType": "string",
          "name": "meta",
          "type": "string"
        },
        {
          "internalType": "address",
          "name": "maker",
          "type": "address"
        },
        {
          "internalType": "uint256",
          "name": "providerSecurity",
          "type": "uint256"
        },
        {
          "internalType": "uint256",
          "name": "consumerSecurity",
          "type": "uint256"
        },
        {
          "internalType": "uint256",
          "name": "marketFee",
          "type": "uint256"
        }
      ],
      "payable": false,
      "stateMutability": "view",
      "type": "function"
    },
    {
      "constant": true,
      "inputs": [
        {
          "internalType": "address",
          "name": "",
          "type": "address"
        }
      ],
      "name": "marketsByMaker",
      "outputs": [
        {
          "internalType": "bytes16",
          "name": "",
          "type": "bytes16"
        }
      ],
      "payable": false,
      "stateMutability": "view",
      "type": "function"
    },
    {
      "constant": true,
      "inputs": [
        {
          "internalType": "address",
          "name": "",
          "type": "address"
        },
        {
          "internalType": "uint256",
          "name": "",
          "type": "uint256"
        }
      ],
      "name": "marketsByOwner",
      "outputs": [
        {
          "internalType": "bytes16",
          "name": "",
          "type": "bytes16"
        }
      ],
      "payable": false,
      "stateMutability": "view",
      "type": "function"
    },
    {
      "constant": true,
      "inputs": [
        {
          "internalType": "address",
          "name": "",
          "type": "address"
        }
      ],
      "name": "members",
      "outputs": [
        {
          "internalType": "uint256",
          "name": "registered",
          "type": "uint256"
        },
        {
          "internalType": "string",
          "name": "eula",
          "type": "string"
        },
        {
          "internalType": "string",
          "name": "profile",
          "type": "string"
        },
        {
          "internalType": "enum XBRTypes.MemberLevel",
          "name": "level",
          "type": "uint8"
        }
      ],
      "payable": false,
      "stateMutability": "view",
      "type": "function"
    },
    {
      "constant": false,
      "inputs": [],
      "name": "renounceMaintainer",
      "outputs": [],
      "payable": false,
      "stateMutability": "nonpayable",
      "type": "function"
    },
    {
      "constant": true,
      "inputs": [],
      "name": "token",
      "outputs": [
        {
          "internalType": "contract XBRToken",
          "name": "",
          "type": "address"
        }
      ],
      "payable": false,
      "stateMutability": "view",
      "type": "function"
    },
    {
      "constant": false,
      "inputs": [
        {
          "internalType": "string",
          "name": "eula_",
          "type": "string"
        },
        {
          "internalType": "string",
          "name": "profile_",
          "type": "string"
        }
      ],
      "name": "register",
      "outputs": [],
      "payable": false,
      "stateMutability": "nonpayable",
      "type": "function"
    },
    {
      "constant": false,
      "inputs": [
        {
          "internalType": "address",
          "name": "member",
          "type": "address"
        },
        {
          "internalType": "uint256",
          "name": "registered",
          "type": "uint256"
        },
        {
          "internalType": "string",
          "name": "eula_",
          "type": "string"
        },
        {
          "internalType": "string",
          "name": "profile_",
          "type": "string"
        },
        {
          "internalType": "bytes",
          "name": "signature",
          "type": "bytes"
        }
      ],
      "name": "registerFor",
      "outputs": [],
      "payable": false,
      "stateMutability": "nonpayable",
      "type": "function"
    },
    {
      "constant": false,
      "inputs": [
        {
          "internalType": "bytes16",
          "name": "marketId",
          "type": "bytes16"
        },
        {
          "internalType": "string",
          "name": "terms",
          "type": "string"
        },
        {
          "internalType": "string",
          "name": "meta",
          "type": "string"
        },
        {
          "internalType": "address",
          "name": "maker",
          "type": "address"
        },
        {
          "internalType": "uint256",
          "name": "providerSecurity",
          "type": "uint256"
        },
        {
          "internalType": "uint256",
          "name": "consumerSecurity",
          "type": "uint256"
        },
        {
          "internalType": "uint256",
          "name": "marketFee",
          "type": "uint256"
        }
      ],
      "name": "createMarket",
      "outputs": [],
      "payable": false,
      "stateMutability": "nonpayable",
      "type": "function"
    },
    {
      "constant": true,
      "inputs": [],
      "name": "countMarkets",
      "outputs": [
        {
          "internalType": "uint256",
          "name": "",
          "type": "uint256"
        }
      ],
      "payable": false,
      "stateMutability": "view",
      "type": "function"
    },
    {
      "constant": true,
      "inputs": [
        {
          "internalType": "address",
          "name": "owner",
          "type": "address"
        },
        {
          "internalType": "uint256",
          "name": "index",
          "type": "uint256"
        }
      ],
      "name": "getMarketsByOwner",
      "outputs": [
        {
          "internalType": "bytes16",
          "name": "",
          "type": "bytes16"
        }
      ],
      "payable": false,
      "stateMutability": "view",
      "type": "function"
    },
    {
      "constant": true,
      "inputs": [
        {
          "internalType": "address",
          "name": "owner",
          "type": "address"
        }
      ],
      "name": "countMarketsByOwner",
      "outputs": [
        {
          "internalType": "uint256",
          "name": "",
          "type": "uint256"
        }
      ],
      "payable": false,
      "stateMutability": "view",
      "type": "function"
    },
    {
      "constant": true,
      "inputs": [
        {
          "internalType": "bytes16",
          "name": "marketId",
          "type": "bytes16"
        },
        {
          "internalType": "address",
          "name": "actor",
          "type": "address"
        },
        {
          "internalType": "uint8",
          "name": "actorType",
          "type": "uint8"
        }
      ],
      "name": "getMarketActor",
      "outputs": [
        {
          "internalType": "uint256",
          "name": "",
          "type": "uint256"
        },
        {
          "internalType": "uint256",
          "name": "",
          "type": "uint256"
        },
        {
          "internalType": "string",
          "name": "",
          "type": "string"
        }
      ],
      "payable": false,
      "stateMutability": "view",
      "type": "function"
    },
    {
      "constant": false,
      "inputs": [
        {
          "internalType": "bytes16",
          "name": "marketId",
          "type": "bytes16"
        },
        {
          "internalType": "uint8",
          "name": "actorType",
          "type": "uint8"
        },
        {
          "internalType": "string",
          "name": "meta",
          "type": "string"
        }
      ],
      "name": "joinMarket",
      "outputs": [
        {
          "internalType": "uint256",
          "name": "",
          "type": "uint256"
        }
      ],
      "payable": false,
      "stateMutability": "nonpayable",
      "type": "function"
    },
    {
      "constant": false,
      "inputs": [
        {
          "internalType": "address",
          "name": "member",
          "type": "address"
        },
        {
          "internalType": "uint256",
          "name": "joined",
          "type": "uint256"
        },
        {
          "internalType": "bytes16",
          "name": "marketId",
          "type": "bytes16"
        },
        {
          "internalType": "uint8",
          "name": "actorType",
          "type": "uint8"
        },
        {
          "internalType": "string",
          "name": "meta",
          "type": "string"
        },
        {
          "internalType": "bytes",
          "name": "signature",
          "type": "bytes"
        }
      ],
      "name": "joinMarketFor",
      "outputs": [
        {
          "internalType": "uint256",
          "name": "",
          "type": "uint256"
        }
      ],
      "payable": false,
      "stateMutability": "nonpayable",
      "type": "function"
    },
    {
      "constant": false,
      "inputs": [
        {
          "internalType": "bytes16",
          "name": "marketId",
          "type": "bytes16"
        },
        {
          "internalType": "address",
          "name": "recipient",
          "type": "address"
        },
        {
          "internalType": "address",
          "name": "delegate",
          "type": "address"
        },
        {
          "internalType": "uint256",
          "name": "amount",
          "type": "uint256"
        },
        {
          "internalType": "uint32",
          "name": "timeout",
          "type": "uint32"
        }
      ],
      "name": "openPaymentChannel",
      "outputs": [
        {
          "internalType": "address",
          "name": "paymentChannel",
          "type": "address"
        }
      ],
      "payable": false,
      "stateMutability": "nonpayable",
      "type": "function"
    },
    {
      "constant": false,
      "inputs": [
        {
          "internalType": "bytes16",
          "name": "marketId",
          "type": "bytes16"
        },
        {
          "internalType": "address",
          "name": "recipient",
          "type": "address"
        },
        {
          "internalType": "address",
          "name": "delegate",
          "type": "address"
        },
        {
          "internalType": "uint256",
          "name": "amount",
          "type": "uint256"
        },
        {
          "internalType": "uint32",
          "name": "timeout",
          "type": "uint32"
        }
      ],
      "name": "requestPayingChannel",
      "outputs": [],
      "payable": false,
      "stateMutability": "nonpayable",
      "type": "function"
    },
    {
      "constant": false,
      "inputs": [
        {
          "internalType": "bytes16",
          "name": "marketId",
          "type": "bytes16"
        },
        {
          "internalType": "address",
          "name": "recipient",
          "type": "address"
        },
        {
          "internalType": "address",
          "name": "delegate",
          "type": "address"
        },
        {
          "internalType": "uint256",
          "name": "amount",
          "type": "uint256"
        },
        {
          "internalType": "uint32",
          "name": "timeout",
          "type": "uint32"
        }
      ],
      "name": "openPayingChannel",
      "outputs": [
        {
          "internalType": "address",
          "name": "paymentChannel",
          "type": "address"
        }
      ],
      "payable": false,
      "stateMutability": "nonpayable",
      "type": "function"
    },
    {
      "constant": true,
      "inputs": [
        {
          "internalType": "bytes16",
          "name": "marketId",
          "type": "bytes16"
        }
      ],
      "name": "getAllMarketProviders",
      "outputs": [
        {
          "internalType": "address[]",
          "name": "",
          "type": "address[]"
        }
      ],
      "payable": false,
      "stateMutability": "view",
      "type": "function"
    },
    {
      "constant": true,
      "inputs": [
        {
          "internalType": "bytes16",
          "name": "marketId",
          "type": "bytes16"
        }
      ],
      "name": "getAllMarketConsumers",
      "outputs": [
        {
          "internalType": "address[]",
          "name": "",
          "type": "address[]"
        }
      ],
      "payable": false,
      "stateMutability": "view",
      "type": "function"
    },
    {
      "constant": true,
      "inputs": [
        {
          "internalType": "bytes16",
          "name": "marketId",
          "type": "bytes16"
        },
        {
          "internalType": "address",
          "name": "actor",
          "type": "address"
        }
      ],
      "name": "getAllPaymentChannels",
      "outputs": [
        {
          "internalType": "address[]",
          "name": "",
          "type": "address[]"
        }
      ],
      "payable": false,
      "stateMutability": "view",
      "type": "function"
    },
    {
      "constant": true,
      "inputs": [
        {
          "internalType": "bytes16",
          "name": "marketId",
          "type": "bytes16"
        },
        {
          "internalType": "address",
          "name": "actor",
          "type": "address"
        }
      ],
      "name": "getAllPayingChannels",
      "outputs": [
        {
          "internalType": "address[]",
          "name": "",
          "type": "address[]"
        }
      ],
      "payable": false,
      "stateMutability": "view",
      "type": "function"
    },
    {
      "constant": true,
      "inputs": [
        {
          "internalType": "bytes16",
          "name": "marketId",
          "type": "bytes16"
        },
        {
          "internalType": "address",
          "name": "delegate",
          "type": "address"
        }
      ],
      "name": "currentPaymentChannelByDelegate",
      "outputs": [
        {
          "internalType": "address",
          "name": "",
          "type": "address"
        }
      ],
      "payable": false,
      "stateMutability": "view",
      "type": "function"
    },
    {
      "constant": true,
      "inputs": [
        {
          "internalType": "bytes16",
          "name": "marketId",
          "type": "bytes16"
        },
        {
          "internalType": "address",
          "name": "delegate",
          "type": "address"
        }
      ],
      "name": "currentPayingChannelByDelegate",
      "outputs": [
        {
          "internalType": "address",
          "name": "",
          "type": "address"
        }
      ],
      "payable": false,
      "stateMutability": "view",
      "type": "function"
    }
  ],
  "bytecode": "0x60806040526001805463ffffffff1916811790553480156200002057600080fd5b50604051620061d1380380620061d18339810160408190526200004391620002fb565b62000057336001600160e01b036200014516565b60018054600160201b600160c01b0319166401000000006001600160a01b0385811691909102919091178255600280546001600160a01b03191691841691909117815560408051608081018252428152815160208082018452600080835281840192835284518083018652818152848601526060840195909552338552600381529290932081518155925180519194620000f8939085019291019062000249565b50604082015180516200011691600284019160209091019062000249565b50606082015160038201805460ff191660018360058111156200013557fe5b0217905550905050505062000414565b620001608160006200019760201b620032631790919060201c565b6040516001600160a01b038216907f1390a149489c82e9e2e89927bdb17ad1ea3f0cc314fce06c96369721d3afb8f090600090a250565b620001ac82826001600160e01b03620001fa16565b15620001d55760405162461bcd60e51b8152600401620001cc90620003bb565b60405180910390fd5b6001600160a01b0316600090815260209190915260409020805460ff19166001179055565b60006001600160a01b038216620002255760405162461bcd60e51b8152600401620001cc90620003cd565b506001600160a01b03811660009081526020839052604090205460ff165b92915050565b828054600181600116156101000203166002900490600052602060002090601f016020900481019282601f106200028c57805160ff1916838001178555620002bc565b82800160010185558215620002bc579182015b82811115620002bc5782518255916020019190600101906200029f565b50620002ca929150620002ce565b5090565b620002eb91905b80821115620002ca5760008155600101620002d5565b90565b80516200024381620003fa565b600080604083850312156200030f57600080fd5b60006200031d8585620002ee565b92505060206200033085828601620002ee565b9150509250929050565b600062000349601f83620003df565b7f526f6c65733a206163636f756e7420616c72656164792068617320726f6c6500815260200192915050565b600062000384602283620003df565b7f526f6c65733a206163636f756e7420697320746865207a65726f206164647265815261737360f01b602082015260400192915050565b6020808252810162000243816200033a565b60208082528101620002438162000375565b90815260200190565b60006001600160a01b03821662000243565b6200040581620003e8565b81146200041157600080fd5b50565b615dad80620004246000396000f3fe60806040523480156200001157600080fd5b5060043610620001f05760003560e01c80637ba5c48d1162000111578063cf8aeb5a11620000a5578063df21d342116200007b578063df21d3421462000495578063f513181814620004ac578063fb58c7c314620004c3578063fc0c546a14620004da57620001f0565b8063cf8aeb5a1462000441578063db1858401462000458578063dd57366a146200046f57620001f0565b80639fa7a6aa11620000e75780639fa7a6aa14620003cc578063a65db4da14620003e3578063a8f7d8ea14620003fa578063b4381fd3146200041357620001f0565b80637ba5c48d146200037657806380201702146200038d5780638edb314f14620003a457620001f0565b80634d88ee3e11620001895780635ef75880116200015f5780635ef75880146200031a5780636b453c1f1462000331578063710ccb381462000348578063779a9683146200035f57620001f0565b80634d88ee3e14620002d35780634e01967b14620002dd57806352cf82e8146200030357620001f0565b8063287c05a211620001cb578063287c05a21462000273578063314db06b146200028a578063329a404714620002965780633ffbd47f14620002bc57620001f0565b806308ae4b0c14620001f55780631290cc1a14620002275780631b223eab146200024d575b600080fd5b6200020c62000206366004620034b5565b620004f3565b6040516200021e9493929190620047bf565b60405180910390f35b6200023e62000238366004620034b5565b6200063d565b6040516200021e919062004560565b620002646200025e36600462003711565b62000652565b6040516200021e919062004536565b6200023e62000284366004620034ff565b620006e4565b6200029462000728565b005b620002ad620002a7366004620034b5565b62000735565b6040516200021e9190620047af565b62000294620002cd3660046200394d565b62000754565b620002ad6200090f565b620002f4620002ee36600462003746565b62000916565b6040516200021e9190620042cc565b620002646200031436600462003711565b62000e5a565b620002946200032b36600462003746565b62000ee9565b6200029462000342366004620034b5565b62001159565b62000294620003593660046200380d565b6200117c565b6200023e62000370366004620039b3565b620017a7565b6200026462000387366004620036f0565b620017dc565b620002f46200039e36600462003746565b62001858565b620003bb620003b5366004620037b9565b62001d95565b6040516200021e939291906200480a565b620002f4620003dd36600462003711565b62001fa1565b620002f4620003f436600462003711565b62001fd9565b6200040462002011565b6040516200021e919062004580565b6200042a62000424366004620036f0565b6200202e565b6040516200021e99989796959493929190620048e3565b620002946200045236600462003604565b620021ac565b620002ad620004693660046200353e565b62002462565b6200048662000480366004620034b5565b62002b0b565b6040516200021e919062004550565b62000264620004a6366004620036f0565b62002b1f565b6200023e620004bd366004620034ff565b62002b99565b620002ad620004d4366004620038ea565b62002be9565b620004e462003121565b6040516200021e919062004570565b6003602090815260009182526040918290208054600180830180548651600293821615610100026000190190911692909204601f810186900486028301860190965285825291949293909290830182828015620005945780601f10620005685761010080835404028352916020019162000594565b820191906000526020600020905b8154815290600101906020018083116200057657829003601f168201915b50505060028085018054604080516020601f60001961010060018716150201909416959095049283018590048502810185019091528181529596959450909250908301828280156200062a5780601f10620005fe576101008083540402835291602001916200062a565b820191906000526020600020905b8154815290600101906020018083116200060c57829003601f168201915b5050506003909301549192505060ff1684565b60066020526000908152604090205460801b81565b6001600160801b0319821660009081526004602090815260408083206001600160a01b0385168452600b01825291829020600301805483518184028101840190945280845260609392830182828015620006d657602002820191906000526020600020905b81546001600160a01b03168152600190910190602001808311620006b7575b505050505090505b92915050565b60076020528160005260406000208181548110620006fe57fe5b9060005260206000209060029182820401919006601002915091509054906101000a900460801b81565b620007333362003137565b565b6001600160a01b0381166000908152600760205260409020545b919050565b336000908152600360208190526040909120015460ff1660058111156200077757fe5b60ff1615620007a35760405162461bcd60e51b81526004016200079a90620045c9565b60405180910390fd5b6040518060600160405280602e815260200162005d3d602e9139604051602001620007cf919062004580565b6040516020818303038152906040528051906020012082604051602001620007f8919062004580565b60405160208183030381529060405280519060200120146200082e5760405162461bcd60e51b81526004016200079a9062004743565b60408051608081018252428082526020820185905291810183905260608101600190523360009081526003602090815260409091208251815582820151805191926200088392600185019290910190620032b4565b5060408201518051620008a1916002840191602090910190620032b4565b50606082015160038201805460ff19166001836005811115620008c057fe5b0217905550506040513391507fd7ce85b2047049e12d351432c1bdab3b893aa58d63cb08da1c461cb0260c71e4906200090290849087908790600190620047bf565b60405180910390a2505050565b6005545b90565b6001600160801b03198516600090815260046020526040812060010154600160201b90046001600160a01b0316620009625760405162461bcd60e51b81526004016200079a90620046e9565b6001600160801b03198616600090815260046020819052604090912001546001600160a01b03163314620009aa5760405162461bcd60e51b81526004016200079a90620046b3565b6001600160801b0319861660009081526004602090815260408083206001600160a01b0389168452600a0190915290205460ff16620009fd5760405162461bcd60e51b81526004016200079a90620046a1565b6001600160a01b03841662000a265760405162461bcd60e51b81526004016200079a90620045db565b60008311801562000ac05750600160049054906101000a90046001600160a01b03166001600160a01b03166318160ddd6040518163ffffffff1660e01b815260040160206040518083038186803b15801562000a8157600080fd5b505afa15801562000a96573d6000803e3d6000fd5b505050506040513d601f19601f8201168201806040525062000abc9190810190620039d4565b8311155b62000adf5760405162461bcd60e51b81526004016200079a90620045a5565b620d2f008263ffffffff161062000b0a5760405162461bcd60e51b81526004016200079a9062004731565b600280546001546001600160801b03198916600090815260046020819052604080832090910154905191946001600160a01b0394851694600160201b90940484169330938d939091169133918c918e918d918d9162000b699062003339565b62000b7f9b9a99989796959493929190620043fe565b604051809103906000f08015801562000b9c573d6000803e3d6000fd5b506001546040516323b872dd60e01b8152919250600160201b90046001600160a01b03169060009082906323b872dd9062000be090339087908b9060040162004328565b602060405180830381600087803b15801562000bfb57600080fd5b505af115801562000c10573d6000803e3d6000fd5b505050506040513d601f19601f8201168201806040525062000c369190810190620036cf565b90508062000c585760405162461bcd60e51b81526004016200079a9062004779565b6001600160801b0319891660008181526004602081815260408084206001600160a01b038e81168652600a909101835281852060030180546001810182559086529483902090940180546001600160a01b031916948916948517905580516333f2026760e11b815290517f734f20c5aed5a81ff57bd83ec575d094a7846b1e3fcd2e8e39b030afc2a2890494936367e404ce938382019390929190829003018186803b15801562000d0857600080fd5b505afa15801562000d1d573d6000803e3d6000fd5b505050506040513d601f19601f8201168201806040525062000d439190810190620034de565b856001600160a01b031663c89e43616040518163ffffffff1660e01b815260040160206040518083038186803b15801562000d7d57600080fd5b505afa15801562000d92573d6000803e3d6000fd5b505050506040513d601f19601f8201168201806040525062000db89190810190620034de565b866001600160a01b03166366d003ac6040518163ffffffff1660e01b815260040160206040518083038186803b15801562000df257600080fd5b505afa15801562000e07573d6000803e3d6000fd5b505050506040513d601f19601f8201168201806040525062000e2d9190810190620034de565b87600260405162000e43959493929190620043b2565b60405180910390a250909150505b95945050505050565b6001600160801b0319821660009081526004602090815260408083206001600160a01b0385168452600a01825291829020600301805483518184028101840190945280845260609392830182828015620006d6576020028201919060005260206000209081546001600160a01b03168152600190910190602001808311620006b7575050505050905092915050565b6001600160801b03198516600090815260046020526040902060010154600160201b90046001600160a01b031662000f355760405162461bcd60e51b81526004016200079a90620046e9565b6001600160801b03198516600090815260046020819052604090912001546001600160a01b031662000f7b5760405162461bcd60e51b81526004016200079a906200466b565b336001600160a01b0385161462000fa65760405162461bcd60e51b81526004016200079a9062004755565b6001600160801b0319851660009081526004602090815260408083206001600160a01b0388168452600a0190915290205460ff1662000ff95760405162461bcd60e51b81526004016200079a90620046a1565b6001600160a01b038316620010225760405162461bcd60e51b81526004016200079a90620045db565b600082118015620010bc5750600160049054906101000a90046001600160a01b03166001600160a01b03166318160ddd6040518163ffffffff1660e01b815260040160206040518083038186803b1580156200107d57600080fd5b505afa15801562001092573d6000803e3d6000fd5b505050506040513d601f19601f82011682018060405250620010b89190810190620039d4565b8211155b620010db5760405162461bcd60e51b81526004016200079a90620045a5565b620d2f008163ffffffff1610620011065760405162461bcd60e51b81526004016200079a9062004731565b846001600160801b0319167f1c3be017379c486bade742062ae83c3a0a25974e898e26fd98a221d0c53d9dca33868686866040516200114a959493929190620042dc565b60405180910390a25050505050565b620011643362002b0b565b6200116e57600080fd5b620011798162003181565b50565b6001336000908152600360208190526040909120015460ff166005811115620011a157fe5b1480620011d057506002336000908152600360208190526040909120015460ff166005811115620011ce57fe5b145b620011ef5760405162461bcd60e51b81526004016200079a9062004647565b6001600160801b03198716600090815260046020526040902060010154600160201b90046001600160a01b0316156200123c5760405162461bcd60e51b81526004016200079a90620045ff565b6001600160a01b038416620012655760405162461bcd60e51b81526004016200079a9062004635565b6001600160a01b03841660009081526006602052604090205460801b6001600160801b03191615620012ab5760405162461bcd60e51b81526004016200079a9062004623565b600160049054906101000a90046001600160a01b03166001600160a01b03166318160ddd6040518163ffffffff1660e01b815260040160206040518083038186803b158015620012fa57600080fd5b505afa1580156200130f573d6000803e3d6000fd5b505050506040513d601f19601f82011682018060405250620013359190810190620039d4565b831115620013575760405162461bcd60e51b81526004016200079a906200478b565b600160049054906101000a90046001600160a01b03166001600160a01b03166318160ddd6040518163ffffffff1660e01b815260040160206040518083038186803b158015620013a657600080fd5b505afa158015620013bb573d6000803e3d6000fd5b505050506040513d601f19601f82011682018060405250620013e19190810190620039d4565b821115620014035760405162461bcd60e51b81526004016200079a90620046fb565b62989680600160049054906101000a90046001600160a01b03166001600160a01b03166318160ddd6040518163ffffffff1660e01b815260040160206040518083038186803b1580156200145657600080fd5b505afa1580156200146b573d6000803e3d6000fd5b505050506040513d601f19601f82011682018060405250620014919190810190620039d4565b03670de0b6b3a7640000028110620014bd5760405162461bcd60e51b81526004016200079a9062004767565b60408051610160810182524280825260015463ffffffff166020808401919091523383850152606083018a9052608083018990526001600160a01b03881660a084015260c0830187905260e08301869052610100830185905283516000808252818301865261012085019190915284518181529182019094529092610140830191905090526001600160801b031989166000908152600460209081526040918290208351815583820151600182018054948601516001600160a01b0316600160201b02640100000000600160c01b031963ffffffff90931663ffffffff1990961695909517919091169390931790925560608301518051620015c69260028501920190620032b4565b5060808201518051620015e4916003840191602090910190620032b4565b5060a08201516004820180546001600160a01b0319166001600160a01b0390921691909117905560c0820151600582015560e08201516006820155610100820151600782015561012082015180516200164891600884019160209091019062003347565b5061014082015180516200166791600984019160209091019062003347565b5050506001600160a01b0385166000908152600660209081526040808320805460808d901c6001600160801b031991821681179092553380865260078552838620805460018181018355918852958720600280880490910180546010988416890261010090810a8089026001600160801b0391820219909316929092179092556005805480860182559a529189047f036b6384b5eca791c62761152d0c79bb0604c104a5fb6f4eb0703f3154bb3db0018054998416909802900a94850294021990961692909217909355835463ffffffff8082168601811663ffffffff1990921691909117948590559151928c16937fb0f9176e0c4d7b9658b3643d301e03f043c0ab868721078cd02536725f04f4549362001795938793921691908d908d908d908d908d908d906200483d565b60405180910390a25050505050505050565b60058181548110620017b557fe5b9060005260206000209060029182820401919006601002915054906101000a900460801b81565b6001600160801b031981166000908152600460209081526040918290206008018054835181840281018401909452808452606093928301828280156200184c57602002820191906000526020600020905b81546001600160a01b031681526001909101906020018083116200182d575b50505050509050919050565b6001600160801b03198516600090815260046020526040812060010154600160201b90046001600160a01b0316620018a45760405162461bcd60e51b81526004016200079a90620046e9565b6001600160801b031986166000908152600460209081526040808320338452600b0190915290205460ff16620018ee5760405162461bcd60e51b81526004016200079a90620045ed565b6001600160801b031986166000908152600460205260409020600101546001600160a01b03868116600160201b90920416146200193f5760405162461bcd60e51b81526004016200079a90620046c5565b6001600160a01b038416620019685760405162461bcd60e51b81526004016200079a90620045db565b60008311801562001a025750600160049054906101000a90046001600160a01b03166001600160a01b03166318160ddd6040518163ffffffff1660e01b815260040160206040518083038186803b158015620019c357600080fd5b505afa158015620019d8573d6000803e3d6000fd5b505050506040513d601f19601f82011682018060405250620019fe9190810190620039d4565b8311155b62001a215760405162461bcd60e51b81526004016200079a90620045a5565b620d2f008263ffffffff161062001a4c5760405162461bcd60e51b81526004016200079a9062004731565b600254600180546001600160801b03198916600090815260046020819052604080832090910154905191946001600160a01b0390811694600160201b90940481169330938d939092169133918c918e918d918d919062001aac9062003339565b62001ac29b9a99989796959493929190620043fe565b604051809103906000f08015801562001adf573d6000803e3d6000fd5b506001546040516323b872dd60e01b8152919250600091600160201b9091046001600160a01b0316906323b872dd9062001b2290339086908a9060040162004328565b602060405180830381600087803b15801562001b3d57600080fd5b505af115801562001b52573d6000803e3d6000fd5b505050506040513d601f19601f8201168201806040525062001b789190810190620036cf565b90508062001b9a5760405162461bcd60e51b81526004016200079a9062004779565b6001600160801b031988166000818152600460208181526040808420338552600b01825280842060030180546001810182559085529382902090930180546001600160a01b0319166001600160a01b03881690811790915583516333f2026760e11b815293517f734f20c5aed5a81ff57bd83ec575d094a7846b1e3fcd2e8e39b030afc2a289049491936367e404ce938382019390929190829003018186803b15801562001c4757600080fd5b505afa15801562001c5c573d6000803e3d6000fd5b505050506040513d601f19601f8201168201806040525062001c829190810190620034de565b846001600160a01b031663c89e43616040518163ffffffff1660e01b815260040160206040518083038186803b15801562001cbc57600080fd5b505afa15801562001cd1573d6000803e3d6000fd5b505050506040513d601f19601f8201168201806040525062001cf79190810190620034de565b856001600160a01b03166366d003ac6040518163ffffffff1660e01b815260040160206040518083038186803b15801562001d3157600080fd5b505afa15801562001d46573d6000803e3d6000fd5b505050506040513d601f19601f8201168201806040525062001d6c9190810190620034de565b86600160405162001d82959493929190620043b2565b60405180910390a2509695505050505050565b6001600160801b031983166000908152600460205260408120600101548190606090600160201b90046001600160a01b031662001de65760405162461bcd60e51b81526004016200079a90620046e9565b60ff84166001148062001dfc575060ff84166002145b62001e1b5760405162461bcd60e51b81526004016200079a9062004611565b60ff84166002141562001f00576001600160801b0319861660009081526004602090815260408083206001600160a01b0389168452600b0182529182902080546001808301546002808501805488519481161561010002600019011691909104601f810187900487028401870190975286835293959294909392839183018282801562001eec5780601f1062001ec05761010080835404028352916020019162001eec565b820191906000526020600020905b81548152906001019060200180831162001ece57829003601f168201915b505050505090509350935093505062001f98565b6001600160801b0319861660009081526004602090815260408083206001600160a01b0389168452600a0182529182902080546001808301546002808501805488519481161561010002600019011691909104601f810187900487028401870190975286835293959294909392839183018282801562001eec5780601f1062001ec05761010080835404028352916020019162001eec565b93509350939050565b6001600160801b03199190911660009081526004602090815260408083206001600160a01b039485168452600d019091529020541690565b6001600160801b03199190911660009081526004602090815260408083206001600160a01b039485168452600c019091529020541690565b6040518060600160405280602e815260200162005d3d602e913981565b60046020908152600091825260409182902080546001808301546002808501805488516101009582161595909502600019011691909104601f8101879004870284018701909752868352929563ffffffff821695600160201b9092046001600160a01b0316949391830182828015620020eb5780601f10620020bf57610100808354040283529160200191620020eb565b820191906000526020600020905b815481529060010190602001808311620020cd57829003601f168201915b5050505060038301805460408051602060026001851615610100026000190190941693909304601f81018490048402820184019092528181529495949350908301828280156200217f5780601f1062002153576101008083540402835291602001916200217f565b820191906000526020600020905b8154815290600101906020018083116200216157829003601f168201915b5050505060048301546005840154600685015460079095015493946001600160a01b039092169390925089565b6001600160a01b0385166000908152600360208190526040909120015460ff166005811115620021d857fe5b60ff1615620021fb5760405162461bcd60e51b81526004016200079a90620045c9565b6040518060600160405280602e815260200162005d3d602e913960405160200162002227919062004580565b604051602081830303815290604052805190602001208360405160200162002250919062004580565b6040516020818303038152906040528051906020012014620022865760405162461bcd60e51b81526004016200079a9062004743565b6040805160c081018252600181526020810186905273254dffcd3277c0b1660f6d42efbb754edababc2b818301526001600160a01b03871660608201526080810185905260a081018490529051633402ce0160e01b815273__XBRTypes______________________________91633402ce01916200230b918991869060040162004502565b60206040518083038186803b1580156200232457600080fd5b505af415801562002339573d6000803e3d6000fd5b505050506040513d601f19601f820116820180604052506200235f9190810190620036cf565b6200237e5760405162461bcd60e51b81526004016200079a90620045b7565b604080516080810182528581526020810185905290810183905260608101600190526001600160a01b0386166000908152600360209081526040909120825181558282015180519192620023db92600185019290910190620032b4565b5060408201518051620023f9916002840191602090910190620032b4565b50606082015160038201805460ff191660018360058111156200241857fe5b0217905550905050846001600160a01b03167fd7ce85b2047049e12d351432c1bdab3b893aa58d63cb08da1c461cb0260c71e485858560016040516200114a9493929190620047bf565b6001600160a01b03861660009081526003602081905260408220015460019060ff1660058111156200249057fe5b14620024b05760405162461bcd60e51b81526004016200079a9062004647565b6001600160801b03198516600090815260046020526040902060010154600160201b90046001600160a01b0316620024fc5760405162461bcd60e51b81526004016200079a90620046e9565b6001600160801b031985166000908152600460205260409020600101546001600160a01b03888116600160201b9092041614156200254e5760405162461bcd60e51b81526004016200079a906200479d565b60ff84166001148062002564575060ff84166002145b620025835760405162461bcd60e51b81526004016200079a9062004611565b600060ff8516600114156200260a576001600160801b0319861660009081526004602090815260408083206001600160a01b038c168452600a0190915290205460ff1615620025e65760405162461bcd60e51b81526004016200079a906200470d565b506001600160801b031985166000908152600460205260409020600501546200267d565b6001600160801b0319861660009081526004602090815260408083206001600160a01b038c168452600b0190915290205460ff16156200265e5760405162461bcd60e51b81526004016200079a906200468f565b506001600160801b031985166000908152600460205260409020600601545b6040805160e081018252600181526020810189905273254dffcd3277c0b1660f6d42efbb754edababc2b818301526001600160a01b038a1660608201526001600160801b03198816608082015260ff871660a082015260c081018690529051635e03129960e11b815273__XBRTypes______________________________9163bc0625329162002714918c918890600401620044c8565b60206040518083038186803b1580156200272d57600080fd5b505af415801562002742573d6000803e3d6000fd5b505050506040513d601f19601f82011682018060405250620027689190810190620036cf565b620027875760405162461bcd60e51b81526004016200079a9062004659565b80156200288e576000600160049054906101000a90046001600160a01b03166001600160a01b03166323b872dd8a600460008b6001600160801b0319166001600160801b031916815260200190815260200160002060010160049054906101000a90046001600160a01b0316856040518463ffffffff1660e01b81526004016200281493929190620044b8565b602060405180830381600087803b1580156200282f57600080fd5b505af115801562002844573d6000803e3d6000fd5b505050506040513d601f19601f820116820180604052506200286a9190810190620036cf565b9050806200288c5760405162461bcd60e51b81526004016200079a906200471f565b505b60ff851660011415620029a95760405180608001604052808881526020018281526020018581526020016000604051908082528060200260200182016040528015620028e4578160200160208202803883390190505b5090526001600160801b0319871660009081526004602090815260408083206001600160a01b038d168452600a01825291829020835181558382015160018201559183015180516200293d9260028501920190620032b4565b50606082015180516200295b91600384019160209091019062003347565b5050506001600160801b0319861660009081526004602090815260408220600801805460018101825590835291200180546001600160a01b0319166001600160a01b038a1617905562002ab2565b60405180608001604052808881526020018281526020018581526020016000604051908082528060200260200182016040528015620029f2578160200160208202803883390190505b5090526001600160801b0319871660009081526004602090815260408083206001600160a01b038d168452600b018252918290208351815583820151600182015591830151805162002a4b9260028501920190620032b4565b506060820151805162002a6991600384019160209091019062003347565b5050506001600160801b0319861660009081526004602090815260408220600901805460018101825590835291200180546001600160a01b0319166001600160a01b038a161790555b856001600160801b0319167f7c37cc18b0d70854a11abeed873f3c5dea809a2b3522ff30f58ba8e6a04cdc7b89878a858960405162002af695949392919062004526565b60405180910390a290505b9695505050505050565b6000620006de818363ffffffff620031cb16565b6001600160801b031981166000908152600460209081526040918290206009018054835181840281018401909452808452606093928301828280156200184c576020028201919060005260206000209081546001600160a01b031681526001909101906020018083116200182d5750505050509050919050565b6001600160a01b038216600090815260076020526040812080548390811062002bbe57fe5b90600052602060002090600291828204019190066010029054906101000a900460801b905092915050565b3360009081526003602081905260408220015460019060ff16600581111562002c0e57fe5b1462002c2e5760405162461bcd60e51b81526004016200079a9062004647565b6001600160801b03198416600090815260046020526040902060010154600160201b90046001600160a01b031662002c7a5760405162461bcd60e51b81526004016200079a90620046e9565b6001600160801b03198416600090815260046020526040902060010154600160201b90046001600160a01b031633141562002cc95760405162461bcd60e51b81526004016200079a906200479d565b60ff83166001148062002cdf575060ff83166002145b62002cfe5760405162461bcd60e51b81526004016200079a9062004611565b600060ff84166001141562002d7c576001600160801b031985166000908152600460209081526040808320338452600a0190915290205460ff161562002d585760405162461bcd60e51b81526004016200079a906200470d565b506001600160801b0319841660009081526004602052604090206005015462002de6565b6001600160801b031985166000908152600460209081526040808320338452600b0190915290205460ff161562002dc75760405162461bcd60e51b81526004016200079a906200468f565b506001600160801b031984166000908152600460205260409020600601545b801562002ecb57600180546001600160801b0319871660009081526004602081905260408083209094015493516323b872dd60e01b815291936001600160a01b03600160201b948590048116946323b872dd9462002e51943394929092049092169188910162004328565b602060405180830381600087803b15801562002e6c57600080fd5b505af115801562002e81573d6000803e3d6000fd5b505050506040513d601f19601f8201168201806040525062002ea79190810190620036cf565b90508062002ec95760405162461bcd60e51b81526004016200079a906200471f565b505b4260ff85166001141562002fd5576040518060800160405280828152602001838152602001858152602001600060405190808252806020026020018201604052801562002f22578160200160208202803883390190505b5090526001600160801b031987166000908152600460209081526040808320338452600a018252918290208351815583820151600182015591830151805162002f729260028501920190620032b4565b506060820151805162002f9091600384019160209091019062003347565b5050506001600160801b0319861660009081526004602090815260408220600801805460018101825590835291200180546001600160a01b03191633179055620030cc565b604051806080016040528082815260200183815260200185815260200160006040519080825280602002602001820160405280156200301e578160200160208202803883390190505b5090526001600160801b031987166000908152600460209081526040808320338452600b01825291829020835181558382015160018201559183015180516200306e9260028501920190620032b4565b50606082015180516200308c91600384019160209091019062003347565b5050506001600160801b0319861660009081526004602090815260408220600901805460018101825590835291200180546001600160a01b031916331790555b856001600160801b0319167f7c37cc18b0d70854a11abeed873f3c5dea809a2b3522ff30f58ba8e6a04cdc7b33878486896040516200311095949392919062004356565b60405180910390a250949350505050565b600154600160201b90046001600160a01b031681565b6200314a60008263ffffffff6200321616565b6040516001600160a01b038216907fa7b36d52bea726c3aa90d876d0e52a1089a347b3e3408a03f08eae32f96fdbb490600090a250565b6200319460008263ffffffff6200326316565b6040516001600160a01b038216907f1390a149489c82e9e2e89927bdb17ad1ea3f0cc314fce06c96369721d3afb8f090600090a250565b60006001600160a01b038216620031f65760405162461bcd60e51b81526004016200079a90620046d7565b506001600160a01b03166000908152602091909152604090205460ff1690565b620032228282620031cb565b620032415760405162461bcd60e51b81526004016200079a906200467d565b6001600160a01b0316600090815260209190915260409020805460ff19169055565b6200326f8282620031cb565b156200328f5760405162461bcd60e51b81526004016200079a9062004593565b6001600160a01b0316600090815260209190915260409020805460ff19166001179055565b828054600181600116156101000203166002900490600052602060002090601f016020900481019282601f10620032f757805160ff191683800117855562003327565b8280016001018555821562003327579182015b82811115620033275782518255916020019190600101906200330a565b5062003335929150620033ad565b5090565b6112988062004aa583390190565b8280548282559060005260206000209081019282156200339f579160200282015b828111156200339f57825182546001600160a01b0319166001600160a01b0390911617825560209092019160019091019062003368565b5062003335929150620033ca565b6200091391905b80821115620033355760008155600101620033b4565b6200091391905b80821115620033355780546001600160a01b0319168155600101620033d1565b8035620006de8162004a56565b8051620006de8162004a56565b8051620006de8162004a6d565b8035620006de8162004a78565b600082601f8301126200343757600080fd5b81356200344e62003448826200493a565b62004912565b915080825260208301602083018583830111156200346b57600080fd5b62003478838284620049f7565b50505092915050565b8035620006de8162004a83565b8051620006de8162004a83565b8035620006de8162004a8e565b8035620006de8162004a99565b600060208284031215620034c857600080fd5b6000620034d68484620033f1565b949350505050565b600060208284031215620034f157600080fd5b6000620034d68484620033fe565b600080604083850312156200351357600080fd5b6000620035218585620033f1565b9250506020620035348582860162003481565b9150509250929050565b60008060008060008060c087890312156200355857600080fd5b6000620035668989620033f1565b96505060206200357989828a0162003481565b95505060406200358c89828a0162003418565b94505060606200359f89828a01620034a8565b935050608087013567ffffffffffffffff811115620035bd57600080fd5b620035cb89828a0162003425565b92505060a087013567ffffffffffffffff811115620035e957600080fd5b620035f789828a0162003425565b9150509295509295509295565b600080600080600060a086880312156200361d57600080fd5b60006200362b8888620033f1565b95505060206200363e8882890162003481565b945050604086013567ffffffffffffffff8111156200365c57600080fd5b6200366a8882890162003425565b935050606086013567ffffffffffffffff8111156200368857600080fd5b620036968882890162003425565b925050608086013567ffffffffffffffff811115620036b457600080fd5b620036c28882890162003425565b9150509295509295909350565b600060208284031215620036e257600080fd5b6000620034d684846200340b565b6000602082840312156200370357600080fd5b6000620034d6848462003418565b600080604083850312156200372557600080fd5b600062003733858562003418565b92505060206200353485828601620033f1565b600080600080600060a086880312156200375f57600080fd5b60006200376d888862003418565b95505060206200378088828901620033f1565b94505060406200379388828901620033f1565b9350506060620037a68882890162003481565b9250506080620036c2888289016200349b565b600080600060608486031215620037cf57600080fd5b6000620037dd868662003418565b9350506020620037f086828701620033f1565b92505060406200380386828701620034a8565b9150509250925092565b600080600080600080600060e0888a0312156200382957600080fd5b6000620038378a8a62003418565b975050602088013567ffffffffffffffff8111156200385557600080fd5b620038638a828b0162003425565b965050604088013567ffffffffffffffff8111156200388157600080fd5b6200388f8a828b0162003425565b9550506060620038a28a828b01620033f1565b9450506080620038b58a828b0162003481565b93505060a0620038c88a828b0162003481565b92505060c0620038db8a828b0162003481565b91505092959891949750929550565b6000806000606084860312156200390057600080fd5b60006200390e868662003418565b93505060206200392186828701620034a8565b925050604084013567ffffffffffffffff8111156200393f57600080fd5b620038038682870162003425565b600080604083850312156200396157600080fd5b823567ffffffffffffffff8111156200397957600080fd5b620039878582860162003425565b925050602083013567ffffffffffffffff811115620039a557600080fd5b620035348582860162003425565b600060208284031215620039c657600080fd5b6000620034d6848462003481565b600060208284031215620039e757600080fd5b6000620034d684846200348e565b600062003a03838362003a1c565b505060200190565b62003a1681620049c8565b82525050565b62003a168162004976565b600062003a348262004969565b62003a4081856200496d565b935062003a4d8362004963565b8060005b8381101562003a8157815162003a688882620039f5565b975062003a758362004963565b92505060010162003a51565b509495945050505050565b62003a168162004983565b62003a168162004988565b600062003aaf8262004969565b62003abb81856200496d565b935062003acd81856020860162004a03565b62003ad88162004a36565b9093019392505050565b62003a1681620049d0565b62003a1681620049dd565b62003a1681620049ea565b600062003b12601f836200496d565b7f526f6c65733a206163636f756e7420616c72656164792068617320726f6c6500815260200192915050565b600062003b4d6016836200496d565b751253959053125117d0d2105393915317d05353d5539560521b815260200192915050565b600062003b816021836200496d565b7f494e56414c49445f4d454d4245525f52454749535445525f5349474e415455528152604560f81b602082015260400192915050565b600062003bc66019836200496d565b7f4d454d4245525f414c52454144595f5245474953544552454400000000000000815260200192915050565b600062003c016018836200496d565b7f494e56414c49445f4348414e4e454c5f44454c45474154450000000000000000815260200192915050565b600062003c3c6010836200496d565b6f4e4f5f434f4e53554d45525f524f4c4560801b815260200192915050565b600062003c6a6015836200496d565b744d41524b45545f414c52454144595f45584953545360581b815260200192915050565b600062003c9d6012836200496d565b71494e56414c49445f4143544f525f5459504560701b815260200192915050565b600062003ccd6026836200496d565b7f4d414b45525f414c52454144595f574f524b494e475f464f525f4f544845525f81526513505492d15560d21b602082015260400192915050565b600062003d17600d836200496d565b6c24a72b20a624a22fa6a0a5a2a960991b815260200192915050565b600062003d426013836200496d565b7229a2a72222a92fa727aa2fa0afa6a2a6a122a960691b815260200192915050565b600062003d73601d836200496d565b7f494e56414c49445f4d41524b45545f4a4f494e5f5349474e4154555245000000815260200192915050565b600062003dae6016836200496d565b752727afa0a1aa24ab22afa6a0a925a2aa2fa6a0a5a2a960511b815260200192915050565b600062003de26021836200496d565b7f526f6c65733a206163636f756e7420646f6573206e6f74206861766520726f6c8152606560f81b602082015260400192915050565b600062003e27601a836200496d565b7f414c52454144595f4a4f494e45445f41535f434f4e53554d4552000000000000815260200192915050565b600062003e626016836200496d565b752922a1a4a824a2a72a2fa727aa2fa82927ab24a222a960511b815260200192915050565b600062003e966010836200496d565b6f29a2a72222a92fa727aa2fa6a0a5a2a960811b815260200192915050565b600062003ec46019836200496d565b7f494e56414c49445f4348414e4e454c5f524543495049454e5400000000000000815260200192915050565b600062003eff6022836200496d565b7f526f6c65733a206163636f756e7420697320746865207a65726f206164647265815261737360f01b602082015260400192915050565b600062003f45600e836200496d565b6d1393d7d4d550d217d3505492d15560921b815260200192915050565b600062003f716019836200496d565b7f494e56414c49445f434f4e53554d45525f534543555249545900000000000000815260200192915050565b600062003fac601a836200496d565b7f414c52454144595f4a4f494e45445f41535f50524f5649444552000000000000815260200192915050565b600062003fe76020836200496d565b7f4a4f494e5f4d41524b45545f5452414e534645525f46524f4d5f4641494c4544815260200192915050565b6000620040226017836200496d565b7f494e56414c49445f4348414e4e454c5f54494d454f5554000000000000000000815260200192915050565b60006200405d600c836200496d565b6b494e56414c49445f45554c4160a01b815260200192915050565b6000620040876014836200496d565b7314d15391115497d393d517d49150d2541251539560621b815260200192915050565b6000620040b96012836200496d565b71494e56414c49445f4d41524b45545f46454560701b815260200192915050565b6000620040e96021836200496d565b7f4f50454e5f4348414e4e454c5f5452414e534645525f46524f4d5f4641494c458152601160fa1b602082015260400192915050565b60006200412e6019836200496d565b7f494e56414c49445f50524f56494445525f534543555249545900000000000000815260200192915050565b600062004169600f836200496d565b6e29a2a72222a92fa4a9afa7aba722a960891b815260200192915050565b805160009060e08401906200419d8582620042ab565b506020830151620041b26020860182620042ab565b506040830151620041c7604086018262003a1c565b506060830151620041dc606086018262003a1c565b506080830151620041f1608086018262003a97565b5060a08301516200420660a0860182620042c1565b5060c083015184820360c086015262000e51828262003aa2565b805160009060c0840190620042368582620042ab565b5060208301516200424b6020860182620042ab565b50604083015162004260604086018262003a1c565b50606083015162004275606086018262003a1c565b50608083015184820360808601526200428f828262003aa2565b91505060a083015184820360a086015262000e51828262003aa2565b62003a168162000913565b62003a1681620049b9565b62003a1681620049c2565b60208101620006de828462003a1c565b60a08101620042ec828862003a0b565b620042fb602083018762003a1c565b6200430a604083018662003a1c565b620043196060830185620042ab565b62002b016080830184620042b6565b6060810162004338828662003a0b565b62004347602083018562003a1c565b620034d66040830184620042ab565b60a0810162004366828862003a0b565b620043756020830187620042c1565b620043846040830186620042ab565b620043936060830185620042ab565b8181036080830152620043a7818462003aa2565b979650505050505050565b60a08101620043c2828862003a1c565b620043d1602083018762003a1c565b620043e0604083018662003a1c565b620043ef606083018562003a1c565b62002b01608083018462003aed565b61016081016200440f828e62003a1c565b6200441e602083018d62003a1c565b6200442d604083018c62003a1c565b6200443c606083018b62003a97565b6200444b608083018a62003a1c565b6200445a60a083018962003a0b565b6200446960c083018862003a1c565b6200447860e083018762003a1c565b62004488610100830186620042ab565b62004498610120830185620042b6565b620044a861014083018462003aed565b9c9b505050505050505050505050565b6060810162004338828662003a1c565b60608101620044d8828662003a1c565b8181036020830152620044ec818562004187565b9050818103604083015262000e51818462003aa2565b6060810162004512828662003a1c565b8181036020830152620044ec818562004220565b60a0810162004366828862003a1c565b6020808252810162004549818462003a27565b9392505050565b60208101620006de828462003a8c565b60208101620006de828462003a97565b60208101620006de828462003ae2565b6020808252810162004549818462003aa2565b60208082528101620006de8162003b03565b60208082528101620006de8162003b3e565b60208082528101620006de8162003b72565b60208082528101620006de8162003bb7565b60208082528101620006de8162003bf2565b60208082528101620006de8162003c2d565b60208082528101620006de8162003c5b565b60208082528101620006de8162003c8e565b60208082528101620006de8162003cbe565b60208082528101620006de8162003d08565b60208082528101620006de8162003d33565b60208082528101620006de8162003d64565b60208082528101620006de8162003d9f565b60208082528101620006de8162003dd3565b60208082528101620006de8162003e18565b60208082528101620006de8162003e53565b60208082528101620006de8162003e87565b60208082528101620006de8162003eb5565b60208082528101620006de8162003ef0565b60208082528101620006de8162003f36565b60208082528101620006de8162003f62565b60208082528101620006de8162003f9d565b60208082528101620006de8162003fd8565b60208082528101620006de8162004013565b60208082528101620006de816200404e565b60208082528101620006de8162004078565b60208082528101620006de81620040aa565b60208082528101620006de81620040da565b60208082528101620006de816200411f565b60208082528101620006de816200415a565b60208101620006de8284620042ab565b60808101620047cf8287620042ab565b8181036020830152620047e3818662003aa2565b90508181036040830152620047f9818562003aa2565b905062000e51606083018462003af8565b606081016200481a8286620042ab565b620048296020830185620042ab565b818103604083015262000e51818462003aa2565b61012081016200484e828c620042ab565b6200485d602083018b620042b6565b6200486c604083018a62003a0b565b818103606083015262004880818962003aa2565b9050818103608083015262004896818862003aa2565b9050620048a760a083018762003a1c565b620048b660c0830186620042ab565b620048c560e0830185620042ab565b620048d5610100830184620042ab565b9a9950505050505050505050565b6101208101620048f4828c620042ab565b62004903602083018b620042b6565b6200486c604083018a62003a1c565b60405181810167ffffffffffffffff811182821017156200493257600080fd5b604052919050565b600067ffffffffffffffff8211156200495257600080fd5b506020601f91909101601f19160190565b60200190565b5190565b90815260200190565b6000620006de82620049ad565b151590565b6001600160801b03191690565b806200074f8162004a40565b806200074f8162004a4b565b6001600160a01b031690565b63ffffffff1690565b60ff1690565b6000620006de825b6000620006de8262004976565b6000620006de8262004995565b6000620006de82620049a1565b82818337506000910152565b60005b8381101562004a2057818101518382015260200162004a06565b8381111562004a30576000848401525b50505050565b601f01601f191690565b600381106200117957fe5b600681106200117957fe5b62004a618162004976565b81146200117957600080fd5b62004a618162004983565b62004a618162004988565b62004a618162000913565b62004a6181620049b9565b62004a6181620049c256fe608060405234801561001057600080fd5b50604051611298380380611298833981810160405261016081101561003457600080fd5b508051602082015160408301516060840151608085015160a086015160c087015160e08801516101008901516101208a0151610140909a0151600380546001600160a01b03808d166001600160a01b03199283161790925560048054928b1692909116919091178082559a9b999a98999798969795969495939492939282919060ff60a01b1916600160a01b8360028111156100cc57fe5b0217905550600480546001919060ff60a81b1916600160a81b830217905550600580546001600160801b03191660808a811c91909117909155600680546001600160a01b03199081166001600160a01b038b8116919091179092556007805482168a8416179055600880548216898416179055600980548216888416179055600a869055600e805463ffffffff191663ffffffff871617905542600b5560018054909116918d169190911781556040805160c0810182526003938101938452622c212960e91b60a082015292835280518082018252828152603160f81b60208083019190915284015282015273254dffcd3277c0b1660f6d42efbb754edababc2b60608201526101db906101ef565b600055506102729950505050505050505050565b6000604051808061124660529139604080519182900360520182208551805160209182012081880151805190830120888501516060808b015185890196909652878701939093529186015260808501526001600160a01b0390911660a0808501919091528251808503909101815260c09093019091528151910120915050919050565b610fc5806102816000396000f3fe608060405234801561001057600080fd5b50600436106101005760003560e01c806370dea79a11610097578063aa8c217c11610066578063aa8c217c14610415578063b86c0e1f1461041d578063c19d93fb14610425578063c89e43611461043d57610100565b806370dea79a1461029a57806386a4fb02146102bb5780638a9e5104146104055780639ef27b001461040d57610100565b806366d003ac116100d357806366d003ac1461025d5780636739afca1461026557806367e404ce1461026d5780636ed71ede1461027557610100565b806305a787501461010557806323bd4d7a146101315780632b5bb52a146101555780633893020314610243575b600080fd5b61010d610445565b6040518082600281111561011d57fe5b60ff16815260200191505060405180910390f35b610139610455565b604080516001600160a01b039092168252519081900360200190f35b61022f600480360360c081101561016b57600080fd5b6001600160a01b03823581169260208101359091169163ffffffff6040830135169160608101359160808201351515919081019060c0810160a08201356401000000008111156101ba57600080fd5b8201836020820111156101cc57600080fd5b803590602001918460018302840111640100000000831117156101ee57600080fd5b91908080601f016020809104026020016040519081016040528093929190818152602001838380828437600092019190915250929550610464945050505050565b604080519115158252519081900360200190f35b61024b610587565b60408051918252519081900360200190f35b61013961058d565b61013961059c565b6101396105ab565b61027d6105ba565b604080516001600160801b03199092168252519081900360200190f35b6102a26105c3565b6040805163ffffffff9092168252519081900360200190f35b610403600480360360a08110156102d157600080fd5b63ffffffff8235169160208101359160408201351515919081019060808101606082013564010000000081111561030757600080fd5b82018360208201111561031957600080fd5b8035906020019184600183028401116401000000008311171561033b57600080fd5b91908080601f016020809104026020016040519081016040528093929190818152602001838380828437600092019190915250929594936020810193503591505064010000000081111561038e57600080fd5b8201836020820111156103a057600080fd5b803590602001918460018302840111640100000000831117156103c257600080fd5b91908080601f0160208091040260200160405190810160405280939291908181526020018383808284376000920191909152509295506105cf945050505050565b005b610139610d66565b61024b610d75565b61024b610d7b565b61024b610d81565b61042d610d87565b6040518082600381111561011d57fe5b610139610d97565b600454600160a01b900460ff1681565b6003546001600160a01b031681565b60008060008061047385610da6565b925092509250610481610eae565b50604080516080810182526001600160a01b038b16815263ffffffff8a1660208201529081018890528615156060820152600080546104bf83610e2f565b604051602001808061190160f01b815250600201838152602001828152602001925050506040516020818303038152906040528051906020012090508b6001600160a01b031660018287878760405160008152602001604052604051808581526020018460ff1660ff1681526020018381526020018281526020019450505050506020604051602081039080840390855afa158015610562573d6000803e3d6000fd5b505050602060405103516001600160a01b031614955050505050509695505050505050565b600b5481565b6009546001600160a01b031681565b6004546001600160a01b031681565b6007546001600160a01b031681565b60055460801b81565b600e5463ffffffff1681565b6008546105e9906001600160a01b03163087878787610464565b61063a576040805162461bcd60e51b815260206004820152601a60248201527f494e56414c49445f44454c45474154455f5349474e4154555245000000000000604482015290519081900360640190fd5b600654610654906001600160a01b03163087878786610464565b6106a5576040805162461bcd60e51b815260206004820152601d60248201527f494e56414c49445f4d41524b45544d414b45525f5349474e4154555245000000604482015290519081900360640190fd5b600a548411156106fc576040805162461bcd60e51b815260206004820152601760248201527f494e56414c49445f434c4f53494e475f42414c414e4345000000000000000000604482015290519081900360640190fd5b60018563ffffffff16101561074e576040805162461bcd60e51b8152602060048201526013602482015272494e56414c49445f434c4f53494e475f53455160681b604482015290519081900360640190fd5b6001600454600160a81b900460ff16600381111561076857fe5b148061078b57506002600454600160a81b900460ff16600381111561078957fe5b145b6107cf576040805162461bcd60e51b815260206004820152601060248201526f21a420a72722a62fa727aa2fa7a822a760811b604482015290519081900360640190fd5b6002600454600160a81b900460ff1660038111156107e957fe5b14156108ea57600d5415610844576040805162461bcd60e51b815260206004820181905260248201527f494e5445524e414c5f4552524f525f434c4f5345445f41545f4e4f4e5a45524f604482015290519081900360640190fd5b600c54421061088c576040805162461bcd60e51b815260206004820152600f60248201526e10d2105393915317d512535153d555608a1b604482015290519081900360640190fd5b60015463ffffffff600160a01b9091048116908616106108ea576040805162461bcd60e51b815260206004820152601460248201527327aaaa2220aa22a22faa2920a729a0a1aa24a7a760611b604482015290519081900360640190fd5b600a5460015490859003908590606483049081840390600160a01b900463ffffffff908116908a161115610a3f57600154600160a01b900463ffffffff161561098457600254881115610984576040805162461bcd60e51b815260206004820152601c60248201527f5452414e53414354494f4e5f42414c414e43455f4f5554444154454400000000604482015290519081900360640190fd5b6004805460ff60a81b1916600160a91b1790556001805463ffffffff8b8116600160a01b0263ffffffff60a01b19909216919091179091556002899055600e5442911601600c819055600554600754604080516001600160a01b0390921682526020820185905281810186905260608201879052608080830194909452516001600160801b03199290931b91909116917f923a6b018992e2b7b9726ce9ca5ad625bf9047554fe62452bb13c513382e599f9181900360a00190a25b8680610a49575087155b80610a7857506002600454600160a81b900460ff166003811115610a6957fe5b148015610a785750600c544210155b15610d5b578015610b43576001546009546040805163a9059cbb60e01b81526001600160a01b039283166004820152602481018590529051919092169163a9059cbb9160448083019260209291908290030181600087803b158015610adc57600080fd5b505af1158015610af0573d6000803e3d6000fd5b505050506040513d6020811015610b0657600080fd5b5051610b435760405162461bcd60e51b8152600401808060200182810382526024815260200180610f6d6024913960400191505060405180910390fd5b8115610c09576001546003546040805163a9059cbb60e01b81526001600160a01b039283166004820152602481018690529051919092169163a9059cbb9160448083019260209291908290030181600087803b158015610ba257600080fd5b505af1158015610bb6573d6000803e3d6000fd5b505050506040513d6020811015610bcc57600080fd5b5051610c095760405162461bcd60e51b8152600401808060200182810382526021815260200180610ed66021913960400191505060405180910390fd5b8215610ccf576001546007546040805163a9059cbb60e01b81526001600160a01b039283166004820152602481018790529051919092169163a9059cbb9160448083019260209291908290030181600087803b158015610c6857600080fd5b505af1158015610c7c573d6000803e3d6000fd5b505050506040513d6020811015610c9257600080fd5b5051610ccf5760405162461bcd60e51b8152600401808060200182810382526024815260200180610f496024913960400191505060405180910390fd5b42600d8190556004805460ff60a81b1916600360a81b179055600554600754604080516001600160a01b0390921682526020820185905281810186905260608201879052608080830194909452519190921b6001600160801b031916917f800105c84e45907e1a349f0e6e5bfbd427efc3dc4de8974ea11f6fe6d3d9108b9160a0918190039190910190a25b505050505050505050565b6006546001600160a01b031681565b600d5481565b600a5481565b600c5481565b600454600160a81b900460ff1681565b6008546001600160a01b031681565b60008060008351604114610e01576040805162461bcd60e51b815260206004820152601860248201527f494e56414c49445f5349474e41545552455f4c454e4754480000000000000000604482015290519081900360640190fd5b50505060208101516040820151604183015160ff169190601b831015610e2857601b830192505b9193909250565b60006040518080610ef760529139604080519182900360520182208551602080880151888501516060998a0151838801959095526001600160a01b039093168686015263ffffffff16978501979097526080840152151560a0808401919091528151808403909101815260c09092019052805193019290922092915050565b6040805160808101825260008082526020820181905291810182905260608101919091529056fe4348414e4e454c5f434c4f53455f4645455f5452414e534645525f4641494c45444368616e6e656c436c6f73652861646472657373206368616e6e656c5f6164722c75696e743332206368616e6e656c5f7365712c75696e743235362062616c616e63652c626f6f6c2069735f66696e616c294348414e4e454c5f434c4f53455f524546554e445f5452414e534645525f4641494c45444348414e4e454c5f434c4f53455f5041594f55545f5452414e534645525f4641494c4544a265627a7a72315820148bf7038d211475d468f801ae2895054b54cbe713b6712748ea017cf9c274dc64736f6c63430005100032454950373132446f6d61696e28737472696e67206e616d652c737472696e672076657273696f6e2c75696e7432353620636861696e49642c6164647265737320766572696679696e67436f6e747261637429516d563165654465787453645572525551703974555846385364765665796b616977594c67725848485679554c59a365627a7a72315820d847d90a9315a774a8f52ec3885f85cc2850cb7b9e899bab0567abebd238eae16c6578706572696d656e74616cf564736f6c63430005100040",
  "source": "///////////////////////////////////////////////////////////////////////////////\n//\n//  Copyright (C) 2018-2019 Crossbar.io Technologies GmbH and contributors.\n//\n//  Licensed under the Apache License, Version 2.0 (the \"License\");\n//  you may not use this file except in compliance with the License.\n//  You may obtain a copy of the License at\n//\n//      http://www.apache.org/licenses/LICENSE-2.0\n//\n//  Unless required by applicable law or agreed to in writing, software\n//  distributed under the License is distributed on an \"AS IS\" BASIS,\n//  WITHOUT WARRANTIES OR CONDITIONS OF ANY KIND, either express or implied.\n//  See the License for the specific language governing permissions and\n//  limitations under the License.\n//\n///////////////////////////////////////////////////////////////////////////////\n\npragma solidity ^0.5.0;\npragma experimental ABIEncoderV2;\n\n// https://openzeppelin.org/api/docs/math_SafeMath.html\nimport \"openzeppelin-solidity/contracts/math/SafeMath.sol\";\n\nimport \"./XBRToken.sol\";\nimport \"./XBRTypes.sol\";\nimport \"./XBRMaintained.sol\";\nimport \"./XBRChannel.sol\";\n\n\n/**\n * @title XBR Network main smart contract.\n * @author The XBR Project\n */\ncontract XBRNetwork is XBRMaintained {\n\n    // Add safe math functions to uint256 using SafeMath lib from OpenZeppelin\n    using SafeMath for uint256;\n\n    // //////// events for MEMBERS\n\n    /// Event emitted when a new member joined the XBR Network.\n    event MemberCreated (address indexed member, uint registered, string eula, string profile, XBRTypes.MemberLevel level);\n\n    /// Event emitted when a member leaves the XBR Network.\n    event MemberRetired (address member);\n\n    // //////// events for MARKETS\n\n    /// Event emitted when a new market was created.\n    event MarketCreated (bytes16 indexed marketId, uint created, uint32 marketSeq, address owner, string terms,\n        string meta, address maker, uint256 providerSecurity, uint256 consumerSecurity, uint256 marketFee);\n\n    /// Event emitted when a market was updated.\n    event MarketUpdated (bytes16 indexed marketId, uint32 marketSeq, address owner, string terms, string meta,\n        address maker, uint256 providerSecurity, uint256 consumerSecurity, uint256 marketFee);\n\n    /// Event emitted when a market was closed.\n    event MarketClosed (bytes16 indexed marketId);\n\n    /// Event emitted when a new actor joined a market.\n    event ActorJoined (bytes16 indexed marketId, address actor, uint8 actorType, uint joined,\n        uint256 security, string meta);\n\n    /// Event emitted when an actor has left a market.\n    event ActorLeft (bytes16 indexed marketId, address actor, uint8 actorType);\n\n    /// Event emitted when a new payment channel was created in a market.\n    event ChannelCreated (bytes16 indexed marketId, address sender, address delegate,\n        address recipient, address channel, XBRChannel.ChannelType channelType);\n\n    /// Event emitted when a new request for a paying channel was created in a market.\n    event PayingChannelRequestCreated (bytes16 indexed marketId, address sender, address recipient, address delegate,\n        uint256 amount, uint32 timeout);\n\n    // Note: closing event of payment channels are emitted from XBRChannel (not from here)\n\n    /// Created markets are sequence numbered using this counter (to allow deterministic collision-free IDs for markets)\n    uint32 private marketSeq = 1;\n\n    /// XBR network EULA (IPFS Multihash). Source: https://github.com/crossbario/xbr-protocol/tree/master/ipfs/xbr-eula\n    string public constant eula = \"QmV1eeDextSdUrRUQp9tUXF8SdvVeykaiwYLgrXHHVyULY\";\n\n    /// XBR Network ERC20 token (XBR for the CrossbarFX technology stack)\n    XBRToken public token;\n\n    /// Address of the `XBR Network Organization <https://xbr.network/>`_\n    address private organization;\n\n    /// Current XBR Network members (\"member directory\").\n    mapping(address => XBRTypes.Member) public members;\n\n    /// Current XBR Markets (\"market directory\")\n    mapping(bytes16 => XBRTypes.Market) public markets;\n\n    /// List of IDs of current XBR Markets.\n    bytes16[] public marketIds;\n\n    /// Index: maker address => market ID\n    mapping(address => bytes16) public marketsByMaker;\n\n    /// Index: market owner address => [market ID]\n    mapping(address => bytes16[]) public marketsByOwner;\n\n    /**\n     * Create a new network.\n     *\n     * @param token_ The token to run this network on.\n     * @param organization_ The network technology provider and ecosystem sponsor.\n     */\n    constructor (address token_, address organization_) public {\n\n        token = XBRToken(token_);\n        organization = organization_;\n\n        // Technical creator is XBR member (by definition).\n        members[msg.sender] = XBRTypes.Member(block.timestamp, \"\", \"\", XBRTypes.MemberLevel.VERIFIED);\n    }\n\n    /**\n     * Register sender in the XBR Network. All XBR stakeholders, namely XBR Data Providers,\n     * XBR Data Consumers and XBR Data Market Operators, must first register\n     * with the XBR Network on the global blockchain by calling this function.\n     *\n     * @param eula_ The IPFS Multihash of the XBR EULA being agreed to and stored as one ZIP file archive on IPFS.\n     * @param profile_ Optional public member profile: the IPFS Multihash of the member profile stored in IPFS.\n     */\n    function register (string memory eula_, string memory profile_) public {\n        // check that sender is not already a member\n        require(uint8(members[msg.sender].level) == 0, \"MEMBER_ALREADY_REGISTERED\");\n\n        // check that the EULA the member accepted is the one we expect\n        require(keccak256(abi.encode(eula_)) ==\n                keccak256(abi.encode(eula)), \"INVALID_EULA\");\n\n        // remember the member\n        uint registered = block.timestamp;\n        members[msg.sender] = XBRTypes.Member(registered, eula_, profile_, XBRTypes.MemberLevel.ACTIVE);\n\n        // notify observers of new member\n        emit MemberCreated(msg.sender, registered, eula_, profile_, XBRTypes.MemberLevel.ACTIVE);\n    }\n\n    /**\n     * Register sender in the XBR Network. All XBR stakeholders, namely XBR Data Providers,\n     * XBR Data Consumers and XBR Data Market Operators, must first register\n     * with the XBR Network on the global blockchain by calling this function.\n     *\n     * IMPORTANT: This version uses pre-signed data where the actual blockchain transaction is\n     * submitted by a gateway paying the respective gas (in ETH) for the blockchain transaction.\n     *\n     * @param member Address of the registering (new) member.\n     * @param registered Block number at which the registering member has created the signature.\n     * @param eula_ The IPFS Multihash of the XBR EULA being agreed to and stored as one ZIP file archive on IPFS.\n     * @param profile_ Optional public member profile: the IPFS Multihash of the member profile stored in IPFS.\n     * @param signature EIP712 signature (using private key of member) over\n     *                  `(chain_id, contract_adr, register_at, eula_hash, profile_hash)`.\n     */\n    function registerFor (address member, uint256 registered, string memory eula_,\n        string memory profile_, bytes memory signature) public {\n\n        // check that sender is not already a member\n        require(uint8(members[member].level) == 0, \"MEMBER_ALREADY_REGISTERED\");\n\n        // FIXME: check registered\n\n        // check that the EULA the member accepted is the one we expect\n        require(keccak256(abi.encode(eula_)) ==\n                keccak256(abi.encode(eula)), \"INVALID_EULA\");\n\n        // FIXME: check profile\n\n        // FIXME:\n        require(XBRTypes.verify(member, XBRTypes.EIP712MemberRegister(1, registered, 0x254dffcd3277C0b1660F6d42EFbB754edaBAbC2B,\n            member, eula_, profile_), signature), \"INVALID_MEMBER_REGISTER_SIGNATURE\");\n\n        // remember the member\n        members[member] = XBRTypes.Member(registered, eula_, profile_, XBRTypes.MemberLevel.ACTIVE);\n\n        // notify observers of new member\n        emit MemberCreated(member, registered, eula_, profile_, XBRTypes.MemberLevel.ACTIVE);\n    }\n\n    /**\n     * Leave the XBR Network.\n     */\n    // function unregister () public {\n    //     require(uint8(members[msg.sender].level) != 0, \"NO_SUCH_MEMBER\");\n    //     require((uint8(members[msg.sender].level) == uint8(XBRTypes.MemberLevel.ACTIVE)) ||\n    //             (uint8(members[msg.sender].level) == uint8(XBRTypes.MemberLevel.VERIFIED)), \"MEMBER_NOT_ACTIVE\");\n\n    //     // FIXME: check that the member has no active objects associated anymore\n    //     require(false, \"NOT_IMPLEMENTED\");\n\n    //     members[msg.sender].level = XBRTypes.MemberLevel.RETIRED;\n\n    //     emit MemberRetired(msg.sender);\n    // }\n\n    /**\n     * Manually override the member level of a XBR Network member. Being able to do so\n     * currently serves two purposes:\n     *\n     * - having a last resort to handle situation where members violated the EULA\n     * - being able to manually patch things in error/bug cases\n     *\n     * @param member The address of the XBR network member to override member level.\n     * @param level The member level to set the member to.\n     */\n    // function setMemberLevel (address member, XBRTypes.MemberLevel level) public onlyMaintainer {\n    //     require(uint(members[msg.sender].level) != 0, \"NO_SUCH_MEMBER\");\n\n    //     members[member].level = level;\n    // }\n\n    /**\n     * Create a new XBR market. The sender of the transaction must be XBR network member\n     * and automatically becomes owner of the new market.\n     *\n     * @param marketId The ID of the market to create. Must be unique (not yet existing).\n                       To generate a new ID you can do `python -c \"import uuid; print(uuid.uuid4().bytes.hex())\"`.\n     * @param terms The XBR market terms set by the market owner. IPFS Multihash pointing\n     *              to a ZIP archive file with market documents.\n     * @param meta The XBR market metadata published by the market owner. IPFS Multihash pointing\n     *             to a RDF/Turtle file with market metadata.\n     * @param maker The address of the XBR market maker that will run this market. The delegate of the market owner.\n     * @param providerSecurity The amount of XBR tokens a XBR provider joining the market must deposit.\n     * @param consumerSecurity The amount of XBR tokens a XBR consumer joining the market must deposit.\n     * @param marketFee The fee taken by the market (beneficiary is the market owner). The fee is a percentage of\n     *                  the revenue of the XBR Provider that receives XBR Token paid for transactions.\n     *                  The fee must be between 0% (inclusive) and 99% (inclusive), and is expressed as\n     *                  a fraction of the total supply of XBR tokens.\n     */\n    function createMarket (bytes16 marketId, string memory terms, string memory meta, address maker,\n        uint256 providerSecurity, uint256 consumerSecurity, uint256 marketFee) public {\n\n        // the market operator (owner) must be a registered member\n        require(members[msg.sender].level == XBRTypes.MemberLevel.ACTIVE ||\n                members[msg.sender].level == XBRTypes.MemberLevel.VERIFIED, \"SENDER_NOT_A_MEMBER\");\n\n        // market must not yet exist (to generate a new marketId: )\n        require(markets[marketId].owner == address(0), \"MARKET_ALREADY_EXISTS\");\n\n        // must provide a valid market maker address already when creating a market\n        require(maker != address(0), \"INVALID_MAKER\");\n\n        // the market maker can only work for one market\n        require(marketsByMaker[maker] == bytes16(0), \"MAKER_ALREADY_WORKING_FOR_OTHER_MARKET\");\n\n        // provider security must be non-negative (and obviously smaller than the total token supply)\n        require(providerSecurity >= 0 && providerSecurity <= token.totalSupply(), \"INVALID_PROVIDER_SECURITY\");\n\n        // consumer security must be non-negative (and obviously smaller than the total token supply)\n        require(consumerSecurity >= 0 && consumerSecurity <= token.totalSupply(), \"INVALID_CONSUMER_SECURITY\");\n\n        // FIXME: treat market fee\n        require(marketFee >= 0 && marketFee < (token.totalSupply() - 10**7) * 10**18, \"INVALID_MARKET_FEE\");\n\n        // now remember out new market ..\n        uint created = block.timestamp;\n        markets[marketId] = XBRTypes.Market(created, marketSeq, msg.sender, terms, meta, maker,\n            providerSecurity, consumerSecurity, marketFee, new address[](0), new address[](0));\n\n        // .. and the market-maker-to-market mapping\n        marketsByMaker[maker] = marketId;\n\n        // .. and the market-owner-to-market mapping\n        marketsByOwner[msg.sender].push(marketId);\n\n        // .. and list of markst IDs\n        marketIds.push(marketId);\n\n        // increment market sequence for next market\n        marketSeq = marketSeq + 1;\n\n        // notify observers (eg a dormant market maker waiting to be associated)\n        emit MarketCreated(marketId, created, marketSeq, msg.sender, terms, meta, maker,\n            providerSecurity, consumerSecurity, marketFee);\n    }\n\n    function countMarkets() public view returns (uint) {\n        return marketIds.length;\n    }\n\n    function getMarketsByOwner(address owner, uint index) public view returns (bytes16) {\n        return marketsByOwner[owner][index];\n    }\n\n    function countMarketsByOwner(address owner) public view returns (uint) {\n        return marketsByOwner[owner].length;\n    }\n\n    function getMarketActor (bytes16 marketId, address actor, uint8 actorType) public view\n        returns (uint, uint256, string memory)\n    {\n\n        // the market must exist\n        require(markets[marketId].owner != address(0), \"NO_SUCH_MARKET\");\n\n        // must ask for a data provider (seller) or data consumer (buyer)\n        require(actorType == uint8(XBRTypes.ActorType.PROVIDER) ||\n                actorType == uint8(XBRTypes.ActorType.CONSUMER), \"INVALID_ACTOR_TYPE\");\n\n        if (actorType == uint8(XBRTypes.ActorType.CONSUMER)) {\n            XBRTypes.Actor storage _actor = markets[marketId].consumerActors[actor];\n            return (_actor.joined, _actor.security, _actor.meta);\n        } else {\n            XBRTypes.Actor storage _actor = markets[marketId].providerActors[actor];\n            return (_actor.joined, _actor.security, _actor.meta);\n        }\n    }\n\n    // /**\n    //  * Update market information, like market terms, metadata or maker address.\n    //  *\n    //  * @param marketId The ID of the market to update.\n    //  * @param terms When terms should be updated, provide a string of non-zero length with\n    //  *              an IPFS Multihash pointing to the new ZIP file with market terms.\n    //  * @param meta When metadata should be updated, provide a string of non-zero length with\n    //  *             an IPFS Multihash pointing to the new RDF/Turtle file with market metadata.\n    //  * @param maker When maker should be updated, provide a non-zero address.\n    //  * @param providerSecurity Provider security to set that will apply for new members (providers) joining\n    //  *                         the market. It will NOT apply to current market members.\n    //  * @param consumerSecurity Consumer security to set that will apply for new members (consumers) joining\n    //  *                         the market. It will NOT apply to current market members.\n    //  * @param marketFee New market fee to set. The new market fee will apply to all new payment channels\n    //  *                  opened. It will NOT apply to already opened (or closed) payment channels.\n    //  * @return Flag indicating weather the market information was actually updated or left unchanged.\n    //  */\n    // function updateMarket(bytes16 marketId, string memory terms, string memory meta, address maker,\n    //     uint256 providerSecurity, uint256 consumerSecurity, uint256 marketFee) public returns (bool) {\n\n    //     Market storage market = markets[marketId];\n\n    //     require(market.owner != address(0), \"NO_SUCH_MARKET\");\n    //     require(market.owner == msg.sender, \"NOT_AUTHORIZED\");\n    //     //require(marketsByMaker[maker] == bytes16(0), \"MAKER_ALREADY_WORKING_FOR_OTHER_MARKET\");\n    //     require(marketFee >= 0 && marketFee < (10**9 - 10**7) * 10**18, \"INVALID_MARKET_FEE\");\n\n    //     bool wasChanged = false;\n\n    //     // for these knobs, only update when non-zero values provided\n    //     if (maker != address(0) && maker != market.maker) {\n    //         markets[marketId].maker = maker;\n    //         wasChanged = true;\n    //     }\n\n    //     /* FIXME: find out why including the following code leas to \"out of gas\" issues when deploying contracts\n\n    //     if (bytes(terms).length > 0 && keccak256(abi.encode(terms)) != keccak256(abi.encode(market.terms))) {\n    //         markets[marketId].terms = terms;\n    //         wasChanged = true;\n    //     }\n    //     if (bytes(meta).length > 0 && keccak256(abi.encode(meta)) != keccak256(abi.encode(market.meta))) {\n    //         markets[marketId].meta = meta;\n    //         wasChanged = true;\n    //     }\n    //     */\n\n    //     // for these knobs, we allow updating to zero value\n    //     if (providerSecurity != market.providerSecurity) {\n    //         markets[marketId].providerSecurity = providerSecurity;\n    //         wasChanged = true;\n    //     }\n    //     if (consumerSecurity != market.consumerSecurity) {\n    //         markets[marketId].consumerSecurity = consumerSecurity;\n    //         wasChanged = true;\n    //     }\n    //     if (marketFee != market.marketFee) {\n    //         markets[marketId].marketFee = marketFee;\n    //         wasChanged = true;\n    //     }\n\n    //     if (wasChanged) {\n    //         emit MarketUpdated(marketId, market.marketSeq, market.owner, market.terms, market.meta, market.maker,\n    //                 market.providerSecurity, market.consumerSecurity, market.marketFee);\n    //     }\n\n    //     return wasChanged;\n    // }\n\n    // /**\n    //  * Close a market. A closed market will not accept new memberships.\n    //  *\n    //  * @param marketId The ID of the market to close.\n    //  */\n    // function closeMarket (bytes16 marketId) public view {\n    //     require(markets[marketId].owner != address(0), \"NO_SUCH_MARKET\");\n    //     require(markets[marketId].owner == msg.sender, \"NOT_AUTHORIZED\");\n    //     // FIXME\n    //     // - remove market ID from marketIds\n    //     require(false, \"NOT_IMPLEMENTED\");\n    // }\n\n    /**\n     * Join the given XBR market as the specified type of actor, which must be PROVIDER or CONSUMER.\n     *\n     * @param marketId The ID of the XBR data market to join.\n     * @param actorType The type of actor under which to join: PROVIDER or CONSUMER.\n     * @param meta The XBR market provider/consumer metadata. IPFS Multihash pointing to a JSON file with metadata.\n     */\n    function joinMarket (bytes16 marketId, uint8 actorType, string memory meta) public returns (uint256) {\n\n        // the joining sender must be a registered member\n        require(members[msg.sender].level == XBRTypes.MemberLevel.ACTIVE, \"SENDER_NOT_A_MEMBER\");\n\n        // the market to join must exist\n        require(markets[marketId].owner != address(0), \"NO_SUCH_MARKET\");\n\n        // the market owner cannot join as an actor (provider/consumer) in the market\n        require(markets[marketId].owner != msg.sender, \"SENDER_IS_OWNER\");\n\n        // the joining member must join as a data provider (seller) or data consumer (buyer)\n        require(actorType == uint8(XBRTypes.ActorType.PROVIDER) ||\n                actorType == uint8(XBRTypes.ActorType.CONSUMER), \"INVALID_ACTOR_TYPE\");\n\n        // get the security amount required for joining the market (if any)\n        uint256 security;\n        // if (uint8(actorType) == uint8(ActorType.PROVIDER)) {\n        if (actorType == uint8(XBRTypes.ActorType.PROVIDER)) {\n            // the joining member must not be joined as a provider already\n            require(uint8(markets[marketId].providerActors[msg.sender].joined) == 0, \"ALREADY_JOINED_AS_PROVIDER\");\n            security = markets[marketId].providerSecurity;\n        } else  {\n            // the joining member must not be joined as a consumer already\n            require(uint8(markets[marketId].consumerActors[msg.sender].joined) == 0, \"ALREADY_JOINED_AS_CONSUMER\");\n            security = markets[marketId].consumerSecurity;\n        }\n\n        if (security > 0) {\n            // Transfer (if any) security to the market owner (for ActorType.CONSUMER or ActorType.PROVIDER)\n            bool success = token.transferFrom(msg.sender, markets[marketId].owner, security);\n            require(success, \"JOIN_MARKET_TRANSFER_FROM_FAILED\");\n        }\n\n        // remember actor (by actor address) within market\n        uint joined = block.timestamp;\n        if (actorType == uint8(XBRTypes.ActorType.PROVIDER)) {\n            markets[marketId].providerActors[msg.sender] = XBRTypes.Actor(joined, security, meta, new address[](0));\n            markets[marketId].providerActorAdrs.push(msg.sender);\n        } else {\n            markets[marketId].consumerActors[msg.sender] = XBRTypes.Actor(joined, security, meta, new address[](0));\n            markets[marketId].consumerActorAdrs.push(msg.sender);\n        }\n\n        // emit event ActorJoined(bytes16 marketId, address actor, ActorType actorType, uint joined,\n        //                        uint256 security, string meta)\n        emit ActorJoined(marketId, msg.sender, actorType, joined, security, meta);\n\n        // return effective security transferred\n        return security;\n    }\n\n    function joinMarketFor (address member, uint256 joined, bytes16 marketId, uint8 actorType,\n        string memory meta, bytes memory signature) public returns (uint256) {\n\n        // the joining member must be a registered member\n        require(members[member].level == XBRTypes.MemberLevel.ACTIVE, \"SENDER_NOT_A_MEMBER\");\n\n        // the market to join must exist\n        require(markets[marketId].owner != address(0), \"NO_SUCH_MARKET\");\n\n        // the market owner cannot join as an actor (provider/consumer) in the market\n        require(markets[marketId].owner != member, \"SENDER_IS_OWNER\");\n\n        // the joining member must join as a data provider (seller) or data consumer (buyer)\n        require(actorType == uint8(XBRTypes.ActorType.PROVIDER) ||\n                actorType == uint8(XBRTypes.ActorType.CONSUMER), \"INVALID_ACTOR_TYPE\");\n\n        // FIXME: check \"joined\"\n\n        // get the security amount required for joining the market (if any)\n        uint256 security = 0;\n\n        if (actorType == uint8(XBRTypes.ActorType.PROVIDER)) {\n            // the joining member must not be joined as a provider already\n            require(uint8(markets[marketId].providerActors[member].joined) == 0, \"ALREADY_JOINED_AS_PROVIDER\");\n            security = markets[marketId].providerSecurity;\n        } else  {\n            // the joining member must not be joined as a consumer already\n            require(uint8(markets[marketId].consumerActors[member].joined) == 0, \"ALREADY_JOINED_AS_CONSUMER\");\n            security = markets[marketId].consumerSecurity;\n        }\n\n        // FIXME:\n        require(XBRTypes.verify(member, XBRTypes.EIP712MarketJoin(1, joined, 0x254dffcd3277C0b1660F6d42EFbB754edaBAbC2B,\n            member, marketId, actorType, meta), signature), \"INVALID_MARKET_JOIN_SIGNATURE\");\n\n        if (security > 0) {\n            // Transfer (if any) security to the market owner (for ActorType.CONSUMER or ActorType.PROVIDER)\n            bool success = token.transferFrom(member, markets[marketId].owner, security);\n            require(success, \"JOIN_MARKET_TRANSFER_FROM_FAILED\");\n        }\n\n        // remember actor (by actor address) within market\n        if (actorType == uint8(XBRTypes.ActorType.PROVIDER)) {\n            markets[marketId].providerActors[member] = XBRTypes.Actor(joined, security, meta, new address[](0));\n            markets[marketId].providerActorAdrs.push(member);\n        } else {\n            markets[marketId].consumerActors[member] = XBRTypes.Actor(joined, security, meta, new address[](0));\n            markets[marketId].consumerActorAdrs.push(member);\n        }\n\n        emit ActorJoined(marketId, member, actorType, joined, security, meta);\n\n        // return effective security transferred\n        return security;\n    }\n\n    // /**\n    //  * As a market actor (participant) currently member of a market, leave that market.\n    //  * A market can only be left when all payment channels of the sender are closed (or expired).\n    //  *\n    //  * @param marketId The ID of the market to leave.\n    //  */\n    // function leaveMarket (bytes16 marketId) public view {\n    //     require(markets[marketId].owner != address(0), \"NO_SUCH_MARKET\");\n    //     // FIXME\n    //     // - remove sender actor from markets[marketId].providerActorAdrs|consumerActorAdrs\n    //     require(false, \"NOT_IMPLEMENTED\");\n    // }\n\n    /**\n     * Open a new payment channel and deposit an amount of XBR token for off-chain consumption.\n     * Must be called by the data consumer (XBR buyer) and an off-chain buyer delegate address must be given.\n     *\n     * @param marketId The ID of the market to open a payment channel within.\n     * @param recipient Recipient of the earned off-chain transaction amounts of this single channel,\n     *                  commonly the market operator.\n     * @param delegate The address of the (offchain) consumer delegate allowed to consume the channel.\n     * @param amount Amount of XBR Token to deposit into the payment channel (the initial off-chain balance).\n     * @param timeout Channel timeout which will apply.\n     */\n    function openPaymentChannel (bytes16 marketId, address recipient, address delegate,\n        uint256 amount, uint32 timeout) public returns (address paymentChannel) {\n\n        // market must exist\n        require(markets[marketId].owner != address(0), \"NO_SUCH_MARKET\");\n\n        // sender must be consumer in the market\n        require(uint8(markets[marketId].consumerActors[msg.sender].joined) != 0, \"NO_CONSUMER_ROLE\");\n\n        // technical recipient of the unidirectional, half-legged channel must be the\n        // owner (operator) of the market\n        require(recipient == markets[marketId].owner, \"INVALID_CHANNEL_RECIPIENT\");\n\n        // must provide a valid off-chain channel delegate address\n        require(delegate != address(0), \"INVALID_CHANNEL_DELEGATE\");\n\n        // payment channel amount must be positive\n        require(amount > 0 && amount <= token.totalSupply(), \"INVALID_CHANNEL_AMOUNT\");\n\n        // payment channel timeout can be [0 seconds - 10 days[\n        require(timeout >= 0 && timeout < 864000, \"INVALID_CHANNEL_TIMEOUT\");\n\n        // create new payment channel contract\n        XBRChannel channel = new XBRChannel(organization, address(token), address(this), marketId,\n            markets[marketId].maker, msg.sender, delegate, recipient, amount, timeout,\n            XBRChannel.ChannelType.PAYMENT);\n\n        // transfer tokens (initial balance) into payment channel contract\n        bool success = token.transferFrom(msg.sender, address(channel), amount);\n        require(success, \"OPEN_CHANNEL_TRANSFER_FROM_FAILED\");\n\n        // remember the new payment channel associated with the market\n        //markets[marketId].channels.push(address(channel));\n        markets[marketId].consumerActors[msg.sender].channels.push(address(channel));\n\n        // emit event ChannelCreated(bytes16 marketId, address sender, address delegate,\n        //      address recipient, address channel)\n        emit ChannelCreated(marketId, channel.sender(), channel.delegate(), channel.recipient(),\n            address(channel), XBRChannel.ChannelType.PAYMENT);\n\n        // return address of new channel contract\n        return address(channel);\n    }\n\n    /**\n     * As a data provider, request a new payment channel to get paid by the market maker. Given sufficient\n     * security amount (deposited by the data provider when joining the marker) to cover the request amount,\n     * the market maker will open a payment (state) channel to allow the market maker buying data keys in\n     * microtransactions, and offchain. The creation of the payment channel is asynchronously: the market maker\n     * is watching the global blockchain filtering for events relevant to the market managed by the maker.\n     * When a request to open a payment channel is recognized by the market maker, it will check the provider\n     * for sufficient security deposit covering the requested amount, and if all is fine, create a new payment\n     * channel and store the contract address for the channel request ID, so the data provider can retrieve it.\n     *\n     * @param marketId The ID of the market to request a paying channel within.\n     * @param delegate The address of the (offchain) provider delegate allowed to sell into the channel.\n     * @param amount Amount of XBR Token to deposit into the paying channel (the initial off-chain balance).\n     * @param timeout Channel timeout which will apply.\n     */\n    function requestPayingChannel (bytes16 marketId, address recipient, address delegate,\n        uint256 amount, uint32 timeout) public {\n\n        // market must exist\n        require(markets[marketId].owner != address(0), \"NO_SUCH_MARKET\");\n\n        // market must have a market maker associated\n        require(markets[marketId].maker != address(0), \"NO_ACTIVE_MARKET_MAKER\");\n\n        // sender must be market maker for market\n        require(msg.sender == recipient, \"SENDER_NOT_RECIPIENT\");\n\n        // recipient must be provider in the market\n        require(uint8(markets[marketId].providerActors[recipient].joined) != 0, \"RECIPIENT_NOT_PROVIDER\");\n\n        // must provide a valid off-chain channel delegate address\n        require(delegate != address(0), \"INVALID_CHANNEL_DELEGATE\");\n\n        // paying channel amount must be positive\n        require(amount > 0 && amount <= token.totalSupply(), \"INVALID_CHANNEL_AMOUNT\");\n\n        // paying channel timeout can be [0 seconds - 10 days[\n        require(timeout >= 0 && timeout < 864000, \"INVALID_CHANNEL_TIMEOUT\");\n\n        // emit event PayingChannelRequestCreated(bytes16 marketId, address sender, address recipient,\n        //      address delegate, uint256 amount, uint32 timeout)\n        emit PayingChannelRequestCreated(marketId, msg.sender, recipient, delegate, amount, timeout);\n    }\n\n    /**\n     * Open a new paying channel and deposit an amount of XBR token for off-chain consumption.\n     * Must be called by the market maker in response to a successful request for a paying channel.\n     *\n     * @param marketId The ID of the market to open a paying channel within.\n     * @param recipient Ultimate recipient of tokens earned, recipient must be provider in the market.\n     * @param delegate The address of the (offchain) provider delegate allowed to earn on the channel.\n     * @param amount Amount of XBR Token to deposit into the paying channel (the initial off-chain balance).\n     * @param timeout Channel timeout which will apply.\n     */\n    function openPayingChannel (bytes16 marketId, address recipient, address delegate,\n        uint256 amount, uint32 timeout) public returns (address paymentChannel) {\n\n        // market must exist\n        require(markets[marketId].owner != address(0), \"NO_SUCH_MARKET\");\n\n        // sender must be market maker for market\n        require(markets[marketId].maker == msg.sender, \"SENDER_NOT_MAKER\");\n\n        // recipient must be provider in the market\n        require(uint8(markets[marketId].providerActors[recipient].joined) != 0, \"RECIPIENT_NOT_PROVIDER\");\n\n        // must provide a valid off-chain channel delegate address\n        require(delegate != address(0), \"INVALID_CHANNEL_DELEGATE\");\n\n        // payment channel amount must be positive\n        require(amount > 0 && amount <= token.totalSupply(), \"INVALID_CHANNEL_AMOUNT\");\n\n        // payment channel timeout can be [0 seconds - 10 days[\n        require(timeout >= 0 && timeout < 864000, \"INVALID_CHANNEL_TIMEOUT\");\n\n        // create new paying channel contract\n        XBRChannel channel = new XBRChannel(organization, address(token), address(this),\n            marketId, markets[marketId].maker, msg.sender, delegate, recipient, amount, timeout,\n            XBRChannel.ChannelType.PAYING);\n\n        // transfer tokens (initial balance) into payment channel contract\n        XBRToken _token = XBRToken(token);\n        bool success = _token.transferFrom(msg.sender, address(channel), amount);\n        require(success, \"OPEN_CHANNEL_TRANSFER_FROM_FAILED\");\n\n        // remember the new payment channel associated with the market\n        //markets[marketId].channels.push(address(channel));\n        markets[marketId].providerActors[recipient].channels.push(address(channel));\n\n        // emit event ChannelCreated(bytes16 marketId, address sender, address delegate,\n        //  address recipient, address channel)\n        emit ChannelCreated(marketId, channel.sender(), channel.delegate(), channel.recipient(),\n            address(channel), XBRChannel.ChannelType.PAYING);\n\n        return address(channel);\n    }\n\n    /**\n     * Lookup all provider actors in a XBR Market.\n     *\n     * @param marketId The XBR Market to provider actors for.\n     * @return List of provider actor addresses in the market.\n     */\n    function getAllMarketProviders(bytes16 marketId) public view returns (address[] memory) {\n        return markets[marketId].providerActorAdrs;\n    }\n\n    /**\n     * Lookup all consumer actors in a XBR Market.\n     *\n     * @param marketId The XBR Market to consumer actors for.\n     * @return List of consumer actor addresses in the market.\n     */\n    function getAllMarketConsumers(bytes16 marketId) public view returns (address[] memory) {\n        return markets[marketId].consumerActorAdrs;\n    }\n\n    /**\n     * Lookup all payment channels for an consumer actor in a XBR Market.\n     *\n     * @param marketId The XBR Market to get payment channels for.\n     * @param actor The XBR actor to get payment channels for.\n     * @return List of contract addresses of payment channels in the market.\n     */\n    function getAllPaymentChannels(bytes16 marketId, address actor) public view returns (address[] memory) {\n        return markets[marketId].consumerActors[actor].channels;\n    }\n\n    /**\n     * Lookup all paying channels for an provider actor in a XBR Market.\n     *\n     * @param marketId The XBR Market to get paying channels for.\n     * @param actor The XBR actor to get paying channels for.\n     * @return List of contract addresses of paying channels in the market.\n     */\n    function getAllPayingChannels(bytes16 marketId, address actor) public view returns (address[] memory) {\n        return markets[marketId].providerActors[actor].channels;\n    }\n\n    /**\n     * Lookup the current payment channel to use for the given delegate in the given market.\n     *\n     * @param marketId The XBR Market to get the current payment channel address for.\n     * @param delegate The delegate to get the current payment channel address for.\n     * @return Current payment channel address for the given delegate/market.\n     */\n    function currentPaymentChannelByDelegate(bytes16 marketId, address delegate) public view returns (address) {\n        return markets[marketId].currentPaymentChannelByDelegate[delegate];\n    }\n\n    /**\n     * Lookup the current paying channel to use for the given delegate in the given market.\n     *\n     * @param marketId The XBR Market to get the current paying channel address for.\n     * @param delegate The delegate to get the current paying channel address for.\n     * @return Current paying channel address for the given delegate/market.\n     */\n    function currentPayingChannelByDelegate(bytes16 marketId, address delegate) public view returns (address) {\n        return markets[marketId].currentPayingChannelByDelegate[delegate];\n    }\n}\n",
  "sourcePath": "/home/oberstet/scm/crossbario/xbr-protocol/contracts/XBRNetwork.sol",
  "compiler": {
    "name": "solc",
    "version": "0.5.16+commit.9c3226ce.Emscripten.clang"
  },
  "schemaVersion": "3.0.23",
  "updatedAt": "2020-02-07T11:11:10.935Z",
  "devdoc": {
    "author": "The XBR Project",
    "methods": {
      "addMaintainer(address)": {
        "params": {
          "account": "The account to grant maintainer rights to."
        }
      },
      "constructor": {
        "params": {
          "organization_": "The network technology provider and ecosystem sponsor.",
          "token_": "The token to run this network on."
        }
      },
      "createMarket(bytes16,string,string,address,uint256,uint256,uint256)": {
        "params": {
          "consumerSecurity": "The amount of XBR tokens a XBR consumer joining the market must deposit.",
          "maker": "The address of the XBR market maker that will run this market. The delegate of the market owner.",
          "marketFee": "The fee taken by the market (beneficiary is the market owner). The fee is a percentage of                 the revenue of the XBR Provider that receives XBR Token paid for transactions.                 The fee must be between 0% (inclusive) and 99% (inclusive), and is expressed as                 a fraction of the total supply of XBR tokens.",
          "marketId": "The ID of the market to create. Must be unique (not yet existing). To generate a new ID you can do `python -c \"import uuid; print(uuid.uuid4().bytes.hex())\"`.",
          "meta": "The XBR market metadata published by the market owner. IPFS Multihash pointing            to a RDF/Turtle file with market metadata.",
          "providerSecurity": "The amount of XBR tokens a XBR provider joining the market must deposit.",
          "terms": "The XBR market terms set by the market owner. IPFS Multihash pointing             to a ZIP archive file with market documents."
        }
      },
      "currentPayingChannelByDelegate(bytes16,address)": {
        "params": {
          "delegate": "The delegate to get the current paying channel address for.",
          "marketId": "The XBR Market to get the current paying channel address for."
        },
        "return": "Current paying channel address for the given delegate/market."
      },
      "currentPaymentChannelByDelegate(bytes16,address)": {
        "params": {
          "delegate": "The delegate to get the current payment channel address for.",
          "marketId": "The XBR Market to get the current payment channel address for."
        },
        "return": "Current payment channel address for the given delegate/market."
      },
      "getAllMarketConsumers(bytes16)": {
        "params": {
          "marketId": "The XBR Market to consumer actors for."
        },
        "return": "List of consumer actor addresses in the market."
      },
      "getAllMarketProviders(bytes16)": {
        "params": {
          "marketId": "The XBR Market to provider actors for."
        },
        "return": "List of provider actor addresses in the market."
      },
      "getAllPayingChannels(bytes16,address)": {
        "params": {
          "actor": "The XBR actor to get paying channels for.",
          "marketId": "The XBR Market to get paying channels for."
        },
        "return": "List of contract addresses of paying channels in the market."
      },
      "getAllPaymentChannels(bytes16,address)": {
        "params": {
          "actor": "The XBR actor to get payment channels for.",
          "marketId": "The XBR Market to get payment channels for."
        },
        "return": "List of contract addresses of payment channels in the market."
      },
      "isMaintainer(address)": {
        "params": {
          "account": "The account to check."
        },
        "return": "`true` if the account is maintainer, otherwise `false`."
      },
      "joinMarket(bytes16,uint8,string)": {
        "params": {
          "actorType": "The type of actor under which to join: PROVIDER or CONSUMER.",
          "marketId": "The ID of the XBR data market to join.",
          "meta": "The XBR market provider/consumer metadata. IPFS Multihash pointing to a JSON file with metadata."
        }
      },
      "openPayingChannel(bytes16,address,address,uint256,uint32)": {
        "params": {
          "amount": "Amount of XBR Token to deposit into the paying channel (the initial off-chain balance).",
          "delegate": "The address of the (offchain) provider delegate allowed to earn on the channel.",
          "marketId": "The ID of the market to open a paying channel within.",
          "recipient": "Ultimate recipient of tokens earned, recipient must be provider in the market.",
          "timeout": "Channel timeout which will apply."
        }
      },
      "openPaymentChannel(bytes16,address,address,uint256,uint32)": {
        "params": {
          "amount": "Amount of XBR Token to deposit into the payment channel (the initial off-chain balance).",
          "delegate": "The address of the (offchain) consumer delegate allowed to consume the channel.",
          "marketId": "The ID of the market to open a payment channel within.",
          "recipient": "Recipient of the earned off-chain transaction amounts of this single channel,                 commonly the market operator.",
          "timeout": "Channel timeout which will apply."
        }
      },
      "register(string,string)": {
        "params": {
          "eula_": "The IPFS Multihash of the XBR EULA being agreed to and stored as one ZIP file archive on IPFS.",
          "profile_": "Optional public member profile: the IPFS Multihash of the member profile stored in IPFS."
        }
      },
      "registerFor(address,uint256,string,string,bytes)": {
        "params": {
          "eula_": "The IPFS Multihash of the XBR EULA being agreed to and stored as one ZIP file archive on IPFS.",
          "member": "Address of the registering (new) member.",
          "profile_": "Optional public member profile: the IPFS Multihash of the member profile stored in IPFS.",
          "registered": "Block number at which the registering member has created the signature.",
          "signature": "EIP712 signature (using private key of member) over                 `(chain_id, contract_adr, register_at, eula_hash, profile_hash)`."
        }
      },
      "requestPayingChannel(bytes16,address,address,uint256,uint32)": {
        "params": {
          "amount": "Amount of XBR Token to deposit into the paying channel (the initial off-chain balance).",
          "delegate": "The address of the (offchain) provider delegate allowed to sell into the channel.",
          "marketId": "The ID of the market to request a paying channel within.",
          "timeout": "Channel timeout which will apply."
        }
      }
    },
    "title": "XBR Network main smart contract."
  },
  "userdoc": {
    "methods": {
      "addMaintainer(address)": {
        "notice": "Add a new maintainer to the list of maintainers."
      },
      "constructor": "Create a new network.",
      "createMarket(bytes16,string,string,address,uint256,uint256,uint256)": {
        "notice": "Create a new XBR market. The sender of the transaction must be XBR network member and automatically becomes owner of the new market."
      },
      "currentPayingChannelByDelegate(bytes16,address)": {
        "notice": "Lookup the current paying channel to use for the given delegate in the given market."
      },
      "currentPaymentChannelByDelegate(bytes16,address)": {
        "notice": "Lookup the current payment channel to use for the given delegate in the given market."
      },
      "getAllMarketConsumers(bytes16)": {
        "notice": "Lookup all consumer actors in a XBR Market."
      },
      "getAllMarketProviders(bytes16)": {
        "notice": "Lookup all provider actors in a XBR Market."
      },
      "getAllPayingChannels(bytes16,address)": {
        "notice": "Lookup all paying channels for an provider actor in a XBR Market."
      },
      "getAllPaymentChannels(bytes16,address)": {
        "notice": "Lookup all payment channels for an consumer actor in a XBR Market."
      },
      "isMaintainer(address)": {
        "notice": "Check if the given address is currently a maintainer."
      },
      "joinMarket(bytes16,uint8,string)": {
        "notice": "Join the given XBR market as the specified type of actor, which must be PROVIDER or CONSUMER."
      },
      "openPayingChannel(bytes16,address,address,uint256,uint32)": {
        "notice": "Open a new paying channel and deposit an amount of XBR token for off-chain consumption. Must be called by the market maker in response to a successful request for a paying channel."
      },
      "openPaymentChannel(bytes16,address,address,uint256,uint32)": {
        "notice": "Open a new payment channel and deposit an amount of XBR token for off-chain consumption. Must be called by the data consumer (XBR buyer) and an off-chain buyer delegate address must be given."
      },
      "register(string,string)": {
        "notice": "Register sender in the XBR Network. All XBR stakeholders, namely XBR Data Providers, XBR Data Consumers and XBR Data Market Operators, must first register with the XBR Network on the global blockchain by calling this function."
      },
      "registerFor(address,uint256,string,string,bytes)": {
        "notice": "Register sender in the XBR Network. All XBR stakeholders, namely XBR Data Providers, XBR Data Consumers and XBR Data Market Operators, must first register with the XBR Network on the global blockchain by calling this function.     * IMPORTANT: This version uses pre-signed data where the actual blockchain transaction is submitted by a gateway paying the respective gas (in ETH) for the blockchain transaction."
      },
      "renounceMaintainer()": {
        "notice": "Give away maintainer rights."
      },
      "requestPayingChannel(bytes16,address,address,uint256,uint32)": {
        "notice": "As a data provider, request a new payment channel to get paid by the market maker. Given sufficient security amount (deposited by the data provider when joining the marker) to cover the request amount, the market maker will open a payment (state) channel to allow the market maker buying data keys in microtransactions, and offchain. The creation of the payment channel is asynchronously: the market maker is watching the global blockchain filtering for events relevant to the market managed by the maker. When a request to open a payment channel is recognized by the market maker, it will check the provider for sufficient security deposit covering the requested amount, and if all is fine, create a new payment channel and store the contract address for the channel request ID, so the data provider can retrieve it."
      }
    }
  }
}