{
  "contractName": "XBRNetwork",
  "abi": [
    {
      "constant": true,
      "inputs": [],
      "name": "organization",
      "outputs": [
        {
          "name": "",
          "type": "address"
        }
      ],
      "payable": false,
      "stateMutability": "view",
      "type": "function"
    },
    {
      "constant": false,
      "inputs": [],
      "name": "renounceMaintainer",
      "outputs": [],
      "payable": false,
      "stateMutability": "nonpayable",
      "type": "function"
    },
    {
      "constant": false,
      "inputs": [
        {
          "name": "account",
          "type": "address"
        }
      ],
      "name": "addMaintainer",
      "outputs": [],
      "payable": false,
      "stateMutability": "nonpayable",
      "type": "function"
    },
    {
      "constant": true,
      "inputs": [
        {
          "name": "account",
          "type": "address"
        }
      ],
      "name": "isMaintainer",
      "outputs": [
        {
          "name": "",
          "type": "bool"
        }
      ],
      "payable": false,
      "stateMutability": "view",
      "type": "function"
    },
    {
      "inputs": [
        {
          "name": "token_",
          "type": "address"
        },
        {
          "name": "organization_",
          "type": "address"
        }
      ],
      "payable": false,
      "stateMutability": "nonpayable",
      "type": "constructor"
    },
    {
      "anonymous": false,
      "inputs": [
        {
          "indexed": true,
          "name": "member",
          "type": "address"
        },
        {
          "indexed": false,
          "name": "eula",
          "type": "string"
        },
        {
          "indexed": false,
          "name": "profile",
          "type": "string"
        },
        {
          "indexed": false,
          "name": "level",
          "type": "uint8"
        }
      ],
      "name": "MemberCreated",
      "type": "event"
    },
    {
      "anonymous": false,
      "inputs": [
        {
          "indexed": false,
          "name": "member",
          "type": "address"
        }
      ],
      "name": "MemberRetired",
      "type": "event"
    },
    {
      "anonymous": false,
      "inputs": [
        {
          "indexed": true,
          "name": "domainId",
          "type": "bytes16"
        },
        {
          "indexed": false,
          "name": "domainSeq",
          "type": "uint32"
        },
        {
          "indexed": false,
          "name": "status",
          "type": "uint8"
        },
        {
          "indexed": false,
          "name": "owner",
          "type": "address"
        },
        {
          "indexed": false,
          "name": "domainKey",
          "type": "bytes32"
        },
        {
          "indexed": false,
          "name": "license",
          "type": "string"
        },
        {
          "indexed": false,
          "name": "terms",
          "type": "string"
        },
        {
          "indexed": false,
          "name": "meta",
          "type": "string"
        }
      ],
      "name": "DomainCreated",
      "type": "event"
    },
    {
      "anonymous": false,
      "inputs": [
        {
          "indexed": true,
          "name": "domainId",
          "type": "bytes16"
        },
        {
          "indexed": false,
          "name": "domainSeq",
          "type": "uint32"
        },
        {
          "indexed": false,
          "name": "status",
          "type": "uint8"
        },
        {
          "indexed": false,
          "name": "owner",
          "type": "address"
        },
        {
          "indexed": false,
          "name": "domainKey",
          "type": "bytes32"
        },
        {
          "indexed": false,
          "name": "license",
          "type": "string"
        },
        {
          "indexed": false,
          "name": "terms",
          "type": "string"
        },
        {
          "indexed": false,
          "name": "meta",
          "type": "string"
        }
      ],
      "name": "DomainUpdated",
      "type": "event"
    },
    {
      "anonymous": false,
      "inputs": [
        {
          "indexed": true,
          "name": "domainId",
          "type": "bytes16"
        },
        {
          "indexed": false,
          "name": "status",
          "type": "uint8"
        }
      ],
      "name": "DomainClosed",
      "type": "event"
    },
    {
      "anonymous": false,
      "inputs": [
        {
          "indexed": true,
          "name": "domainId",
          "type": "bytes16"
        },
        {
          "indexed": false,
          "name": "nodeId",
          "type": "bytes16"
        },
        {
          "indexed": false,
          "name": "nodeKey",
          "type": "bytes32"
        },
        {
          "indexed": false,
          "name": "config",
          "type": "string"
        }
      ],
      "name": "NodePaired",
      "type": "event"
    },
    {
      "anonymous": false,
      "inputs": [
        {
          "indexed": true,
          "name": "domainId",
          "type": "bytes16"
        },
        {
          "indexed": false,
          "name": "nodeId",
          "type": "bytes16"
        },
        {
          "indexed": false,
          "name": "nodeKey",
          "type": "bytes32"
        },
        {
          "indexed": false,
          "name": "config",
          "type": "string"
        }
      ],
      "name": "NodeUpdated",
      "type": "event"
    },
    {
      "anonymous": false,
      "inputs": [
        {
          "indexed": true,
          "name": "domainId",
          "type": "bytes16"
        },
        {
          "indexed": false,
          "name": "nodeId",
          "type": "bytes16"
        }
      ],
      "name": "NodeReleased",
      "type": "event"
    },
    {
      "anonymous": false,
      "inputs": [
        {
          "indexed": true,
          "name": "marketId",
          "type": "bytes16"
        },
        {
          "indexed": false,
          "name": "marketSeq",
          "type": "uint32"
        },
        {
          "indexed": false,
          "name": "owner",
          "type": "address"
        },
        {
          "indexed": false,
          "name": "terms",
          "type": "string"
        },
        {
          "indexed": false,
          "name": "meta",
          "type": "string"
        },
        {
          "indexed": false,
          "name": "maker",
          "type": "address"
        },
        {
          "indexed": false,
          "name": "providerSecurity",
          "type": "uint256"
        },
        {
          "indexed": false,
          "name": "consumerSecurity",
          "type": "uint256"
        },
        {
          "indexed": false,
          "name": "marketFee",
          "type": "uint256"
        }
      ],
      "name": "MarketCreated",
      "type": "event"
    },
    {
      "anonymous": false,
      "inputs": [
        {
          "indexed": true,
          "name": "marketId",
          "type": "bytes16"
        },
        {
          "indexed": false,
          "name": "marketSeq",
          "type": "uint32"
        },
        {
          "indexed": false,
          "name": "owner",
          "type": "address"
        },
        {
          "indexed": false,
          "name": "terms",
          "type": "string"
        },
        {
          "indexed": false,
          "name": "meta",
          "type": "string"
        },
        {
          "indexed": false,
          "name": "maker",
          "type": "address"
        },
        {
          "indexed": false,
          "name": "providerSecurity",
          "type": "uint256"
        },
        {
          "indexed": false,
          "name": "consumerSecurity",
          "type": "uint256"
        },
        {
          "indexed": false,
          "name": "marketFee",
          "type": "uint256"
        }
      ],
      "name": "MarketUpdated",
      "type": "event"
    },
    {
      "anonymous": false,
      "inputs": [
        {
          "indexed": true,
          "name": "marketId",
          "type": "bytes16"
        }
      ],
      "name": "MarketClosed",
      "type": "event"
    },
    {
      "anonymous": false,
      "inputs": [
        {
          "indexed": true,
          "name": "marketId",
          "type": "bytes16"
        },
        {
          "indexed": false,
          "name": "actor",
          "type": "address"
        },
        {
          "indexed": false,
          "name": "actorType",
          "type": "uint8"
        },
        {
          "indexed": false,
          "name": "security",
          "type": "uint256"
        },
        {
          "indexed": false,
          "name": "meta",
          "type": "string"
        }
      ],
      "name": "ActorJoined",
      "type": "event"
    },
    {
      "anonymous": false,
      "inputs": [
        {
          "indexed": true,
          "name": "marketId",
          "type": "bytes16"
        },
        {
          "indexed": false,
          "name": "actor",
          "type": "address"
        },
        {
          "indexed": false,
          "name": "actorType",
          "type": "uint8"
        }
      ],
      "name": "ActorLeft",
      "type": "event"
    },
    {
      "anonymous": false,
      "inputs": [
        {
          "indexed": true,
          "name": "marketId",
          "type": "bytes16"
        },
        {
          "indexed": false,
          "name": "sender",
          "type": "address"
        },
        {
          "indexed": false,
          "name": "delegate",
          "type": "address"
        },
        {
          "indexed": false,
          "name": "receiver",
          "type": "address"
        },
        {
          "indexed": false,
          "name": "channel",
          "type": "address"
        },
        {
          "indexed": false,
          "name": "channelType",
          "type": "uint8"
        }
      ],
      "name": "ChannelCreated",
      "type": "event"
    },
    {
      "anonymous": false,
      "inputs": [
        {
          "indexed": true,
          "name": "marketId",
          "type": "bytes16"
        },
        {
          "indexed": false,
          "name": "sender",
          "type": "address"
        },
        {
          "indexed": false,
          "name": "recipient",
          "type": "address"
        },
        {
          "indexed": false,
          "name": "delegate",
          "type": "address"
        },
        {
          "indexed": false,
          "name": "amount",
          "type": "uint256"
        },
        {
          "indexed": false,
          "name": "timeout",
          "type": "uint32"
        }
      ],
      "name": "PayingChannelRequestCreated",
      "type": "event"
    },
    {
      "anonymous": false,
      "inputs": [
        {
          "indexed": true,
          "name": "account",
          "type": "address"
        }
      ],
      "name": "MaintainerAdded",
      "type": "event"
    },
    {
      "anonymous": false,
      "inputs": [
        {
          "indexed": true,
          "name": "account",
          "type": "address"
        }
      ],
      "name": "MaintainerRemoved",
      "type": "event"
    },
    {
      "constant": false,
      "inputs": [
        {
          "name": "eula",
          "type": "string"
        },
        {
          "name": "profile",
          "type": "string"
        }
      ],
      "name": "register",
      "outputs": [],
      "payable": false,
      "stateMutability": "nonpayable",
      "type": "function"
    },
    {
      "constant": false,
      "inputs": [],
      "name": "unregister",
      "outputs": [],
      "payable": false,
      "stateMutability": "nonpayable",
      "type": "function"
    },
    {
      "constant": true,
      "inputs": [
        {
          "name": "member",
          "type": "address"
        }
      ],
      "name": "getMemberLevel",
      "outputs": [
        {
          "name": "",
          "type": "uint8"
        }
      ],
      "payable": false,
      "stateMutability": "view",
      "type": "function"
    },
    {
      "constant": true,
      "inputs": [
        {
          "name": "member",
          "type": "address"
        }
      ],
      "name": "getMemberEula",
      "outputs": [
        {
          "name": "",
          "type": "string"
        }
      ],
      "payable": false,
      "stateMutability": "view",
      "type": "function"
    },
    {
      "constant": true,
      "inputs": [
        {
          "name": "member",
          "type": "address"
        }
      ],
      "name": "getMemberProfile",
      "outputs": [
        {
          "name": "",
          "type": "string"
        }
      ],
      "payable": false,
      "stateMutability": "view",
      "type": "function"
    },
    {
      "constant": false,
      "inputs": [
        {
          "name": "member",
          "type": "address"
        },
        {
          "name": "level",
          "type": "uint8"
        }
      ],
      "name": "setMemberLevel",
      "outputs": [],
      "payable": false,
      "stateMutability": "nonpayable",
      "type": "function"
    },
    {
      "constant": false,
      "inputs": [
        {
          "name": "domainId",
          "type": "bytes16"
        },
        {
          "name": "domainKey",
          "type": "bytes32"
        },
        {
          "name": "license",
          "type": "string"
        },
        {
          "name": "terms",
          "type": "string"
        },
        {
          "name": "meta",
          "type": "string"
        }
      ],
      "name": "createDomain",
      "outputs": [],
      "payable": false,
      "stateMutability": "nonpayable",
      "type": "function"
    },
    {
      "constant": false,
      "inputs": [
        {
          "name": "domainId",
          "type": "bytes16"
        }
      ],
      "name": "closeDomain",
      "outputs": [],
      "payable": false,
      "stateMutability": "nonpayable",
      "type": "function"
    },
    {
      "constant": true,
      "inputs": [
        {
          "name": "domainId",
          "type": "bytes16"
        }
      ],
      "name": "getDomainStatus",
      "outputs": [
        {
          "name": "",
          "type": "uint8"
        }
      ],
      "payable": false,
      "stateMutability": "view",
      "type": "function"
    },
    {
      "constant": true,
      "inputs": [
        {
          "name": "domainId",
          "type": "bytes16"
        }
      ],
      "name": "getDomainOwner",
      "outputs": [
        {
          "name": "",
          "type": "address"
        }
      ],
      "payable": false,
      "stateMutability": "view",
      "type": "function"
    },
    {
      "constant": true,
      "inputs": [
        {
          "name": "domainId",
          "type": "bytes16"
        }
      ],
      "name": "getDomainKey",
      "outputs": [
        {
          "name": "",
          "type": "bytes32"
        }
      ],
      "payable": false,
      "stateMutability": "view",
      "type": "function"
    },
    {
      "constant": true,
      "inputs": [
        {
          "name": "domainId",
          "type": "bytes16"
        }
      ],
      "name": "getDomainLicense",
      "outputs": [
        {
          "name": "",
          "type": "string"
        }
      ],
      "payable": false,
      "stateMutability": "view",
      "type": "function"
    },
    {
      "constant": true,
      "inputs": [
        {
          "name": "domainId",
          "type": "bytes16"
        }
      ],
      "name": "getDomainTerms",
      "outputs": [
        {
          "name": "",
          "type": "string"
        }
      ],
      "payable": false,
      "stateMutability": "view",
      "type": "function"
    },
    {
      "constant": true,
      "inputs": [
        {
          "name": "domainId",
          "type": "bytes16"
        }
      ],
      "name": "getDomainMeta",
      "outputs": [
        {
          "name": "",
          "type": "string"
        }
      ],
      "payable": false,
      "stateMutability": "view",
      "type": "function"
    },
    {
      "constant": false,
      "inputs": [
        {
          "name": "nodeId",
          "type": "bytes16"
        },
        {
          "name": "domainId",
          "type": "bytes16"
        },
        {
          "name": "nodeType",
          "type": "uint8"
        },
        {
          "name": "nodeKey",
          "type": "bytes32"
        },
        {
          "name": "config",
          "type": "string"
        }
      ],
      "name": "pairNode",
      "outputs": [],
      "payable": false,
      "stateMutability": "nonpayable",
      "type": "function"
    },
    {
      "constant": false,
      "inputs": [
        {
          "name": "nodeId",
          "type": "bytes16"
        }
      ],
      "name": "releaseNode",
      "outputs": [],
      "payable": false,
      "stateMutability": "nonpayable",
      "type": "function"
    },
    {
      "constant": true,
      "inputs": [
        {
          "name": "nodeKey",
          "type": "bytes32"
        }
      ],
      "name": "getNodeByKey",
      "outputs": [
        {
          "name": "",
          "type": "bytes16"
        }
      ],
      "payable": false,
      "stateMutability": "view",
      "type": "function"
    },
    {
      "constant": true,
      "inputs": [
        {
          "name": "nodeId",
          "type": "bytes16"
        }
      ],
      "name": "getNodeDomain",
      "outputs": [
        {
          "name": "",
          "type": "bytes16"
        }
      ],
      "payable": false,
      "stateMutability": "view",
      "type": "function"
    },
    {
      "constant": true,
      "inputs": [
        {
          "name": "nodeId",
          "type": "bytes16"
        }
      ],
      "name": "getNodeType",
      "outputs": [
        {
          "name": "",
          "type": "uint8"
        }
      ],
      "payable": false,
      "stateMutability": "view",
      "type": "function"
    },
    {
      "constant": true,
      "inputs": [
        {
          "name": "nodeId",
          "type": "bytes16"
        }
      ],
      "name": "getNodeKey",
      "outputs": [
        {
          "name": "",
          "type": "bytes32"
        }
      ],
      "payable": false,
      "stateMutability": "view",
      "type": "function"
    },
    {
      "constant": true,
      "inputs": [
        {
          "name": "nodeId",
          "type": "bytes16"
        }
      ],
      "name": "getNodeConfig",
      "outputs": [
        {
          "name": "",
          "type": "string"
        }
      ],
      "payable": false,
      "stateMutability": "view",
      "type": "function"
    },
    {
      "constant": false,
      "inputs": [
        {
          "name": "marketId",
          "type": "bytes16"
        },
        {
          "name": "terms",
          "type": "string"
        },
        {
          "name": "meta",
          "type": "string"
        },
        {
          "name": "maker",
          "type": "address"
        },
        {
          "name": "providerSecurity",
          "type": "uint256"
        },
        {
          "name": "consumerSecurity",
          "type": "uint256"
        },
        {
          "name": "marketFee",
          "type": "uint256"
        }
      ],
      "name": "createMarket",
      "outputs": [],
      "payable": false,
      "stateMutability": "nonpayable",
      "type": "function"
    },
    {
      "constant": true,
      "inputs": [
        {
          "name": "maker",
          "type": "address"
        }
      ],
      "name": "getMarketByMaker",
      "outputs": [
        {
          "name": "",
          "type": "bytes16"
        }
      ],
      "payable": false,
      "stateMutability": "view",
      "type": "function"
    },
    {
      "constant": true,
      "inputs": [
        {
          "name": "marketId",
          "type": "bytes16"
        }
      ],
      "name": "getMarketOwner",
      "outputs": [
        {
          "name": "",
          "type": "address"
        }
      ],
      "payable": false,
      "stateMutability": "view",
      "type": "function"
    },
    {
      "constant": true,
      "inputs": [
        {
          "name": "marketId",
          "type": "bytes16"
        }
      ],
      "name": "getMarketTerms",
      "outputs": [
        {
          "name": "",
          "type": "string"
        }
      ],
      "payable": false,
      "stateMutability": "view",
      "type": "function"
    },
    {
      "constant": true,
      "inputs": [
        {
          "name": "marketId",
          "type": "bytes16"
        }
      ],
      "name": "getMarketMeta",
      "outputs": [
        {
          "name": "",
          "type": "string"
        }
      ],
      "payable": false,
      "stateMutability": "view",
      "type": "function"
    },
    {
      "constant": true,
      "inputs": [
        {
          "name": "marketId",
          "type": "bytes16"
        }
      ],
      "name": "getMarketMaker",
      "outputs": [
        {
          "name": "",
          "type": "address"
        }
      ],
      "payable": false,
      "stateMutability": "view",
      "type": "function"
    },
    {
      "constant": true,
      "inputs": [
        {
          "name": "marketId",
          "type": "bytes16"
        }
      ],
      "name": "getMarketProviderSecurity",
      "outputs": [
        {
          "name": "",
          "type": "uint256"
        }
      ],
      "payable": false,
      "stateMutability": "view",
      "type": "function"
    },
    {
      "constant": true,
      "inputs": [
        {
          "name": "marketId",
          "type": "bytes16"
        }
      ],
      "name": "getMarketConsumerSecurity",
      "outputs": [
        {
          "name": "",
          "type": "uint256"
        }
      ],
      "payable": false,
      "stateMutability": "view",
      "type": "function"
    },
    {
      "constant": true,
      "inputs": [
        {
          "name": "marketId",
          "type": "bytes16"
        }
      ],
      "name": "getMarketFee",
      "outputs": [
        {
          "name": "",
          "type": "uint256"
        }
      ],
      "payable": false,
      "stateMutability": "view",
      "type": "function"
    },
    {
      "constant": false,
      "inputs": [
        {
          "name": "marketId",
          "type": "bytes16"
        },
        {
          "name": "terms",
          "type": "string"
        },
        {
          "name": "meta",
          "type": "string"
        },
        {
          "name": "maker",
          "type": "address"
        },
        {
          "name": "providerSecurity",
          "type": "uint256"
        },
        {
          "name": "consumerSecurity",
          "type": "uint256"
        },
        {
          "name": "marketFee",
          "type": "uint256"
        }
      ],
      "name": "updateMarket",
      "outputs": [
        {
          "name": "",
          "type": "bool"
        }
      ],
      "payable": false,
      "stateMutability": "nonpayable",
      "type": "function"
    },
    {
      "constant": true,
      "inputs": [
        {
          "name": "marketId",
          "type": "bytes16"
        }
      ],
      "name": "closeMarket",
      "outputs": [],
      "payable": false,
      "stateMutability": "view",
      "type": "function"
    },
    {
      "constant": false,
      "inputs": [
        {
          "name": "marketId",
          "type": "bytes16"
        },
        {
          "name": "actorType",
          "type": "uint8"
        },
        {
          "name": "meta",
          "type": "string"
        }
      ],
      "name": "joinMarket",
      "outputs": [
        {
          "name": "",
          "type": "uint256"
        }
      ],
      "payable": false,
      "stateMutability": "nonpayable",
      "type": "function"
    },
    {
      "constant": true,
      "inputs": [
        {
          "name": "marketId",
          "type": "bytes16"
        }
      ],
      "name": "getAllMarketActors",
      "outputs": [
        {
          "name": "",
          "type": "address[]"
        }
      ],
      "payable": false,
      "stateMutability": "view",
      "type": "function"
    },
    {
      "constant": true,
      "inputs": [
        {
          "name": "marketId",
          "type": "bytes16"
        },
        {
          "name": "actor",
          "type": "address"
        }
      ],
      "name": "getMarketActorType",
      "outputs": [
        {
          "name": "",
          "type": "uint8"
        }
      ],
      "payable": false,
      "stateMutability": "view",
      "type": "function"
    },
    {
      "constant": true,
      "inputs": [
        {
          "name": "marketId",
          "type": "bytes16"
        },
        {
          "name": "actor",
          "type": "address"
        }
      ],
      "name": "getMarketActorSecurity",
      "outputs": [
        {
          "name": "",
          "type": "uint256"
        }
      ],
      "payable": false,
      "stateMutability": "view",
      "type": "function"
    },
    {
      "constant": true,
      "inputs": [
        {
          "name": "marketId",
          "type": "bytes16"
        },
        {
          "name": "actor",
          "type": "address"
        }
      ],
      "name": "getMarketActorMeta",
      "outputs": [
        {
          "name": "",
          "type": "string"
        }
      ],
      "payable": false,
      "stateMutability": "view",
      "type": "function"
    },
    {
      "constant": true,
      "inputs": [
        {
          "name": "marketId",
          "type": "bytes16"
        }
      ],
      "name": "leaveMarket",
      "outputs": [],
      "payable": false,
      "stateMutability": "view",
      "type": "function"
    },
    {
      "constant": false,
      "inputs": [
        {
          "name": "marketId",
          "type": "bytes16"
        },
        {
          "name": "recipient",
          "type": "address"
        },
        {
          "name": "delegate",
          "type": "address"
        },
        {
          "name": "amount",
          "type": "uint256"
        },
        {
          "name": "timeout",
          "type": "uint32"
        }
      ],
      "name": "openPaymentChannel",
      "outputs": [
        {
          "name": "paymentChannel",
          "type": "address"
        }
      ],
      "payable": false,
      "stateMutability": "nonpayable",
      "type": "function"
    },
    {
      "constant": false,
      "inputs": [
        {
          "name": "marketId",
          "type": "bytes16"
        },
        {
          "name": "recipient",
          "type": "address"
        },
        {
          "name": "delegate",
          "type": "address"
        },
        {
          "name": "amount",
          "type": "uint256"
        },
        {
          "name": "timeout",
          "type": "uint32"
        }
      ],
      "name": "requestPayingChannel",
      "outputs": [],
      "payable": false,
      "stateMutability": "nonpayable",
      "type": "function"
    },
    {
      "constant": false,
      "inputs": [
        {
          "name": "marketId",
          "type": "bytes16"
        },
        {
          "name": "recipient",
          "type": "address"
        },
        {
          "name": "delegate",
          "type": "address"
        },
        {
          "name": "amount",
          "type": "uint256"
        },
        {
          "name": "timeout",
          "type": "uint32"
        }
      ],
      "name": "openPayingChannel",
      "outputs": [
        {
          "name": "paymentChannel",
          "type": "address"
        }
      ],
      "payable": false,
      "stateMutability": "nonpayable",
      "type": "function"
    },
    {
      "constant": true,
      "inputs": [
        {
          "name": "marketId",
          "type": "bytes16"
        }
      ],
      "name": "getAllMarketChannels",
      "outputs": [
        {
          "name": "",
          "type": "address[]"
        }
      ],
      "payable": false,
      "stateMutability": "view",
      "type": "function"
    },
    {
      "constant": true,
      "inputs": [
        {
          "name": "marketId",
          "type": "bytes16"
        },
        {
          "name": "delegate",
          "type": "address"
        }
      ],
      "name": "currentPaymentChannelByDelegate",
      "outputs": [
        {
          "name": "",
          "type": "address"
        }
      ],
      "payable": false,
      "stateMutability": "view",
      "type": "function"
    },
    {
      "constant": true,
      "inputs": [
        {
          "name": "marketId",
          "type": "bytes16"
        },
        {
          "name": "delegate",
          "type": "address"
        }
      ],
      "name": "currentPayingChannelByDelegate",
      "outputs": [
        {
          "name": "",
          "type": "address"
        }
      ],
      "payable": false,
      "stateMutability": "view",
      "type": "function"
    }
  ],
  "bytecode": "0x60806040526001805467ffffffff000000001963ffffffff199091168217166401000000001790553480156200003457600080fd5b506040516040806200627e833981018060405260408110156200005657600080fd5b50805160209091015162000073336401000000006200016d810204565b600180547fffffffff0000000000000000000000000000000000000000ffffffffffffffff1668010000000000000000600160a060020a03858116919091029190911790915560028054600160a060020a0319169183169190911781556040805160808101825260006060820181815282528251602080820185529181529082015291908201523360009081526003602090815260409091208251805191926200012392849290910190620002eb565b5060208281015180516200013e9260018501920190620002eb565b50604082015160028201805460ff191660018360058111156200015d57fe5b0217905550905050505062000390565b6200018860008264010000000062005349620001bf82021704565b604051600160a060020a038216907f1390a149489c82e9e2e89927bdb17ad1ea3f0cc314fce06c96369721d3afb8f090600090a250565b620001d4828264010000000062000266810204565b156200024157604080517f08c379a000000000000000000000000000000000000000000000000000000000815260206004820152601f60248201527f526f6c65733a206163636f756e7420616c72656164792068617320726f6c6500604482015290519081900360640190fd5b600160a060020a0316600090815260209190915260409020805460ff19166001179055565b6000600160a060020a0382161515620002cb576040517f08c379a00000000000000000000000000000000000000000000000000000000081526004018080602001828103825260228152602001806200625c6022913960400191505060405180910390fd5b50600160a060020a03166000908152602091909152604090205460ff1690565b828054600181600116156101000203166002900490600052602060002090601f016020900481019282601f106200032e57805160ff19168380011785556200035e565b828001600101855582156200035e579182015b828111156200035e57825182559160200191906001019062000341565b506200036c92915062000370565b5090565b6200038d91905b808211156200036c576000815560010162000377565b90565b615ebc80620003a06000396000f3fe60806040523480156200001157600080fd5b5060043610620002e35760003560e060020a900480636b453c1f116200018d578063a65db4da11620000e5578063d4dba1131162000097578063d4dba1131462001197578063dd57366a14620011c1578063decae33014620011ea578063e79a198f1462001225578063e8bf533c146200122f578063fb58c7c3146200125957620002e3565b8063a65db4da146200107c578063af6c86f014620010b5578063bc385fcd14620010f0578063c224f174146200111a578063cca28f391462001144578063d43184d3146200116d57620002e3565b806380201702116200013f578063802017021462000ef357806380e00db91462000f4957806388ebed4a1462000f7357806395faa2921462000f9d57806396c9fd9714620010195780639fa7a6aa146200104357620002e3565b80636b453c1f1462000cc1578063710ccb381462000cea57806372cd77cf1462000e4b57806372df14351462000e7557806378bab37c1462000e9f57806378e6cb851462000ec957620002e3565b8063314db06b116200024157806359269e6711620001f357806359269e671462000b565780635ef758801462000ba45780635fef8a021462000bfa578063632210841462000c245780636a3460fa1462000c4d5780636b23fc031462000c9757620002e3565b8063314db06b146200092b5780633ffbd47f146200093557806344ae154f1462000a6b5780634e01967b1462000aa457806350405fdf1462000afa578063559d17381462000b2c57620002e3565b8063186def2b116200029b578063186def2b14620007895780631cf909dc14620007b35780631ed714de14620007dc5780632096398d146200080657806323bd4d7a14620008db5780632b721492146200090157620002e3565b806221ec1914620002e857806303e385e2146200045d578063083a858014620004a85780630a6edd0614620004e55780630bf7580014620006bd5780630cc4e11d14620006e7575b600080fd5b62000449600480360360e08110156200030057600080fd5b6001608060020a031982351691908101906040810160208201356401000000008111156200032d57600080fd5b8201836020820111156200034057600080fd5b803590602001918460018302840111640100000000831117156200036357600080fd5b91908080601f0160208091040260200160405190810160405280939291908181526020018383808284376000920191909152509295949360208101935035915050640100000000811115620003b757600080fd5b820183602082011115620003ca57600080fd5b80359060200191846001830284011164010000000083111715620003ed57600080fd5b91908080601f01602080910402602001604051908101604052809392919081815260200183838082843760009201919091525092955050600160a060020a0383351693505050602081013590604081013590606001356200131e565b604080519115158252519081900360200190f35b62000496600480360360408110156200047557600080fd5b5080356001608060020a0319169060200135600160a060020a031662001ad7565b60408051918252519081900360200190f35b620004c860048036036020811015620004c057600080fd5b503562001b11565b604080516001608060020a03199092168252519081900360200190f35b620006bb600480360360a0811015620004fd57600080fd5b6001608060020a0319823516916020810135918101906060810160408201356401000000008111156200052f57600080fd5b8201836020820111156200054257600080fd5b803590602001918460018302840111640100000000831117156200056557600080fd5b91908080601f0160208091040260200160405190810160405280939291908181526020018383808284376000920191909152509295949360208101935035915050640100000000811115620005b957600080fd5b820183602082011115620005cc57600080fd5b80359060200191846001830284011164010000000083111715620005ef57600080fd5b91908080601f01602080910402602001604051908101604052809392919081815260200183838082843760009201919091525092959493602081019350359150506401000000008111156200064357600080fd5b8201836020820111156200065657600080fd5b803590602001918460018302840111640100000000831117156200067957600080fd5b91908080601f01602080910402602001604051908101604052809392919081815260200183838082843760009201919091525092955062001b29945050505050565b005b6200049660048036036020811015620006d557600080fd5b50356001608060020a03191662001fe9565b6200071160048036036020811015620006ff57600080fd5b50356001608060020a03191662002008565b6040805160208082528351818301528351919283929083019185019080838360005b838110156200074d57818101518382015260200162000733565b50505050905090810190601f1680156200077b5780820380516001836020036101000a031916815260200191505b509250505060405180910390f35b620006bb60048036036020811015620007a157600080fd5b50356001608060020a031916620020be565b6200071160048036036020811015620007cb57600080fd5b5035600160a060020a031662002182565b620006bb60048036036020811015620007f457600080fd5b50356001608060020a031916620021f9565b620006bb600480360360a08110156200081e57600080fd5b6001608060020a0319823581169260208101359091169160ff6040830135169160608101359181019060a0810160808201356401000000008111156200086357600080fd5b8201836020820111156200087657600080fd5b803590602001918460018302840111640100000000831117156200089957600080fd5b91908080601f016020809104026020016040519081016040528093929190818152602001838380828437600092019190915250929550620022db945050505050565b620008e562002748565b60408051600160a060020a039092168252519081900360200190f35b62000711600480360360208110156200091957600080fd5b50356001608060020a03191662002757565b620006bb620027d2565b620006bb600480360360408110156200094d57600080fd5b8101906020810181356401000000008111156200096957600080fd5b8201836020820111156200097c57600080fd5b803590602001918460018302840111640100000000831117156200099f57600080fd5b91908080601f0160208091040260200160405190810160405280939291908181526020018383808284376000920191909152509295949360208101935035915050640100000000811115620009f357600080fd5b82018360208201111562000a0657600080fd5b8035906020019184600183028401116401000000008311171562000a2957600080fd5b91908080601f016020809104026020016040519081016040528093929190818152602001838380828437600092019190915250929550620027df945050505050565b620007116004803603604081101562000a8357600080fd5b5080356001608060020a0319169060200135600160a060020a031662002b25565b620008e5600480360360a081101562000abc57600080fd5b5080356001608060020a031916906020810135600160a060020a03908116916040810135909116906060810135906080013563ffffffff1662002bf0565b620006bb6004803603604081101562000b1257600080fd5b508035600160a060020a0316906020013560ff166200316a565b620008e56004803603602081101562000b4457600080fd5b50356001608060020a03191662003236565b62000b7f6004803603602081101562000b6e57600080fd5b5035600160a060020a031662003263565b6040518082600581111562000b9057fe5b60ff16815260200191505060405180910390f35b620006bb600480360360a081101562000bbc57600080fd5b5080356001608060020a031916906020810135600160a060020a03908116916040810135909116906060810135906080013563ffffffff1662003284565b620004966004803603602081101562000c1257600080fd5b50356001608060020a03191662003475565b620004c86004803603602081101562000c3c57600080fd5b5035600160a060020a031662003494565b62000c866004803603604081101562000c6557600080fd5b5080356001608060020a0319169060200135600160a060020a0316620034b5565b6040518082600481111562000b9057fe5b620007116004803603602081101562000caf57600080fd5b50356001608060020a031916620034ef565b620006bb6004803603602081101562000cd957600080fd5b5035600160a060020a03166200356e565b620006bb600480360360e081101562000d0257600080fd5b6001608060020a0319823516919081019060408101602082013564010000000081111562000d2f57600080fd5b82018360208201111562000d4257600080fd5b8035906020019184600183028401116401000000008311171562000d6557600080fd5b91908080601f016020809104026020016040519081016040528093929190818152602001838380828437600092019190915250929594936020810193503591505064010000000081111562000db957600080fd5b82018360208201111562000dcc57600080fd5b8035906020019184600183028401116401000000008311171562000def57600080fd5b91908080601f01602080910402602001604051908101604052809392919081815260200183838082843760009201919091525092955050600160a060020a03833516935050506020810135906040810135906060013562003590565b620004c86004803603602081101562000e6357600080fd5b50356001608060020a03191662003e63565b620007116004803603602081101562000e8d57600080fd5b50356001608060020a03191662003e85565b620004966004803603602081101562000eb757600080fd5b50356001608060020a03191662003f00565b620007116004803603602081101562000ee157600080fd5b50356001608060020a03191662003f1f565b620008e5600480360360a081101562000f0b57600080fd5b5080356001608060020a031916906020810135600160a060020a03908116916040810135909116906060810135906080013563ffffffff1662003f9d565b620006bb6004803603602081101562000f6157600080fd5b50356001608060020a0319166200448b565b620008e56004803603602081101562000f8b57600080fd5b50356001608060020a03191662004717565b62000fc76004803603602081101562000fb557600080fd5b50356001608060020a03191662004745565b60408051602080825283518183015283519192839290830191858101910280838360005b838110156200100557818101518382015260200162000feb565b505050509050019250505060405180910390f35b62000496600480360360208110156200103157600080fd5b50356001608060020a031916620047c0565b620008e5600480360360408110156200105b57600080fd5b5080356001608060020a0319169060200135600160a060020a0316620047df565b620008e5600480360360408110156200109457600080fd5b5080356001608060020a0319169060200135600160a060020a031662004817565b620010df60048036036020811015620010cd57600080fd5b50356001608060020a0319166200484f565b6040518082600281111562000b9057fe5b620008e5600480360360208110156200110857600080fd5b50356001608060020a03191662004876565b620006bb600480360360208110156200113257600080fd5b50356001608060020a0319166200489e565b62000711600480360360208110156200115c57600080fd5b5035600160a060020a031662004a7d565b62000fc7600480360360208110156200118557600080fd5b50356001608060020a03191662004b13565b6200049660048036036020811015620011af57600080fd5b50356001608060020a03191662004b8d565b6200044960048036036020811015620011d957600080fd5b5035600160a060020a031662004bac565b62001214600480360360208110156200120257600080fd5b50356001608060020a03191662004bc6565b6040518082600381111562000b9057fe5b620006bb62004bec565b62000711600480360360208110156200124757600080fd5b50356001608060020a03191662004cbd565b62000496600480360360608110156200127157600080fd5b6001608060020a03198235169160ff60208201351691810190606081016040820135640100000000811115620012a657600080fd5b820183602082011115620012b957600080fd5b80359060200191846001830284011164010000000083111715620012dc57600080fd5b91908080601f01602080910402602001604051908101604052809392919081815260200183838082843760009201919091525092955062004d3b945050505050565b6001608060020a03198716600090815260076020526040812080546401000000009004600160a060020a0316151562001390576040805160e560020a62461bcd02815260206004820152600e602482015260008051602062005dbf833981519152604482015290519081900360640190fd5b80546401000000009004600160a060020a03163314620013e9576040805160e560020a62461bcd02815260206004820152600e602482015260008051602062005e22833981519152604482015290519081900360640190fd5b600160a060020a038616600090815260086020526040902054608060020a026001608060020a03191615620014535760405160e560020a62461bcd02815260040180806020018281038252602681526020018062005d996026913960400191505060405180910390fd5b600083101580156200147057506b0332e8a789bc7ef49e00000083105b1515620014c7576040805160e560020a62461bcd02815260206004820152601260248201527f494e56414c49445f4d41524b45545f4645450000000000000000000000000000604482015290519081900360640190fd5b6000600160a060020a03871615801590620014f257506003820154600160a060020a03888116911614155b156200153157506001608060020a0319891660009081526007602052604090206003018054600160a060020a031916600160a060020a03881617905560015b600089511180156200167d5750816001016040516020018080602001828103825283818154600181600116156101000203166002900481526020019150805460018160011615610100020316600290048015620015d25780601f10620015a657610100808354040283529160200191620015d2565b820191906000526020600020905b815481529060010190602001808311620015b457829003601f168201915b50509250505060405160208183030381529060405280519060200120896040516020018080602001828103825283818151815260200191508051906020019080838360005b838110156200163157818101518382015260200162001617565b50505050905090810190601f1680156200165f5780820380516001836020036101000a031916815260200191505b50925050506040516020818303038152906040528051906020012014155b15620016bb576001608060020a03198a1660009081526007602090815260409091208a51620016b5926001909201918c0190620053d0565b50600190505b60008851118015620017fc575060408051602080820190815260028086018054600019610100600183161502011691909104938301849052929091829160609091019084908015620017515780601f10620017255761010080835404028352916020019162001751565b820191906000526020600020905b8154815290600101906020018083116200173357829003601f168201915b50509250505060405160208183030381529060405280519060200120886040516020018080602001828103825283818151815260200191508051906020019080838360005b83811015620017b057818101518382015260200162001796565b50505050905090810190601f168015620017de5780820380516001836020036101000a031916815260200191505b50925050506040516020818303038152906040528051906020012014155b156200183a576001608060020a03198a166000908152600760209081526040909120895162001834926002909201918b0190620053d0565b50600190505b600482015486146200186957506001608060020a03198916600090815260076020526040902060040185905560015b600582015485146200189857506001608060020a03198916600090815260076020526040902060050184905560015b60068201548414620018c757506001608060020a03198916600090815260076020526040902060060183905560015b801562001aca57896001608060020a0319167fe5e16c8bac0b35f728c96809036d527464a2850cd0ab58970a44d72b107498f68360000160009054906101000a900463ffffffff168460000160049054906101000a9004600160a060020a031685600101866002018760030160009054906101000a9004600160a060020a0316886004015489600501548a60060154604051808963ffffffff1663ffffffff16815260200188600160a060020a0316600160a060020a03168152602001806020018060200187600160a060020a0316600160a060020a0316815260200186815260200185815260200184815260200183810383528981815460018160011615610100020316600290048152602001915080546001816001161561010002031660029004801562001a3b5780601f1062001a0f5761010080835404028352916020019162001a3b565b820191906000526020600020905b81548152906001019060200180831162001a1d57829003601f168201915b505083810382528854600260001961010060018416150201909116048082526020909101908990801562001ab35780601f1062001a875761010080835404028352916020019162001ab3565b820191906000526020600020905b81548152906001019060200180831162001a9557829003601f168201915b50509a505050505050505050505060405180910390a25b9998505050505050505050565b6001608060020a031982166000908152600760209081526040808320600160a060020a038516845260090190915290206001015492915050565b600090815260066020526040902054608060020a0290565b60013360009081526003602052604090206002015460ff16600581111562001b4d57fe5b148062001b7b575060023360009081526003602052604090206002015460ff16600581111562001b7957fe5b145b151562001bd2576040805160e560020a62461bcd02815260206004820152600c60248201527f4e4f545f415f4d454d4245520000000000000000000000000000000000000000604482015290519081900360640190fd5b6001608060020a03198516600090815260046020526040902054650100000000009004600160a060020a03161562001c54576040805160e560020a62461bcd02815260206004820152601560248201527f444f4d41494e5f414c52454144595f4558495354530000000000000000000000604482015290519081900360640190fd5b60408051610100810190915260018054640100000000900463ffffffff1682526020820190815260200133600160a060020a03168152602001858152602001848152602001838152602001828152602001600060405190808252806020026020018201604052801562001cd1578160200160208202803883390190505b5090526001608060020a0319861660009081526004602090815260409091208251815463ffffffff191663ffffffff90911617808255918301519091829064ff00000000191664010000000083600281111562001d2a57fe5b021790555060408201518154600160a060020a03909116650100000000000278ffffffffffffffffffffffffffffffffffffffff000000000019909116178155606082015160018201556080820151805162001d91916002840191602090910190620053d0565b5060a0820151805162001daf916003840191602090910190620053d0565b5060c0820151805162001dcd916004840191602090910190620053d0565b5060e0820151805162001deb91600584019160209091019062005455565b50506001805460405164010000000090910463ffffffff168082526001608060020a0319891693507fb3e08ef90bd1b5938971d100a5221986c383acaf94adb0c7a008f553b776b98b92909133908990899089908990602081018760ff16815260200186600160a060020a0316600160a060020a03168152602001858152602001806020018060200180602001848103845287818151815260200191508051906020019080838360005b8381101562001eaf57818101518382015260200162001e95565b50505050905090810190601f16801562001edd5780820380516001836020036101000a031916815260200191505b50848103835286518152865160209182019188019080838360005b8381101562001f1257818101518382015260200162001ef8565b50505050905090810190601f16801562001f405780820380516001836020036101000a031916815260200191505b50848103825285518152855160209182019187019080838360005b8381101562001f7557818101518382015260200162001f5b565b50505050905090810190601f16801562001fa35780820380516001836020036101000a031916815260200191505b509a505050505050505050505060405180910390a250506001805463ffffffff640100000000808304821684019091160267ffffffff0000000019909116179055505050565b6001608060020a03191660009081526004602052604090206001015490565b6001608060020a031981166000908152600560209081526040918290206002908101805484516001821615610100026000190190911692909204601f81018490048402830184019094528382526060939192909190830182828015620020b25780601f106200208657610100808354040283529160200191620020b2565b820191906000526020600020905b8154815290600101906020018083116200209457829003601f168201915b50505050509050919050565b6001608060020a031981166000908152600760205260409020546401000000009004600160a060020a031615156200212f576040805160e560020a62461bcd02815260206004820152600e602482015260008051602062005dbf833981519152604482015290519081900360640190fd5b6040805160e560020a62461bcd02815260206004820152600f60248201527f4e4f545f494d504c454d454e5445440000000000000000000000000000000000604482015290519081900360640190fd5b50565b600160a060020a03811660009081526003602090815260409182902080548351601f6002600019610100600186161502019093169290920491820184900484028101840190945280845260609392830182828015620020b25780601f106200208657610100808354040283529160200191620020b2565b6001608060020a031981166000908152600760205260409020546401000000009004600160a060020a031615156200226a576040805160e560020a62461bcd02815260206004820152600e602482015260008051602062005dbf833981519152604482015290519081900360640190fd5b6001608060020a031981166000908152600760205260409020546401000000009004600160a060020a031633146200212f576040805160e560020a62461bcd02815260206004820152600e602482015260008051602062005e22833981519152604482015290519081900360640190fd5b6001608060020a03198416600090815260046020526040902054650100000000009004600160a060020a031615156200235e576040805160e560020a62461bcd02815260206004820152600e60248201527f4e4f5f535543485f444f4d41494e000000000000000000000000000000000000604482015290519081900360640190fd5b6001608060020a03198416600090815260046020526040902054650100000000009004600160a060020a03163314620023d0576040805160e560020a62461bcd02815260206004820152600e602482015260008051602062005e22833981519152604482015290519081900360640190fd5b6001608060020a03198516600090815260056020526040902054608060020a900460ff1660038111156200240057fe5b60ff161562002459576040805160e560020a62461bcd02815260206004820152601360248201527f4e4f44455f414c52454144595f50414952454400000000000000000000000000604482015290519081900360640190fd5b600082815260066020526040902054608060020a026001608060020a03191615620024ce576040805160e560020a62461bcd02815260206004820152601260248201527f4455504c49434154455f4e4f44455f4b45590000000000000000000000000000604482015290519081900360640190fd5b6001836003811115620024dd57fe5b60ff161480620024fb575060038381811115620024f657fe5b60ff16145b151562002552576040805160e560020a62461bcd02815260206004820152601160248201527f494e56414c49445f4e4f44455f54595045000000000000000000000000000000604482015290519081900360640190fd5b608060405190810160405280856001608060020a03191681526020018460038111156200257b57fe5b8152602080820185905260409182018490526001608060020a03198881166000908152600583529290922083518154909316608060020a93849004178082559184015190929091839170ff000000000000000000000000000000001990911690836003811115620025e857fe5b0217905550604082015160018201556060820151805162002614916002840191602090910190620053d0565b505050600082815260066020908152604080832080546001608060020a0319908116608060020a8b0490811790925588811680865260048552838620600501805460018181018355918852868820600282040180546001608060020a03929093166010026101000a918202199092169402939093179092558251908a1681528084018790526060928101838152865193820193909352855191947fb3d59b15ab99282c8dd963009b3b6c9d12c2422dcf7ee81f9c67c8c0996cb9ec948b9489948994939192608085019290860191908190849084905b8381101562002704578181015183820152602001620026ea565b50505050905090810190601f168015620027325780820380516001836020036101000a031916815260200191505b5094505050505060405180910390a25050505050565b600254600160a060020a031681565b6001608060020a0319811660009081526004602090815260409182902060030180548351601f6002600019610100600186161502019093169290920491820184900484028101840190945280845260609392830182828015620020b25780601f106200208657610100808354040283529160200191620020b2565b620027dd33620051d7565b565b3360009081526003602052604090206002015460ff1660058111156200280157fe5b1562002857576040805160e560020a62461bcd02815260206004820152601960248201527f4d454d4245525f414c52454144595f5245474953544552454400000000000000604482015290519081900360640190fd5b60405160200180806020018281038252602e81526020018062005e42602e913960400191505060405160208183030381529060405280519060200120826040516020018080602001828103825283818151815260200191508051906020019080838360005b83811015620028d6578181015183820152602001620028bc565b50505050905090810190601f168015620029045780820380516001836020036101000a031916815260200191505b50925050506040516020818303038152906040528051906020012014151562002977576040805160e560020a62461bcd02815260206004820152600c60248201527f494e56414c49445f45554c410000000000000000000000000000000000000000604482015290519081900360640190fd5b60408051606081018252838152602080820184905260018284015233600090815260038252929092208151805192939192620029b79284920190620053d0565b506020828101518051620029d29260018501920190620053d0565b50604082015160028201805460ff19166001836005811115620029f157fe5b021790555090505033600160a060020a03167ff80f80714d0c23a9fad9abecbe04fa405bb13477a68a69a520886c0bb9853b298383600160405180806020018060200184600581111562002a4157fe5b60ff168152602001838103835286818151815260200191508051906020019080838360005b8381101562002a8057818101518382015260200162002a66565b50505050905090810190601f16801562002aae5780820380516001836020036101000a031916815260200191505b50838103825285518152855160209182019187019080838360005b8381101562002ae357818101518382015260200162002ac9565b50505050905090810190601f16801562002b115780820380516001836020036101000a031916815260200191505b509550505050505060405180910390a25050565b6001608060020a031982166000908152600760209081526040808320600160a060020a03851684526009018252918290206002908101805484516001821615610100026000190190911692909204601f8101849004840283018401909452838252606093919290919083018282801562002be35780601f1062002bb75761010080835404028352916020019162002be3565b820191906000526020600020905b81548152906001019060200180831162002bc557829003601f168201915b5050505050905092915050565b6001608060020a031985166000908152600760205260408120546401000000009004600160a060020a0316151562002c61576040805160e560020a62461bcd02815260206004820152600e602482015260008051602062005dbf833981519152604482015290519081900360640190fd5b6001608060020a03198616600090815260076020526040902060030154600160a060020a0316331462002cde576040805160e560020a62461bcd02815260206004820152601060248201527f53454e4445525f4e4f545f4d414b455200000000000000000000000000000000604482015290519081900360640190fd5b6001608060020a031986166000908152600760209081526040808320600160a060020a038916845260090190915290205460039060ff16600481111562002d2157fe5b60ff161462002d7a576040805160e560020a62461bcd02815260206004820152601660248201527f524543495049454e545f4e4f545f50524f564944455200000000000000000000604482015290519081900360640190fd5b600154600090680100000000000000009004600160a060020a0316873387898888600262002da76200550e565b600160a060020a03808a1682526001608060020a031989166020830152878116604083015286811660608301528516608082015260a0810184905263ffffffff831660c082015260e0810182600281111562002dff57fe5b60ff16815260200198505050505050505050604051809103906000f08015801562002e2e573d6000803e3d6000fd5b50600154604080517f23b872dd000000000000000000000000000000000000000000000000000000008152336004820152600160a060020a03808516602483015260448201899052915193945068010000000000000000909204169160009183916323b872dd9160648082019260209290919082900301818787803b15801562002eb757600080fd5b505af115801562002ecc573d6000803e3d6000fd5b505050506040513d602081101562002ee357600080fd5b5051905080151562002f2a5760405160e560020a62461bcd02815260040180806020018281038252602181526020018062005e706021913960400191505060405180910390fd5b6001608060020a0319891660008181526007602081815260408084209092018054600181018255908452928190209092018054600160a060020a031916600160a060020a03881690811790915581517f67e404ce00000000000000000000000000000000000000000000000000000000815291517f734f20c5aed5a81ff57bd83ec575d094a7846b1e3fcd2e8e39b030afc2a289049391926367e404ce926004808301939192829003018186803b15801562002fe557600080fd5b505afa15801562002ffa573d6000803e3d6000fd5b505050506040513d60208110156200301157600080fd5b5051604080517fc89e43610000000000000000000000000000000000000000000000000000000081529051600160a060020a0388169163c89e4361916004808301926020929190829003018186803b1580156200306d57600080fd5b505afa15801562003082573d6000803e3d6000fd5b505050506040513d60208110156200309957600080fd5b5051604080517f66d003ac0000000000000000000000000000000000000000000000000000000081529051600160a060020a038916916366d003ac916004808301926020929190829003018186803b158015620030f557600080fd5b505afa1580156200310a573d6000803e3d6000fd5b505050506040513d60208110156200312157600080fd5b505160408051600160a060020a03948516815292841660208401529083168282015291871660608201526002608082015290519081900360a00190a25090979650505050505050565b620031753362004bac565b15156200318157600080fd5b3360009081526003602052604090206002015460ff166005811115620031a357fe5b1515620031fa576040805160e560020a62461bcd02815260206004820152600e60248201527f4e4f5f535543485f4d454d424552000000000000000000000000000000000000604482015290519081900360640190fd5b600160a060020a0382166000908152600360205260409020600201805482919060ff191660018360058111156200322d57fe5b02179055505050565b6001608060020a0319166000908152600760205260409020546401000000009004600160a060020a031690565b600160a060020a031660009081526003602052604090206002015460ff1690565b6001608060020a031985166000908152600760205260409020546401000000009004600160a060020a03161515620032f5576040805160e560020a62461bcd02815260206004820152600e602482015260008051602062005dbf833981519152604482015290519081900360640190fd5b6001608060020a03198516600090815260076020526040902060030154600160a060020a0316151562003372576040805160e560020a62461bcd02815260206004820152601660248201527f4e4f5f4143544956455f4d41524b45545f4d414b455200000000000000000000604482015290519081900360640190fd5b6001608060020a03198516600090815260076020908152604080832033845260090190915290205460039060ff166004811115620033ac57fe5b60ff161462003405576040805160e560020a62461bcd02815260206004820152601060248201527f4e4f5f50524f56494445525f524f4c4500000000000000000000000000000000604482015290519081900360640190fd5b60408051338152600160a060020a0380871660208301528516818301526060810184905263ffffffff8316608082015290516001608060020a03198716917f1c3be017379c486bade742062ae83c3a0a25974e898e26fd98a221d0c53d9dca919081900360a00190a25050505050565b6001608060020a03191660009081526007602052604090206004015490565b600160a060020a0316600090815260086020526040902054608060020a0290565b6001608060020a031982166000908152600760209081526040808320600160a060020a038516845260090190915290205460ff1692915050565b6001608060020a03198116600090815260076020908152604091829020600190810180548451600293821615610100026000190190911692909204601f81018490048402830184019094528382526060939192909190830182828015620020b25780601f106200208657610100808354040283529160200191620020b2565b620035793362004bac565b15156200358557600080fd5b6200217f8162005221565b6001608060020a031987166000908152600760205260409020546401000000009004600160a060020a03161562003611576040805160e560020a62461bcd02815260206004820152601560248201527f4d41524b45545f414c52454144595f4558495354530000000000000000000000604482015290519081900360640190fd5b600160a060020a038416151562003672576040805160e560020a62461bcd02815260206004820152600d60248201527f494e56414c49445f4d414b455200000000000000000000000000000000000000604482015290519081900360640190fd5b600160a060020a038416600090815260086020526040902054608060020a026001608060020a03191615620036dc5760405160e560020a62461bcd02815260040180806020018281038252602681526020018062005d996026913960400191505060405180910390fd5b600083101580156200376d5750600160089054906101000a9004600160a060020a0316600160a060020a03166318160ddd6040518163ffffffff1660e060020a02815260040160206040518083038186803b1580156200373b57600080fd5b505afa15801562003750573d6000803e3d6000fd5b505050506040513d60208110156200376757600080fd5b50518311155b1515620037c4576040805160e560020a62461bcd02815260206004820152601960248201527f494e56414c49445f50524f56494445525f534543555249545900000000000000604482015290519081900360640190fd5b60008210158015620038555750600160089054906101000a9004600160a060020a0316600160a060020a03166318160ddd6040518163ffffffff1660e060020a02815260040160206040518083038186803b1580156200382357600080fd5b505afa15801562003838573d6000803e3d6000fd5b505050506040513d60208110156200384f57600080fd5b50518211155b1515620038ac576040805160e560020a62461bcd02815260206004820152601960248201527f494e56414c49445f434f4e53554d45525f534543555249545900000000000000604482015290519081900360640190fd5b600081101580156200394b575062989680600160089054906101000a9004600160a060020a0316600160a060020a03166318160ddd6040518163ffffffff1660e060020a02815260040160206040518083038186803b1580156200390f57600080fd5b505afa15801562003924573d6000803e3d6000fd5b505050506040513d60208110156200393b57600080fd5b505103670de0b6b3a76400000281105b1515620039a2576040805160e560020a62461bcd02815260206004820152601260248201527f494e56414c49445f4d41524b45545f4645450000000000000000000000000000604482015290519081900360640190fd5b604080516101408101825260015463ffffffff1681523360208083019190915281830189905260608201889052600160a060020a038716608083015260a0820186905260c0820185905260e0820184905282516000808252818301855261010084019190915283518181529182019093529091610120830191905090526001608060020a031988166000908152600760209081526040918290208351815485840151600160a060020a03166401000000000277ffffffffffffffffffffffffffffffffffffffff000000001963ffffffff90931663ffffffff19909216919091179190911617815591830151805162003aa29260018501920190620053d0565b506060820151805162003ac0916002840191602090910190620053d0565b506080820151600382018054600160a060020a031916600160a060020a0390921691909117905560a0820151600482015560c0820151600582015560e08201516006820155610100820151805162003b239160078401916020909101906200551f565b50610120820151805162003b429160088401916020909101906200551f565b5050604080516080810190915290508060028152600060208083018290526040805180830182528381528185015260609093018290526001608060020a03198b1682526007815282822033835260090190522081518154829060ff1916600183600481111562003bae57fe5b021790555060208281015160018301556040830151805162003bd79260028501920190620053d0565b506060820151816003015590505060076000886001608060020a0319166001608060020a03191681526020019081526020016000206008018490806001815401808255809150509060018203906000526020600020016000909192909190916101000a815481600160a060020a030219169083600160a060020a0316021790555050866008600086600160a060020a0316600160a060020a0316815260200190815260200160002060006101000a8154816001608060020a030219169083608060020a90040217905550600160009054906101000a900463ffffffff16600101600160006101000a81548163ffffffff021916908363ffffffff160217905550866001608060020a0319167f4bd7c78d90ab88f388bfeb546e0c4420507a56234e8f64c32e3f880f3538ce94600160009054906101000a900463ffffffff1633898989898989604051808963ffffffff1663ffffffff16815260200188600160a060020a0316600160a060020a03168152602001806020018060200187600160a060020a0316600160a060020a03168152602001868152602001858152602001848152602001838103835289818151815260200191508051906020019080838360005b8381101562003db457818101518382015260200162003d9a565b50505050905090810190601f16801562003de25780820380516001836020036101000a031916815260200191505b5083810382528851815288516020918201918a019080838360005b8381101562003e1757818101518382015260200162003dfd565b50505050905090810190601f16801562003e455780820380516001836020036101000a031916815260200191505b509a505050505050505050505060405180910390a250505050505050565b6001608060020a031916600090815260056020526040902054608060020a0290565b6001608060020a0319811660009081526004602081815260409283902090910180548351601f6002600019610100600186161502019093169290920491820184900484028101840190945280845260609392830182828015620020b25780601f106200208657610100808354040283529160200191620020b2565b6001608060020a03191660009081526007602052604090206005015490565b6001608060020a031981166000908152600760209081526040918290206002908101805484516001821615610100026000190190911692909204601f81018490048402830184019094528382526060939192909190830182828015620020b25780601f106200208657610100808354040283529160200191620020b2565b6001608060020a031985166000908152600760205260408120546401000000009004600160a060020a031615156200400e576040805160e560020a62461bcd02815260206004820152600e602482015260008051602062005dbf833981519152604482015290519081900360640190fd5b6001608060020a03198616600090815260076020908152604080832033845260090190915290205460049060ff16818111156200404757fe5b60ff1614620040a0576040805160e560020a62461bcd02815260206004820152601060248201527f4e4f5f434f4e53554d45525f524f4c4500000000000000000000000000000000604482015290519081900360640190fd5b6000600160089054906101000a9004600160a060020a03168733878988886001620040ca6200550e565b600160a060020a03808a1682526001608060020a031989166020830152878116604083015286811660608301528516608082015260a0810184905263ffffffff831660c082015260e081018260028111156200412257fe5b60ff16815260200198505050505050505050604051809103906000f08015801562004151573d6000803e3d6000fd5b50600154604080517f23b872dd000000000000000000000000000000000000000000000000000000008152336004820152600160a060020a03848116602483015260448201899052915193945060009368010000000000000000909304909116916323b872dd9160648082019260209290919082900301818787803b158015620041da57600080fd5b505af1158015620041ef573d6000803e3d6000fd5b505050506040513d60208110156200420657600080fd5b505190508015156200424d5760405160e560020a62461bcd02815260040180806020018281038252602181526020018062005e706021913960400191505060405180910390fd5b6001608060020a0319881660008181526007602081815260408084209092018054600181018255908452928190209092018054600160a060020a031916600160a060020a03871690811790915581517f67e404ce00000000000000000000000000000000000000000000000000000000815291517f734f20c5aed5a81ff57bd83ec575d094a7846b1e3fcd2e8e39b030afc2a289049391926367e404ce926004808301939192829003018186803b1580156200430857600080fd5b505afa1580156200431d573d6000803e3d6000fd5b505050506040513d60208110156200433457600080fd5b5051604080517fc89e43610000000000000000000000000000000000000000000000000000000081529051600160a060020a0387169163c89e4361916004808301926020929190829003018186803b1580156200439057600080fd5b505afa158015620043a5573d6000803e3d6000fd5b505050506040513d6020811015620043bc57600080fd5b5051604080517f66d003ac0000000000000000000000000000000000000000000000000000000081529051600160a060020a038816916366d003ac916004808301926020929190829003018186803b1580156200441857600080fd5b505afa1580156200442d573d6000803e3d6000fd5b505050506040513d60208110156200444457600080fd5b505160408051600160a060020a03948516815292841660208401529083168282015291861660608201526001608082015290519081900360a00190a2509695505050505050565b60013360009081526003602052604090206002015460ff166005811115620044af57fe5b1480620044dd575060023360009081526003602052604090206002015460ff166005811115620044db57fe5b145b151562004534576040805160e560020a62461bcd02815260206004820152600c60248201527f4e4f545f415f4d454d4245520000000000000000000000000000000000000000604482015290519081900360640190fd5b6001608060020a03198116600090815260046020526040902054650100000000009004600160a060020a03161515620045b7576040805160e560020a62461bcd02815260206004820152600e60248201527f4e4f5f535543485f444f4d41494e000000000000000000000000000000000000604482015290519081900360640190fd5b6001608060020a03198116600090815260046020526040902054650100000000009004600160a060020a0316331462004629576040805160e560020a62461bcd02815260206004820152600e602482015260008051602062005e22833981519152604482015290519081900360640190fd5b60016001608060020a03198216600090815260046020526040902054640100000000900460ff1660028111156200465c57fe5b14620046b2576040805160e560020a62461bcd02815260206004820152601160248201527f444f4d41494e5f4e4f545f414354495645000000000000000000000000000000604482015290519081900360640190fd5b6001608060020a03198116600081815260046020908152604091829020805464ff00000000191664020000000017905581516002815291517f276aca339c66951bcad57d5ee78858b2ce183c4a230417461c550556c8b9f69e9281900390910190a250565b6001608060020a031916600090815260046020526040902054650100000000009004600160a060020a031690565b6001608060020a03198116600090815260076020818152604092839020909101805483518184028101840190945280845260609392830182828015620020b257602002820191906000526020600020905b8154600160a060020a03168152600190910190602001808311620047965750505050509050919050565b6001608060020a03191660009081526005602052604090206001015490565b6001608060020a0319919091166000908152600760209081526040808320600160a060020a039485168452600b019091529020541690565b6001608060020a0319919091166000908152600760209081526040808320600160a060020a039485168452600a019091529020541690565b6001608060020a031916600090815260046020526040902054640100000000900460ff1690565b6001608060020a031916600090815260076020526040902060030154600160a060020a031690565b6001608060020a03198116600090815260056020526040902054608060020a900460ff166003811115620048ce57fe5b60ff16151562004928576040805160e560020a62461bcd02815260206004820152600c60248201527f4e4f5f535543485f4e4f44450000000000000000000000000000000000000000604482015290519081900360640190fd5b6001608060020a0319808216600090815260056020908152604080832054608060020a029093168252600490522054650100000000009004600160a060020a03163314620049af576040805160e560020a62461bcd02815260206004820152600e602482015260008051602062005e22833981519152604482015290519081900360640190fd5b6001608060020a031981166000818152600560208181526040808420805460018201805470ffffffffffffffffffffffffffffffffff19831684559087905583518086019485905287815297909652939092529351608060020a9092029362004a1e92600290920191620053d0565b5060008181526006602090815260409182902080546001608060020a0319908116909155825186821681529251908516927f22c6b34a83af23cbec20674e179fd0e690b13a36e294868475fb35a10c26811392908290030190a2505050565b60606003600083600160a060020a0316600160a060020a031681526020019081526020016000206001018054600181600116156101000203166002900480601f016020809104026020016040519081016040528092919081815260200182805460018160011615610100020316600290048015620020b25780601f106200208657610100808354040283529160200191620020b2565b6001608060020a03198116600090815260076020908152604091829020600801805483518184028101840190945280845260609392830182828015620020b257602002820191906000526020600020908154600160a060020a03168152600190910190602001808311620047965750505050509050919050565b6001608060020a03191660009081526007602052604090206006015490565b600062004bc0818363ffffffff6200526b16565b92915050565b6001608060020a031916600090815260056020526040902054608060020a900460ff1690565b3360009081526003602052604090206002015460ff16600581111562004c0e57fe5b151562004c65576040805160e560020a62461bcd02815260206004820152600e60248201527f4e4f5f535543485f4d454d424552000000000000000000000000000000000000604482015290519081900360640190fd5b336000908152600360208190526040909120600201805460ff191660018302179055506040805133815290517fa59e3b52cc428f9ef295563b34bd6af71489d571edf9d7f38ba0e977d0abc6cf9181900360200190a1565b6001608060020a031981166000908152600460209081526040918290206002908101805484516001821615610100026000190190911692909204601f81018490048402830184019094528382526060939192909190830182828015620020b25780601f106200208657610100808354040283529160200191620020b2565b6001608060020a031983166000908152600760205260408120546401000000009004600160a060020a0316151562004dac576040805160e560020a62461bcd02815260206004820152600e602482015260008051602062005dbf833981519152604482015290519081900360640190fd5b6001608060020a03198416600090815260076020908152604080832033845260090190915290205460ff16600481111562004de357fe5b60ff161562004e3c576040805160e560020a62461bcd02815260206004820152601460248201527f4143544f525f414c52454144595f4a4f494e4544000000000000000000000000604482015290519081900360640190fd5b600283600481111562004e4b57fe5b60ff16148062004e6a5750600383600481111562004e6557fe5b60ff16145b8062004e8457506004838181111562004e7f57fe5b60ff16145b151562004e9057600080fd5b6000600384600481111562004ea157fe5b60ff16141562004ecf57506001608060020a0319841660009081526007602052604090206004015462004f0f565b6004848181111562004edd57fe5b60ff16141562004f0b57506001608060020a0319841660009081526007602052604090206005015462004f0f565b5060005b60008111156200502257600154604080517f23b872dd000000000000000000000000000000000000000000000000000000008152336004820152306024820152604481018490529051600092680100000000000000009004600160a060020a0316916323b872dd91606480830192602092919082900301818787803b15801562004f9857600080fd5b505af115801562004fad573d6000803e3d6000fd5b505050506040513d602081101562004fc457600080fd5b5051905080151562005020576040805160e560020a62461bcd02815260206004820181905260248201527f4a4f494e5f4d41524b45545f5452414e534645525f46524f4d5f4641494c4544604482015290519081900360640190fd5b505b6080604051908101604052808560048111156200503b57fe5b815260208082018490526040808301879052600060609093018390526001608060020a03198916835260078252808320338452600901909152902081518154829060ff191660018360048111156200508f57fe5b0217905550602082810151600183015560408301518051620050b89260028501920190620053d0565b50606091909101516003909101556001608060020a0319851660008181526007602090815260408083206008018054600181018255908452928290209092018054600160a060020a0319163390811790915591518281527ffddabd3503898c96b0a89230335f75495af4c58bb4209bc7516eebfdb02e895392918891869189919081018460048111156200514857fe5b60ff16815260200183815260200180602001828103825283818151815260200191508051906020019080838360005b838110156200519157818101518382015260200162005177565b50505050905090810190601f168015620051bf5780820380516001836020036101000a031916815260200191505b509550505050505060405180910390a2949350505050565b620051ea60008263ffffffff620052d916565b604051600160a060020a038216907fa7b36d52bea726c3aa90d876d0e52a1089a347b3e3408a03f08eae32f96fdbb490600090a250565b6200523460008263ffffffff6200534916565b604051600160a060020a038216907f1390a149489c82e9e2e89927bdb17ad1ea3f0cc314fce06c96369721d3afb8f090600090a250565b6000600160a060020a0382161515620052b95760405160e560020a62461bcd02815260040180806020018281038252602281526020018062005e006022913960400191505060405180910390fd5b50600160a060020a03166000908152602091909152604090205460ff1690565b620052e582826200526b565b1515620053275760405160e560020a62461bcd02815260040180806020018281038252602181526020018062005ddf6021913960400191505060405180910390fd5b600160a060020a0316600090815260209190915260409020805460ff19169055565b6200535582826200526b565b15620053ab576040805160e560020a62461bcd02815260206004820152601f60248201527f526f6c65733a206163636f756e7420616c72656164792068617320726f6c6500604482015290519081900360640190fd5b600160a060020a0316600090815260209190915260409020805460ff19166001179055565b828054600181600116156101000203166002900490600052602060002090601f016020900481019282601f106200541357805160ff191683800117855562005443565b8280016001018555821562005443579182015b828111156200544357825182559160200191906001019062005426565b506200545192915062005585565b5090565b82805482825590600052602060002090600101600290048101928215620055005791602002820160005b83821115620054c957835183826101000a8154816001608060020a030219169083608060020a900402179055509260200192601001602081600f010492830192600103026200547f565b8015620054fe5782816101000a8154906001608060020a030219169055601001602081600f01049283019260010302620054c9565b505b5062005451929150620055a5565b6040516107a580620055f483390190565b82805482825590600052602060002090810192821562005577579160200282015b82811115620055775782518254600160a060020a031916600160a060020a0390911617825560209092019160019091019062005540565b5062005451929150620055cc565b620055a291905b808211156200545157600081556001016200558c565b90565b620055a291905b80821115620054515780546001608060020a0319168155600101620055ac565b620055a291905b8082111562005451578054600160a060020a0319168155600101620055d356fe608060405234801561001057600080fd5b50604051610100806107a5833981018060405261010081101561003257600080fd5b508051602082015160408301516060840151608085015160a086015160c087015160e09097015160008054600160a060020a031916600160a060020a0389161780825597989697959694959394929382919060a060020a60ff021916740100000000000000000000000000000000000000008360028111156100b057fe5b0217905550600080546001919060a860020a60ff021916750100000000000000000000000000000000000000000083021790555050600180546001608060020a0319167001000000000000000000000000000000009097049690961790955560028054600160a060020a0319908116600160a060020a03968716179091556003805482169486169490941790935560048054909316919093161790556005556008805463ffffffff191663ffffffff90921691909117905550436006556106298061017c6000396000f3fe608060405234801561001057600080fd5b50600436106100d1576000357c01000000000000000000000000000000000000000000000000000000009004806367e404ce1161008e57806367e404ce146102685780636ed71ede146102705780639ef27b001461029e578063aa8c217c146102a6578063c89e4361146102ae578063ded2e715146102b6576100d1565b80632ef2d55e146100d6578063359d4be2146100f75780633893020314610176578063490d59a41461019057806355b550941461021857806366d003ac14610244575b600080fd5b6100de6102ce565b6040805163ffffffff9092168252519081900360200190f35b610174600480360361016081101561010e57600080fd5b508035906fffffffffffffffffffffffffffffffff196020820135169063ffffffff6040820135169060608101359060808101359060ff60a082013581169160c08101359160e082013591610100810135909116906101208101359061014001356102da565b005b61017e610553565b60408051918252519081900360200190f35b61020460048036036101208110156101a757600080fd5b50600160a060020a03813516906020810135906fffffffffffffffffffffffffffffffff196040820135169063ffffffff6060820135169060808101359060a08101359060ff60c0820135169060e0810135906101000135610559565b604080519115158252519081900360200190f35b610220610568565b6040518082600381111561023057fe5b60ff16815260200191505060405180910390f35b61024c61058a565b60408051600160a060020a039092168252519081900360200190f35b61024c610599565b6102786105a8565b604080516fffffffffffffffffffffffffffffffff199092168252519081900360200190f35b61017e6105c1565b61017e6105c7565b61024c6105cd565b6102be6105dc565b6040518082600281111561023057fe5b60085463ffffffff1690565b60016000547501000000000000000000000000000000000000000000900460ff16600381111561030657fe5b1461037257604080517f08c379a000000000000000000000000000000000000000000000000000000000815260206004820152601060248201527f4348414e4e454c5f4e4f545f4f50454e00000000000000000000000000000000604482015290519081900360640190fd5b6000805460048054600554604080517fa9059cbb000000000000000000000000000000000000000000000000000000008152600160a060020a039384169481019490945260248401919091525192169163a9059cbb9160448082019260209290919082900301818787803b1580156103e957600080fd5b505af11580156103fd573d6000803e3d6000fd5b505050506040513d602081101561041357600080fd5b5051905080151561048557604080517f08c379a000000000000000000000000000000000000000000000000000000000815260206004820152601d60248201527f4348414e4e454c5f434c4f53455f5452414e534645525f4641494c4544000000604482015290519081900360640190fd5b43600755600080546003919075ff0000000000000000000000000000000000000000001916750100000000000000000000000000000000000000000083021790555060015460025460055460075460408051600160a060020a039094168452602084019290925282820152517001000000000000000000000000000000009092026fffffffffffffffffffffffffffffffff1916917f149862a34bbf1a64df1b3d1a30d1521062eba33815665c97e48f4f7a4e549088916060908290030190a2505050505050505050505050565b60065490565b60019998505050505050505050565b6000547501000000000000000000000000000000000000000000900460ff1690565b600454600160a060020a031690565b600254600160a060020a031690565b6001547001000000000000000000000000000000000290565b60075490565b60055490565b600354600160a060020a031690565b60005474010000000000000000000000000000000000000000900460ff169056fea165627a7a723058206a903e3edc46f5e5ab4e47e3653de3d19e47fbdca7558ac2b539833318423d6800294d414b45525f414c52454144595f574f524b494e475f464f525f4f544845525f4d41524b45544e4f5f535543485f4d41524b4554000000000000000000000000000000000000526f6c65733a206163636f756e7420646f6573206e6f74206861766520726f6c65526f6c65733a206163636f756e7420697320746865207a65726f20616464726573734e4f545f415554484f52495a4544000000000000000000000000000000000000516d553747697a6272653137783656325652315132474a456a7a366d38533162586d427456785332766d766238314f50454e5f4348414e4e454c5f5452414e534645525f46524f4d5f4641494c4544a165627a7a72305820b8451c81ffdcee6d49219442de526fc62c1d6b7bdfbf706c1b9e3a837eb57efd0029526f6c65733a206163636f756e7420697320746865207a65726f2061646472657373",
  "source": "///////////////////////////////////////////////////////////////////////////////\n//\n//  Copyright (C) 2018 Crossbar.io Technologies GmbH and contributors.\n//\n//  Licensed under the Apache License, Version 2.0 (the \"License\");\n//  you may not use this file except in compliance with the License.\n//  You may obtain a copy of the License at\n//\n//      http://www.apache.org/licenses/LICENSE-2.0\n//\n//  Unless required by applicable law or agreed to in writing, software\n//  distributed under the License is distributed on an \"AS IS\" BASIS,\n//  WITHOUT WARRANTIES OR CONDITIONS OF ANY KIND, either express or implied.\n//  See the License for the specific language governing permissions and\n//  limitations under the License.\n//\n///////////////////////////////////////////////////////////////////////////////\n\npragma solidity ^0.5.2;\n\n// https://openzeppelin.org/api/docs/math_SafeMath.html\nimport \"openzeppelin-solidity/contracts/math/SafeMath.sol\";\n\nimport \"./XBRToken.sol\";\nimport \"./XBRMaintained.sol\";\nimport \"./XBRChannel.sol\";\n\n\n/**\n * @title XBR Network main smart contract.\n * @author The XBR Project\n */\ncontract XBRNetwork is XBRMaintained {\n\n    // Add safe math functions to uint256 using SafeMath lib from OpenZeppelin\n    using SafeMath for uint256;\n\n    // //////// enums\n\n    /// XBR Network membership levels\n    enum MemberLevel { NULL, ACTIVE, VERIFIED, RETIRED, PENALTY, BLOCKED }\n\n    /// XBR Market Actor types\n    enum ActorType { NULL, NETWORK, MARKET, PROVIDER, CONSUMER }\n\n    /// XBR Domain status values\n    enum DomainStatus { NULL, ACTIVE, CLOSED }\n\n    /// XBR Carrier Node types\n    enum NodeType { NULL, MASTER, CORE, EDGE }\n\n    // //////// container types\n\n    /// Container type for holding XBR Network membership information.\n    struct Member {\n        /// The IPFS Multihash of the XBR EULA being agreed to and stored as one ZIP file archive on IPFS. Currently, this must be equal to \"QmU7Gizbre17x6V2VR1Q2GJEjz6m8S1bXmBtVxS2vmvb81\"\n        string eula;\n\n        /// Optional public member profile: the IPFS Multihash of the member profile stored in IPFS.\n        string profile;\n\n        /// Current member level.\n        MemberLevel level;\n    }\n\n    /// Container type for holding XBR Market Actors information.\n    struct Actor {\n        /// The type of the actor within the market.\n        ActorType actorType;\n\n        /// Security deposited by actor.\n        uint256 security;\n\n        /// Metadata attached to an actor in a market.\n        string meta;\n\n        /// Actor WAMP key (Ed25519 public key).\n        bytes32 key;\n    }\n\n    /// Container type for holding XBR Domain information.\n    struct Domain {\n        /// Domain sequence.\n        uint32 domainSeq;\n\n        /// Domain status\n        DomainStatus status;\n\n        /// Domain owner.\n        address owner;\n\n        /// Domain signing key (Ed25519 public key).\n        bytes32 domainKey;\n\n        /// Software stack license file on IPFS (required).\n        string license;\n\n        /// Optional domain terms on IPFS.\n        string terms;\n\n        /// Optional domain metadata on IPFS.\n        string meta;\n\n        /// Nodes within the domain.\n        bytes16[] nodes;\n    }\n\n    /// Container type for holding XBR Domain Nodes information.\n    struct Node {\n        bytes16 domain;\n\n        /// Type of node.\n        NodeType nodeType;\n\n        /// Node key (Ed25519 public key).\n        bytes32 key;\n\n        /// Optional (encrypted) node configuration on IPFS.\n        string config;\n    }\n\n    /// Container type for holding XBR Market information.\n    struct Market {\n        uint32 marketSeq;\n        address owner;\n        string terms;\n        string meta;\n        address maker;\n        uint256 providerSecurity;\n        uint256 consumerSecurity;\n        uint256 marketFee;\n        address[] channels;\n        address[] actorAddresses;\n        mapping(address => Actor) actors;\n        mapping(address => address) currentPaymentChannelByDelegate;\n        mapping(address => address) currentPayingChannelByDelegate;\n    }\n\n    /// Container type for holding paying channel request information. FIXME: make this event-based (to save gas).\n    struct PayingChannelRequest {\n        bytes16 marketId;\n        address sender;\n        address delegate;\n        address recipient;\n        uint256 amount;\n        uint32 timeout;\n    }\n\n    struct DelegateAssociation {\n        address delegate;\n        bytes32 pubkey;\n        bytes16 marketId;\n        ActorType actorType;\n    }\n\n    // //////// events for MEMBERS\n\n    /// Event emitted when a new member joined the XBR Network.\n    event MemberCreated (address indexed member, string eula, string profile, MemberLevel level);\n\n    /// Event emitted when a member leaves the XBR Network.\n    event MemberRetired (address member);\n\n    // //////// events for DOMAINS\n\n    /// Event emitted when a new domain was created.\n    event DomainCreated (bytes16 indexed domainId, uint32 domainSeq, DomainStatus status, address owner,\n        bytes32 domainKey, string license, string terms, string meta);\n\n    /// Event emitted when a domain was updated.\n    event DomainUpdated (bytes16 indexed domainId, uint32 domainSeq, DomainStatus status, address owner,\n        bytes32 domainKey, string license, string terms, string meta);\n\n    /// Event emitted when a domain was closed.\n    event DomainClosed (bytes16 indexed domainId, DomainStatus status);\n\n    /// Event emitted when a new node was paired with the domain.\n    event NodePaired (bytes16 indexed domainId, bytes16 nodeId, bytes32 nodeKey, string config);\n\n    /// Event emitted when a node was updated.\n    event NodeUpdated (bytes16 indexed domainId, bytes16 nodeId, bytes32 nodeKey, string config);\n\n    /// Event emitted when a node was released from a domain.\n    event NodeReleased (bytes16 indexed domainId, bytes16 nodeId);\n\n    // //////// events for MARKETS\n\n    /// Event emitted when a new market was created.\n    event MarketCreated (bytes16 indexed marketId, uint32 marketSeq, address owner, string terms, string meta,\n        address maker, uint256 providerSecurity, uint256 consumerSecurity, uint256 marketFee);\n\n    /// Event emitted when a market was updated.\n    event MarketUpdated (bytes16 indexed marketId, uint32 marketSeq, address owner, string terms, string meta,\n        address maker, uint256 providerSecurity, uint256 consumerSecurity, uint256 marketFee);\n\n    /// Event emitted when a market was closed.\n    event MarketClosed (bytes16 indexed marketId);\n\n    /// Event emitted when a new actor joined a market.\n    event ActorJoined (bytes16 indexed marketId, address actor, ActorType actorType, uint256 security, string meta);\n\n    /// Event emitted when an actor has left a market.\n    event ActorLeft (bytes16 indexed marketId, address actor, ActorType actorType);\n\n    /// Event emitted when a new payment channel was created in a market.\n    event ChannelCreated (bytes16 indexed marketId, address sender, address delegate,\n        address receiver, address channel, XBRChannel.ChannelType channelType);\n\n    /// Event emitted when a new request for a paying channel was created in a market.\n    event PayingChannelRequestCreated (bytes16 indexed marketId, address sender, address recipient, address delegate,\n        uint256 amount, uint32 timeout);\n\n    // Note: closing event of payment channels are emitted from XBRChannel (not from here)\n\n    // Created markets are sequence numbered using this counter (to allow deterministic collison-free IDs for markets)\n    uint32 private marketSeq = 1;\n\n    // Created domains are sequence numbered using this counter (to allow deterministic collison-free IDs for domains)\n    uint32 private domainSeq = 1;\n\n    /// XBR Network ERC20 token (XBR for the CrossbarFX technology stack)\n    XBRToken private token;\n\n    /// Address of the `XBR Network Organization <https://xbr.network/>`_\n    address public organization;\n\n    /// Current XBR Network members (\"member directory\").\n    mapping(address => Member) private members;\n\n    /// Current XBR Domains (\"domain directory\")\n    mapping(bytes16 => Domain) private domains;\n\n    /// Current XBR Nodes (\"node directory\");\n    mapping(bytes16 => Node) private nodes;\n\n    /// Index: node public key => (market ID, node ID)\n    mapping(bytes32 => bytes16) private nodesByKey;\n\n    /// Current XBR Markets (\"market directory\")\n    mapping(bytes16 => Market) private markets;\n\n    /// Index: maker address => market ID\n    mapping(address => bytes16) private marketsByMaker;\n\n    /// Index: delegate address =>\n    mapping(address => address) private paymentChannels;\n\n    /**\n     * Create a new network.\n     *\n     * @param token_ The token to run this network on.\n     * @param organization_ The network technology provider and ecosystem sponsor.\n     */\n    constructor (address token_, address organization_) public {\n        token = XBRToken(token_);\n        organization = organization_;\n\n        members[msg.sender] = Member(\"\", \"\", MemberLevel.VERIFIED);\n    }\n\n    /**\n     * Join the XBR Network. All XBR stakeholders, namely XBR Data Providers,\n     * XBR Data Consumers, XBR Data Markets and XBR Data Clouds, must register\n     * with the XBR Network on the global blockchain by calling this function.\n     *\n     * @param eula The IPFS Multihash of the XBR EULA being agreed to and stored as one ZIP file archive on IPFS.\n     *             Currently, this must be equal to \"QmU7Gizbre17x6V2VR1Q2GJEjz6m8S1bXmBtVxS2vmvb81\"\n     * @param profile Optional public member profile: the IPFS Multihash of the member profile stored in IPFS.\n     */\n    function register (string memory eula, string memory profile) public {\n        require(uint(members[msg.sender].level) == 0, \"MEMBER_ALREADY_REGISTERED\");\n        require(keccak256(abi.encode(eula)) ==\n                keccak256(abi.encode(\"QmU7Gizbre17x6V2VR1Q2GJEjz6m8S1bXmBtVxS2vmvb81\")), \"INVALID_EULA\");\n\n        members[msg.sender] = Member(eula, profile, MemberLevel.ACTIVE);\n\n        emit MemberCreated(msg.sender, eula, profile, MemberLevel.ACTIVE);\n    }\n\n    /**\n     * Leave the XBR Network.\n     */\n    function unregister () public {\n        require(uint(members[msg.sender].level) != 0, \"NO_SUCH_MEMBER\");\n\n        // FIXME: check that the member has no active objects associated anymore\n\n        members[msg.sender].level = MemberLevel.RETIRED;\n\n        emit MemberRetired(msg.sender);\n    }\n\n    /**\n     * Returns XBR Network member level given an address.\n     *\n     * @param member The address to lookup the XBR Network member level for.\n     * @return The current member level of the member.\n     */\n    function getMemberLevel (address member) public view returns (MemberLevel) {\n        return members[member].level;\n    }\n\n    /**\n     * Returns XBR Network member EULA given an address.\n     *\n     * @param member The address to lookup the XBR Network member EULA for.\n     * @return IPFS Multihash pointing to XBR Network EULA file on IPFS.\n     */\n    function getMemberEula (address member) public view returns (string memory) {\n        return members[member].eula;\n    }\n\n    /**\n     * Returns XBR Network member profile given an address.\n     *\n     * @param member The address to lookup the XBR Network member profile for.\n     * @return IPFS Multihash pointing to member profile file on IPFS.\n     */\n    function getMemberProfile (address member) public view returns (string memory) {\n        return members[member].profile;\n    }\n\n    /**\n     * Manually override the member level of a XBR Network member. Being able to do so\n     * currently serves two purposes:\n     *\n     * - having a last resort to handle situation where members violated the EULA\n     * - being able to manually patch things in error/bug cases\n     *\n     * @param member The address of the XBR network member to override member level.\n     * @param level The member level to set the member to.\n     */\n    function setMemberLevel (address member, MemberLevel level) public onlyMaintainer {\n        require(uint(members[msg.sender].level) != 0, \"NO_SUCH_MEMBER\");\n\n        members[member].level = level;\n    }\n\n    /**\n     *  Create a new XBR domain. Then sender to the transaction must be XBR network member\n     *  and automatically becomes owner of the new domain.\n     *\n     *  @param domainId The ID of the domain to create. Must be globally unique (not yet existing).\n     *  @param domainKey The domain signing key. A Ed25519 (https://ed25519.cr.yp.to/) public key.\n     *  @param license The license for the software stack running the domain. IPFS Multihash\n     *                 pointing to a JSON/YAML file signed by the project release key.\n     */\n    function createDomain (bytes16 domainId, bytes32 domainKey, string memory license,\n        string memory terms, string memory meta) public {\n\n        require(members[msg.sender].level == MemberLevel.ACTIVE ||\n                members[msg.sender].level == MemberLevel.VERIFIED, \"NOT_A_MEMBER\");\n\n        require(domains[domainId].owner == address(0), \"DOMAIN_ALREADY_EXISTS\");\n\n        domains[domainId] = Domain(domainSeq, DomainStatus.ACTIVE, msg.sender, domainKey,\n                                    license, terms, meta, new bytes16[](0));\n\n        emit DomainCreated(domainId, domainSeq, DomainStatus.ACTIVE, msg.sender, domainKey,\n                            license, terms, meta);\n\n        domainSeq = domainSeq + 1;\n    }\n\n    /**\n     * Close an existing XBR domain. The sender must be owner of the domain, and the domain\n     * must not have any nodes paired (anymore).\n     *\n     * @param domainId The ID of the domain to close.\n     */\n    function closeDomain (bytes16 domainId) public {\n        require(members[msg.sender].level == MemberLevel.ACTIVE ||\n                members[msg.sender].level == MemberLevel.VERIFIED, \"NOT_A_MEMBER\");\n        require(domains[domainId].owner != address(0), \"NO_SUCH_DOMAIN\");\n        require(domains[domainId].owner == msg.sender, \"NOT_AUTHORIZED\");\n        require(domains[domainId].status == DomainStatus.ACTIVE, \"DOMAIN_NOT_ACTIVE\");\n\n        // FIXME: check that the domain has no active objects associated anymore\n\n        domains[domainId].status = DomainStatus.CLOSED;\n\n        emit DomainClosed(domainId, DomainStatus.CLOSED);\n    }\n\n    /**\n     * Returns domain status.\n     *\n     * @param domainId The ID of the domain to lookup status.\n     * @return The current status of the domain.\n     */\n    function getDomainStatus(bytes16 domainId) public view returns (DomainStatus) {\n        return domains[domainId].status;\n    }\n\n    /**\n     * Returns domain owner.\n     *\n     * @param domainId The ID of the domain to lookup owner.\n     * @return The address of the owner of the domain.\n     */\n    function getDomainOwner(bytes16 domainId) public view returns (address) {\n        return domains[domainId].owner;\n    }\n\n    /**\n     * Returns domain (signing) key.\n     *\n     * @param domainId The ID of the domain to lookup key.\n     * @return The Ed25519 public signing key for the domain.\n     */\n    function getDomainKey(bytes16 domainId) public view returns (bytes32) {\n        return domains[domainId].domainKey;\n    }\n\n    /**\n     * Returns domain license.\n     *\n     * @param domainId The ID of the domain to lookup license.\n     * @return IPFS Multihash pointer to domain license file on IPFS.\n     */\n    function getDomainLicense(bytes16 domainId) public view returns (string memory) {\n        return domains[domainId].license;\n    }\n\n    /**\n     * Returns domain terms.\n     *\n     * @param domainId The ID of the domain to lookup terms.\n     * @return IPFS Multihash pointer to domain terms on IPFS.\n     */\n    function getDomainTerms(bytes16 domainId) public view returns (string memory) {\n        return domains[domainId].terms;\n    }\n\n    /**\n     * Returns domain meta data.\n     *\n     * @param domainId The ID of the domain to lookup meta data.\n     * @return IPFS Multihash pointer to domain metadata file on IPFS.\n     */\n    function getDomainMeta(bytes16 domainId) public view returns (string memory) {\n        return domains[domainId].meta;\n    }\n\n    /**\n     * Pair a node with an existing XBR Domain. The sender must be owner of the domain.\n     *\n     * @param nodeId The ID of the node to pair. Must be globally unique (not yet existing).\n     * @param domainId The ID of the domain to pair the node with.\n     * @param nodeType The type of node to pair the node under.\n     * @param nodeKey The Ed25519 public node key.\n     * @param config Optional IPFS Multihash pointing to node configuration stored on IPFS\n     */\n    function pairNode (bytes16 nodeId, bytes16 domainId, NodeType nodeType, bytes32 nodeKey,\n        string memory config) public {\n\n        require(domains[domainId].owner != address(0), \"NO_SUCH_DOMAIN\");\n        require(domains[domainId].owner == msg.sender, \"NOT_AUTHORIZED\");\n        require(uint8(nodes[nodeId].nodeType) == 0, \"NODE_ALREADY_PAIRED\");\n        require(nodesByKey[nodeKey] == bytes16(0), \"DUPLICATE_NODE_KEY\");\n        require(uint8(nodeType) == uint8(NodeType.MASTER) ||\n                uint8(nodeType) == uint8(NodeType.EDGE), \"INVALID_NODE_TYPE\");\n\n        nodes[nodeId] = Node(domainId, nodeType, nodeKey, config);\n        nodesByKey[nodeKey] = nodeId;\n        domains[domainId].nodes.push(nodeId);\n\n        emit NodePaired(domainId, nodeId, nodeKey, config);\n    }\n\n    /**\n     * Release a node currently paired with an XBR domain. The sender must be owner of the domain.\n     *\n     * @param nodeId The ID of the node to release.\n     */\n    function releaseNode (bytes16 nodeId) public {\n        require(uint8(nodes[nodeId].nodeType) != 0, \"NO_SUCH_NODE\");\n        require(domains[nodes[nodeId].domain].owner == msg.sender, \"NOT_AUTHORIZED\");\n\n        bytes16 domainId = nodes[nodeId].domain;\n        bytes32 nodeKey = nodes[nodeId].key;\n\n        nodes[nodeId].domain = bytes16(0);\n        nodes[nodeId].nodeType = NodeType.NULL;\n        nodes[nodeId].key = bytes32(0);\n        nodes[nodeId].config = \"\";\n\n        nodesByKey[nodeKey] = bytes16(0);\n\n        emit NodeReleased(domainId, nodeId);\n    }\n\n    /**\n     * Lookup node ID by node public key.\n     *\n     * @param nodeKey The node public key to lookup\n     * @return The Ed25519 public key of the node.\n     */\n    function getNodeByKey(bytes32 nodeKey) public view returns (bytes16) {\n        return nodesByKey[nodeKey];\n    }\n\n    /**\n     * Returns domain for a node.\n     *\n     * @param nodeId The ID of the node to lookup the domain for.\n     * @return The domain the node is currently paired with.\n     */\n    function getNodeDomain(bytes16 nodeId) public view returns (bytes16) {\n        return nodes[nodeId].domain;\n    }\n\n    /**\n     * Returns node type for a node.\n     *\n     * @param nodeId The ID of the node to lookup the node type for.\n     * @return The node type.\n     */\n    function getNodeType(bytes16 nodeId) public view returns (NodeType) {\n        return nodes[nodeId].nodeType;\n    }\n\n    /**\n     * Returns node public key for a node.\n     *\n     * @param nodeId The ID of the node to lookup the node public key for.\n     * @return The node public key.\n     */\n    function getNodeKey(bytes16 nodeId) public view returns (bytes32) {\n        return nodes[nodeId].key;\n    }\n\n    /**\n     * Returns config for a node.\n     *\n     * @param nodeId The ID of the node to lookup the config for.\n     * @return IPFS Multihash pointer to node config.\n     */\n    function getNodeConfig(bytes16 nodeId) public view returns (string memory) {\n        return nodes[nodeId].config;\n    }\n\n    /**\n     * Create a new XBR market. The sender of the transaction must be XBR network member\n     * and automatically becomes owner of the new market.\n     *\n     * @param marketId The ID of the market to create. Must be unique (not yet existing).\n     * @param terms The XBR market terms set by the market owner. IPFS Multihash pointing\n     *              to a ZIP archive file with market documents.\n     * @param meta The XBR market metadata published by the market owner. IPFS Multihash pointing\n     *             to a RDF/Turtle file with market metadata.\n     * @param maker The address of the XBR market maker that will run this market. The delegate of the market owner.\n     * @param providerSecurity The amount of XBR tokens a XBR provider joining the market must deposit.\n     * @param consumerSecurity The amount of XBR tokens a XBR consumer joining the market must deposit.\n     * @param marketFee The fee taken by the market (beneficiary is the market owner). The fee is a percentage of\n     *                  the revenue of the XBR Provider that receives XBR Token paid for transactions.\n     *                  The fee must be between 0% (inclusive) and 99% (inclusive), and is expressed as\n     *                  a fraction of the total supply of XBR tokens.\n     */\n    function createMarket (bytes16 marketId, string memory terms, string memory meta, address maker,\n        uint256 providerSecurity, uint256 consumerSecurity, uint256 marketFee) public {\n\n        require(markets[marketId].owner == address(0), \"MARKET_ALREADY_EXISTS\");\n        require(maker != address(0), \"INVALID_MAKER\");\n        require(marketsByMaker[maker] == bytes16(0), \"MAKER_ALREADY_WORKING_FOR_OTHER_MARKET\");\n        require(providerSecurity >= 0 && providerSecurity <= token.totalSupply(), \"INVALID_PROVIDER_SECURITY\");\n        require(consumerSecurity >= 0 && consumerSecurity <= token.totalSupply(), \"INVALID_CONSUMER_SECURITY\");\n        require(marketFee >= 0 && marketFee < (token.totalSupply() - 10**7) * 10**18, \"INVALID_MARKET_FEE\");\n\n        markets[marketId] = Market(marketSeq, msg.sender, terms, meta, maker, providerSecurity,\n            consumerSecurity, marketFee, new address[](0), new address[](0));\n\n        markets[marketId].actors[msg.sender] = Actor(ActorType.MARKET, 0, '', 0);\n        markets[marketId].actorAddresses.push(maker);\n\n        marketsByMaker[maker] = marketId;\n\n        marketSeq = marketSeq + 1;\n\n        emit MarketCreated(marketId, marketSeq, msg.sender, terms, meta, maker,\n                                providerSecurity, consumerSecurity, marketFee);\n    }\n\n    /**\n     * Lookup market ID by market maker address.\n     *\n     * @param maker The market maker address to lookup market for\n     * @return ID of the market maker.\n     */\n    function getMarketByMaker (address maker) public view returns (bytes16) {\n        return marketsByMaker[maker];\n    }\n\n    /**\n     * Returns owner for a market.\n     *\n     * @param marketId The ID of the market to lookup owner for.\n     * @return Address of the owner of the market.\n     */\n    function getMarketOwner (bytes16 marketId) public view returns (address) {\n        return markets[marketId].owner;\n    }\n\n    /**\n     * Returns terms for a market.\n     *\n     * @param marketId The ID of the market to lookup terms for.\n     * @return IPFS Multihash pointer to market terms.\n     */\n    function getMarketTerms (bytes16 marketId) public view returns (string memory) {\n        return markets[marketId].terms;\n    }\n\n    /**\n     * Returns metadata for a market.\n     *\n     * @param marketId The ID of the market to lookup metadata for.\n     * @return IPFS Multihash pointer to market metadata.\n     */\n    function getMarketMeta (bytes16 marketId) public view returns (string memory) {\n        return markets[marketId].meta;\n    }\n\n    /**\n     * Returns market maker for a market.\n     *\n     * @param marketId The ID of the market to lookup the market maker address for.\n     * @return The address of the (offchain) market maker delegate responsible for this market.\n     */\n    function getMarketMaker (bytes16 marketId) public view returns (address) {\n        return markets[marketId].maker;\n    }\n\n    /**\n     * Returns provider security for a market.\n     *\n     * @param marketId The ID of the market to lookup provider security for.\n     * @return The provider security defined in the market.\n     */\n    function getMarketProviderSecurity (bytes16 marketId) public view returns (uint256) {\n        return markets[marketId].providerSecurity;\n    }\n\n    /**\n     * Returns consumer security for a market.\n     *\n     * @param marketId The ID of the market to lookup consumer security for.\n     * @return The consumer security defined in the market.\n     */\n    function getMarketConsumerSecurity (bytes16 marketId) public view returns (uint256) {\n        return markets[marketId].consumerSecurity;\n    }\n\n    /**\n     * Returns market fee for a market.\n     *\n     * @param marketId The ID of the market to lookup market fee for.\n     * @return The fee defined in the market.\n     */\n    function getMarketFee (bytes16 marketId) public view returns (uint256) {\n        return markets[marketId].marketFee;\n    }\n\n    /**\n     * Update market information, like market terms, metadata or maker address.\n     *\n     * @param marketId The ID of the market to update.\n     * @param terms When terms should be updated, provide a string of non-zero length with\n     *              an IPFS Multihash pointing to the new ZIP file with market terms.\n     * @param meta When metadata should be updated, provide a string of non-zero length with\n     *             an IPFS Multihash pointing to the new RDF/Turtle file with market metadata.\n     * @param maker When maker should be updated, provide a non-zero address.\n     * @param providerSecurity Provider security to set that will apply for new members (providers) joining\n     *                         the market. It will NOT apply to current market members.\n     * @param consumerSecurity Consumer security to set that will apply for new members (consumers) joining\n     *                         the market. It will NOT apply to current market members.\n     * @param marketFee New market fee to set. The new market fee will apply to all new payment channels\n     *                  opened. It will NOT apply to already opened (or closed) payment channels.\n     * @return Flag indicating weather the market information was actually updated or left unchanged.\n     */\n    function updateMarket(bytes16 marketId, string memory terms, string memory meta, address maker,\n        uint256 providerSecurity, uint256 consumerSecurity, uint256 marketFee) public returns (bool) {\n\n        Market storage market = markets[marketId];\n\n        require(market.owner != address(0), \"NO_SUCH_MARKET\");\n        require(market.owner == msg.sender, \"NOT_AUTHORIZED\");\n        require(marketsByMaker[maker] == bytes16(0), \"MAKER_ALREADY_WORKING_FOR_OTHER_MARKET\");\n        require(marketFee >= 0 && marketFee < (10**9 - 10**7) * 10**18, \"INVALID_MARKET_FEE\");\n\n        bool wasChanged = false;\n\n        // for these knobs, only update when non-zero values provided\n        if (maker != address(0) && maker != market.maker) {\n            markets[marketId].maker = maker;\n            wasChanged = true;\n        }\n        if (bytes(terms).length > 0 && keccak256(abi.encode(terms)) != keccak256(abi.encode(market.terms))) {\n            markets[marketId].terms = terms;\n            wasChanged = true;\n        }\n        if (bytes(meta).length > 0 && keccak256(abi.encode(meta)) != keccak256(abi.encode(market.meta))) {\n            markets[marketId].meta = meta;\n            wasChanged = true;\n        }\n\n        // for these knobs, we allow updating to zero value\n        if (providerSecurity != market.providerSecurity) {\n            markets[marketId].providerSecurity = providerSecurity;\n            wasChanged = true;\n        }\n        if (consumerSecurity != market.consumerSecurity) {\n            markets[marketId].consumerSecurity = consumerSecurity;\n            wasChanged = true;\n        }\n        if (marketFee != market.marketFee) {\n            markets[marketId].marketFee = marketFee;\n            wasChanged = true;\n        }\n\n        if (wasChanged) {\n            emit MarketUpdated(marketId, market.marketSeq, market.owner, market.terms, market.meta, market.maker,\n                    market.providerSecurity, market.consumerSecurity, market.marketFee);\n        }\n\n        return wasChanged;\n    }\n\n    /**\n     * Close a market. A closed market will not accept new memberships.\n     *\n     * @param marketId The ID of the market to close.\n     */\n    function closeMarket (bytes16 marketId) public view {\n        require(markets[marketId].owner != address(0), \"NO_SUCH_MARKET\");\n        require(markets[marketId].owner == msg.sender, \"NOT_AUTHORIZED\");\n        // FIXME\n        require(false, \"NOT_IMPLEMENTED\");\n    }\n\n    /**\n     * Join the given XBR market as the specified type of actor, which must be PROVIDER or CONSUMER.\n     *\n     * @param marketId The ID of the XBR data market to join.\n     * @param actorType The type of actor under which to join: PROVIDER or CONSUMER.\n     * @param meta The XBR market provider/consumer metadata. IPFS Multihash pointing to a JSON file with metadata.\n     */\n    function joinMarket (bytes16 marketId, ActorType actorType, string memory meta) public returns (uint256) {\n        require(markets[marketId].owner != address(0), \"NO_SUCH_MARKET\");\n        require(uint8(markets[marketId].actors[msg.sender].actorType) == 0, \"ACTOR_ALREADY_JOINED\");\n        require(uint8(actorType) == uint8(ActorType.MARKET) ||\n            uint8(actorType) == uint8(ActorType.PROVIDER) || uint8(actorType) == uint8(ActorType.CONSUMER));\n\n        uint256 security;\n        if (uint8(actorType) == uint8(ActorType.PROVIDER)) {\n            security = markets[marketId].providerSecurity;\n        } else if (uint8(actorType) == uint8(ActorType.CONSUMER)) {\n            security = markets[marketId].consumerSecurity;\n        } else {\n            // ActorType.MARKET\n            security = 0;\n        }\n\n        if (security > 0) {\n            // ActorType.CONSUMER, ActorType.PROVIDER\n            bool success = token.transferFrom(msg.sender, address(this), security);\n            require(success, \"JOIN_MARKET_TRANSFER_FROM_FAILED\");\n        }\n\n        // remember actor (by address+type) within market\n        markets[marketId].actors[msg.sender] = Actor(actorType, security, meta, 0);\n        markets[marketId].actorAddresses.push(msg.sender);\n\n        // emit event ActorJoined(bytes16 marketId, address actor, ActorType actorType, uint256 security, string meta)\n        emit ActorJoined(marketId, msg.sender, actorType, security, meta);\n\n        return security;\n    }\n\n    /**\n     * Returns all actors in a given market.\n     *\n     * @param marketId The ID of the market to lookup actors.\n     * @return  List of addresses of market actors in the market.\n     */\n    function getAllMarketActors (bytes16 marketId) public view returns (address[] memory) {\n        return markets[marketId].actorAddresses;\n    }\n\n    /**\n     * Returns the type of an actor within a market.\n     *\n     * @param marketId The ID of the market to lookup actor type.\n     * @param actor The address of the actor to lookup.\n     * @return The type under which the actor is joined in the market.\n     */\n    function getMarketActorType (bytes16 marketId, address actor) public view returns (ActorType) {\n        return markets[marketId].actors[actor].actorType;\n    }\n\n    /**\n     * Returns the current security deposit of an actor within a market.\n     *\n     * @param marketId The ID of the market to lookup actor type.\n     * @param actor The address of the actor to lookup.\n     * @return The security deposit of the actor in the given market.\n     */\n    function getMarketActorSecurity (bytes16 marketId, address actor) public view returns (uint256) {\n        return markets[marketId].actors[actor].security;\n    }\n\n    /**\n     * Returns any meta associated with the actor in the market.\n     *\n     * @param marketId The ID of the market to lookup actor meta within.\n     * @param actor The address of the actor to lookup in the market.\n     * @return IPFS Multihash pointing to actor meta file on IPFS.\n     */\n    function getMarketActorMeta (bytes16 marketId, address actor) public view returns (string memory) {\n        return markets[marketId].actors[actor].meta;\n    }\n\n    /**\n     * As a market actor (participant) currently member of a market, leave that market.\n     * A market can only be left when all payment channels of the sender are closed (or expired).\n     *\n     * @param marketId The ID of the market to leave.\n     */\n    function leaveMarket (bytes16 marketId) public view {\n        require(markets[marketId].owner != address(0), \"NO_SUCH_MARKET\");\n        // FIXME\n        require(false, \"NOT_IMPLEMENTED\");\n    }\n\n    /**\n     * Open a new payment channel and deposit an amount of XBR token for off-chain consumption.\n     * Must be called by the data consumer (XBR buyer) and an off-chain buyer delegate address must be given.\n     *\n     * @param marketId The ID of the market to open a payment channel within.\n     * @param recipient Recipient of the earned off-chain transaction amounts of this single channel,\n     *                  commonly the market operator.\n     * @param delegate The address of the (offchain) consumer delegate allowed to consume the channel.\n     * @param amount Amount of XBR Token to deposit into the payment channel (the initial off-chain balance).\n     * @param timeout Channel timeout which will apply.\n     */\n    function openPaymentChannel (bytes16 marketId, address recipient, address delegate,\n        uint256 amount, uint32 timeout) public returns (address paymentChannel) {\n\n        // market must exist\n        require(markets[marketId].owner != address(0), \"NO_SUCH_MARKET\");\n\n        // sender must be consumer in the market\n        require(uint8(markets[marketId].actors[msg.sender].actorType) == uint8(ActorType.CONSUMER), \"NO_CONSUMER_ROLE\");\n\n        // create new payment channel contract\n        XBRChannel channel = new XBRChannel(address(token), marketId, msg.sender, delegate, recipient, amount, timeout,\n            XBRChannel.ChannelType.PAYMENT);\n\n        // transfer tokens (initial balance) into payment channel contract\n        bool success = token.transferFrom(msg.sender, address(channel), amount);\n        require(success, \"OPEN_CHANNEL_TRANSFER_FROM_FAILED\");\n\n        // remember the new payment channel associated with the market\n        markets[marketId].channels.push(address(channel));\n\n        // emit event ChannelCreated(bytes16 marketId, address sender, address delegate,\n        //      address receiver, address channel)\n        emit ChannelCreated(marketId, channel.sender(), channel.delegate(), channel.recipient(),\n            address(channel), XBRChannel.ChannelType.PAYMENT);\n\n        return address(channel);\n    }\n\n    /**\n     * As a data provider, request a new payment channel to get paid by the market maker. Given sufficient\n     * security amount (deposited by the data provider when joining the marker) to cover the request amount,\n     * the market maker will open a payment (state) channel to allow the market maker buying data keys in\n     * microtransactions, and offchain. The creation of the payment channel is asynchronously: the market maker\n     * is watching the global blockchain filtering for events relevant to the market managed by the maker.\n     * When a request to open a payment channel is recognized by the market maker, it will check the provider\n     * for sufficient security deposit covering the requested amount, and if all is fine, create a new payment\n     * channel and store the contract address for the channel request ID, so the data provider can retrieve it.\n     *\n     * @param marketId The ID of the market to request a paying channel within.\n     * @param delegate The address of the (offchain) provider delegate allowed to sell into the channel.\n     * @param amount Amount of XBR Token to deposit into the paying channel (the initial off-chain balance).\n     * @param timeout Channel timeout which will apply.\n     */\n    function requestPayingChannel (bytes16 marketId, address recipient, address delegate,\n        uint256 amount, uint32 timeout) public {\n\n        // market must exist\n        require(markets[marketId].owner != address(0), \"NO_SUCH_MARKET\");\n\n        // market must have a market maker associated\n        require(markets[marketId].maker != address(0), \"NO_ACTIVE_MARKET_MAKER\");\n\n        // sender must be provider in the market\n        require(uint8(markets[marketId].actors[msg.sender].actorType) == uint8(ActorType.PROVIDER),\n            \"NO_PROVIDER_ROLE\");\n\n        // emit event PayingChannelRequestCreated(bytes16 marketId, address sender, address recipient,\n        //      address delegate, uint256 amount, uint32 timeout)\n        emit PayingChannelRequestCreated(marketId, msg.sender, recipient, delegate, amount, timeout);\n    }\n\n    /**\n     * Open a new paying channel and deposit an amount of XBR token for off-chain consumption.\n     * Must be called by the market maker in response to a successful request for a paying channel.\n     *\n     * @param marketId The ID of the market to open a paying channel within.\n     * @param recipient Ultimate recipient of tokens earned, recipient must be provider in the market.\n     * @param delegate The address of the (offchain) provider delegate allowed to earn on the channel.\n     * @param amount Amount of XBR Token to deposit into the paying channel (the initial off-chain balance).\n     * @param timeout Channel timeout which will apply.\n     */\n    function openPayingChannel (bytes16 marketId, address recipient, address delegate,\n        uint256 amount, uint32 timeout) public returns (address paymentChannel) {\n\n        // market must exist\n        require(markets[marketId].owner != address(0), \"NO_SUCH_MARKET\");\n\n        // sender must be market maker for market\n        require(markets[marketId].maker == msg.sender, \"SENDER_NOT_MAKER\");\n\n        // recipient must be provider in the market\n        require(uint8(markets[marketId].actors[recipient].actorType) == uint8(ActorType.PROVIDER),\n            \"RECIPIENT_NOT_PROVIDER\");\n\n        // create new paying channel contract\n        XBRChannel channel = new XBRChannel(address(token), marketId, msg.sender, delegate, recipient, amount,\n            timeout, XBRChannel.ChannelType.PAYING);\n\n        // transfer tokens (initial balance) into payment channel contract\n        XBRToken _token = XBRToken(token);\n        bool success = _token.transferFrom(msg.sender, address(channel), amount);\n        require(success, \"OPEN_CHANNEL_TRANSFER_FROM_FAILED\");\n\n        // remember the new payment channel associated with the market\n        markets[marketId].channels.push(address(channel));\n\n        // emit event ChannelCreated(bytes16 marketId, address sender, address delegate,\n        //  address receiver, address channel)\n        emit ChannelCreated(marketId, channel.sender(), channel.delegate(), channel.recipient(),\n            address(channel), XBRChannel.ChannelType.PAYING);\n\n        return address(channel);\n    }\n\n    /**\n     * Lookup all payment and paying channels for a XBR Market.\n     *\n     * @param marketId The XBR Market to get channels for.\n     * @return List of contract addresses of channels in the market.\n     */\n    function getAllMarketChannels(bytes16 marketId) public view returns (address[] memory) {\n        return markets[marketId].channels;\n    }\n\n    /**\n     * Lookup the current payment channel to use for the given delegate in the given market.\n     *\n     * @param marketId The XBR Market to get the current payment channel address for.\n     * @param delegate The delegate to get the current payment channel address for.\n     * @return Current payment channel address for the given delegate/market.\n     */\n    function currentPaymentChannelByDelegate(bytes16 marketId, address delegate) public view returns (address) {\n        return markets[marketId].currentPaymentChannelByDelegate[delegate];\n    }\n\n    /**\n     * Lookup the current paying channel to use for the given delegate in the given market.\n     *\n     * @param marketId The XBR Market to get the current paying channel address for.\n     * @param delegate The delegate to get the current paying channel address for.\n     * @return Current paying channel address for the given delegate/market.\n     */\n    function currentPayingChannelByDelegate(bytes16 marketId, address delegate) public view returns (address) {\n        return markets[marketId].currentPayingChannelByDelegate[delegate];\n    }\n}\n",
  "sourcePath": "/home/oberstet/scm/crossbario/xbr-protocol/contracts/XBRNetwork.sol",
  "compiler": {
    "name": "solc",
    "version": "0.5.2+commit.1df8f40c.Emscripten.clang"
  },
  "schemaVersion": "3.0.11",
  "updatedAt": "2019-07-28T12:38:08.499Z",
  "devdoc": {
    "author": "The XBR Project",
    "methods": {
      "addMaintainer(address)": {
        "params": {
          "account": "The account to grant maintainer rights to."
        }
      },
      "closeDomain(bytes16)": {
        "params": {
          "domainId": "The ID of the domain to close."
        }
      },
      "closeMarket(bytes16)": {
        "params": {
          "marketId": "The ID of the market to close."
        }
      },
      "constructor": {
        "params": {
          "organization_": "The network technology provider and ecosystem sponsor.",
          "token_": "The token to run this network on."
        }
      },
      "createDomain(bytes16,bytes32,string,string,string)": {
        "params": {
          "domainId": "The ID of the domain to create. Must be globally unique (not yet existing).",
          "domainKey": "The domain signing key. A Ed25519 (https://ed25519.cr.yp.to/) public key.",
          "license": "The license for the software stack running the domain. IPFS Multihash                pointing to a JSON/YAML file signed by the project release key."
        }
      },
      "createMarket(bytes16,string,string,address,uint256,uint256,uint256)": {
        "params": {
          "consumerSecurity": "The amount of XBR tokens a XBR consumer joining the market must deposit.",
          "maker": "The address of the XBR market maker that will run this market. The delegate of the market owner.",
          "marketFee": "The fee taken by the market (beneficiary is the market owner). The fee is a percentage of                 the revenue of the XBR Provider that receives XBR Token paid for transactions.                 The fee must be between 0% (inclusive) and 99% (inclusive), and is expressed as                 a fraction of the total supply of XBR tokens.",
          "marketId": "The ID of the market to create. Must be unique (not yet existing).",
          "meta": "The XBR market metadata published by the market owner. IPFS Multihash pointing            to a RDF/Turtle file with market metadata.",
          "providerSecurity": "The amount of XBR tokens a XBR provider joining the market must deposit.",
          "terms": "The XBR market terms set by the market owner. IPFS Multihash pointing             to a ZIP archive file with market documents."
        }
      },
      "currentPayingChannelByDelegate(bytes16,address)": {
        "params": {
          "delegate": "The delegate to get the current paying channel address for.",
          "marketId": "The XBR Market to get the current paying channel address for."
        },
        "return": "Current paying channel address for the given delegate/market."
      },
      "currentPaymentChannelByDelegate(bytes16,address)": {
        "params": {
          "delegate": "The delegate to get the current payment channel address for.",
          "marketId": "The XBR Market to get the current payment channel address for."
        },
        "return": "Current payment channel address for the given delegate/market."
      },
      "getAllMarketActors(bytes16)": {
        "params": {
          "marketId": "The ID of the market to lookup actors."
        },
        "return": "List of addresses of market actors in the market."
      },
      "getAllMarketChannels(bytes16)": {
        "params": {
          "marketId": "The XBR Market to get channels for."
        },
        "return": "List of contract addresses of channels in the market."
      },
      "getDomainKey(bytes16)": {
        "params": {
          "domainId": "The ID of the domain to lookup key."
        },
        "return": "The Ed25519 public signing key for the domain."
      },
      "getDomainLicense(bytes16)": {
        "params": {
          "domainId": "The ID of the domain to lookup license."
        },
        "return": "IPFS Multihash pointer to domain license file on IPFS."
      },
      "getDomainMeta(bytes16)": {
        "params": {
          "domainId": "The ID of the domain to lookup meta data."
        },
        "return": "IPFS Multihash pointer to domain metadata file on IPFS."
      },
      "getDomainOwner(bytes16)": {
        "params": {
          "domainId": "The ID of the domain to lookup owner."
        },
        "return": "The address of the owner of the domain."
      },
      "getDomainStatus(bytes16)": {
        "params": {
          "domainId": "The ID of the domain to lookup status."
        },
        "return": "The current status of the domain."
      },
      "getDomainTerms(bytes16)": {
        "params": {
          "domainId": "The ID of the domain to lookup terms."
        },
        "return": "IPFS Multihash pointer to domain terms on IPFS."
      },
      "getMarketActorMeta(bytes16,address)": {
        "params": {
          "actor": "The address of the actor to lookup in the market.",
          "marketId": "The ID of the market to lookup actor meta within."
        },
        "return": "IPFS Multihash pointing to actor meta file on IPFS."
      },
      "getMarketActorSecurity(bytes16,address)": {
        "params": {
          "actor": "The address of the actor to lookup.",
          "marketId": "The ID of the market to lookup actor type."
        },
        "return": "The security deposit of the actor in the given market."
      },
      "getMarketActorType(bytes16,address)": {
        "params": {
          "actor": "The address of the actor to lookup.",
          "marketId": "The ID of the market to lookup actor type."
        },
        "return": "The type under which the actor is joined in the market."
      },
      "getMarketByMaker(address)": {
        "params": {
          "maker": "The market maker address to lookup market for"
        },
        "return": "ID of the market maker."
      },
      "getMarketConsumerSecurity(bytes16)": {
        "params": {
          "marketId": "The ID of the market to lookup consumer security for."
        },
        "return": "The consumer security defined in the market."
      },
      "getMarketFee(bytes16)": {
        "params": {
          "marketId": "The ID of the market to lookup market fee for."
        },
        "return": "The fee defined in the market."
      },
      "getMarketMaker(bytes16)": {
        "params": {
          "marketId": "The ID of the market to lookup the market maker address for."
        },
        "return": "The address of the (offchain) market maker delegate responsible for this market."
      },
      "getMarketMeta(bytes16)": {
        "params": {
          "marketId": "The ID of the market to lookup metadata for."
        },
        "return": "IPFS Multihash pointer to market metadata."
      },
      "getMarketOwner(bytes16)": {
        "params": {
          "marketId": "The ID of the market to lookup owner for."
        },
        "return": "Address of the owner of the market."
      },
      "getMarketProviderSecurity(bytes16)": {
        "params": {
          "marketId": "The ID of the market to lookup provider security for."
        },
        "return": "The provider security defined in the market."
      },
      "getMarketTerms(bytes16)": {
        "params": {
          "marketId": "The ID of the market to lookup terms for."
        },
        "return": "IPFS Multihash pointer to market terms."
      },
      "getMemberEula(address)": {
        "params": {
          "member": "The address to lookup the XBR Network member EULA for."
        },
        "return": "IPFS Multihash pointing to XBR Network EULA file on IPFS."
      },
      "getMemberLevel(address)": {
        "params": {
          "member": "The address to lookup the XBR Network member level for."
        },
        "return": "The current member level of the member."
      },
      "getMemberProfile(address)": {
        "params": {
          "member": "The address to lookup the XBR Network member profile for."
        },
        "return": "IPFS Multihash pointing to member profile file on IPFS."
      },
      "getNodeByKey(bytes32)": {
        "params": {
          "nodeKey": "The node public key to lookup"
        },
        "return": "The Ed25519 public key of the node."
      },
      "getNodeConfig(bytes16)": {
        "params": {
          "nodeId": "The ID of the node to lookup the config for."
        },
        "return": "IPFS Multihash pointer to node config."
      },
      "getNodeDomain(bytes16)": {
        "params": {
          "nodeId": "The ID of the node to lookup the domain for."
        },
        "return": "The domain the node is currently paired with."
      },
      "getNodeKey(bytes16)": {
        "params": {
          "nodeId": "The ID of the node to lookup the node public key for."
        },
        "return": "The node public key."
      },
      "getNodeType(bytes16)": {
        "params": {
          "nodeId": "The ID of the node to lookup the node type for."
        },
        "return": "The node type."
      },
      "isMaintainer(address)": {
        "params": {
          "account": "The account to check."
        },
        "return": "`true` if the account is maintainer, otherwise `false`."
      },
      "joinMarket(bytes16,uint8,string)": {
        "params": {
          "actorType": "The type of actor under which to join: PROVIDER or CONSUMER.",
          "marketId": "The ID of the XBR data market to join.",
          "meta": "The XBR market provider/consumer metadata. IPFS Multihash pointing to a JSON file with metadata."
        }
      },
      "leaveMarket(bytes16)": {
        "params": {
          "marketId": "The ID of the market to leave."
        }
      },
      "openPayingChannel(bytes16,address,address,uint256,uint32)": {
        "params": {
          "amount": "Amount of XBR Token to deposit into the paying channel (the initial off-chain balance).",
          "delegate": "The address of the (offchain) provider delegate allowed to earn on the channel.",
          "marketId": "The ID of the market to open a paying channel within.",
          "recipient": "Ultimate recipient of tokens earned, recipient must be provider in the market.",
          "timeout": "Channel timeout which will apply."
        }
      },
      "openPaymentChannel(bytes16,address,address,uint256,uint32)": {
        "params": {
          "amount": "Amount of XBR Token to deposit into the payment channel (the initial off-chain balance).",
          "delegate": "The address of the (offchain) consumer delegate allowed to consume the channel.",
          "marketId": "The ID of the market to open a payment channel within.",
          "recipient": "Recipient of the earned off-chain transaction amounts of this single channel,                 commonly the market operator.",
          "timeout": "Channel timeout which will apply."
        }
      },
      "pairNode(bytes16,bytes16,uint8,bytes32,string)": {
        "params": {
          "config": "Optional IPFS Multihash pointing to node configuration stored on IPFS",
          "domainId": "The ID of the domain to pair the node with.",
          "nodeId": "The ID of the node to pair. Must be globally unique (not yet existing).",
          "nodeKey": "The Ed25519 public node key.",
          "nodeType": "The type of node to pair the node under."
        }
      },
      "register(string,string)": {
        "params": {
          "eula": "The IPFS Multihash of the XBR EULA being agreed to and stored as one ZIP file archive on IPFS.            Currently, this must be equal to \"QmU7Gizbre17x6V2VR1Q2GJEjz6m8S1bXmBtVxS2vmvb81\"",
          "profile": "Optional public member profile: the IPFS Multihash of the member profile stored in IPFS."
        }
      },
      "releaseNode(bytes16)": {
        "params": {
          "nodeId": "The ID of the node to release."
        }
      },
      "requestPayingChannel(bytes16,address,address,uint256,uint32)": {
        "params": {
          "amount": "Amount of XBR Token to deposit into the paying channel (the initial off-chain balance).",
          "delegate": "The address of the (offchain) provider delegate allowed to sell into the channel.",
          "marketId": "The ID of the market to request a paying channel within.",
          "timeout": "Channel timeout which will apply."
        }
      },
      "setMemberLevel(address,uint8)": {
        "params": {
          "level": "The member level to set the member to.",
          "member": "The address of the XBR network member to override member level."
        }
      },
      "updateMarket(bytes16,string,string,address,uint256,uint256,uint256)": {
        "params": {
          "consumerSecurity": "Consumer security to set that will apply for new members (consumers) joining                        the market. It will NOT apply to current market members.",
          "maker": "When maker should be updated, provide a non-zero address.",
          "marketFee": "New market fee to set. The new market fee will apply to all new payment channels                 opened. It will NOT apply to already opened (or closed) payment channels.",
          "marketId": "The ID of the market to update.",
          "meta": "When metadata should be updated, provide a string of non-zero length with            an IPFS Multihash pointing to the new RDF/Turtle file with market metadata.",
          "providerSecurity": "Provider security to set that will apply for new members (providers) joining                        the market. It will NOT apply to current market members.",
          "terms": "When terms should be updated, provide a string of non-zero length with             an IPFS Multihash pointing to the new ZIP file with market terms."
        },
        "return": "Flag indicating weather the market information was actually updated or left unchanged."
      }
    },
    "title": "XBR Network main smart contract."
  },
  "userdoc": {
    "methods": {
      "addMaintainer(address)": {
        "notice": "Add a new maintainer to the list of maintainers."
      },
      "closeDomain(bytes16)": {
        "notice": "Close an existing XBR domain. The sender must be owner of the domain, and the domain must not have any nodes paired (anymore)."
      },
      "closeMarket(bytes16)": {
        "notice": "Close a market. A closed market will not accept new memberships."
      },
      "constructor": "Create a new network.",
      "createDomain(bytes16,bytes32,string,string,string)": {
        "notice": "Create a new XBR domain. Then sender to the transaction must be XBR network member and automatically becomes owner of the new domain."
      },
      "createMarket(bytes16,string,string,address,uint256,uint256,uint256)": {
        "notice": "Create a new XBR market. The sender of the transaction must be XBR network member and automatically becomes owner of the new market."
      },
      "currentPayingChannelByDelegate(bytes16,address)": {
        "notice": "Lookup the current paying channel to use for the given delegate in the given market."
      },
      "currentPaymentChannelByDelegate(bytes16,address)": {
        "notice": "Lookup the current payment channel to use for the given delegate in the given market."
      },
      "getAllMarketActors(bytes16)": {
        "notice": "Returns all actors in a given market."
      },
      "getAllMarketChannels(bytes16)": {
        "notice": "Lookup all payment and paying channels for a XBR Market."
      },
      "getDomainKey(bytes16)": {
        "notice": "Returns domain (signing) key."
      },
      "getDomainLicense(bytes16)": {
        "notice": "Returns domain license."
      },
      "getDomainMeta(bytes16)": {
        "notice": "Returns domain meta data."
      },
      "getDomainOwner(bytes16)": {
        "notice": "Returns domain owner."
      },
      "getDomainStatus(bytes16)": {
        "notice": "Returns domain status."
      },
      "getDomainTerms(bytes16)": {
        "notice": "Returns domain terms."
      },
      "getMarketActorMeta(bytes16,address)": {
        "notice": "Returns any meta associated with the actor in the market."
      },
      "getMarketActorSecurity(bytes16,address)": {
        "notice": "Returns the current security deposit of an actor within a market."
      },
      "getMarketActorType(bytes16,address)": {
        "notice": "Returns the type of an actor within a market."
      },
      "getMarketByMaker(address)": {
        "notice": "Lookup market ID by market maker address."
      },
      "getMarketConsumerSecurity(bytes16)": {
        "notice": "Returns consumer security for a market."
      },
      "getMarketFee(bytes16)": {
        "notice": "Returns market fee for a market."
      },
      "getMarketMaker(bytes16)": {
        "notice": "Returns market maker for a market."
      },
      "getMarketMeta(bytes16)": {
        "notice": "Returns metadata for a market."
      },
      "getMarketOwner(bytes16)": {
        "notice": "Returns owner for a market."
      },
      "getMarketProviderSecurity(bytes16)": {
        "notice": "Returns provider security for a market."
      },
      "getMarketTerms(bytes16)": {
        "notice": "Returns terms for a market."
      },
      "getMemberEula(address)": {
        "notice": "Returns XBR Network member EULA given an address."
      },
      "getMemberLevel(address)": {
        "notice": "Returns XBR Network member level given an address."
      },
      "getMemberProfile(address)": {
        "notice": "Returns XBR Network member profile given an address."
      },
      "getNodeByKey(bytes32)": {
        "notice": "Lookup node ID by node public key."
      },
      "getNodeConfig(bytes16)": {
        "notice": "Returns config for a node."
      },
      "getNodeDomain(bytes16)": {
        "notice": "Returns domain for a node."
      },
      "getNodeKey(bytes16)": {
        "notice": "Returns node public key for a node."
      },
      "getNodeType(bytes16)": {
        "notice": "Returns node type for a node."
      },
      "isMaintainer(address)": {
        "notice": "Check if the given address is currently a maintainer."
      },
      "joinMarket(bytes16,uint8,string)": {
        "notice": "Join the given XBR market as the specified type of actor, which must be PROVIDER or CONSUMER."
      },
      "leaveMarket(bytes16)": {
        "notice": "As a market actor (participant) currently member of a market, leave that market. A market can only be left when all payment channels of the sender are closed (or expired)."
      },
      "openPayingChannel(bytes16,address,address,uint256,uint32)": {
        "notice": "Open a new paying channel and deposit an amount of XBR token for off-chain consumption. Must be called by the market maker in response to a successful request for a paying channel."
      },
      "openPaymentChannel(bytes16,address,address,uint256,uint32)": {
        "notice": "Open a new payment channel and deposit an amount of XBR token for off-chain consumption. Must be called by the data consumer (XBR buyer) and an off-chain buyer delegate address must be given."
      },
      "pairNode(bytes16,bytes16,uint8,bytes32,string)": {
        "notice": "Pair a node with an existing XBR Domain. The sender must be owner of the domain."
      },
      "register(string,string)": {
        "notice": "Join the XBR Network. All XBR stakeholders, namely XBR Data Providers, XBR Data Consumers, XBR Data Markets and XBR Data Clouds, must register with the XBR Network on the global blockchain by calling this function."
      },
      "releaseNode(bytes16)": {
        "notice": "Release a node currently paired with an XBR domain. The sender must be owner of the domain."
      },
      "renounceMaintainer()": {
        "notice": "Give away maintainer rights."
      },
      "requestPayingChannel(bytes16,address,address,uint256,uint32)": {
        "notice": "As a data provider, request a new payment channel to get paid by the market maker. Given sufficient security amount (deposited by the data provider when joining the marker) to cover the request amount, the market maker will open a payment (state) channel to allow the market maker buying data keys in microtransactions, and offchain. The creation of the payment channel is asynchronously: the market maker is watching the global blockchain filtering for events relevant to the market managed by the maker. When a request to open a payment channel is recognized by the market maker, it will check the provider for sufficient security deposit covering the requested amount, and if all is fine, create a new payment channel and store the contract address for the channel request ID, so the data provider can retrieve it."
      },
      "setMemberLevel(address,uint8)": {
        "notice": "Manually override the member level of a XBR Network member. Being able to do so currently serves two purposes:     * - having a last resort to handle situation where members violated the EULA - being able to manually patch things in error/bug cases"
      },
      "unregister()": {
        "notice": "Leave the XBR Network."
      },
      "updateMarket(bytes16,string,string,address,uint256,uint256,uint256)": {
        "notice": "Update market information, like market terms, metadata or maker address."
      }
    }
  }
}