{
  "contractName": "XBRTest",
  "abi": [
    {
      "inputs": [],
      "payable": false,
      "stateMutability": "nonpayable",
      "type": "constructor"
    },
    {
      "constant": true,
      "inputs": [
        {
          "internalType": "address",
          "name": "signer",
          "type": "address"
        },
        {
          "internalType": "string",
          "name": "from_name",
          "type": "string"
        },
        {
          "internalType": "address",
          "name": "from_wallet",
          "type": "address"
        },
        {
          "internalType": "string",
          "name": "to_name",
          "type": "string"
        },
        {
          "internalType": "address",
          "name": "to_wallet",
          "type": "address"
        },
        {
          "internalType": "string",
          "name": "contents",
          "type": "string"
        },
        {
          "internalType": "bytes",
          "name": "sig_rsv",
          "type": "bytes"
        }
      ],
      "name": "test_verify1",
      "outputs": [
        {
          "internalType": "bool",
          "name": "",
          "type": "bool"
        }
      ],
      "payable": false,
      "stateMutability": "view",
      "type": "function"
    },
    {
      "constant": true,
      "inputs": [
        {
          "internalType": "address",
          "name": "signer",
          "type": "address"
        },
        {
          "internalType": "string",
          "name": "from_name",
          "type": "string"
        },
        {
          "internalType": "address",
          "name": "from_wallet",
          "type": "address"
        },
        {
          "internalType": "string",
          "name": "to_name",
          "type": "string"
        },
        {
          "internalType": "address",
          "name": "to_wallet",
          "type": "address"
        },
        {
          "internalType": "string",
          "name": "contents",
          "type": "string"
        },
        {
          "internalType": "uint8",
          "name": "v",
          "type": "uint8"
        },
        {
          "internalType": "bytes32",
          "name": "r",
          "type": "bytes32"
        },
        {
          "internalType": "bytes32",
          "name": "s",
          "type": "bytes32"
        }
      ],
      "name": "test_verify2",
      "outputs": [
        {
          "internalType": "bool",
          "name": "",
          "type": "bool"
        }
      ],
      "payable": false,
      "stateMutability": "view",
      "type": "function"
    },
    {
      "constant": true,
      "inputs": [],
      "name": "test",
      "outputs": [
        {
          "internalType": "bool",
          "name": "",
          "type": "bool"
        }
      ],
      "payable": false,
      "stateMutability": "view",
      "type": "function"
    }
  ],
  "bytecode": "0x608060405234801561001057600080fd5b506040805160c081018252600a6080820190815269115d1a195c8813585a5b60b21b60a08301528152815180830183526001808252603160f81b6020838101919091528301919091529181019190915273cccccccccccccccccccccccccccccccccccccccc606082015261008c906001600160e01b0361009416565b600055610117565b60006040518080610c8860529139604080519182900360520182208551805160209182012081880151805190830120888501516060808b015185890196909652878701939093529186015260808501526001600160a01b0390911660a0808501919091528251808503909101815260c09093019091528151910120915050919050565b610b62806101266000396000f3fe608060405234801561001057600080fd5b50600436106100415760003560e01c80639c0319cf14610046578063ed40e6bc14610249578063f8a8fd6d146104ae575b600080fd5b610235600480360361012081101561005d57600080fd5b6001600160a01b038235169190810190604081016020820135600160201b81111561008757600080fd5b82018360208201111561009957600080fd5b803590602001918460018302840111600160201b831117156100ba57600080fd5b91908080601f01602080910402602001604051908101604052809392919081815260200183838082843760009201919091525092956001600160a01b03853516959094909350604081019250602001359050600160201b81111561011d57600080fd5b82018360208201111561012f57600080fd5b803590602001918460018302840111600160201b8311171561015057600080fd5b91908080601f01602080910402602001604051908101604052809392919081815260200183838082843760009201919091525092956001600160a01b03853516959094909350604081019250602001359050600160201b8111156101b357600080fd5b8201836020820111156101c557600080fd5b803590602001918460018302840111600160201b831117156101e657600080fd5b91908080601f0160208091040260200160405190810160405280939291908181526020018383808284376000920191909152509295505060ff83351693505050602081013590604001356104b6565b604080519115158252519081900360200190f35b610235600480360360e081101561025f57600080fd5b6001600160a01b038235169190810190604081016020820135600160201b81111561028957600080fd5b82018360208201111561029b57600080fd5b803590602001918460018302840111600160201b831117156102bc57600080fd5b91908080601f01602080910402602001604051908101604052809392919081815260200183838082843760009201919091525092956001600160a01b03853516959094909350604081019250602001359050600160201b81111561031f57600080fd5b82018360208201111561033157600080fd5b803590602001918460018302840111600160201b8311171561035257600080fd5b91908080601f01602080910402602001604051908101604052809392919081815260200183838082843760009201919091525092956001600160a01b03853516959094909350604081019250602001359050600160201b8111156103b557600080fd5b8201836020820111156103c757600080fd5b803590602001918460018302840111600160201b831117156103e857600080fd5b91908080601f0160208091040260200160405190810160405280939291908181526020018383808284376000920191909152509295949360208101935035915050600160201b81111561043a57600080fd5b82018360208201111561044c57600080fd5b803590602001918460018302840111600160201b8311171561046d57600080fd5b91908080601f0160208091040260200160405190810160405280939291908181526020018383808284376000920191909152509295506105d9945050505050565b610235610710565b60006104c0610a79565b506040805160a081018252606081018b81526001600160a01b03808c166080840152908252825180840184528a8152908916602082810191909152820152908101869052600080546105118361088b565b604051602001808061190160f01b815250600201838152602001828152602001925050506040516020818303038152906040528051906020012090508b6001600160a01b031660018288888860405160008152602001604052604051808581526020018460ff1660ff1681526020018381526020018281526020019450505050506020604051602081039080840390855afa1580156105b4573d6000803e3d6000fd5b505050602060405103516001600160a01b031614925050509998505050505050505050565b6000806000806105e88561090e565b9250925092506105f6610a79565b506040805160a081018252606081018c81526001600160a01b03808d166080840152908252825180840184528b8152908a16602082810191909152820152908101879052600080546106478361088b565b604051602001808061190160f01b815250600201838152602001828152602001925050506040516020818303038152906040528051906020012090508c6001600160a01b031660018287878760405160008152602001604052604051808581526020018460ff1660ff1681526020018381526020018281526020019450505050506020604051602081039080840390855afa1580156106ea573d6000803e3d6000fd5b505050602060405103516001600160a01b03161495505050505050979650505050505050565b600061071a610a79565b506040805160e081018252600360a0820181815262436f7760e81b60c0840152606080840191825273cd2a3d9f938e13cd947ec05abc7fe734df8dd82660808086019190915291845284519182018552818501928352622137b160e91b9082015290815273bbbbbbbbbbbbbbbbbbbbbbbbbbbbbbbbbbbbbbbb6020828101919091528083019190915282518084018452600b81526a48656c6c6f2c20426f622160a81b9181019190915291810191909152600054601c907f4355c47d63924e8a72e509b65029052eb6c299d53a04e167c5775fd466751c9d907f07299936d304c153f6443dfa05f40ff007d72911b6f72307f996231605b91562907ff2cee375fa42b42143804025fc449deafd50cc031ca257e0b194a650a912090f1461083d57fe5b6108468461088b565b7fc52c0ee5d84264471806290a3f2c4cecfc5490626bf912d01f240d7a274b371e1461086e57fe5b61087a84848484610939565b61088057fe5b600194505050505090565b60006040518080610abf604d9139604d01905060405180910390206108b38360000151610a12565b6108c08460200151610a12565b84604001518051906020012060405160200180858152602001848152602001838152602001828152602001945050505050604051602081830303815290604052805190602001209050919050565b60208101516040820151604183015160ff169190601b83101561093257601b830192505b9193909250565b6000806000546109488761088b565b604051602001808061190160f01b815250600201838152602001828152602001925050506040516020818303038152906040528051906020012090508560000151602001516001600160a01b031660018287878760405160008152602001604052604051808581526020018460ff1660ff1681526020018381526020018281526020019450505050506020604051602081039080840390855afa1580156109f3573d6000803e3d6000fd5b505050602060405103516001600160a01b031614915050949350505050565b60006040518080610b0c6022913960408051918290036022018220855180516020918201208188015182860193909352848401526001600160a01b039091166060808501919091528251808503909101815260809093019091528151910120915050919050565b6040518060600160405280610a8c610aa6565b8152602001610a99610aa6565b8152602001606081525090565b6040805180820190915260608152600060208201529056fe4d61696c28506572736f6e2066726f6d2c506572736f6e20746f2c737472696e6720636f6e74656e747329506572736f6e28737472696e67206e616d652c616464726573732077616c6c657429506572736f6e28737472696e67206e616d652c616464726573732077616c6c657429a265627a7a723158209dde1bdffa9345f1b3339cd92d785586db35824ffcd9f596ac2aabb84da52abf64736f6c63430005100032454950373132446f6d61696e28737472696e67206e616d652c737472696e672076657273696f6e2c75696e7432353620636861696e49642c6164647265737320766572696679696e67436f6e747261637429",
  "source": "///////////////////////////////////////////////////////////////////////////////\n//\n//  Copyright (C) 2018-2020 Crossbar.io Technologies GmbH and contributors.\n//\n//  Licensed under the Apache License, Version 2.0 (the \"License\");\n//  you may not use this file except in compliance with the License.\n//  You may obtain a copy of the License at\n//\n//      http://www.apache.org/licenses/LICENSE-2.0\n//\n//  Unless required by applicable law or agreed to in writing, software\n//  distributed under the License is distributed on an \"AS IS\" BASIS,\n//  WITHOUT WARRANTIES OR CONDITIONS OF ANY KIND, either express or implied.\n//  See the License for the specific language governing permissions and\n//  limitations under the License.\n//\n///////////////////////////////////////////////////////////////////////////////\n\npragma solidity ^0.5.12;\n\n\ncontract XBRTest {\n    // Adapted from: https://github.com/ethereum/EIPs/blob/master/assets/eip-712/Example.sol\n\n    struct EIP712Domain {\n        string  name;\n        string  version;\n        uint256 chainId;\n        address verifyingContract;\n    }\n\n    struct Person {\n        string name;\n        address wallet;\n    }\n\n    struct Mail {\n        Person from;\n        Person to;\n        string contents;\n    }\n\n    bytes32 constant EIP712DOMAIN_TYPEHASH = keccak256(\n        \"EIP712Domain(string name,string version,uint256 chainId,address verifyingContract)\"\n    );\n\n    bytes32 constant PERSON_TYPEHASH = keccak256(\n        \"Person(string name,address wallet)\"\n    );\n\n    bytes32 constant MAIL_TYPEHASH = keccak256(\n        \"Mail(Person from,Person to,string contents)Person(string name,address wallet)\"\n    );\n\n    bytes32 DOMAIN_SEPARATOR;\n\n    constructor () public {\n        DOMAIN_SEPARATOR = hash(EIP712Domain({\n            name: \"Ether Mail\",\n            version: \"1\",\n            chainId: 1,\n            // verifyingContract: this\n            verifyingContract: 0xCcCCccccCCCCcCCCCCCcCcCccCcCCCcCcccccccC\n        }));\n    }\n\n    function hash(EIP712Domain memory eip712Domain) internal pure returns (bytes32) {\n        return keccak256(abi.encode(\n            EIP712DOMAIN_TYPEHASH,\n            keccak256(bytes(eip712Domain.name)),\n            keccak256(bytes(eip712Domain.version)),\n            eip712Domain.chainId,\n            eip712Domain.verifyingContract\n        ));\n    }\n\n    function hash(Person memory person) internal pure returns (bytes32) {\n        return keccak256(abi.encode(\n            PERSON_TYPEHASH,\n            keccak256(bytes(person.name)),\n            person.wallet\n        ));\n    }\n\n    function hash(Mail memory mail) internal pure returns (bytes32) {\n        return keccak256(abi.encode(\n            MAIL_TYPEHASH,\n            hash(mail.from),\n            hash(mail.to),\n            keccak256(bytes(mail.contents))\n        ));\n    }\n\n    function verify(Mail memory mail, uint8 v, bytes32 r, bytes32 s) internal view returns (bool) {\n        // Note: we need to use `encodePacked` here instead of `encode`.\n        bytes32 digest = keccak256(abi.encodePacked(\n            \"\\x19\\x01\",\n            DOMAIN_SEPARATOR,\n            hash(mail)\n        ));\n        return ecrecover(digest, v, r, s) == mail.from.wallet;\n    }\n\n    function splitSignature (bytes memory signature_rsv) private pure returns (uint8 v, bytes32 r, bytes32 s) {\n\n        assembly {\n            r := mload(add(signature_rsv, 32))\n            s := mload(add(signature_rsv, 64))\n            v := and(mload(add(signature_rsv, 65)), 255)\n        }\n        if (v < 27) {\n            v += 27;\n        }\n        return (v, r, s);\n    }\n\n    function test_verify1(address signer, string memory from_name, address from_wallet, string memory to_name,\n        address to_wallet, string memory contents, bytes memory sig_rsv) public view returns (bool) {\n\n        (uint8 v, bytes32 r, bytes32 s) = splitSignature(sig_rsv);\n\n        Mail memory mail = Mail({\n            from: Person({\n                name: from_name,\n                wallet: from_wallet\n            }),\n            to: Person({\n                name: to_name,\n                wallet: to_wallet\n            }),\n            contents: contents\n        });\n\n        bytes32 digest = keccak256(abi.encodePacked(\n            \"\\x19\\x01\",\n            DOMAIN_SEPARATOR,\n            hash(mail)\n        ));\n\n        return ecrecover(digest, v, r, s) == signer;\n    }\n\n    function test_verify2(address signer, string memory from_name, address from_wallet, string memory to_name,\n        address to_wallet, string memory contents, uint8 v, bytes32 r, bytes32 s) public view returns (bool) {\n\n        Mail memory mail = Mail({\n            from: Person({\n                name: from_name,\n                wallet: from_wallet\n            }),\n            to: Person({\n                name: to_name,\n                wallet: to_wallet\n            }),\n            contents: contents\n        });\n\n        bytes32 digest = keccak256(abi.encodePacked(\n            \"\\x19\\x01\",\n            DOMAIN_SEPARATOR,\n            hash(mail)\n        ));\n\n        return ecrecover(digest, v, r, s) == signer;\n    }\n\n    function test() public view returns (bool) {\n        // Example signed message\n        Mail memory mail = Mail({\n            from: Person({\n                name: \"Cow\",\n                wallet: 0xCD2a3d9F938E13CD947Ec05AbC7FE734Df8DD826\n            }),\n            to: Person({\n                name: \"Bob\",\n                wallet: 0xbBbBBBBbbBBBbbbBbbBbbbbBBbBbbbbBbBbbBBbB\n            }),\n            contents: \"Hello, Bob!\"\n        });\n        uint8 v = 28;\n        bytes32 r = 0x4355c47d63924e8a72e509b65029052eb6c299d53a04e167c5775fd466751c9d;\n        bytes32 s = 0x07299936d304c153f6443dfa05f40ff007d72911b6f72307f996231605b91562;\n\n        assert(DOMAIN_SEPARATOR == 0xf2cee375fa42b42143804025fc449deafd50cc031ca257e0b194a650a912090f);\n        assert(hash(mail) == 0xc52c0ee5d84264471806290a3f2c4cecfc5490626bf912d01f240d7a274b371e);\n        assert(verify(mail, v, r, s));\n        return true;\n    }\n}\n",
  "sourcePath": "/home/oberstet/scm/crossbario/xbr-protocol/contracts/XBRTest.sol",
  "compiler": {
    "name": "solc",
    "version": "0.5.16+commit.9c3226ce.Emscripten.clang"
  },
  "schemaVersion": "3.0.23",
  "updatedAt": "2020-03-20T13:13:14.333Z",
  "devdoc": {
    "methods": {}
  },
  "userdoc": {
    "methods": {}
  }
}