{
  "contractName": "XBRTypes",
  "abi": [
    {
      "constant": true,
      "inputs": [
        {
          "internalType": "address",
          "name": "signer",
          "type": "address"
        },
        {
          "components": [
            {
              "internalType": "uint256",
              "name": "chainId",
              "type": "uint256"
            },
            {
              "internalType": "address",
              "name": "verifyingContract",
              "type": "address"
            },
            {
              "internalType": "address",
              "name": "member",
              "type": "address"
            },
            {
              "internalType": "uint256",
              "name": "registered",
              "type": "uint256"
            },
            {
              "internalType": "string",
              "name": "eula",
              "type": "string"
            },
            {
              "internalType": "string",
              "name": "profile",
              "type": "string"
            }
          ],
          "internalType": "struct XBRTypes.EIP712MemberRegister",
          "name": "obj",
          "type": "tuple"
        },
        {
          "internalType": "bytes",
          "name": "signature",
          "type": "bytes"
        }
      ],
      "name": "verify",
      "outputs": [
        {
          "internalType": "bool",
          "name": "",
          "type": "bool"
        }
      ],
      "payable": false,
      "stateMutability": "pure",
      "type": "function"
    },
    {
      "constant": true,
      "inputs": [
        {
          "internalType": "address",
          "name": "signer",
          "type": "address"
        },
        {
          "components": [
            {
              "internalType": "uint256",
              "name": "chainId",
              "type": "uint256"
            },
            {
              "internalType": "address",
              "name": "verifyingContract",
              "type": "address"
            },
            {
              "internalType": "address",
              "name": "member",
              "type": "address"
            },
            {
              "internalType": "uint256",
              "name": "joined",
              "type": "uint256"
            },
            {
              "internalType": "bytes16",
              "name": "marketId",
              "type": "bytes16"
            },
            {
              "internalType": "uint8",
              "name": "actorType",
              "type": "uint8"
            },
            {
              "internalType": "string",
              "name": "meta",
              "type": "string"
            }
          ],
          "internalType": "struct XBRTypes.EIP712MarketJoin",
          "name": "obj",
          "type": "tuple"
        },
        {
          "internalType": "bytes",
          "name": "signature",
          "type": "bytes"
        }
      ],
      "name": "verify",
      "outputs": [
        {
          "internalType": "bool",
          "name": "",
          "type": "bool"
        }
      ],
      "payable": false,
      "stateMutability": "pure",
      "type": "function"
    }
  ],
  "bytecode": "0x610b1b610026600b82828239805160001a60731461001957fe5b30600052607381538281f3fe73000000000000000000000000000000000000000030146080604052600436106100405760003560e01c80633402ce0114610045578063bc0625321461006e575b600080fd5b6100586100533660046105b1565b610081565b6040516100659190610897565b60405180910390f35b61005861007c366004610534565b610142565b6000806000806100908561016a565b92509250925060006100a06101c7565b6100a98861021f565b6040516020016100ba929190610845565b604051602081830303815290604052805190602001209050876001600160a01b0316600182868686604051600081526020016040526040516100ff94939291906109b4565b6020604051602081039080840390855afa158015610121573d6000803e3d6000fd5b505050602060405103516001600160a01b0316149450505050509392505050565b6000806000806101518561016a565b92509250925060006101616101c7565b6100a988610294565b600080600083516041146101995760405162461bcd60e51b8152600401610190906109f2565b60405180910390fd5b50505060208101516040820151604183015160ff169190601b8310156101c057601b830192505b9193909250565b600061021a6040518060400160405280604051806040016040528060038152602001622c212960e91b8152508152602001604051806040016040528060018152602001603160f81b8152508152506102eb565b905090565b600060405161022d90610881565b604051809103902082600001518360200151846040015185606001518660800151805190602001208760a0015180519060200120604051602001610277979695949392919061094c565b604051602081830303815290604052805190602001209050919050565b60006040516102a290610876565b6040518091039020826000015183602001518460400151856060015186608001518760a001518860c00151805190602001206040516020016102779897969594939291906108d5565b60006040516102f99061088c565b60405190819003812083518051602091820120818601518051908301206102779491929091016108a5565b803561032f81610aa6565b92915050565b803561032f81610abd565b600082601f83011261035157600080fd5b813561036461035f82610a29565b610a02565b9150808252602083016020830185838301111561038057600080fd5b61038b838284610a9a565b50505092915050565b600060e082840312156103a657600080fd5b6103b060e0610a02565b905060006103be848461051e565b82525060206103cf84848301610324565b60208301525060406103e384828501610324565b60408301525060606103f78482850161051e565b606083015250608061040b84828501610335565b60808301525060a061041f84828501610529565b60a08301525060c082013567ffffffffffffffff81111561043f57600080fd5b61044b84828501610340565b60c08301525092915050565b600060c0828403121561046957600080fd5b61047360c0610a02565b90506000610481848461051e565b825250602061049284848301610324565b60208301525060406104a684828501610324565b60408301525060606104ba8482850161051e565b606083015250608082013567ffffffffffffffff8111156104da57600080fd5b6104e684828501610340565b60808301525060a082013567ffffffffffffffff81111561050657600080fd5b61051284828501610340565b60a08301525092915050565b803561032f81610ac6565b803561032f81610acf565b60008060006060848603121561054957600080fd5b60006105558686610324565b935050602084013567ffffffffffffffff81111561057257600080fd5b61057e86828701610394565b925050604084013567ffffffffffffffff81111561059b57600080fd5b6105a786828701610340565b9150509250925092565b6000806000606084860312156105c657600080fd5b60006105d28686610324565b935050602084013567ffffffffffffffff8111156105ef57600080fd5b61057e86828701610457565b61060481610a5f565b82525050565b61060481610a6a565b61060481610a6f565b61060481610a85565b61060461063182610a85565b610a85565b6000610643600283610a5a565b61190160f01b815260020192915050565b6000610661608683610a5a565b7f4549503731324d61726b65744a6f696e2875696e7432353620636861696e496481527f2c6164647265737320766572696679696e67436f6e74726163742c616464726560208201527f7373206d656d6265722c75696e74323536206a6f696e65642c6279746573313660408201527f206d61726b657449642c75696e7438206163746f72547970652c737472696e67606082015265206d6574612960d01b608082015260860192915050565b600061071b607c83610a5a565b7f4549503731324d656d62657252656769737465722875696e743235362063686181527f696e49642c6164647265737320766572696679696e67436f6e74726163742c6160208201527f646472657373206d656d6265722c75696e74323536207265676973746572656460408201527f2c737472696e672065756c612c737472696e672070726f66696c6529000000006060820152607c0192915050565b60006107c6601883610a51565b7f494e56414c49445f5349474e41545552455f4c454e4754480000000000000000815260200192915050565b60006107ff602883610a5a565b7f454950373132446f6d61696e28737472696e67206e616d652c737472696e672081526776657273696f6e2960c01b602082015260280192915050565b61060481610a94565b600061085082610636565b915061085c8285610625565b60208201915061086c8284610625565b5060200192915050565b600061032f82610654565b600061032f8261070e565b600061032f826107f2565b6020810161032f828461060a565b606081016108b3828661061c565b6108c0602083018561061c565b6108cd604083018461061c565b949350505050565b61010081016108e4828b61061c565b6108f1602083018a61061c565b6108fe60408301896105fb565b61090b60608301886105fb565b610918608083018761061c565b61092560a0830186610613565b61093260c083018561083c565b61093f60e083018461061c565b9998505050505050505050565b60e0810161095a828a61061c565b610967602083018961061c565b61097460408301886105fb565b61098160608301876105fb565b61098e608083018661061c565b61099b60a083018561061c565b6109a860c083018461061c565b98975050505050505050565b608081016109c2828761061c565b6109cf602083018661083c565b6109dc604083018561061c565b6109e9606083018461061c565b95945050505050565b6020808252810161032f816107b9565b60405181810167ffffffffffffffff81118282101715610a2157600080fd5b604052919050565b600067ffffffffffffffff821115610a4057600080fd5b506020601f91909101601f19160190565b90815260200190565b919050565b600061032f82610a88565b151590565b6fffffffffffffffffffffffffffffffff191690565b90565b6001600160a01b031690565b60ff1690565b82818337506000910152565b610aaf81610a5f565b8114610aba57600080fd5b50565b610aaf81610a6f565b610aaf81610a85565b610aaf81610a9456fea365627a7a7231582078e76e382b0edd35dc89f95b73228f3ed9d0dd3c3c4635ee1904246e9b143d946c6578706572696d656e74616cf564736f6c63430005100040",
  "source": "///////////////////////////////////////////////////////////////////////////////\n//\n//  Copyright (C) 2018-2020 Crossbar.io Technologies GmbH and contributors.\n//\n//  Licensed under the Apache License, Version 2.0 (the \"License\");\n//  you may not use this file except in compliance with the License.\n//  You may obtain a copy of the License at\n//\n//      http://www.apache.org/licenses/LICENSE-2.0\n//\n//  Unless required by applicable law or agreed to in writing, software\n//  distributed under the License is distributed on an \"AS IS\" BASIS,\n//  WITHOUT WARRANTIES OR CONDITIONS OF ANY KIND, either express or implied.\n//  See the License for the specific language governing permissions and\n//  limitations under the License.\n//\n///////////////////////////////////////////////////////////////////////////////\n\npragma solidity ^0.5.12;\npragma experimental ABIEncoderV2;\n\nimport \"./XBRToken.sol\";\nimport \"./XBRChannel.sol\";\n\n\n/**\n * @title XBR domain types and helper functions.\n * @author The XBR Project\n */\nlibrary XBRTypes {\n\n    /// XBR Network membership levels\n    enum MemberLevel { NULL, ACTIVE, VERIFIED, RETIRED, PENALTY, BLOCKED }\n\n    /// XBR Market Actor types\n    enum ActorType { NULL, PROVIDER, CONSUMER }\n\n    // //////// container types\n\n    /// Container type for holding XBR Network membership information.\n    struct Member {\n        /// Time (block.timestamp) when the member was (initially) registered.\n        uint registered;\n\n        /// The IPFS Multihash of the XBR EULA being agreed to and stored as one\n        /// ZIP file archive on IPFS.\n        string eula;\n\n        /// Optional public member profile: the IPFS Multihash of the member profile stored in IPFS.\n        string profile;\n\n        /// Current member level.\n        MemberLevel level;\n    }\n\n    /// Container type for holding XBR Market Actors information.\n    struct Actor {\n        /// Time (block.timestamp) when the actor has joined.\n        uint joined;\n\n        /// Security deposited by actor.\n        uint256 security;\n\n        /// Metadata attached to an actor in a market.\n        string meta;\n\n        /// All payment (paying) channels of the respective buyer (seller) actor.\n        address[] channels;\n    }\n\n    /// Container type for holding XBR Market information.\n    struct Market {\n        /// Time (block.timestamp) when the market was created.\n        uint created;\n\n        /// Market sequence number.\n        uint32 marketSeq;\n\n        /// Market owner (aka \"market operator\").\n        address owner;\n\n        /// Market terms (IPFS Multihash).\n        string terms;\n\n        /// Market metadata (IPFS Multihash)\n        string meta;\n\n        /// Current market maker address.\n        address maker;\n\n        /// Security deposit required by data providers (sellers) to join the market.\n        uint256 providerSecurity;\n\n        /// Security deposit required by data consumers (buyers) to join the market.\n        uint256 consumerSecurity;\n\n        /// Market fee rate for the market operator.\n        uint256 marketFee;\n\n        /// Adresses of provider (seller) actors joined in the market.\n        address[] providerActorAdrs;\n\n        /// Adresses of consumer (buyer) actors joined in the market.\n        address[] consumerActorAdrs;\n\n        /// Provider (seller) actors joined in the market by actor address.\n        mapping(address => Actor) providerActors;\n\n        /// Consumer (buyer) actors joined in the market by actor address.\n        mapping(address => Actor) consumerActors;\n\n        /// Current payment channel by (buyer) delegate.\n        mapping(address => address) currentPaymentChannelByDelegate;\n\n        /// Current paying channel by (seller) delegate.\n        mapping(address => address) currentPayingChannelByDelegate;\n\n    }\n\n    /// Container type for holding paying channel request information.\n    struct PayingChannelRequest {\n        bytes16 marketId;\n        address sender;\n        address delegate;\n        address recipient;\n        uint256 amount;\n        uint32 timeout;\n    }\n\n    /// EIP712 type for XBR as a type domain.\n    struct EIP712Domain {\n        // make signatures from different domains incompatible\n        string  name;\n        string  version;\n    }\n\n    /// EIP712 type for use in XBRNetwork.registerFor.\n    struct EIP712MemberRegister {\n        // replay attack protection\n        uint256 chainId;\n        address verifyingContract;\n\n        // actual data attributes\n        address member;\n        uint256 registered;\n        string eula;\n        string profile;\n    }\n\n    /// EIP712 type for use in XBRNetwork.joinMarketFor.\n    struct EIP712MarketJoin {\n        // replay attack protection\n        uint256 chainId;\n        address verifyingContract;\n\n        // actual data attributes\n        address member;\n        uint256 joined;\n        bytes16 marketId;\n        uint8 actorType;\n        string meta;\n    }\n\n    /// EIP712 type data.\n    bytes32 constant EIP712_DOMAIN_TYPEHASH = keccak256(\n        \"EIP712Domain(string name,string version)\"\n    );\n\n    /// EIP712 type data.\n    bytes32 constant EIP712_MEMBER_REGISTER_TYPEHASH = keccak256(\n        \"EIP712MemberRegister(uint256 chainId,address verifyingContract,address member,uint256 registered,string eula,string profile)\"\n    );\n\n    /// EIP712 type data.\n    bytes32 constant EIP712_MARKET_JOIN_TYPEHASH = keccak256(\n        \"EIP712MarketJoin(uint256 chainId,address verifyingContract,address member,uint256 joined,bytes16 marketId,uint8 actorType,string meta)\"\n    );\n\n    /**\n     * Split a signature given as a bytes string into components.\n     */\n    function splitSignature (bytes memory signature_rsv) private pure returns (uint8 v, bytes32 r, bytes32 s) {\n        require(signature_rsv.length == 65, \"INVALID_SIGNATURE_LENGTH\");\n\n        //  // first 32 bytes, after the length prefix\n        //  r := mload(add(sig, 32))\n        //  // second 32 bytes\n        //  s := mload(add(sig, 64))\n        //  // final byte (first byte of the next 32 bytes)\n        //  v := byte(0, mload(add(sig, 96)))\n        assembly\n        {\n            r := mload(add(signature_rsv, 32))\n            s := mload(add(signature_rsv, 64))\n            v := and(mload(add(signature_rsv, 65)), 255)\n        }\n        if (v < 27) {\n            v += 27;\n        }\n\n        return (v, r, s);\n    }\n\n    function hash(EIP712Domain memory domain_) private pure returns (bytes32) {\n        return keccak256(abi.encode(\n            EIP712_DOMAIN_TYPEHASH,\n            keccak256(bytes(domain_.name)),\n            keccak256(bytes(domain_.version))\n        ));\n    }\n\n    function domainSeparator () private pure returns (bytes32) {\n        // makes signatures from different domains incompatible.\n        // see https://github.com/ethereum/EIPs/blob/master/EIPS/eip-712.md#arbitrary-messages\n        return hash(EIP712Domain({\n            name: \"XBR\",\n            version: \"1\"\n        }));\n    }\n\n    function hash (EIP712MemberRegister memory obj) private pure returns (bytes32) {\n        return keccak256(abi.encode(\n            EIP712_MEMBER_REGISTER_TYPEHASH,\n            obj.chainId,\n            obj.verifyingContract,\n            obj.member,\n            obj.registered,\n            keccak256(bytes(obj.eula)),\n            keccak256(bytes(obj.profile))\n        ));\n    }\n\n    function hash (EIP712MarketJoin memory obj) private pure returns (bytes32) {\n        return keccak256(abi.encode(\n            EIP712_MARKET_JOIN_TYPEHASH,\n            obj.chainId,\n            obj.verifyingContract,\n            obj.member,\n            obj.joined,\n            obj.marketId,\n            obj.actorType,\n            keccak256(bytes(obj.meta))\n        ));\n    }\n\n    function verify (address signer, EIP712MemberRegister memory obj,\n        bytes memory signature) public pure returns (bool) {\n\n        (uint8 v, bytes32 r, bytes32 s) = splitSignature(signature);\n\n        bytes32 digest = keccak256(abi.encodePacked(\n            \"\\x19\\x01\",\n            domainSeparator(),\n            hash(obj)\n        ));\n\n        return ecrecover(digest, v, r, s) == signer;\n    }\n\n    function verify (address signer, EIP712MarketJoin memory obj,\n        bytes memory signature) public pure returns (bool) {\n\n        (uint8 v, bytes32 r, bytes32 s) = splitSignature(signature);\n\n        bytes32 digest = keccak256(abi.encodePacked(\n            \"\\x19\\x01\",\n            domainSeparator(),\n            hash(obj)\n        ));\n\n        return ecrecover(digest, v, r, s) == signer;\n    }\n}\n",
  "sourcePath": "/home/oberstet/scm/crossbario/xbr-protocol/contracts/XBRTypes.sol",
  "compiler": {
    "name": "solc",
    "version": "0.5.16+commit.9c3226ce.Emscripten.clang"
  },
  "schemaVersion": "3.0.23",
  "updatedAt": "2020-02-25T09:32:04.153Z",
  "devdoc": {
    "author": "The XBR Project",
    "methods": {},
    "title": "XBR domain types and helper functions."
  },
  "userdoc": {
    "methods": {}
  }
}