{
  "contractName": "XBRTypes",
  "abi": [
    {
      "constant": true,
      "inputs": [
        {
          "internalType": "address",
          "name": "signer",
          "type": "address"
        },
        {
          "components": [
            {
              "internalType": "uint256",
              "name": "chainId",
              "type": "uint256"
            },
            {
              "internalType": "address",
              "name": "verifyingContract",
              "type": "address"
            },
            {
              "internalType": "bytes16",
              "name": "marketId",
              "type": "bytes16"
            },
            {
              "internalType": "string",
              "name": "terms",
              "type": "string"
            },
            {
              "internalType": "string",
              "name": "meta",
              "type": "string"
            },
            {
              "internalType": "address",
              "name": "maker",
              "type": "address"
            },
            {
              "internalType": "uint256",
              "name": "providerSecurity",
              "type": "uint256"
            },
            {
              "internalType": "uint256",
              "name": "consumerSecurity",
              "type": "uint256"
            },
            {
              "internalType": "uint256",
              "name": "marketFee",
              "type": "uint256"
            }
          ],
          "internalType": "struct XBRTypes.EIP712MarketCreate",
          "name": "obj",
          "type": "tuple"
        },
        {
          "internalType": "bytes",
          "name": "signature",
          "type": "bytes"
        }
      ],
      "name": "verify",
      "outputs": [
        {
          "internalType": "bool",
          "name": "",
          "type": "bool"
        }
      ],
      "payable": false,
      "stateMutability": "pure",
      "type": "function"
    },
    {
      "constant": true,
      "inputs": [
        {
          "internalType": "address",
          "name": "signer",
          "type": "address"
        },
        {
          "components": [
            {
              "internalType": "uint256",
              "name": "chainId",
              "type": "uint256"
            },
            {
              "internalType": "address",
              "name": "verifyingContract",
              "type": "address"
            }
          ],
          "internalType": "struct XBRTypes.EIP712ChannelOpen",
          "name": "obj",
          "type": "tuple"
        },
        {
          "internalType": "bytes",
          "name": "signature",
          "type": "bytes"
        }
      ],
      "name": "verify",
      "outputs": [
        {
          "internalType": "bool",
          "name": "",
          "type": "bool"
        }
      ],
      "payable": false,
      "stateMutability": "pure",
      "type": "function"
    },
    {
      "constant": true,
      "inputs": [
        {
          "internalType": "address",
          "name": "signer",
          "type": "address"
        },
        {
          "components": [
            {
              "internalType": "uint256",
              "name": "chainId",
              "type": "uint256"
            },
            {
              "internalType": "address",
              "name": "verifyingContract",
              "type": "address"
            },
            {
              "internalType": "address",
              "name": "member",
              "type": "address"
            },
            {
              "internalType": "uint256",
              "name": "registered",
              "type": "uint256"
            },
            {
              "internalType": "string",
              "name": "eula",
              "type": "string"
            },
            {
              "internalType": "string",
              "name": "profile",
              "type": "string"
            }
          ],
          "internalType": "struct XBRTypes.EIP712MemberRegister",
          "name": "obj",
          "type": "tuple"
        },
        {
          "internalType": "bytes",
          "name": "signature",
          "type": "bytes"
        }
      ],
      "name": "verify",
      "outputs": [
        {
          "internalType": "bool",
          "name": "",
          "type": "bool"
        }
      ],
      "payable": false,
      "stateMutability": "pure",
      "type": "function"
    },
    {
      "constant": true,
      "inputs": [
        {
          "internalType": "address",
          "name": "signer",
          "type": "address"
        },
        {
          "components": [
            {
              "internalType": "uint256",
              "name": "chainId",
              "type": "uint256"
            },
            {
              "internalType": "address",
              "name": "verifyingContract",
              "type": "address"
            },
            {
              "internalType": "address",
              "name": "channel_adr",
              "type": "address"
            },
            {
              "internalType": "uint32",
              "name": "channel_seq",
              "type": "uint32"
            },
            {
              "internalType": "uint256",
              "name": "balance",
              "type": "uint256"
            },
            {
              "internalType": "bool",
              "name": "is_final",
              "type": "bool"
            }
          ],
          "internalType": "struct XBRTypes.EIP712ChannelClose",
          "name": "obj",
          "type": "tuple"
        },
        {
          "internalType": "bytes",
          "name": "signature",
          "type": "bytes"
        }
      ],
      "name": "verify",
      "outputs": [
        {
          "internalType": "bool",
          "name": "",
          "type": "bool"
        }
      ],
      "payable": false,
      "stateMutability": "pure",
      "type": "function"
    },
    {
      "constant": true,
      "inputs": [
        {
          "internalType": "address",
          "name": "signer",
          "type": "address"
        },
        {
          "components": [
            {
              "internalType": "uint256",
              "name": "chainId",
              "type": "uint256"
            },
            {
              "internalType": "address",
              "name": "verifyingContract",
              "type": "address"
            },
            {
              "internalType": "address",
              "name": "member",
              "type": "address"
            },
            {
              "internalType": "uint256",
              "name": "joined",
              "type": "uint256"
            },
            {
              "internalType": "bytes16",
              "name": "marketId",
              "type": "bytes16"
            },
            {
              "internalType": "uint8",
              "name": "actorType",
              "type": "uint8"
            },
            {
              "internalType": "string",
              "name": "meta",
              "type": "string"
            }
          ],
          "internalType": "struct XBRTypes.EIP712MarketJoin",
          "name": "obj",
          "type": "tuple"
        },
        {
          "internalType": "bytes",
          "name": "signature",
          "type": "bytes"
        }
      ],
      "name": "verify",
      "outputs": [
        {
          "internalType": "bool",
          "name": "",
          "type": "bool"
        }
      ],
      "payable": false,
      "stateMutability": "pure",
      "type": "function"
    }
  ],
  "bytecode": "0x611394610026600b82828239805160001a60731461001957fe5b30600052607381538281f3fe73000000000000000000000000000000000000000030146080604052600436106100615760003560e01c80630c5524ee1461006657806310e78f7d1461008f5780633402ce01146100a2578063989a750a146100b5578063bc062532146100c8575b600080fd5b610079610074366004610982565b6100db565b6040516100869190610f83565b60405180910390f35b61007961009d366004610934565b61019c565b6100796100b0366004610a30565b6101c4565b6100796100c33660046108cf565b6101ec565b6100796100d63660046109e7565b610214565b6000806000806100ea8561023c565b92509250925060006100fa610299565b610103886102f1565b604051602001610114929190610f10565b604051602081830303815290604052805190602001209050876001600160a01b03166001828686866040516000815260200160405260405161015994939291906111d6565b6020604051602081039080840390855afa15801561017b573d6000803e3d6000fd5b505050602060405103516001600160a01b0316149450505050509392505050565b6000806000806101ab8561023c565b92509250925060006101bb610299565b61010388610378565b6000806000806101d38561023c565b92509250925060006101e3610299565b610103886103a3565b6000806000806101fb8561023c565b925092509250600061020b610299565b610103886103fb565b6000806000806102238561023c565b9250925092506000610233610299565b61010388610445565b6000806000835160411461026b5760405162461bcd60e51b815260040161026290611214565b60405180910390fd5b50505060208101516040820151604183015160ff169190601b83101561029257601b830192505b9193909250565b60006102ec6040518060400160405280604051806040016040528060038152602001622c212960e91b8152508152602001604051806040016040528060018152602001603160f81b81525081525061049c565b905090565b60006040516102ff90610f4c565b6040518091039020826000015183602001518460400151856060015186608001518760a001518860c001518960e001518a61010001518b608001518051906020012060405160200161035b9b9a99989796959493929190611124565b604051602081830303815290604052805190602001209050919050565b600060405161038690610f78565b604051908190038120835160208086015161035b94909101610fc1565b60006040516103b190610f62565b604051809103902082600001518360200151846040015185606001518660800151805190602001208760a001518051906020012060405160200161035b9796959493929190611060565b600060405161040990610f57565b6040518091039020826000015183602001518460400151856060015186608001518760a0015160405160200161035b97969594939291906110c8565b600060405161045390610f41565b6040518091039020826000015183602001518460400151856060015186608001518760a001518860c001518051906020012060405160200161035b989796959493929190610fe9565b60006040516104aa90610f6d565b604051908190038120835180516020918201208186015180519083012061035b949192909101610f91565b80356104e08161130d565b92915050565b80356104e081611324565b80356104e08161132d565b600082601f83011261050d57600080fd5b813561052061051b8261124a565b611224565b9150808252602083016020830185838301111561053c57600080fd5b6105478382846112c7565b50505092915050565b600060c0828403121561056257600080fd5b61056c60c0611224565b9050600061057a84846108ae565b825250602061058b848483016104d5565b602083015250604061059f848285016104d5565b60408301525060606105b3848285016108b9565b60608301525060806105c7848285016108ae565b60808301525060a06105db848285016104e6565b60a08301525092915050565b6000604082840312156105f957600080fd5b6106036040611224565b9050600061061184846108ae565b8252506020610622848483016104d5565b60208301525092915050565b6000610120828403121561064157600080fd5b61064c610120611224565b9050600061065a84846108ae565b825250602061066b848483016104d5565b602083015250604061067f848285016104f1565b60408301525060608201356001600160401b0381111561069e57600080fd5b6106aa848285016104fc565b60608301525060808201356001600160401b038111156106c957600080fd5b6106d5848285016104fc565b60808301525060a06106e9848285016104d5565b60a08301525060c06106fd848285016108ae565b60c08301525060e0610711848285016108ae565b60e083015250610100610726848285016108ae565b6101008301525092915050565b600060e0828403121561074557600080fd5b61074f60e0611224565b9050600061075d84846108ae565b825250602061076e848483016104d5565b6020830152506040610782848285016104d5565b6040830152506060610796848285016108ae565b60608301525060806107aa848285016104f1565b60808301525060a06107be848285016108c4565b60a08301525060c08201356001600160401b038111156107dd57600080fd5b6107e9848285016104fc565b60c08301525092915050565b600060c0828403121561080757600080fd5b61081160c0611224565b9050600061081f84846108ae565b8252506020610830848483016104d5565b6020830152506040610844848285016104d5565b6040830152506060610858848285016108ae565b60608301525060808201356001600160401b0381111561087757600080fd5b610883848285016104fc565b60808301525060a08201356001600160401b038111156108a257600080fd5b6105db848285016104fc565b80356104e081611336565b80356104e08161133f565b80356104e081611348565b600080600061010084860312156108e557600080fd5b60006108f186866104d5565b935050602061090286828701610550565b92505060e08401356001600160401b0381111561091e57600080fd5b61092a868287016104fc565b9150509250925092565b60008060006080848603121561094957600080fd5b600061095586866104d5565b9350506020610966868287016105e7565b92505060608401356001600160401b0381111561091e57600080fd5b60008060006060848603121561099757600080fd5b60006109a386866104d5565b93505060208401356001600160401b038111156109bf57600080fd5b6109cb8682870161062e565b92505060408401356001600160401b0381111561091e57600080fd5b6000806000606084860312156109fc57600080fd5b6000610a0886866104d5565b93505060208401356001600160401b03811115610a2457600080fd5b6109cb86828701610733565b600080600060608486031215610a4557600080fd5b6000610a5186866104d5565b93505060208401356001600160401b03811115610a6d57600080fd5b6109cb868287016107f5565b610a8281611283565b82525050565b610a828161128e565b610a8281611293565b610a82816112a9565b610a82610aaf826112a9565b6112a9565b6000610abf82611271565b610ac98185611275565b9350610ad98185602086016112d3565b610ae281611303565b9093019392505050565b6000610af960028361127e565b61190160f01b815260020192915050565b6000610b1760868361127e565b7f4549503731324d61726b65744a6f696e2875696e7432353620636861696e496481527f2c6164647265737320766572696679696e67436f6e74726163742c616464726560208201527f7373206d656d6265722c75696e74323536206a6f696e65642c6279746573313660408201527f206d61726b657449642c75696e7438206163746f72547970652c737472696e67606082015265206d6574612960d01b608082015260860192915050565b6000610bd160b98361127e565b7f4549503731324d61726b65744372656174652875696e7432353620636861696e81527f49642c6164647265737320766572696679696e67436f6e74726163742c62797460208201527f65733136206d61726b657449642c737472696e67207465726d732c737472696e60408201527f67206d6574612c61646472657373206d616b65722c75696e743235362070726f60608201527f766964657253656375726974792c75696e7432353620636f6e73756d6572536560808201527f6375726974792c75696e74323536206d61726b6574466565290000000000000060a082015260b90192915050565b6000610cc860828361127e565b7f4549503731324368616e6e656c436c6f73652875696e7432353620636861696e81527f49642c6164647265737320766572696679696e67436f6e74726163742c61646460208201527f72657373206368616e6e656c5f6164722c75696e743332206368616e6e656c5f60408201527f7365712c75696e743235362062616c616e63652c626f6f6c2069735f66696e616060820152616c2960f01b608082015260820192915050565b6000610d7e607c8361127e565b7f4549503731324d656d62657252656769737465722875696e743235362063686181527f696e49642c6164647265737320766572696679696e67436f6e74726163742c6160208201527f646472657373206d656d6265722c75696e74323536207265676973746572656460408201527f2c737472696e672065756c612c737472696e672070726f66696c6529000000006060820152607c0192915050565b6000610e29601883611275565b7f494e56414c49445f5349474e41545552455f4c454e4754480000000000000000815260200192915050565b6000610e6260288361127e565b7f454950373132446f6d61696e28737472696e67206e616d652c737472696e672081526776657273696f6e2960c01b602082015260280192915050565b6000610eac603c8361127e565b7f4549503731324368616e6e656c4f70656e2875696e7432353620636861696e4981527f642c6164647265737320766572696679696e67436f6e747261637429000000006020820152603c0192915050565b610a82816112b8565b610a82816112c1565b6000610f1b82610aec565b9150610f278285610aa3565b602082019150610f378284610aa3565b5060200192915050565b60006104e082610b0a565b60006104e082610bc4565b60006104e082610cbb565b60006104e082610d71565b60006104e082610e55565b60006104e082610e9f565b602081016104e08284610a88565b60608101610f9f8286610a9a565b610fac6020830185610a9a565b610fb96040830184610a9a565b949350505050565b60608101610fcf8286610a9a565b610fdc6020830185610a9a565b610fb96040830184610a79565b6101008101610ff8828b610a9a565b611005602083018a610a9a565b6110126040830189610a79565b61101f6060830188610a79565b61102c6080830187610a9a565b61103960a0830186610a91565b61104660c0830185610f07565b61105360e0830184610a9a565b9998505050505050505050565b60e0810161106e828a610a9a565b61107b6020830189610a9a565b6110886040830188610a79565b6110956060830187610a79565b6110a26080830186610a9a565b6110af60a0830185610a9a565b6110bc60c0830184610a9a565b98975050505050505050565b60e081016110d6828a610a9a565b6110e36020830189610a9a565b6110f06040830188610a79565b6110fd6060830187610a79565b61110a6080830186610efe565b61111760a0830185610a9a565b6110bc60c0830184610a88565b6101608101611133828e610a9a565b611140602083018d610a9a565b61114d604083018c610a79565b61115a606083018b610a91565b818103608083015261116c818a610ab4565b905081810360a08301526111808189610ab4565b905061118f60c0830188610a79565b61119c60e0830187610a9a565b6111aa610100830186610a9a565b6111b8610120830185610a9a565b6111c6610140830184610a9a565b9c9b505050505050505050505050565b608081016111e48287610a9a565b6111f16020830186610f07565b6111fe6040830185610a9a565b61120b6060830184610a9a565b95945050505050565b602080825281016104e081610e1c565b6040518181016001600160401b038111828210171561124257600080fd5b604052919050565b60006001600160401b0382111561126057600080fd5b506020601f91909101601f19160190565b5190565b90815260200190565b919050565b60006104e0826112ac565b151590565b6fffffffffffffffffffffffffffffffff191690565b90565b6001600160a01b031690565b63ffffffff1690565b60ff1690565b82818337506000910152565b60005b838110156112ee5781810151838201526020016112d6565b838111156112fd576000848401525b50505050565b601f01601f191690565b61131681611283565b811461132157600080fd5b50565b6113168161128e565b61131681611293565b611316816112a9565b611316816112b8565b611316816112c156fea365627a7a7231582019a890886ee24c033d7db3f0c37183ab429d5afccde1a66a7b0bbdb77e8ce0666c6578706572696d656e74616cf564736f6c63430005100040",
  "source": "///////////////////////////////////////////////////////////////////////////////\n//\n//  Copyright (C) 2018-2020 Crossbar.io Technologies GmbH and contributors.\n//\n//  Licensed under the Apache License, Version 2.0 (the \"License\");\n//  you may not use this file except in compliance with the License.\n//  You may obtain a copy of the License at\n//\n//      http://www.apache.org/licenses/LICENSE-2.0\n//\n//  Unless required by applicable law or agreed to in writing, software\n//  distributed under the License is distributed on an \"AS IS\" BASIS,\n//  WITHOUT WARRANTIES OR CONDITIONS OF ANY KIND, either express or implied.\n//  See the License for the specific language governing permissions and\n//  limitations under the License.\n//\n///////////////////////////////////////////////////////////////////////////////\n\npragma solidity ^0.5.12;\npragma experimental ABIEncoderV2;\n\nimport \"./XBRToken.sol\";\nimport \"./XBRChannel.sol\";\n\n\n/**\n * @title XBR domain types and helper functions.\n * @author The XBR Project\n */\nlibrary XBRTypes {\n\n    /// XBR Network membership levels\n    enum MemberLevel { NULL, ACTIVE, VERIFIED, RETIRED, PENALTY, BLOCKED }\n\n    /// XBR Market Actor types\n    enum ActorType { NULL, PROVIDER, CONSUMER }\n\n    // //////// container types\n\n    /// Container type for holding XBR Network membership information.\n    struct Member {\n        /// Time (block.timestamp) when the member was (initially) registered.\n        uint registered;\n\n        /// The IPFS Multihash of the XBR EULA being agreed to and stored as one\n        /// ZIP file archive on IPFS.\n        string eula;\n\n        /// Optional public member profile: the IPFS Multihash of the member profile stored in IPFS.\n        string profile;\n\n        /// Current member level.\n        MemberLevel level;\n\n        /// If the transaction was pre-signed, this is the signature the user supplied\n        bytes signature;\n    }\n\n    /// Container type for holding XBR Market Actors information.\n    struct Actor {\n        /// Time (block.timestamp) when the actor has joined.\n        uint joined;\n\n        /// Security deposited by actor.\n        uint256 security;\n\n        /// Metadata attached to an actor in a market.\n        string meta;\n\n        /// If the transaction was pre-signed, this is the signature the user supplied\n        bytes signature;\n\n        /// All payment (paying) channels of the respective buyer (seller) actor.\n        address[] channels;\n    }\n\n    /// Container type for holding XBR Market information.\n    struct Market {\n        /// Time (block.timestamp) when the market was created.\n        uint created;\n\n        /// Market sequence number.\n        uint32 marketSeq;\n\n        /// Market owner (aka \"market operator\").\n        address owner;\n\n        /// Market terms (IPFS Multihash).\n        string terms;\n\n        /// Market metadata (IPFS Multihash)\n        string meta;\n\n        /// Current market maker address.\n        address maker;\n\n        /// Security deposit required by data providers (sellers) to join the market.\n        uint256 providerSecurity;\n\n        /// Security deposit required by data consumers (buyers) to join the market.\n        uint256 consumerSecurity;\n\n        /// Market fee rate for the market operator.\n        uint256 marketFee;\n\n        /// If the transaction was pre-signed, this is the signature the user supplied\n        bytes signature;\n\n        /// Adresses of provider (seller) actors joined in the market.\n        address[] providerActorAdrs;\n\n        /// Adresses of consumer (buyer) actors joined in the market.\n        address[] consumerActorAdrs;\n\n        /// Provider (seller) actors joined in the market by actor address.\n        mapping(address => Actor) providerActors;\n\n        /// Consumer (buyer) actors joined in the market by actor address.\n        mapping(address => Actor) consumerActors;\n\n        /// Current payment channel by (buyer) delegate.\n        mapping(address => address) currentPaymentChannelByDelegate;\n\n        /// Current paying channel by (seller) delegate.\n        mapping(address => address) currentPayingChannelByDelegate;\n    }\n\n    /// Container type for holding paying channel request information.\n    struct PayingChannelRequest {\n        bytes16 marketId;\n        address sender;\n        address delegate;\n        address recipient;\n        uint256 amount;\n        uint32 timeout;\n    }\n\n    /// EIP712 type for XBR as a type domain.\n    struct EIP712Domain {\n        // make signatures from different domains incompatible\n        string  name;\n        string  version;\n    }\n\n    /// EIP712 type for use in XBRNetwork.registerFor.\n    struct EIP712MemberRegister {\n        // replay attack protection\n        uint256 chainId;\n        address verifyingContract;\n\n        // actual data attributes\n        address member;\n        uint256 registered;\n        string eula;\n        string profile;\n    }\n\n    /// EIP712 type for use in XBRMarket.createMarketFor.\n    struct EIP712MarketCreate {\n        // replay attack protection\n        uint256 chainId;\n        address verifyingContract;\n\n        // actual data attributes\n        bytes16 marketId;\n        string terms;\n        string meta;\n        address maker;\n        uint256 providerSecurity;\n        uint256 consumerSecurity;\n        uint256 marketFee;\n    }\n\n    /// EIP712 type for use in XBRMarket.joinMarketFor.\n    struct EIP712MarketJoin {\n        // replay attack protection\n        uint256 chainId;\n        address verifyingContract;\n\n        // actual data attributes\n        address member;\n        uint256 joined;\n        bytes16 marketId;\n        uint8 actorType;\n        string meta;\n    }\n\n    /// EIP712 type for use in XBRChannel.openFor.\n    struct EIP712ChannelOpen {\n        // replay attack protection\n        uint256 chainId;\n        address verifyingContract;\n    }\n\n    /// EIP712 type for use in XBRChannel.closeFor.\n    struct EIP712ChannelClose {\n        // replay attack protection\n        uint256 chainId;\n        address verifyingContract;\n\n        // actual data attributes\n        address channel_adr;\n        uint32 channel_seq;\n        uint256 balance;\n        bool is_final;\n    }\n\n    /// EIP712 type data.\n    // solhint-disable-next-line\n    bytes32 constant EIP712_DOMAIN_TYPEHASH = keccak256(\"EIP712Domain(string name,string version)\");\n\n    /// EIP712 type data.\n    // solhint-disable-next-line\n    bytes32 constant EIP712_MEMBER_REGISTER_TYPEHASH = keccak256(\"EIP712MemberRegister(uint256 chainId,address verifyingContract,address member,uint256 registered,string eula,string profile)\");\n\n    /// EIP712 type data.\n    // solhint-disable-next-line\n    bytes32 constant EIP712_MARKET_CREATE_TYPEHASH = keccak256(\"EIP712MarketCreate(uint256 chainId,address verifyingContract,bytes16 marketId,string terms,string meta,address maker,uint256 providerSecurity,uint256 consumerSecurity,uint256 marketFee)\");\n\n    /// EIP712 type data.\n    // solhint-disable-next-line\n    bytes32 constant EIP712_MARKET_JOIN_TYPEHASH = keccak256(\"EIP712MarketJoin(uint256 chainId,address verifyingContract,address member,uint256 joined,bytes16 marketId,uint8 actorType,string meta)\");\n\n    /// EIP712 type data.\n    // solhint-disable-next-line\n    bytes32 constant EIP712_CHANNEL_OPEN_TYPEHASH = keccak256(\"EIP712ChannelOpen(uint256 chainId,address verifyingContract)\");\n\n    /// EIP712 type data.\n    // solhint-disable-next-line\n    bytes32 constant EIP712_CHANNEL_CLOSE_TYPEHASH = keccak256(\"EIP712ChannelClose(uint256 chainId,address verifyingContract,address channel_adr,uint32 channel_seq,uint256 balance,bool is_final)\");\n\n    /**\n     * Split a signature given as a bytes string into components.\n     */\n    function splitSignature (bytes memory signature_rsv) private pure returns (uint8 v, bytes32 r, bytes32 s) {\n        require(signature_rsv.length == 65, \"INVALID_SIGNATURE_LENGTH\");\n\n        //  // first 32 bytes, after the length prefix\n        //  r := mload(add(sig, 32))\n        //  // second 32 bytes\n        //  s := mload(add(sig, 64))\n        //  // final byte (first byte of the next 32 bytes)\n        //  v := byte(0, mload(add(sig, 96)))\n        assembly\n        {\n            r := mload(add(signature_rsv, 32))\n            s := mload(add(signature_rsv, 64))\n            v := and(mload(add(signature_rsv, 65)), 255)\n        }\n        if (v < 27) {\n            v += 27;\n        }\n\n        return (v, r, s);\n    }\n\n    function hash(EIP712Domain memory domain_) private pure returns (bytes32) {\n        return keccak256(abi.encode(\n            EIP712_DOMAIN_TYPEHASH,\n            keccak256(bytes(domain_.name)),\n            keccak256(bytes(domain_.version))\n        ));\n    }\n\n    function domainSeparator () private pure returns (bytes32) {\n        // makes signatures from different domains incompatible.\n        // see https://github.com/ethereum/EIPs/blob/master/EIPS/eip-712.md#arbitrary-messages\n        return hash(EIP712Domain({\n            name: \"XBR\",\n            version: \"1\"\n        }));\n    }\n\n    function hash (EIP712MemberRegister memory obj) private pure returns (bytes32) {\n        return keccak256(abi.encode(\n            EIP712_MEMBER_REGISTER_TYPEHASH,\n            obj.chainId,\n            obj.verifyingContract,\n            obj.member,\n            obj.registered,\n            keccak256(bytes(obj.eula)),\n            keccak256(bytes(obj.profile))\n        ));\n    }\n\n    function hash (EIP712MarketCreate memory obj) private pure returns (bytes32) {\n        return keccak256(abi.encode(\n            EIP712_MARKET_CREATE_TYPEHASH,\n            obj.chainId,\n            obj.verifyingContract,\n            obj.marketId,\n            obj.terms,\n            obj.meta,\n            obj.maker,\n            obj.providerSecurity,\n            obj.consumerSecurity,\n            obj.marketFee,\n            keccak256(bytes(obj.meta))\n        ));\n    }\n\n    function hash (EIP712MarketJoin memory obj) private pure returns (bytes32) {\n        return keccak256(abi.encode(\n            EIP712_MARKET_JOIN_TYPEHASH,\n            obj.chainId,\n            obj.verifyingContract,\n            obj.member,\n            obj.joined,\n            obj.marketId,\n            obj.actorType,\n            keccak256(bytes(obj.meta))\n        ));\n    }\n\n    function hash (EIP712ChannelOpen memory obj) private pure returns (bytes32) {\n        return keccak256(abi.encode(\n            EIP712_CHANNEL_OPEN_TYPEHASH,\n            obj.chainId,\n            obj.verifyingContract\n        ));\n    }\n\n    function hash (EIP712ChannelClose memory obj) private pure returns (bytes32) {\n        return keccak256(abi.encode(\n            EIP712_CHANNEL_CLOSE_TYPEHASH,\n            obj.chainId,\n            obj.verifyingContract,\n            obj.channel_adr,\n            obj.channel_seq,\n            obj.balance,\n            obj.is_final\n        ));\n    }\n\n    function verify (address signer, EIP712MemberRegister memory obj,\n        bytes memory signature) public pure returns (bool) {\n\n        (uint8 v, bytes32 r, bytes32 s) = splitSignature(signature);\n\n        bytes32 digest = keccak256(abi.encodePacked(\n            \"\\x19\\x01\",\n            domainSeparator(),\n            hash(obj)\n        ));\n\n        return ecrecover(digest, v, r, s) == signer;\n    }\n\n    function verify (address signer, EIP712MarketCreate memory obj,\n        bytes memory signature) public pure returns (bool) {\n\n        (uint8 v, bytes32 r, bytes32 s) = splitSignature(signature);\n\n        bytes32 digest = keccak256(abi.encodePacked(\n            \"\\x19\\x01\",\n            domainSeparator(),\n            hash(obj)\n        ));\n\n        return ecrecover(digest, v, r, s) == signer;\n    }\n\n    function verify (address signer, EIP712MarketJoin memory obj,\n        bytes memory signature) public pure returns (bool) {\n\n        (uint8 v, bytes32 r, bytes32 s) = splitSignature(signature);\n\n        bytes32 digest = keccak256(abi.encodePacked(\n            \"\\x19\\x01\",\n            domainSeparator(),\n            hash(obj)\n        ));\n\n        return ecrecover(digest, v, r, s) == signer;\n    }\n\n    function verify (address signer, EIP712ChannelOpen memory obj,\n        bytes memory signature) public pure returns (bool) {\n\n        (uint8 v, bytes32 r, bytes32 s) = splitSignature(signature);\n\n        bytes32 digest = keccak256(abi.encodePacked(\n            \"\\x19\\x01\",\n            domainSeparator(),\n            hash(obj)\n        ));\n\n        return ecrecover(digest, v, r, s) == signer;\n    }\n\n    function verify (address signer, EIP712ChannelClose memory obj,\n        bytes memory signature) public pure returns (bool) {\n\n        (uint8 v, bytes32 r, bytes32 s) = splitSignature(signature);\n\n        bytes32 digest = keccak256(abi.encodePacked(\n            \"\\x19\\x01\",\n            domainSeparator(),\n            hash(obj)\n        ));\n\n        return ecrecover(digest, v, r, s) == signer;\n    }\n}\n",
  "sourcePath": "/home/oberstet/scm/crossbario/xbr-protocol/contracts/XBRTypes.sol",
  "compiler": {
    "name": "solc",
    "version": "0.5.16+commit.9c3226ce.Emscripten.clang"
  },
  "schemaVersion": "3.0.23",
  "updatedAt": "2020-03-01T15:48:32.168Z",
  "devdoc": {
    "author": "The XBR Project",
    "methods": {},
    "title": "XBR domain types and helper functions."
  },
  "userdoc": {
    "methods": {}
  }
}