{
  "contractName": "XBRTypes",
  "abi": [
    {
      "constant": true,
      "inputs": [
        {
          "internalType": "address",
          "name": "signer",
          "type": "address"
        },
        {
          "components": [
            {
              "internalType": "uint256",
              "name": "chainId",
              "type": "uint256"
            },
            {
              "internalType": "address",
              "name": "verifyingContract",
              "type": "address"
            },
            {
              "internalType": "address",
              "name": "member",
              "type": "address"
            },
            {
              "internalType": "uint256",
              "name": "created",
              "type": "uint256"
            },
            {
              "internalType": "bytes16",
              "name": "marketId",
              "type": "bytes16"
            },
            {
              "internalType": "address",
              "name": "coin",
              "type": "address"
            },
            {
              "internalType": "string",
              "name": "terms",
              "type": "string"
            },
            {
              "internalType": "string",
              "name": "meta",
              "type": "string"
            },
            {
              "internalType": "address",
              "name": "maker",
              "type": "address"
            },
            {
              "internalType": "uint256",
              "name": "marketFee",
              "type": "uint256"
            }
          ],
          "internalType": "struct XBRTypes.EIP712MarketCreate",
          "name": "obj",
          "type": "tuple"
        },
        {
          "internalType": "bytes",
          "name": "signature",
          "type": "bytes"
        }
      ],
      "name": "verify",
      "outputs": [
        {
          "internalType": "bool",
          "name": "",
          "type": "bool"
        }
      ],
      "payable": false,
      "stateMutability": "pure",
      "type": "function"
    },
    {
      "constant": true,
      "inputs": [
        {
          "internalType": "address",
          "name": "signer",
          "type": "address"
        },
        {
          "components": [
            {
              "internalType": "uint256",
              "name": "chainId",
              "type": "uint256"
            },
            {
              "internalType": "address",
              "name": "verifyingContract",
              "type": "address"
            },
            {
              "internalType": "uint8",
              "name": "ctype",
              "type": "uint8"
            },
            {
              "internalType": "uint256",
              "name": "openedAt",
              "type": "uint256"
            },
            {
              "internalType": "bytes16",
              "name": "marketId",
              "type": "bytes16"
            },
            {
              "internalType": "bytes16",
              "name": "channelId",
              "type": "bytes16"
            },
            {
              "internalType": "address",
              "name": "actor",
              "type": "address"
            },
            {
              "internalType": "address",
              "name": "delegate",
              "type": "address"
            },
            {
              "internalType": "address",
              "name": "marketmaker",
              "type": "address"
            },
            {
              "internalType": "address",
              "name": "recipient",
              "type": "address"
            },
            {
              "internalType": "uint256",
              "name": "amount",
              "type": "uint256"
            },
            {
              "internalType": "uint32",
              "name": "timeout",
              "type": "uint32"
            }
          ],
          "internalType": "struct XBRTypes.EIP712ChannelOpen",
          "name": "obj",
          "type": "tuple"
        },
        {
          "internalType": "bytes",
          "name": "signature",
          "type": "bytes"
        }
      ],
      "name": "verify",
      "outputs": [
        {
          "internalType": "bool",
          "name": "",
          "type": "bool"
        }
      ],
      "payable": false,
      "stateMutability": "pure",
      "type": "function"
    },
    {
      "constant": true,
      "inputs": [
        {
          "internalType": "address",
          "name": "signer",
          "type": "address"
        },
        {
          "components": [
            {
              "internalType": "uint256",
              "name": "chainId",
              "type": "uint256"
            },
            {
              "internalType": "address",
              "name": "verifyingContract",
              "type": "address"
            },
            {
              "internalType": "address",
              "name": "member",
              "type": "address"
            },
            {
              "internalType": "uint256",
              "name": "registered",
              "type": "uint256"
            },
            {
              "internalType": "string",
              "name": "eula",
              "type": "string"
            },
            {
              "internalType": "string",
              "name": "profile",
              "type": "string"
            }
          ],
          "internalType": "struct XBRTypes.EIP712MemberRegister",
          "name": "obj",
          "type": "tuple"
        },
        {
          "internalType": "bytes",
          "name": "signature",
          "type": "bytes"
        }
      ],
      "name": "verify",
      "outputs": [
        {
          "internalType": "bool",
          "name": "",
          "type": "bool"
        }
      ],
      "payable": false,
      "stateMutability": "pure",
      "type": "function"
    },
    {
      "constant": true,
      "inputs": [
        {
          "internalType": "address",
          "name": "signer",
          "type": "address"
        },
        {
          "components": [
            {
              "internalType": "uint256",
              "name": "chainId",
              "type": "uint256"
            },
            {
              "internalType": "address",
              "name": "verifyingContract",
              "type": "address"
            },
            {
              "internalType": "address",
              "name": "member",
              "type": "address"
            },
            {
              "internalType": "uint256",
              "name": "updated",
              "type": "uint256"
            },
            {
              "internalType": "bytes16",
              "name": "marketId",
              "type": "bytes16"
            },
            {
              "internalType": "address",
              "name": "delegate",
              "type": "address"
            },
            {
              "internalType": "uint8",
              "name": "delegateType",
              "type": "uint8"
            },
            {
              "internalType": "bytes16",
              "name": "apiCatalog",
              "type": "bytes16"
            },
            {
              "internalType": "bool",
              "name": "consent",
              "type": "bool"
            },
            {
              "internalType": "string",
              "name": "servicePrefix",
              "type": "string"
            }
          ],
          "internalType": "struct XBRTypes.EIP712Consent",
          "name": "obj",
          "type": "tuple"
        },
        {
          "internalType": "bytes",
          "name": "signature",
          "type": "bytes"
        }
      ],
      "name": "verify",
      "outputs": [
        {
          "internalType": "bool",
          "name": "",
          "type": "bool"
        }
      ],
      "payable": false,
      "stateMutability": "pure",
      "type": "function"
    },
    {
      "constant": true,
      "inputs": [
        {
          "internalType": "address",
          "name": "signer",
          "type": "address"
        },
        {
          "components": [
            {
              "internalType": "uint256",
              "name": "chainId",
              "type": "uint256"
            },
            {
              "internalType": "address",
              "name": "verifyingContract",
              "type": "address"
            },
            {
              "internalType": "bytes16",
              "name": "marketId",
              "type": "bytes16"
            },
            {
              "internalType": "bytes16",
              "name": "channelId",
              "type": "bytes16"
            },
            {
              "internalType": "uint32",
              "name": "channelSeq",
              "type": "uint32"
            },
            {
              "internalType": "uint256",
              "name": "balance",
              "type": "uint256"
            },
            {
              "internalType": "bool",
              "name": "isFinal",
              "type": "bool"
            }
          ],
          "internalType": "struct XBRTypes.EIP712ChannelClose",
          "name": "obj",
          "type": "tuple"
        },
        {
          "internalType": "bytes",
          "name": "signature",
          "type": "bytes"
        }
      ],
      "name": "verify",
      "outputs": [
        {
          "internalType": "bool",
          "name": "",
          "type": "bool"
        }
      ],
      "payable": false,
      "stateMutability": "pure",
      "type": "function"
    },
    {
      "constant": true,
      "inputs": [
        {
          "internalType": "address",
          "name": "signer",
          "type": "address"
        },
        {
          "components": [
            {
              "internalType": "uint256",
              "name": "chainId",
              "type": "uint256"
            },
            {
              "internalType": "address",
              "name": "verifyingContract",
              "type": "address"
            },
            {
              "internalType": "address",
              "name": "member",
              "type": "address"
            },
            {
              "internalType": "uint256",
              "name": "created",
              "type": "uint256"
            },
            {
              "internalType": "bytes16",
              "name": "catalogId",
              "type": "bytes16"
            },
            {
              "internalType": "string",
              "name": "terms",
              "type": "string"
            },
            {
              "internalType": "string",
              "name": "meta",
              "type": "string"
            }
          ],
          "internalType": "struct XBRTypes.EIP712CatalogCreate",
          "name": "obj",
          "type": "tuple"
        },
        {
          "internalType": "bytes",
          "name": "signature",
          "type": "bytes"
        }
      ],
      "name": "verify",
      "outputs": [
        {
          "internalType": "bool",
          "name": "",
          "type": "bool"
        }
      ],
      "payable": false,
      "stateMutability": "pure",
      "type": "function"
    },
    {
      "constant": true,
      "inputs": [
        {
          "internalType": "address",
          "name": "signer",
          "type": "address"
        },
        {
          "components": [
            {
              "internalType": "uint256",
              "name": "chainId",
              "type": "uint256"
            },
            {
              "internalType": "address",
              "name": "verifyingContract",
              "type": "address"
            },
            {
              "internalType": "address",
              "name": "member",
              "type": "address"
            },
            {
              "internalType": "uint256",
              "name": "joined",
              "type": "uint256"
            },
            {
              "internalType": "bytes16",
              "name": "marketId",
              "type": "bytes16"
            },
            {
              "internalType": "uint8",
              "name": "actorType",
              "type": "uint8"
            },
            {
              "internalType": "string",
              "name": "meta",
              "type": "string"
            }
          ],
          "internalType": "struct XBRTypes.EIP712MarketJoin",
          "name": "obj",
          "type": "tuple"
        },
        {
          "internalType": "bytes",
          "name": "signature",
          "type": "bytes"
        }
      ],
      "name": "verify",
      "outputs": [
        {
          "internalType": "bool",
          "name": "",
          "type": "bool"
        }
      ],
      "payable": false,
      "stateMutability": "pure",
      "type": "function"
    },
    {
      "constant": true,
      "inputs": [
        {
          "internalType": "address",
          "name": "signer",
          "type": "address"
        },
        {
          "components": [
            {
              "internalType": "uint256",
              "name": "chainId",
              "type": "uint256"
            },
            {
              "internalType": "address",
              "name": "verifyingContract",
              "type": "address"
            },
            {
              "internalType": "address",
              "name": "member",
              "type": "address"
            },
            {
              "internalType": "uint256",
              "name": "published",
              "type": "uint256"
            },
            {
              "internalType": "bytes16",
              "name": "catalogId",
              "type": "bytes16"
            },
            {
              "internalType": "bytes16",
              "name": "apiId",
              "type": "bytes16"
            },
            {
              "internalType": "string",
              "name": "schema",
              "type": "string"
            },
            {
              "internalType": "string",
              "name": "meta",
              "type": "string"
            }
          ],
          "internalType": "struct XBRTypes.EIP712ApiPublish",
          "name": "obj",
          "type": "tuple"
        },
        {
          "internalType": "bytes",
          "name": "signature",
          "type": "bytes"
        }
      ],
      "name": "verify",
      "outputs": [
        {
          "internalType": "bool",
          "name": "",
          "type": "bool"
        }
      ],
      "payable": false,
      "stateMutability": "pure",
      "type": "function"
    }
  ],
  "bytecode": "0x611f0c610026600b82828239805160001a60731461001957fe5b30600052607381538281f3fe73000000000000000000000000000000000000000030146080604052600436106100925760003560e01c8063989a750a11610065578063989a750a146100f9578063a07369401461010c578063bc0625321461011f578063efc9731c1461013257610092565b80630c5524ee1461009757806310e78f7d146100c05780633402ce01146100d35780638fc8980a146100e6575b600080fd5b6100aa6100a536600461105d565b610145565b6040516100b79190611945565b60405180910390f35b6100aa6100ce366004610fc4565b610206565b6100aa6100e13660046110ef565b61022e565b6100aa6100f4366004611014565b610256565b6100aa610107366004610f74565b61027e565b6100aa61011a366004610f2b565b6102a6565b6100aa61012d3660046110a6565b6102ce565b6100aa610140366004610eb0565b6102f6565b6000806000806101548561031e565b925092509250600061016461037b565b61016d886103d3565b60405160200161017e9291906118bc565b604051602081830303815290604052805190602001209050876001600160a01b0316600182868686604051600081526020016040526040516101c39493929190611d8c565b6020604051602081039080840390855afa1580156101e5573d6000803e3d6000fd5b505050602060405103516001600160a01b0316149450505050509392505050565b6000806000806102158561031e565b925092509250600061022561037b565b61016d88610462565b60008060008061023d8561031e565b925092509250600061024d61037b565b61016d886104cd565b6000806000806102658561031e565b925092509250600061027561037b565b61016d88610525565b60008060008061028d8561031e565b925092509250600061029d61037b565b61016d88610590565b6000806000806102b58561031e565b92509250925060006102c561037b565b61016d886105e0565b6000806000806102dd8561031e565b92509250925060006102ed61037b565b61016d8861063e565b6000806000806103058561031e565b925092509250600061031561037b565b61016d88610695565b6000806000835160411461034d5760405162461bcd60e51b815260040161034490611dca565b60405180910390fd5b50505060208101516040820151604183015160ff169190601b83101561037457601b830192505b9193909250565b60006103ce6040518060400160405280604051806040016040528060038152602001622c212960e91b8152508152602001604051806040016040528060018152602001603160f81b8152508152506106f9565b905090565b60006040516103e1906118ed565b6040518091039020826000015183602001518460400151856060015186608001518760a001518860c00151805190602001208960e00151805190602001208a61010001518b61012001516040516020016104459b9a99989796959493929190611983565b604051602081830303815290604052805190602001209050919050565b600060405161047090611924565b6040518091039020826000015183602001518460400151856060015186608001518760a001518860c001518960e001518a61012001518b61014001518c61016001516040516020016104459c9b9a99989796959493929190611cd9565b60006040516104db90611919565b604051809103902082600001518360200151846040015185606001518660800151805190602001208760a00151805190602001206040516020016104459796959493929190611c07565b600060405161053390611903565b6040518091039020826000015183602001518460400151856060015186608001518760a001518860c001518960e001518a61010001518b6101200151805190602001206040516020016104459b9a99989796959493929190611a27565b600060405161059e906118b1565b6040518091039020826000015183602001518460400151856060015186608001518760a001518860c00151604051602001610445989796959493929190611c6f565b60006040516105ee9061190e565b6040518091039020826000015183602001518460400151856060015186608001518760a00151805190602001208860c0015180519060200120604051602001610445989796959493929190611b33565b600060405161064c906118f8565b6040518091039020826000015183602001518460400151856060015186608001518760a001518860c0015180519060200120604051602001610445989796959493929190611baa565b60006040516106a39061193a565b6040518091039020826000015183602001518460400151856060015186608001518760a001518860c00151805190602001208960e001518051906020012060405160200161044599989796959493929190611aad565b60006040516107079061192f565b6040519081900381208351805160209182012081860151805190830120610445949192909101611953565b803561073d81611e85565b92915050565b803561073d81611e9c565b803561073d81611ea5565b600082601f83011261076a57600080fd5b813561077d61077882611e00565b611dda565b9150808252602083016020830185838301111561079957600080fd5b6107a4838284611e79565b50505092915050565b600061010082840312156107c057600080fd5b6107cb610100611dda565b905060006107d98484610e8f565b82525060206107ea84848301610732565b60208301525060406107fe84828501610732565b604083015250606061081284828501610e8f565b60608301525060806108268482850161074e565b60808301525060a061083a8482850161074e565b60a08301525060c08201356001600160401b0381111561085957600080fd5b61086584828501610759565b60c08301525060e08201356001600160401b0381111561088457600080fd5b61089084828501610759565b60e08301525092915050565b600060e082840312156108ae57600080fd5b6108b860e0611dda565b905060006108c68484610e8f565b82525060206108d784848301610732565b60208301525060406108eb84828501610732565b60408301525060606108ff84828501610e8f565b60608301525060806109138482850161074e565b60808301525060a08201356001600160401b0381111561093257600080fd5b61093e84828501610759565b60a08301525060c08201356001600160401b0381111561095d57600080fd5b61096984828501610759565b60c08301525092915050565b600060e0828403121561098757600080fd5b61099160e0611dda565b9050600061099f8484610e8f565b82525060206109b084848301610732565b60208301525060406109c48482850161074e565b60408301525060606109d88482850161074e565b60608301525060806109ec84828501610e9a565b60808301525060a0610a0084828501610e8f565b60a08301525060c061096984828501610743565b60006101808284031215610a2757600080fd5b610a32610180611dda565b90506000610a408484610e8f565b8252506020610a5184848301610732565b6020830152506040610a6584828501610ea5565b6040830152506060610a7984828501610e8f565b6060830152506080610a8d8482850161074e565b60808301525060a0610aa18482850161074e565b60a08301525060c0610ab584828501610732565b60c08301525060e0610ac984828501610732565b60e083015250610100610ade84828501610732565b61010083015250610120610af484828501610732565b61012083015250610140610b0a84828501610e8f565b61014083015250610160610b2084828501610e9a565b6101608301525092915050565b60006101408284031215610b4057600080fd5b610b4b610140611dda565b90506000610b598484610e8f565b8252506020610b6a84848301610732565b6020830152506040610b7e84828501610732565b6040830152506060610b9284828501610e8f565b6060830152506080610ba68482850161074e565b60808301525060a0610bba84828501610732565b60a08301525060c0610bce84828501610ea5565b60c08301525060e0610be28482850161074e565b60e083015250610100610bf784828501610743565b610100830152506101208201356001600160401b03811115610c1857600080fd5b610c2484828501610759565b6101208301525092915050565b60006101408284031215610c4457600080fd5b610c4f610140611dda565b90506000610c5d8484610e8f565b8252506020610c6e84848301610732565b6020830152506040610c8284828501610732565b6040830152506060610c9684828501610e8f565b6060830152506080610caa8482850161074e565b60808301525060a0610cbe84828501610732565b60a08301525060c08201356001600160401b03811115610cdd57600080fd5b610ce984828501610759565b60c08301525060e08201356001600160401b03811115610d0857600080fd5b610d1484828501610759565b60e083015250610100610d2984828501610732565b61010083015250610120610c2484828501610e8f565b600060e08284031215610d5157600080fd5b610d5b60e0611dda565b90506000610d698484610e8f565b8252506020610d7a84848301610732565b6020830152506040610d8e84828501610732565b6040830152506060610da284828501610e8f565b6060830152506080610db68482850161074e565b60808301525060a061093e84828501610ea5565b600060c08284031215610ddc57600080fd5b610de660c0611dda565b90506000610df48484610e8f565b8252506020610e0584848301610732565b6020830152506040610e1984828501610732565b6040830152506060610e2d84828501610e8f565b60608301525060808201356001600160401b03811115610e4c57600080fd5b610e5884828501610759565b60808301525060a08201356001600160401b03811115610e7757600080fd5b610e8384828501610759565b60a08301525092915050565b803561073d81611eae565b803561073d81611eb7565b803561073d81611ec0565b600080600060608486031215610ec557600080fd5b6000610ed18686610732565b93505060208401356001600160401b03811115610eed57600080fd5b610ef9868287016107ad565b92505060408401356001600160401b03811115610f1557600080fd5b610f2186828701610759565b9150509250925092565b600080600060608486031215610f4057600080fd5b6000610f4c8686610732565b93505060208401356001600160401b03811115610f6857600080fd5b610ef98682870161089c565b60008060006101208486031215610f8a57600080fd5b6000610f968686610732565b9350506020610fa786828701610975565b9250506101008401356001600160401b03811115610f1557600080fd5b60008060006101c08486031215610fda57600080fd5b6000610fe68686610732565b9350506020610ff786828701610a14565b9250506101a08401356001600160401b03811115610f1557600080fd5b60008060006060848603121561102957600080fd5b60006110358686610732565b93505060208401356001600160401b0381111561105157600080fd5b610ef986828701610b2d565b60008060006060848603121561107257600080fd5b600061107e8686610732565b93505060208401356001600160401b0381111561109a57600080fd5b610ef986828701610c31565b6000806000606084860312156110bb57600080fd5b60006110c78686610732565b93505060208401356001600160401b038111156110e357600080fd5b610ef986828701610d3f565b60008060006060848603121561110457600080fd5b60006111108686610732565b93505060208401356001600160401b0381111561112c57600080fd5b610ef986828701610dca565b61114181611e35565b82525050565b61114181611e40565b61114181611e45565b61114181611e5b565b61114161116e82611e5b565b611e5b565b6000611180608f83611e30565b7f4549503731324368616e6e656c436c6f73652875696e7432353620636861696e81527f49642c6164647265737320766572696679696e67436f6e74726163742c62797460208201527f65733136206d61726b657449642c62797465733136206368616e6e656c49642c60408201527f75696e743332206368616e6e656c5365712c75696e743235362062616c616e6360608201526e652c626f6f6c20697346696e616c2960881b6080820152608f0192915050565b6000611243600283611e30565b61190160f01b815260020192915050565b600061126160b383611e30565b7f4549503731324d61726b65744372656174652875696e7432353620636861696e81527f49642c6164647265737320766572696679696e67436f6e74726163742c61646460208201527f72657373206d656d6265722c75696e7432353620637265617465642c6279746560408201527f733136206d61726b657449642c6164647265737320636f696e2c737472696e6760608201527f207465726d732c737472696e67206d6574612c61646472657373206d616b65726080820152722c75696e74323536206d61726b65744665652960681b60a082015260b30192915050565b600061134e608683611e30565b7f4549503731324d61726b65744a6f696e2875696e7432353620636861696e496481527f2c6164647265737320766572696679696e67436f6e74726163742c616464726560208201527f7373206d656d6265722c75696e74323536206a6f696e65642c6279746573313660408201527f206d61726b657449642c75696e7438206163746f72547970652c737472696e67606082015265206d6574612960d01b608082015260860192915050565b600061140860ac83611e30565b7f454950373132436f6e73656e742875696e7432353620636861696e49642c616481527f647265737320766572696679696e67436f6e74726163742c616464726573732060208201527f6d656d6265722c75696e7432353620757064617465642c62797465733136206d60408201527f61726b657449642c616464726573732064656c65676174652c75696e7438206460608201527f656c6567617465547970652c6279746573313620617069436174616c6f672c6260808201526b6f6f6c20636f6e73656e742960a01b60a082015260ac0192915050565b60006114ee608883611e30565b7f454950373132436174616c6f674372656174652875696e74323536206368616981527f6e49642c6164647265737320766572696679696e67436f6e74726163742c616460208201527f6472657373206d656d6265722c75696e7432353620637265617465642c62797460408201527f6573313620636174616c6f6749642c737472696e67207465726d732c737472696060820152676e67206d6574612960c01b608082015260880192915050565b60006115aa607c83611e30565b7f4549503731324d656d62657252656769737465722875696e743235362063686181527f696e49642c6164647265737320766572696679696e67436f6e74726163742c6160208201527f646472657373206d656d6265722c75696e74323536207265676973746572656460408201527f2c737472696e672065756c612c737472696e672070726f66696c6529000000006060820152607c0192915050565b600061165560cb83611e30565b7f4549503731324368616e6e656c4f70656e2875696e7432353620636861696e4981527f642c6164647265737320766572696679696e67436f6e74726163742c75696e7460208201527f382063747970652c75696e74323536206f70656e656441742c6279746573313660408201527f206d61726b657449642c62797465733136206368616e6e656c49642c6164647260608201527f657373206163746f722c616464726573732064656c65676174652c616464726560808201527f737320726563697069656e742c75696e7432353620616d6f756e742c75696e7460a08201526a33322074696d656f75742960a81b60c082015260cb0192915050565b6000611760601883611e27565b7f494e56414c49445f5349474e41545552455f4c454e4754480000000000000000815260200192915050565b6000611799602883611e30565b7f454950373132446f6d61696e28737472696e67206e616d652c737472696e672081526776657273696f6e2960c01b602082015260280192915050565b60006117e3609583611e30565b7f4549503731324170695075626c6973682875696e7432353620636861696e496481527f2c6164647265737320766572696679696e67436f6e74726163742c616464726560208201527f7373206d656d6265722c75696e74323536207075626c69736865642c6279746560408201527f73313620636174616c6f6749642c627974657331362061706949642c737472696060820152746e67207465726d732c737472696e67206d6574612960581b608082015260950192915050565b61114181611e6a565b61114181611e73565b600061073d82611173565b60006118c782611236565b91506118d38285611162565b6020820191506118e38284611162565b5060200192915050565b600061073d82611254565b600061073d82611341565b600061073d826113fb565b600061073d826114e1565b600061073d8261159d565b600061073d82611648565b600061073d8261178c565b600061073d826117d6565b6020810161073d8284611147565b606081016119618286611159565b61196e6020830185611159565b61197b6040830184611159565b949350505050565b6101608101611992828e611159565b61199f602083018d611159565b6119ac604083018c611138565b6119b9606083018b611138565b6119c6608083018a611159565b6119d360a0830189611150565b6119e060c0830188611138565b6119ed60e0830187611159565b6119fb610100830186611159565b611a09610120830185611138565b611a17610140830184611159565b9c9b505050505050505050505050565b6101608101611a36828e611159565b611a43602083018d611159565b611a50604083018c611138565b611a5d606083018b611138565b611a6a608083018a611159565b611a7760a0830189611150565b611a8460c0830188611138565b611a9160e08301876118a8565b611a9f610100830186611150565b611a09610120830185611147565b6101208101611abc828c611159565b611ac9602083018b611159565b611ad6604083018a611138565b611ae36060830189611138565b611af06080830188611159565b611afd60a0830187611150565b611b0a60c0830186611150565b611b1760e0830185611159565b611b25610100830184611159565b9a9950505050505050505050565b6101008101611b42828b611159565b611b4f602083018a611159565b611b5c6040830189611138565b611b696060830188611138565b611b766080830187611159565b611b8360a0830186611150565b611b9060c0830185611159565b611b9d60e0830184611159565b9998505050505050505050565b6101008101611bb9828b611159565b611bc6602083018a611159565b611bd36040830189611138565b611be06060830188611138565b611bed6080830187611159565b611bfa60a0830186611150565b611b9060c08301856118a8565b60e08101611c15828a611159565b611c226020830189611159565b611c2f6040830188611138565b611c3c6060830187611138565b611c496080830186611159565b611c5660a0830185611159565b611c6360c0830184611159565b98975050505050505050565b6101008101611c7e828b611159565b611c8b602083018a611159565b611c986040830189611138565b611ca56060830188611150565b611cb26080830187611150565b611cbf60a083018661189f565b611ccc60c0830185611159565b611b9d60e0830184611147565b6101808101611ce8828f611159565b611cf5602083018e611159565b611d02604083018d611138565b611d0f606083018c6118a8565b611d1c608083018b611159565b611d2960a083018a611150565b611d3660c0830189611150565b611d4360e0830188611138565b611d51610100830187611138565b611d5f610120830186611138565b611d6d610140830185611159565b611d7b61016083018461189f565b9d9c50505050505050505050505050565b60808101611d9a8287611159565b611da760208301866118a8565b611db46040830185611159565b611dc16060830184611159565b95945050505050565b6020808252810161073d81611753565b6040518181016001600160401b0381118282101715611df857600080fd5b604052919050565b60006001600160401b03821115611e1657600080fd5b506020601f91909101601f19160190565b90815260200190565b919050565b600061073d82611e5e565b151590565b6fffffffffffffffffffffffffffffffff191690565b90565b6001600160a01b031690565b63ffffffff1690565b60ff1690565b82818337506000910152565b611e8e81611e35565b8114611e9957600080fd5b50565b611e8e81611e40565b611e8e81611e45565b611e8e81611e5b565b611e8e81611e6a565b611e8e81611e7356fea365627a7a72315820881b8c5583b52ffe5081d33bce8d8250c05f5219b2c179af2436a520b53c6e5c6c6578706572696d656e74616cf564736f6c63430005100040",
  "source": "///////////////////////////////////////////////////////////////////////////////\n//\n//  Copyright (C) 2018-2020 Crossbar.io Technologies GmbH and contributors.\n//\n//  Licensed under the Apache License, Version 2.0 (the \"License\");\n//  you may not use this file except in compliance with the License.\n//  You may obtain a copy of the License at\n//\n//      http://www.apache.org/licenses/LICENSE-2.0\n//\n//  Unless required by applicable law or agreed to in writing, software\n//  distributed under the License is distributed on an \"AS IS\" BASIS,\n//  WITHOUT WARRANTIES OR CONDITIONS OF ANY KIND, either express or implied.\n//  See the License for the specific language governing permissions and\n//  limitations under the License.\n//\n///////////////////////////////////////////////////////////////////////////////\n\npragma solidity ^0.5.12;\npragma experimental ABIEncoderV2;\n\n\n/**\n * The `XBR Types <https://github.com/crossbario/xbr-protocol/blob/master/contracts/XBRTypes.sol>`__\n * library collect XBR type definitions used throughout the other XBR contracts.\n */\nlibrary XBRTypes {\n\n    /// All XBR network member levels defined.\n    enum MemberLevel { NULL, ACTIVE, VERIFIED, RETIRED, PENALTY, BLOCKED }\n\n    /// All XBR market actor types defined.\n    enum ActorType { NULL, PROVIDER, CONSUMER }\n\n    /// All XBR state channel types defined.\n    enum ChannelType { NULL, PAYMENT, PAYING }\n\n    /// All XBR state channel states defined.\n    enum ChannelState { NULL, OPEN, CLOSING, CLOSED, FAILED }\n\n    /// Container type for holding XBR network membership information.\n    struct Member {\n        /// Block number when the member was (initially) registered in the XBR network.\n        uint256 registered;\n\n        /// The IPFS Multihash of the XBR EULA being agreed to and stored as one\n        /// ZIP file archive on IPFS.\n        string eula;\n\n        /// Optional public member profile. An IPFS Multihash of the member profile\n        /// stored in IPFS.\n        string profile;\n\n        /// Current member level.\n        MemberLevel level;\n\n        /// If the transaction to join the XBR network as a new member was was pre-signed\n        /// off-chain by the new member, this is the signature the user supplied. If the\n        /// user on-boarded by directly interacting with the XBR contracts on-chain, this\n        /// will be empty.\n        bytes signature;\n    }\n\n    /// Container type for holding XBR market actor information.\n    struct Actor {\n        /// Block number when the actor has joined the respective market.\n        uint256 joined;\n\n        /// Security deposited by the actor when joining the market.\n        uint256 security;\n\n        /// Metadata attached to an actor in a market.\n        string meta;\n\n        /// This is the signature the user (actor) supplied for joining a market.\n        bytes signature;\n\n        /// All payment (paying) channels of the respective buyer (seller) actor.\n        address[] channels;\n    }\n\n    /// Container type for holding XBR market information.\n    struct Market {\n        /// Block number when the market was created.\n        uint256 created;\n\n        /// Market sequence number.\n        uint32 seq;\n\n        /// Market owner (aka \"market operator\").\n        address owner;\n\n        /// The coin (ERC20 token) to be used in the market as the means of payment.\n        address coin;\n\n        /// Market terms (IPFS Multihash).\n        string terms;\n\n        /// Market metadata (IPFS Multihash).\n        string meta;\n\n        /// Market maker address.\n        address maker;\n\n        /// Security deposit required by data providers (sellers) to join the market.\n        uint256 providerSecurity;\n\n        /// Security deposit required by data consumers (buyers) to join the market.\n        uint256 consumerSecurity;\n\n        /// Market fee rate for the market operator.\n        uint256 marketFee;\n\n        /// This is the signature the user (market owner/operator) supplied for opening the market.\n        bytes signature;\n\n        /// Adresses of provider (seller) actors joined in the market.\n        address[] providerActorAdrs;\n\n        /// Adresses of consumer (buyer) actors joined in the market.\n        address[] consumerActorAdrs;\n\n        /// Provider (seller) actors joined in the market by actor address.\n        mapping(address => Actor) providerActors;\n\n        /// Consumer (buyer) actors joined in the market by actor address.\n        mapping(address => Actor) consumerActors;\n\n        /// Current payment channel by (buyer) delegate.\n        mapping(address => address) currentPaymentChannelByDelegate;\n\n        /// Current paying channel by (seller) delegate.\n        mapping(address => address) currentPayingChannelByDelegate;\n    }\n\n    /// Container type for holding XBR data service API information.\n    struct Api {\n        /// Block number when the API was added to the respective catalog.\n        uint256 published;\n\n        /// Multihash of API Flatbuffers schema (required).\n        string schema;\n\n        /// Multihash of API meta-data (optional).\n        string meta;\n\n        /// This is the signature the user (actor) supplied when publishing the API.\n        bytes signature;\n    }\n\n    /// Container type for holding XBR catalog information.\n    struct Catalog {\n        /// Block number when the catalog was created.\n        uint256 created;\n\n        /// Catalog sequence number.\n        uint32 seq;\n\n        /// Catalog owner (aka \"catalog publisher\").\n        address owner;\n\n        /// Catalog terms (IPFS Multihash).\n        string terms;\n\n        /// Catalog metadata (IPFS Multihash).\n        string meta;\n\n        /// This is the signature the member supplied for creating the catalog.\n        bytes signature;\n\n        /// The APIs part of this catalog.\n        mapping(bytes16 => Api) apis;\n    }\n\n    /// Container type for holding channel static information.\n    ///\n    /// NOTE: This struct has a companion struct `ChannelState` with all\n    /// varying state. The split-up is necessary as the EVM limits stack-depth\n    /// to 16, and we need more channel attributes than that.\n    struct Channel {\n        /// Block number when the channel was created.\n        uint256 created;\n\n        /// Channel sequence number.\n        uint32 seq;\n\n        /// Current payment channel type (either payment or paying channel).\n        ChannelType ctype;\n\n        /// The XBR Market ID this channel is operating payments (or payouts) for.\n        bytes16 marketId;\n\n        /// The off-chain market maker that operates this payment or paying channel.\n        address marketmaker;\n\n        /// The sender of the payments in this channel. Either a XBR consumer (for\n        /// payment channels) or the XBR market maker (for paying channels).\n        address actor;\n\n        /// The delegate of the channel, e.g. the XBR consumer delegate in case\n        /// of a payment channel or the XBR provider delegate in case of a paying\n        /// channel that is allowed to consume or provide data with off-chain\n        /// transactions and  payments running under this channel.\n        address delegate;\n\n        /// Recipient of the payments in this channel. Either the XBR market operator\n        /// (for payment channels) or a XBR provider (for paying channels).\n        address recipient;\n\n        /// Amount of tokens (denominated in the respective market token) held in\n        /// this channel (initially deposited by the actor).\n        uint256 amount;\n\n        /// Timeout in blocks with which the channel will be closed definitely in\n        /// a non-cooperative close. This is the grace period during which the channel\n        /// will wait for participants to submit their last signed transaction.\n        uint32 timeout;\n\n        /// Signature supplied (by the actor) when opening the channel.\n        bytes signature;\n    }\n\n    /// Container type for holding channel (closing) state information.\n    struct ChannelClosingState {\n        /// Current payment channel state.\n        ChannelState state;\n\n        /// Block timestamp when the channel was requested to close (before timeout).\n        uint256 closingAt;\n\n        /// When this channel is closing, the sequence number of the closing transaction.\n        uint32 closingSeq;\n\n        /// When this channel is closing, the off-chain closing balance of the closing transaction.\n        uint256 closingBalance;\n\n        /// Block timestamp when the channel was closed (finally, after the timeout).\n        uint256 closedAt;\n\n        /// When this channel has closed, the sequence number of the final accepted closing transaction.\n        uint32 closedSeq;\n\n        /// When this channel is closing, the closing balance of the final accepted closing transaction.\n        uint256 closedBalance;\n\n        /// Closing transaction signature by (buyer or seller) delegate supplied when requesting to close the channel.\n        bytes delegateSignature;\n\n        /// Closing transaction signature by market maker supplied when requesting to close the channel.\n        bytes marketmakerSignature;\n    }\n\n    /// EIP712 type for XBR as a type domain.\n    struct EIP712Domain {\n        /// The type domain name, makes signatures from different domains incompatible.\n        string  name;\n\n        /// The type domain version.\n        string  version;\n    }\n\n    /// EIP712 type for use in member registration.\n    struct EIP712MemberRegister {\n        /// Verifying chain ID, which binds the signature to that chain\n        /// for cross-chain replay-attack protection.\n        uint256 chainId;\n\n        /// Verifying contract address, which binds the signature to that address\n        /// for cross-contract replay-attack protection.\n        address verifyingContract;\n\n        /// Registered member address.\n        address member;\n\n        /// Block number when the member registered in the XBR network.\n        uint256 registered;\n\n        /// Multihash of EULA signed by the member when registering.\n        string eula;\n\n        /// Optional profile meta-data multihash.\n        string profile;\n    }\n\n    /// EIP712 type for use in catalog creation.\n    struct EIP712CatalogCreate {\n        /// Verifying chain ID, which binds the signature to that chain\n        /// for cross-chain replay-attack protection.\n        uint256 chainId;\n\n        /// Verifying contract address, which binds the signature to that address\n        /// for cross-contract replay-attack protection.\n        address verifyingContract;\n\n        /// The member that created the catalog.\n        address member;\n\n        /// Block number when the member registered in the XBR network.\n        uint256 created;\n\n        /// The ID of the catalog created (a 16 bytes UUID which is globally unique to that market).\n        bytes16 catalogId;\n\n        /// Multihash for the terms applying to this catalog.\n        string terms;\n\n        /// Multihash for optional meta-data supplied for the catalog.\n        string meta;\n    }\n\n    /// EIP712 type for use in publishing APIs to catalogs.\n    struct EIP712ApiPublish {\n        /// Verifying chain ID, which binds the signature to that chain\n        /// for cross-chain replay-attack protection.\n        uint256 chainId;\n\n        /// Verifying contract address, which binds the signature to that address\n        /// for cross-contract replay-attack protection.\n        address verifyingContract;\n\n        /// The XBR network member publishing the API.\n        address member;\n\n        /// Block number when the API was published to the catalog.\n        uint256 published;\n\n        /// The ID of the catalog the API is published to.\n        bytes16 catalogId;\n\n        /// The ID of the API published.\n        bytes16 apiId;\n\n        /// Multihash of API Flatbuffers schema (required).\n        string schema;\n\n        /// Multihash of API meta-data (optional).\n        string meta;\n    }\n\n    /// EIP712 type for use in market creation.\n    struct EIP712MarketCreate {\n        /// Verifying chain ID, which binds the signature to that chain\n        /// for cross-chain replay-attack protection.\n        uint256 chainId;\n\n        /// Verifying contract address, which binds the signature to that address\n        /// for cross-contract replay-attack protection.\n        address verifyingContract;\n\n        /// The member that created the catalog.\n        address member;\n\n        /// Block number when the market was created.\n        uint256 created;\n\n        /// The ID of the market created (a 16 bytes UUID which is globally unique to that market).\n        bytes16 marketId;\n\n        /// Coin used as means of payment in market. Must be an ERC20 compatible token.\n        address coin;\n\n        /// Multihash for the market terms applying to this market.\n        string terms;\n\n        /// Multihash for optional market meta-data supplied for the market.\n        string meta;\n\n        /// The address of the market maker responsible for this market. The market\n        /// maker of a market is the link between off-chain channels and on-chain channels,\n        /// and operates the channels by processing transactions.\n        address maker;\n\n        // FIXME: enabling the following  runs into stack-depth limit of 12!\n        //        => move to attributes (under \"meta\" multihash)\n\n        /// Any mandatory security that actors that join this market as data providers (selling data\n        /// as seller actors) must supply when joining this market. May be 0.\n        // uint256 providerSecurity;\n\n        /// Any mandatory security that actors that join this market as data consumer (buying data\n        /// as buyer actors) must supply when joining this market. May be 0.\n        // uint256 consumerSecurity;\n\n        /// The market fee that applies in this market. May be 0.\n        uint256 marketFee;\n    }\n\n    /// EIP712 type for use in joining markets.\n    struct EIP712MarketJoin {\n        /// Verifying chain ID, which binds the signature to that chain\n        /// for cross-chain replay-attack protection.\n        uint256 chainId;\n\n        /// Verifying contract address, which binds the signature to that address\n        /// for cross-contract replay-attack protection.\n        address verifyingContract;\n\n        /// The XBR network member joining the specified market as a market actor.\n        address member;\n\n        /// Block number when the member as joined the market,\n        uint256 joined;\n\n        /// The ID of the market joined.\n        bytes16 marketId;\n\n        /// The actor type as which to join, which can be \"buyer\" or \"seller\".\n        uint8 actorType;\n\n        /// Optional multihash for additional meta-data supplied\n        /// for the actor joining the market.\n        string meta;\n    }\n\n    /// EIP712 type for use in data consent tracking.\n    struct EIP712Consent {\n        /// Verifying chain ID, which binds the signature to that chain\n        /// for cross-chain replay-attack protection.\n        uint256 chainId;\n\n        /// Verifying contract address, which binds the signature to that address\n        /// for cross-contract replay-attack protection.\n        address verifyingContract;\n\n        /// The XBR network member joining the specified market as a market actor.\n        address member;\n\n        /// Block number when the member as joined the market,\n        uint256 updated;\n\n        /// The ID of the market joined.\n        bytes16 marketId;\n\n        /// Address of delegate consent (status) applies to.\n        address delegate;\n\n        /// The actor type as which to join, which can be \"buyer\" or \"seller\".\n        uint8 delegateType;\n\n        /// The ID of the market joined.\n        bytes16 apiCatalog;\n\n        /// Consent granted or revoked.\n        bool consent;\n\n        /// The WAMP URI prefix to be used by the delegate in the data plane realm.\n        string servicePrefix;\n    }\n\n    /// EIP712 type for use in opening channels. The initial opening of a channel\n    /// is one on-chain transaction (as is the final close), but all actual\n    /// in-channel transactions happen off-chain.\n    struct EIP712ChannelOpen {\n        /// Verifying chain ID, which binds the signature to that chain\n        /// for cross-chain replay-attack protection.\n        uint256 chainId;\n\n        /// Verifying contract address, which binds the signature to that address\n        /// for cross-contract replay-attack protection.\n        address verifyingContract;\n\n        /// The type of channel, can be payment channel (for use by buyer delegates) or\n        /// paying channel (for use by seller delegates).\n        uint8 ctype;\n\n        /// Block number when the channel was opened.\n        uint256 openedAt;\n\n        /// The ID of the market in which the channel was opened.\n        bytes16 marketId;\n\n        /// The ID of the channel created (a 16 bytes UUID which is globally unique to that\n        /// channel, in particular the channel ID is unique even across different markets).\n        bytes16 channelId;\n\n        /// The actor that created this channel.\n        address actor;\n\n        /// The delegate authorized to use this channel for off-chain transactions.\n        address delegate;\n\n        /// The address of the market maker that will operate the channel and\n        /// perform the off-chain transactions.\n        address marketmaker;\n\n        /// The final recipient of the payout from the channel when the channel is closed.\n        address recipient;\n\n        /// The amount of tokens initially put into this channel by the actor. The value is\n        /// denominated in the payment token used in the market.\n        uint256 amount;\n\n        /// The timeout that will apply in non-cooperative close scenarios when closing this channel.\n        uint32 timeout;\n    }\n\n    /// EIP712 type for use in closing channels.The final closing of a channel\n    /// is one on-chain transaction (as is the final close), but all actual\n    /// in-channel transactions happened before off-chain.\n    struct EIP712ChannelClose {\n        /// Verifying chain ID, which binds the signature to that chain\n        /// for cross-chain replay-attack protection.\n        uint256 chainId;\n\n        /// Verifying contract address, which binds the signature to that address\n        /// for cross-contract replay-attack protection.\n        address verifyingContract;\n\n        /// The ID of the market in which the channel to be closed was initially opened.\n        bytes16 marketId;\n\n        /// The ID of the channel to close.\n        bytes16 channelId;\n\n        /// The sequence number of the channel closed.\n        uint32 channelSeq;\n\n        /// The remaining closing balance at which the channel is closed.\n        uint256 balance;\n\n        /// Indication whether the data signed is considered final, which amounts\n        /// to a promise that no further, newer signed data will be supplied later.\n        bool isFinal;\n    }\n\n    /// EIP712 type data.\n    // solhint-disable-next-line\n    bytes32 constant EIP712_DOMAIN_TYPEHASH = keccak256(\"EIP712Domain(string name,string version)\");\n\n    /// EIP712 type data.\n    // solhint-disable-next-line\n    bytes32 constant EIP712_MEMBER_REGISTER_TYPEHASH = keccak256(\"EIP712MemberRegister(uint256 chainId,address verifyingContract,address member,uint256 registered,string eula,string profile)\");\n\n    /// EIP712 type data.\n    // solhint-disable-next-line\n    bytes32 constant EIP712_CATALOG_CREATE_TYPEHASH = keccak256(\"EIP712CatalogCreate(uint256 chainId,address verifyingContract,address member,uint256 created,bytes16 catalogId,string terms,string meta)\");\n\n    /// EIP712 type data.\n    // solhint-disable-next-line\n    bytes32 constant EIP712_API_PUBLISH_TYPEHASH = keccak256(\"EIP712ApiPublish(uint256 chainId,address verifyingContract,address member,uint256 published,bytes16 catalogId,bytes16 apiId,string terms,string meta)\");\n\n    /// EIP712 type data.\n    // solhint-disable-next-line\n    bytes32 constant EIP712_MARKET_CREATE_TYPEHASH = keccak256(\"EIP712MarketCreate(uint256 chainId,address verifyingContract,address member,uint256 created,bytes16 marketId,address coin,string terms,string meta,address maker,uint256 marketFee)\");\n    // solhint-disable-next-line\n    // bytes32 constant EIP712_MARKET_CREATE_TYPEHASH = keccak256(\"EIP712MarketCreate(uint256 chainId,address verifyingContract,address member,uint256 created,bytes16 marketId,address coin,string terms,string meta,address maker,uint256 providerSecurity,uint256 consumerSecurity,uint256 marketFee)\");\n\n    /// EIP712 type data.\n    // solhint-disable-next-line\n    bytes32 constant EIP712_MARKET_JOIN_TYPEHASH = keccak256(\"EIP712MarketJoin(uint256 chainId,address verifyingContract,address member,uint256 joined,bytes16 marketId,uint8 actorType,string meta)\");\n\n    /// EIP712 type data.\n    // solhint-disable-next-line\n    bytes32 constant EIP712_CONSENT_TYPEHASH = keccak256(\"EIP712Consent(uint256 chainId,address verifyingContract,address member,uint256 updated,bytes16 marketId,address delegate,uint8 delegateType,bytes16 apiCatalog,bool consent)\");\n\n    /// EIP712 type data.\n    // solhint-disable-next-line\n    bytes32 constant EIP712_CHANNEL_OPEN_TYPEHASH = keccak256(\"EIP712ChannelOpen(uint256 chainId,address verifyingContract,uint8 ctype,uint256 openedAt,bytes16 marketId,bytes16 channelId,address actor,address delegate,address recipient,uint256 amount,uint32 timeout)\");\n\n    /// EIP712 type data.\n    // solhint-disable-next-line\n    bytes32 constant EIP712_CHANNEL_CLOSE_TYPEHASH = keccak256(\"EIP712ChannelClose(uint256 chainId,address verifyingContract,bytes16 marketId,bytes16 channelId,uint32 channelSeq,uint256 balance,bool isFinal)\");\n\n    function splitSignature (bytes memory signature_rsv) private pure returns (uint8 v, bytes32 r, bytes32 s) {\n        require(signature_rsv.length == 65, \"INVALID_SIGNATURE_LENGTH\");\n\n        // Split a signature given as a bytes string into components.\n        assembly\n        {\n            r := mload(add(signature_rsv, 32))\n            s := mload(add(signature_rsv, 64))\n            v := and(mload(add(signature_rsv, 65)), 255)\n        }\n        if (v < 27) {\n            v += 27;\n        }\n\n        return (v, r, s);\n    }\n\n    function hash(EIP712Domain memory domain_) private pure returns (bytes32) {\n        return keccak256(abi.encode(\n            EIP712_DOMAIN_TYPEHASH,\n            keccak256(bytes(domain_.name)),\n            keccak256(bytes(domain_.version))\n        ));\n    }\n\n    function domainSeparator () private pure returns (bytes32) {\n        // makes signatures from different domains incompatible.\n        // see https://github.com/ethereum/EIPs/blob/master/EIPS/eip-712.md#arbitrary-messages\n        return hash(EIP712Domain({\n            name: \"XBR\",\n            version: \"1\"\n        }));\n    }\n\n    function hash (EIP712MemberRegister memory obj) private pure returns (bytes32) {\n        return keccak256(abi.encode(\n            EIP712_MEMBER_REGISTER_TYPEHASH,\n            obj.chainId,\n            obj.verifyingContract,\n            obj.member,\n            obj.registered,\n            keccak256(bytes(obj.eula)),\n            keccak256(bytes(obj.profile))\n        ));\n    }\n\n    function hash (EIP712CatalogCreate memory obj) private pure returns (bytes32) {\n        return keccak256(abi.encode(\n            EIP712_CATALOG_CREATE_TYPEHASH,\n            obj.chainId,\n            obj.verifyingContract,\n            obj.member,\n            obj.created,\n            obj.catalogId,\n            keccak256(bytes(obj.terms)),\n            keccak256(bytes(obj.meta))\n        ));\n    }\n\n    function hash (EIP712ApiPublish memory obj) private pure returns (bytes32) {\n        return keccak256(abi.encode(\n            EIP712_API_PUBLISH_TYPEHASH,\n            obj.chainId,\n            obj.verifyingContract,\n            obj.member,\n            obj.published,\n            obj.catalogId,\n            obj.apiId,\n            keccak256(bytes(obj.schema)),\n            keccak256(bytes(obj.meta))\n        ));\n    }\n\n    function hash (EIP712MarketCreate memory obj) private pure returns (bytes32) {\n        return keccak256(abi.encode(\n            EIP712_MARKET_CREATE_TYPEHASH,\n            obj.chainId,\n            obj.verifyingContract,\n            obj.member,\n            obj.created,\n            obj.marketId,\n            obj.coin,\n            keccak256(bytes(obj.terms)),\n            keccak256(bytes(obj.meta)),\n            obj.maker,\n            // obj.providerSecurity,\n            // obj.consumerSecurity,\n            obj.marketFee\n        ));\n    }\n\n    function hash (EIP712MarketJoin memory obj) private pure returns (bytes32) {\n        return keccak256(abi.encode(\n            EIP712_MARKET_JOIN_TYPEHASH,\n            obj.chainId,\n            obj.verifyingContract,\n            obj.member,\n            obj.joined,\n            obj.marketId,\n            obj.actorType,\n            keccak256(bytes(obj.meta))\n        ));\n    }\n\n    function hash (EIP712Consent memory obj) private pure returns (bytes32) {\n        return keccak256(abi.encode(\n            EIP712_CONSENT_TYPEHASH,\n            obj.chainId,\n            obj.verifyingContract,\n            obj.member,\n            obj.updated,\n            obj.marketId,\n            obj.delegate,\n            obj.delegateType,\n            obj.apiCatalog,\n            obj.consent,\n            keccak256(bytes(obj.servicePrefix))\n        ));\n    }\n\n    function hash (EIP712ChannelOpen memory obj) private pure returns (bytes32) {\n        return keccak256(abi.encode(\n            EIP712_CHANNEL_OPEN_TYPEHASH,\n            obj.chainId,\n            obj.verifyingContract,\n            obj.ctype,\n            obj.openedAt,\n            obj.marketId,\n            obj.channelId,\n            obj.actor,\n            obj.delegate,\n            obj.recipient,\n            obj.amount,\n            obj.timeout\n        ));\n    }\n\n    function hash (EIP712ChannelClose memory obj) private pure returns (bytes32) {\n        return keccak256(abi.encode(\n            EIP712_CHANNEL_CLOSE_TYPEHASH,\n            obj.chainId,\n            obj.verifyingContract,\n            obj.marketId,\n            obj.channelId,\n            obj.channelSeq,\n            obj.balance,\n            obj.isFinal\n        ));\n    }\n\n    /// Verify signature on typed data for registering a member.\n    function verify (address signer, EIP712MemberRegister memory obj,\n        bytes memory signature) public pure returns (bool) {\n\n        (uint8 v, bytes32 r, bytes32 s) = splitSignature(signature);\n\n        bytes32 digest = keccak256(abi.encodePacked(\n            \"\\x19\\x01\",\n            domainSeparator(),\n            hash(obj)\n        ));\n\n        return ecrecover(digest, v, r, s) == signer;\n    }\n\n    /// Verify signature on typed data for creating a catalog.\n    function verify (address signer, EIP712CatalogCreate memory obj,\n        bytes memory signature) public pure returns (bool) {\n\n        (uint8 v, bytes32 r, bytes32 s) = splitSignature(signature);\n\n        bytes32 digest = keccak256(abi.encodePacked(\n            \"\\x19\\x01\",\n            domainSeparator(),\n            hash(obj)\n        ));\n\n        return ecrecover(digest, v, r, s) == signer;\n    }\n\n    /// Verify signature on typed data for publishing an API to a catalog.\n    function verify (address signer, EIP712ApiPublish memory obj,\n        bytes memory signature) public pure returns (bool) {\n\n        (uint8 v, bytes32 r, bytes32 s) = splitSignature(signature);\n\n        bytes32 digest = keccak256(abi.encodePacked(\n            \"\\x19\\x01\",\n            domainSeparator(),\n            hash(obj)\n        ));\n\n        return ecrecover(digest, v, r, s) == signer;\n    }\n\n    /// Verify signature on typed data for creating a market.\n    function verify (address signer, EIP712MarketCreate memory obj,\n        bytes memory signature) public pure returns (bool) {\n\n        (uint8 v, bytes32 r, bytes32 s) = splitSignature(signature);\n\n        bytes32 digest = keccak256(abi.encodePacked(\n            \"\\x19\\x01\",\n            domainSeparator(),\n            hash(obj)\n        ));\n\n        return ecrecover(digest, v, r, s) == signer;\n    }\n\n    /// Verify signature on typed data for joining a market.\n    function verify (address signer, EIP712MarketJoin memory obj,\n        bytes memory signature) public pure returns (bool) {\n\n        (uint8 v, bytes32 r, bytes32 s) = splitSignature(signature);\n\n        bytes32 digest = keccak256(abi.encodePacked(\n            \"\\x19\\x01\",\n            domainSeparator(),\n            hash(obj)\n        ));\n\n        return ecrecover(digest, v, r, s) == signer;\n    }\n\n    /// Verify signature on typed data for setting consent.\n    function verify (address signer, EIP712Consent memory obj,\n        bytes memory signature) public pure returns (bool) {\n\n        (uint8 v, bytes32 r, bytes32 s) = splitSignature(signature);\n\n        bytes32 digest = keccak256(abi.encodePacked(\n            \"\\x19\\x01\",\n            domainSeparator(),\n            hash(obj)\n        ));\n\n        return ecrecover(digest, v, r, s) == signer;\n    }\n\n    /// Verify signature on typed data for opening a channel.\n    function verify (address signer, EIP712ChannelOpen memory obj,\n        bytes memory signature) public pure returns (bool) {\n\n        (uint8 v, bytes32 r, bytes32 s) = splitSignature(signature);\n\n        bytes32 digest = keccak256(abi.encodePacked(\n            \"\\x19\\x01\",\n            domainSeparator(),\n            hash(obj)\n        ));\n\n        return ecrecover(digest, v, r, s) == signer;\n    }\n\n    /// Verify signature on typed data for closing a channel.\n    function verify (address signer, EIP712ChannelClose memory obj,\n        bytes memory signature) public pure returns (bool) {\n\n        (uint8 v, bytes32 r, bytes32 s) = splitSignature(signature);\n\n        bytes32 digest = keccak256(abi.encodePacked(\n            \"\\x19\\x01\",\n            domainSeparator(),\n            hash(obj)\n        ));\n\n        return ecrecover(digest, v, r, s) == signer;\n    }\n}\n",
  "sourcePath": "/home/oberstet/scm/crossbario/xbr-protocol/contracts/XBRTypes.sol",
  "compiler": {
    "name": "solc",
    "version": "0.5.16+commit.9c3226ce.Emscripten.clang"
  },
  "schemaVersion": "3.0.23",
  "updatedAt": "2020-03-18T17:59:52.987Z",
  "devdoc": {
    "methods": {}
  },
  "userdoc": {
    "methods": {
      "verify(address,XBRTypes.EIP712ApiPublish,bytes)": {
        "notice": "Verify signature on typed data for publishing an API to a catalog."
      },
      "verify(address,XBRTypes.EIP712CatalogCreate,bytes)": {
        "notice": "Verify signature on typed data for creating a catalog."
      },
      "verify(address,XBRTypes.EIP712ChannelClose,bytes)": {
        "notice": "Verify signature on typed data for closing a channel."
      },
      "verify(address,XBRTypes.EIP712ChannelOpen,bytes)": {
        "notice": "Verify signature on typed data for opening a channel."
      },
      "verify(address,XBRTypes.EIP712Consent,bytes)": {
        "notice": "Verify signature on typed data for setting consent."
      },
      "verify(address,XBRTypes.EIP712MarketCreate,bytes)": {
        "notice": "Verify signature on typed data for creating a market."
      },
      "verify(address,XBRTypes.EIP712MarketJoin,bytes)": {
        "notice": "Verify signature on typed data for joining a market."
      },
      "verify(address,XBRTypes.EIP712MemberRegister,bytes)": {
        "notice": "Verify signature on typed data for registering a member."
      }
    },
    "notice": "The `XBR Types <https://github.com/crossbario/xbr-protocol/blob/master/contracts/XBRTypes.sol>`__ library collect XBR type definitions used throughout the other XBR contracts."
  }
}